:100000000C94A7000C9425010C9466010C94C40078
:100010000C94C4000C94C4000C94C4000C94F9011A
:100020000C94C4000C94C4000C94C4000C94C40040
:100030000C94C4000C94C4000C94C4000C94C40030
:100040000C94C4000C94C4000C94C4000C94C40020
:100050000C94C40000407A10F35A00A0724E1809A4
:100060000010A5D4E80000E87648170000E40B541F
:10007000020000CA9A3B000000E1F50500008096EE
:100080009800000040420F000000A0860100000020
:10009000102700000000E8030000000064000000DA
:1000A00000000A00000000000100000000002C76A3
:1000B000D888DC674F0823DFC1DFAE59E1B1B796BE
:1000C000E5E3E453C63AE651997696E8E6C284261B
:1000D000EB898C9B62ED407C6FFCEFBC9C9F40F2F7
:1000E000BAA56FA5F490055A2AF75C936B6CF96773
:1000F0006DC11BFCE0E40D47FEF520E6B500D0ED38
:10010000902E0300943577050080841E080000209F
:100110004E0A000000C80C333333330F986E12833D
:100120001141EF8D2114893BE65516CFFEE6DB1811
:10013000D1844B381BF77C1D901DA4BBE4242032D6
:1001400084725E228100C9F124ECA1E53D271124CF
:100150001FBECFE5D8E0DEBFCDBF10E0A0E6B0E027
:10016000ECE8FEE402C005900D92A83DB107D9F776
:1001700027E0A8EDB0E001C01D92AB36B207E1F771
:100180000E9438200C9444270C940000CF93DF93F6
:1001900000D0CDB7DEB70E9430179A8389830E94C2
:1001A00080048BE890E00E945D046DEC7CEC8CE8B0
:1001B00090E40E948C0484E990E00E945D0480EC4D
:1001C0000E94A10386E990E00E945D0463E373E36B
:1001D00083E590E40E948C0464E670E0CE01019611
:1001E0000E941319DCCFCF93DF931F92CDB7DEB7F8
:1001F0004FEF5FEFBE016F5F7F4F80915F07909180
:1002000060070E947E0C882399F38981813081F7F1
:100210000E948603EDCFCF93DF931F92CDB7DEB759
:100220004FEF5FEFBE016F5F7F4F80915F0790914F
:1002300060070E947E0C882399F38981823081F7C0
:100240000E948B03EDCFFFCFFFCF1F920F920FB60F
:100250000F9211242F933F934F935F936F937F934C
:100260008F939F93AF93BF93EF93FF93CF93DF93BE
:1002700000D0CDB7DEB78C9A949A1A8281E0898338
:1002800020E0AE014E5F5F4FBE016F5F7F4F8091F8
:100290005F07909160070E941A0C8A8181110E9469
:1002A000B1090F900F90DF91CF91FF91EF91BF9126
:1002B000AF919F918F917F916F915F914F913F91FE
:1002C0002F910F900FBE0F901F9018951F920F92B5
:1002D0000FB60F9211242F933F934F935F936F9319
:1002E0007F938F939F93AF93BF93EF93FF93CF939E
:1002F000DF9300D0CDB7DEB71A8282E0898320E099
:10030000AE014E5F5F4FBE016F5F7F4F80915F0711
:10031000909160070E941A0C8A8181110E94B10994
:100320000F900F90DF91CF91FF91EF91BF91AF911F
:100330009F918F917F916F915F914F913F912F91FD
:100340000F900FBE0F901F901895EF92FF920F9392
:1003500040E061E085E00E94590B90936007809334
:100360005F0785E6E82E87E0F82E03E030E020E026
:1003700048EC60EA70E083EF90E00E947C1499E61C
:10038000E92E97E0F92E30E020E048EC6EEA70E0CC
:100390008BE091E00E947C1421E6E22E27E0F22E11
:1003A00001E030E020E040E86AEB70E086EC90E0AD
:1003B0000E947C140F91FF90EF900C94D5161FBCF7
:1003C00088E08EBD89E698E19BBD8ABD80E189BF4A
:1003D000789408958EB583608EBD08958EB5887F1C
:1003E0008EBD0895009721F09093D9008093D80096
:1003F00008951F920F920FB60F9211242F933F93DF
:100400004F935F936F937F938F939F93AF93BF931C
:10041000EF93FF93E091D800F091D900309709F065
:100420000995FF91EF91BF91AF919F918F917F912E
:100430006F915F914F913F912F910F900FBE0F9051
:100440001F9018959B01AC01C901BA010895DC0108
:10045000ED91FC9160830895DC011296ED91FC9181
:1004600060830895DC011296ED91FC9180810895DE
:10047000DC011296ED91FC91808121E030E001C019
:10048000220F6A95EAF7822B80830895DC01129689
:10049000ED91FC91208181E090E001C0880F6A9588
:1004A000EAF78095822380830895DC011296ED910E
:1004B000FC91208181E090E0062E02C0880F991FF8
:1004C0000A94E2F730E08223932302C09595879542
:1004D0006A95E2F708950F931F93CF93DF93C0E6D9
:1004E000D0E001E010E0E881F9810190F081E02D99
:1004F0008B818130D1F48A81980102C0220F331F91
:100500008A95E2F720832C816A8188819981213044
:1005100071F40E943802259630E0CE37D30719F7E0
:10052000DF91CF911F910F9108951082ECCF0E941F
:100530004602F1CF96B1987F96B98031C1F040F470
:10054000843079F0883079F08230C9F4309A089597
:10055000803479F0803881F0803289F486B185600A
:1005600004C0319A089586B1836086B90895329A9D
:10057000089586B18660F9CF86B18760F6CF86B1DF
:10058000887FF3CF97B19F7397B93E9A811104C0CA
:1005900087B18F7387B90895813011F43E9A089519
:1005A0008330E1F787B1806CF5CFCF93C62F379AB0
:1005B0000E949A028C2F0E94C2023D98CF9108950A
:1005C00097B1907E97B9883030F5E82FF0E0E5518B
:1005D000FD4F0C948E200B03F302FA02FC02000381
:1005E000020305030803389A369A349BFECF84B180
:1005F00095B10895399AF8CF87B1836087B9F4CF60
:100600003A9AF2CF87B18560F9CF87B18660F6CF8D
:1006100087B18760F3CF87B1807EF0CFBC0190E0D7
:1006200080E00E94062120E030EC4FE754E40E9475
:10063000942020E030E040EA50E40E9494210895A4
:100640008091DC009091DD0001969093DD00809315
:10065000DC0008950F931F93CF93DF93CDB7DEB7E0
:10066000A0970FB6F894DEBF0FBECDBF80E895E22D
:100670000E94AF040E9420032091DC003091DD0035
:100680008091DA009091DB0028173907F9F4109275
:10069000DD001092DC0080E00E94E0029F938F93C7
:1006A00089EC90E09F938F931F9280E28F938E014D
:1006B0000F5F1F4F1F930F930E942822C8010E94B3
:1006C000C5040FB6F894DEBF0FBECDBFA0960FB61F
:1006D000F894DEBF0FBECDBFDF91CF911F910F9178
:1006E00008950E94DF018AE293E00C94F2010C94D9
:1006F000EA010C94EE0122E330E040E050E00E9479
:100700004D203093DB002093DA000895A198A9983A
:10071000A09AA89A0895A898A098A19AA99A08952D
:1007200081B3837F81BB82B38C6082BB85B78A60D3
:1007300085BF85B78A7F85BF8BB7806C8BBF789468
:100740000895CF93C82F86E890E00E9432028F7000
:100750006C2F607F682B86E890E00E942C0260E09E
:1007600082E890E00E94460261E082E890E00E9408
:10077000380282E08A95F1F700C061E082E890E0FB
:100780000E9446028FE891E00197F1F700C0000057
:1007900086E890E00E9432028F7090E1C99FB0011C
:1007A0001124682B86E890E00E942C0261E082E828
:1007B00090E00E94380282E08A95F1F700C061E083
:1007C00082E890E00E9446028FE99FE00197F1F7EE
:1007D00000C00000CF910895CF93C82F86E890E025
:1007E0000E9432028F706C2F607F682B86E890E049
:1007F0000E942C0260E082E890E00E94380261E0F2
:1008000082E890E00E94380282E08A95F1F700C009
:1008100061E082E890E00E9446028FE891E0019753
:10082000F1F700C0000086E890E00E9432028F706D
:1008300090E1C99FB0011124682B86E890E00E94E6
:100840002C0261E082E890E00E94380282E08A9502
:10085000F1F700C061E082E890E00E9446028FE973
:100860009FE00197F1F700C00000CF91089560EF7D
:1008700086E890E00E94270263E082E890E00E9410
:1008800027028FE39CE90197F1F700C0000082E0A6
:100890000E94A10388E20E94A1038CE00E94A103B0
:1008A00086E00E94A10381E00E94A1038FE99FE0FE
:1008B0000197F1F700C000000895CF93DF93EC019A
:1008C0008991811103C0DF91CF9108950E94EC03BB
:1008D000F7CFCF93DF93EA01811109C0862F80689B
:1008E000603158F0CE01DF91CF910C945D048130DE
:1008F000C9F76031B8F7862F806C0E94A103F2CF50
:1009000081E00E94A1038FE99FE00197F1F700C009
:10091000000080E80C94A1030F931F93CF93DF9303
:10092000CDB7DEB72A970FB6F894DEBF0FBECDBFA6
:100930008E010F5F1F4F22E030E044E050E00E9444
:100940000122C8010E945D042A960FB6F894DEBF0A
:100950000FBECDBFDF91CF911F910F9108959C01E4
:1009600050E040E060E271EA87E090E00E946F2092
:100970002150310930BD29B988E08AB986E880BDA7
:1009800008955D9BFECF8CB90895CF93DF93EC0162
:100990008991811103C0DF91CF9108950E94C10414
:1009A000F7CFCF92DF92EF92FF921F93CF93DF9317
:1009B0006C01162FF42E8AE190E00E943808EC01B9
:1009C0008FEF209709F456C08091E5009091E600E2
:1009D000892B21F5D093E600C093E50086E091E0F5
:1009E0000E9484088FE091E00E9484088DEF90E0DF
:1009F0000E94840884EF90E00E94840887EE90E0D3
:100A00000E9484088DEF90E09093F3008093F200B1
:100A100084EF90E09093F1008093F000111111E0C9
:100A2000198E188E1E8BFF8AFE01C192D1927F0112
:100A3000CF010E949208CE010C960E949208D9879D
:100A4000C887DB8BCA8B82E090E0811B91099D8770
:100A50008C878E899091E400981710F48093E400BD
:100A6000F9E08F9FC0011124B7018A5F9E4F0E9459
:100A7000960881E0DF91CF911F91FF90EF90DF907A
:100A8000CF9008950F931F93CF93DF938B01C09165
:100A9000E200D091E300C80FD91F8091E50090914A
:100AA000E60002960E94EC086091E5007091E60075
:100AB000FB01D383C2838091E2009091E3006E5FDB
:100AC0007F4FC817D907B0F48091F0009091F100E2
:100AD0000E94B6080115110591F06091E500709132
:100AE000E600645F7F4FC801DF91CF911F910F91A6
:100AF0000C94B6088091F2009091F300E9CFDF9159
:100B0000CF911F910F910895FF920F931F93CF9351
:100B1000DF938091F2009091F300892B09F444C097
:100B200099E0F92E8091E700811144C00E943017AE
:100B30002091E0003091E100821B930B9093DF0045
:100B40008093DE0089E0F82E2091DE003091DF00F6
:100B50008091E2009091E3002115310509F04CC02D
:100B60009093E1008093E0008091E400282F30E032
:100B700099E0929FF001939FF00D1124EA5FFE4FE0
:100B8000408141118DC0882369F08150282F30E0C9
:100B9000929FF001939FF00D1124EA5FFE4F908128
:100BA00091117EC08093E400DF91CF911F910F914E
:100BB000FF900895F894E091EC00F091ED00C6816B
:100BC000D781CE010C960E94EC0878948E010E5FBE
:100BD0001F4FC8010E94EC088E899091E40098177D
:100BE00010F48093E4008F9DC0011124B8018A5F46
:100BF0009E4F0E94960896CF01969093E3008093B3
:100C0000E200215031093093DF002093DE00892B70
:100C100081F48091F2009091F3002091F0003091E6
:100C2000F1003093F3002093F2009093F100809351
:100C3000F000E091F200F091F3002091E200309199
:100C4000E3008081882309F47FCF0580F681E02DC1
:100C5000C681D7818A819B812817390708F474CF10
:100C6000F8948E010E5F1F4FC8010E94EC088C891A
:100C70009D89892B21F0CE010C960E94EC08789476
:100C80008E899091E400981710F48093E4008F9D72
:100C9000C0011124B8018A5F9E4F0E949608C9CFF7
:100CA0008093E40049E0429FC001439F900D1124CE
:100CB000FC01EA5FFE4FA181B28112964D915C91D9
:100CC00052834183875F9E4F4817590721F48581DE
:100CD00096819283818389E0829FF001839FF00D4A
:100CE0001124EA5FFE4F0180F281E02D8681978119
:100CF0009093E6008093E500DC01ED91FC91119763
:100D000057966C91DF91CF911F910F91FF900994AD
:100D10000F931F93CF93DF93DC011596ED91FC9118
:100D2000C681D7818E01045F1F4FC8010E94EC0865
:100D3000B80187EE90E00E949608E091E500F091FE
:100D4000E60081E02E899689291708F480E0DF917A
:100D5000CF911F910F9108951092F3001092F2001D
:100D60001092F1001092F0001092E6001092E5004F
:100D70001092E4001092E3001092E2001092E10061
:100D80001092E0001092DF001092DE000895CF93E1
:100D9000DF938BE090E00E943808EC01009731F07F
:100DA000FC0111921192CF010E948408CE01DF91C3
:100DB000CF910895AF92BF92CF92DF92EF92FF92C0
:100DC0000F931F93CF93DF936C017B01B42EA22E60
:100DD0000E942A17F601C081D181CE018E219F2168
:100DE000A11040C0892B09F041C00115110589F0FF
:100DF00070E060E0BB2011F060E071E0A110746071
:100E00006E297F29A801C60102960E941F1AD0E010
:100E1000C0E00E944618012BC9F0811102C00E9457
:100E2000B1090E94EF1B91FD0FC00FB6F8940F920D
:100E3000F60180819181970128233923A11023C0D5
:100E4000232B21F50F900FBEEC01DD27CE01DF91A2
:100E5000CF911F910F91FF90EF90DF90CF90BF90B7
:100E6000AF900895E816F90609F0BFCFBB2041F016
:100E7000C701809590958C239D23F60191838083F3
:100E800010E000E0C6CFE216F306E1F6BB20D1F297
:100E9000E094F094E822F922F601F182E082D2CFC8
:100EA000FC010FB6F8940F92808191816095709546
:100EB00068237923718360830F900FBE0895FC012E
:100EC000808191810895CF92DF92EF92FF920F93EC
:100ED0001F93CF93DF93EC018B017C0185E0E80E3B
:100EE000F11C0E942A17EF81F88568817981602BB7
:100EF000712B7983688310E000E068817981EE15B9
:100F0000FF0599F40095109506231723198308838C
:100F10000E94461888819981DF91CF911F910F918E
:100F2000FF90EF90DF90CF900895C280D380208112
:100F30003181C9019927AC014623572332FD04C0F2
:100F4000452B29F4F601D9CF84179507D9F730FF3F
:100F500002C0082B192B7260CF010E94091BF2CF2F
:100F6000AF92BF92CF92DF92EF92FF920F931F93B7
:100F7000CF93DF937C01EB018A0169010E942A175C
:100F8000F701A080B180BE01C7010E946307CA2992
:100F9000DB29CE01802391238017910709F03BC004
:100FA000F7018081918198012095309582239323C8
:100FB00091838083D12CC12C0E944618CD28F9F052
:100FC000811102C00E94B1090E94EF1B91FD15C062
:100FD0000FB6F8940F92F701808191819801282330
:100FE00039232017310739F4A8014095509548233B
:100FF0005923518340830F900FBEEC01DD27CE01B2
:10100000DF91CF911F910F91FF90EF90DF90CF90E4
:10101000BF90AF900895C114D10451F0A601B8015A
:101020007560C70102960E941F1AD0E0C0E0C4CFCD
:10103000F701C081D181C0CFCF93DF93EC010E9433
:101040002A178A81811107C00E944618CE01DF91BC
:10105000CF910C94700860E072E08F8198850E94B7
:10106000091BEFCFBA010C946307BA010C94500727
:101070000F931F93CF93DF938C010E942A178091C7
:10108000180190911901892B31F48CE191E0909332
:1010900019018093180101151105F9F020911A0129
:1010A00030911B01020F131F0B3D85E01807A8F4B8
:1010B0002017310790F4C0911801D0911901C20F87
:1010C000D31F10931B0100931A010E944618CE01F2
:1010D000DF91CF911F910F910895D0E0C0E0F5CF3F
:1010E000089510921B0110921A01089520911A017F
:1010F00030911B018BED95E0821B930B08951092AC
:101100001B0110921A010895FC01039692838183BA
:101110002FEF3FEF348323839683858390878783E4
:1011200010820895FC01118610860895CF93DF93F5
:101130009C01FB01DC011196CD91DC91D383C2832C
:101140008C819D81958384838C819D81DC011396A4
:101150007C936E9312977D836C8331872087F9018E
:1011600080818F5F8083DF91CF9108950F931F93CC
:10117000CF93DF938C01FB0180819181D80113967D
:101180008F3F9807F1F4E801AF81B88512968D91F1
:101190009C91139793838283EC01FD83EC83B58349
:1011A000A4831396FC93EE93129711870087F8019E
:1011B00080818F5F8083DF91CF911F910F91089580
:1011C000D90112962D913C911397E90148815981DB
:1011D00084179507A8F7DACFCF93DF93FC01A0859A
:1011E000B1858281938124813581EC013D832C83FB
:1011F000C481D5819B838A8311968D919C9112978E
:101200008E179F0721F41296DC93CE9311971186C7
:1012100010868C9181508C93DF91CF91089531E1AC
:10122000FC013083319722E220833197A3E3A0832E
:10123000319760833197708331971082319760E8DE
:10124000608331971082319762E06083319763E069
:101250006083319764E06083319765E06083319704
:1012600066E06083319767E06083319768E0608370
:10127000319769E06083319760E160833197308313
:10128000319732E13083319733E13083319734E164
:101290003083319735E13083319736E130833197B0
:1012A00037E13083319738E13083319739E130834A
:1012B000319730E23083319731E2308331972083A8
:1012C000319723E2208331974083319750833197C0
:1012D00026E22083319727E22083319728E220837A
:1012E000319729E22083319720E32083319721E34E
:1012F0002083869708951BBC8CE78ABD8BE08EBD4A
:1013000089B7806189BFA0915D07B0915E07CD91DB
:10131000CDBFDD91DEBFFF91EF91DF91CF91BF9106
:10132000AF919F918F917F916F915F914F913F917D
:101330002F911F910F91FF90EF90DF90CF90BF9072
:10134000AF909F908F907F906F905F904F903F9065
:101350002F901F900F900FBE0F90089581E0089579
:1013600008950F920FB6F8940F921F9211242F92A6
:101370003F924F925F926F927F928F929F92AF9225
:10138000BF92CF92DF92EF92FF920F931F932F9312
:101390003F934F935F936F937F938F939F93AF93FD
:1013A000BF93CF93DF93EF93FF93A0915D07B0912D
:1013B0005E070DB60D920EB60D920E947319A091A4
:1013C0005D07B0915E07CD91CDBFDD91DEBFFF918E
:1013D000EF91DF91CF91BF91AF919F918F917F91CD
:1013E0006F915F914F913F912F911F910F91FF90BE
:1013F000EF90DF90CF90BF90AF909F908F907F90B5
:101400006F905F904F903F902F901F900F900FBE66
:101410000F9008950F920FB6F8940F921F92112417
:101420002F923F924F925F926F927F928F929F92F4
:10143000AF92BF92CF92DF92EF92FF920F931F93E2
:101440002F933F934F935F936F937F938F939F93CC
:10145000AF93BF93CF93DF93EF93FF93A0915D077B
:10146000B0915E070DB60D920EB60D920E944A170E
:1014700081110E947319A0915D07B0915E07CD9113
:10148000CDBFDD91DEBFFF91EF91DF91CF91BF9195
:10149000AF919F918F917F916F915F914F913F910C
:1014A0002F911F910F91FF90EF90DF90CF90BF9001
:1014B000AF909F908F907F906F905F904F903F90F4
:1014C0002F901F900F900FBE0F9008950FB6F894B5
:1014D0000F92FC01928D0F900FBE81E0911180E080
:1014E00008950F931F93CF93DF93EC01042F1A8D70
:1014F0004C8D4423C1F050E001111DC08A819B81B5
:101500000E941F228C8D2A813B81820F932F911D77
:101510009B838A832C813D818217930720F08881E9
:1015200099819B838A831F5F1A8F80E0DF91CF911F
:101530001F910F9108958E819F810E941F228C8D93
:1015400090E09195819591092E813F81280F391F57
:101550003F832E83488159812417350730F42C812D
:101560003D81820F931F9F838E830230E1F611230A
:10157000D1F21150D8CFFC01CB01448D4423A1F00E
:1015800050E026813781240F351F378326836481FD
:1015900075812617370720F0208131813783268314
:1015A000668177810C941F220895EF92FF921F931A
:1015B000CF93DF93EC010FB6F8940F921E8D7C0150
:1015C00081E1E80EF11C1116C4F08FEF8E8F0F90A1
:1015D0000FBE0FB6F8940F921D8D7E0188E0E80EC5
:1015E000F11C1116ACF08FEF8D8F0F900FBEDF91B5
:1015F000CF911F91FF90EF9008958989882329F357
:10160000C7010E94641A81110E94DC1B1150DBCFBC
:101610008885882341F3C7010E94641A81110E94C2
:10162000DC1B1150DECFCF93DF93009709F43FC04E
:10163000FC01238D222309F43AC0EC01448D0FB63E
:10164000F8940F9280819181FC01249FE00DF11D9F
:101650001124FD83EC831A8E9B838A832150330BE4
:10166000429FF001439FF00D11248E0F9F1F9F8317
:101670008E838FEF8D8F8E8F611110C088858823A8
:1016800039F0CE0108960E94641A81110E94B109B6
:101690000F900FBE81E0DF91CF910895CE010896A3
:1016A0000E948408CE0141960E948408F1CF80E018
:1016B000F2CF0F931F93CF93DF93811108C0D0E037
:1016C000C0E0CE01DF91CF911F910F910895869FC9
:1016D00090011124213E310594F7162F082FC901DE
:1016E0004F960E943808EC01009749F3111109C088
:1016F000998388830B8F1C8F61E0CE010E94130BAE
:10170000E0CF4F9699838883F5CFAF92BF92CF9267
:10171000DF92FF920F931F93CF93DF9300D000D0FF
:101720001F92CDB7DEB78C016B015D834C83F22E27
:1017300080E0580198E0A90EB11C0FB6F8940F9202
:10174000F801228D938D291718F0F2E0FF1222C0C4
:101750004F2DB601C8010E94710AF80191899923A1
:1017600021F0C80141960E94641A81110E94B109BA
:101770000F900FBE81E00F900F900F900F900F9081
:10178000DF91CF911F910F91FF90DF90CF90BF908D
:10179000AF9008952C813D81232B21F40F900FBE33
:1017A00080E0E9CF811104C0CE0101960E94A01B08
:1017B0000F900FBE0E942A170FB6F8940F92F801EF
:1017C000858D8F3F09F4158EF801868D8F3F09F4C2
:1017D000168E0F900FBEBE016C5F7F4FCE0101963B
:1017E0000E94AB1B811120C00FB6F8940F92F80134
:1017F000928D0F900FBE838D981310C06C817D81E8
:10180000C5010E940E1AC8010E94D50A0E944618FE
:10181000811102C00E94B10981E08FCFC8010E94EE
:10182000D50A0E944618F8CFC8010E94D50A0E9426
:101830004618B6CFEF92FF921F93CF93DF93EC0140
:101840009A8D8B8D981718F080E02230D1F47A01B0
:101850001E8D8A8D422FCE010E94710A1F3FB9F45E
:101860008989811102C081E00CC0CE0141960E949D
:10187000641A8823C1F3E114F104A9F381E0F701AC
:101880008083DF91CF911F91FF90EF9008950E9488
:101890003F17181740F71F5F1E8FE5CFEF92FF929B
:1018A0001F93CF93DF93EC018A8D9B8D891720F5D1
:1018B0007B011E8D8F5F8A8F1F3FB9F4898981114B
:1018C00002C081E00CC0CE0141960E94641A8823B8
:1018D000C1F3E114F104A9F381E0F7018083DF9102
:1018E000CF911F91FF90EF9008950E943F17181716
:1018F00040F71F5F1E8FE5CF80E0F1CFAF92BF9220
:10190000CF92DF92FF920F931F93CF93DF9300D07C
:1019100000D01F92CDB7DEB78C016B015D834C8385
:1019200080E0580191E1A90EB11C0FB6F8940F9216
:10193000F801F28CFF2019F1B601C8010E94BB0A20
:10194000FA94F801F28E8085882339F0C801089650
:101950000E94641A81110E94B1090F900FBE81E0AC
:101960000F900F900F900F900F90DF91CF911F91DC
:101970000F91FF90DF90CF90BF90AF9008952C8192
:101980003D81232B21F40F900FBE80E0E9CF811120
:1019900004C0CE0101960E94A01B0F900FBE0E94B2
:1019A0002A170FB6F8940F92F801858D8F3F09F42E
:1019B000158EF801868D8F3F09F4168E0F900FBE9D
:1019C000BE016C5F7F4FCE0101960E94AB1B81115F
:1019D0001BC0C8010E94660A882381F06C817D814A
:1019E000C5010E940E1AC8010E94D50A0E9446181D
:1019F000811102C00E94B10981E097CFC8010E9405
:101A0000D50A0E944618F8CFC8010E94D50A0E9444
:101A10004618C8010E94660A882371F3B6CFEF9278
:101A2000FF920F931F93CF93DF9300D000D01F92AC
:101A3000CDB7DEB78C017D836C8390E0780181E1C6
:101A4000E80EF11C0FB6F8940F92F801828D8823EE
:101A5000D9F08150828F8085882339F0C80108969B
:101A60000E94641A81110E94B1090F900FBE81E09B
:101A70000F900F900F900F900F90DF91CF911F91CB
:101A80000F91FF90EF9008952C813D81232B21F43D
:101A90000F900FBE80E0ECCF911104C0CE010196F3
:101AA0000E94A01B0F900FBE0E942A170FB6F89439
:101AB0000F92F801858D8F3F09F4158EF801868D00
:101AC0008F3F09F4168E0F900FBEBE016C5F7F4FE3
:101AD000CE0101960E94AB1B81111BC0C8010E9460
:101AE000660A882381F06C817D81C7010E940E1AED
:101AF000C8010E94D50A0E944618811102C00E94A6
:101B0000B10991E09FCFC8010E94D50A0E944618F2
:101B1000F8CFC8010E94D50A0E944618C8010E9449
:101B2000660A882371F3B6CFCF92DF92EF92FF92CD
:101B30000F931F93CF93DF9300D000D01F92CDB7A8
:101B4000DEB78C017B015D834C8380E0680191E10D
:101B5000C90ED11C0FB6F8940F92F801928D9923FB
:101B600021F1C680D780B701C8010E94BB0AF801E5
:101B7000D782C6828189882339F0C80141960E94A4
:101B8000641A81110E94B1090F900FBE81E00F907D
:101B90000F900F900F900F90DF91CF911F910F91A9
:101BA000FF90EF90DF90CF9008952C813D81232B03
:101BB00021F40F900FBE80E0EACF811104C0CE0166
:101BC00001960E94A01B0F900FBE0E942A170FB60D
:101BD000F8940F92F801858D8F3F09F4158EF80166
:101BE000868D8F3F09F4168E0F900FBEBE016C5F7D
:101BF0007F4FCE0101960E94AB1B81111BC0C80113
:101C00000E94660A882381F06C817D81C6010E9452
:101C10000E1AC8010E94D50A0E944618811102C0FE
:101C20000E94B10981E096CFC8010E94D50A0E94A6
:101C30004618F8CFC8010E94D50A0E944618C8016C
:101C40000E94660A882371F3B6CFEF92FF920F933A
:101C50001F93CF93DF93FC01028D002341F17A01A2
:101C6000EC01158D0E94BB0A01500A8F1F3FC1F481
:101C70008885811102C081E00CC0CE0108960E94C7
:101C8000641A8823C1F3E114F104A9F381E0F70198
:101C90008083DF91CF911F910F91FF90EF90089576
:101CA0000E943F17181738F71F5F1D8FE4CF80E0A1
:101CB000F0CF0F931F93CF93DF93FC01228D22234C
:101CC00069F0EC01068117810E94BB0A1F830E8315
:101CD00081E0DF91CF911F910F91089580E0F9CFBE
:101CE0000FB6F8940F92FC01828D0F900FBE0895ED
:101CF0000FB6F8940F92FC01228D0F900FBE838DCA
:101D0000821B0895FC01828D08950C947008FC01DB
:101D1000848D0895FC01838D0895FC01928D81E0EE
:101D2000911180E00895FC01928D81E0238D2913AB
:101D300080E00895CF93DF93EC01F8940FB6F89408
:101D40000F928A8D9B8D0F900FBE891311C0411584
:101D5000510559F0BE01685F7F4FCA010E944205DC
:101D600078948CEFDF91CF910895789480E0FACF4A
:101D70007894F8948A8D891790F440E0CE010E94FF
:101D8000710A8989811103C081E07894EBCFCE017B
:101D900041960E9488068823B9F38BEFF6CF80E046
:101DA000F4CFCF93DF93EC01FB01F8948A8D81117E
:101DB00011C04115510559F0BE016F5E7F4FCA0138
:101DC0000E94420578948CEFDF91CF91089578942A
:101DD00080E0FACF7894F8948A8D882339F14C8D7D
:101DE00050E02E813F81240F351F3F832E838C814D
:101DF0009D812817390720F0888199819F838E83E0
:101E00009A8D91509A8F6E817F81CF010E941F22FF
:101E10008885811103C081E07894D6CFCE010896E1
:101E20000E9488068823B9F38BEFF6CF80E0F4CFC9
:101E30001F93CF93DF93EC01142F9A8D8B8D9817FE
:101E400088F440E0CE010E94710A11110BC089890B
:101E5000882341F0CE0141960E94880611E081114D
:101E600001C010E0812FDF91CF911F9108950F9352
:101E70001F93CF93DF93EC018A8D882391F12C8DF2
:101E800030E0AE81BF81A20FB31FBF83AE838C81D0
:101E90009D81A817B90720F0888199819F838E833F
:101EA0008A01CB014A8D41504A8F6E817F81A90101
:101EB0000E941F22F8018081882331F081E0DF91A8
:101EC000CF911F910F91089588858823B9F3CE0192
:101ED00008960E948806882389F381E0F8018083B0
:101EE000EECF80E0ECCFFC0144815581228133812B
:101EF000240F351F80819181B901681B790BCB01BB
:101F00006417750710F0841B950B0895AF92BF926C
:101F1000CF92DF92EF92FF920F931F93CF93DF93B5
:101F20006C015B017A01E901FC0104811581021B4E
:101F3000130B4017510708F48A01F6018485958533
:101F4000A801B5018C0F9D1F0E941F220E151F05B1
:101F500058F4A701401B510BB501600F711FF6012A
:101F6000848595850E941F22CE018E0D9F1DF6014E
:101F7000248135818217930710F0821B930BDF9128
:101F8000CF911F910F91FF90EF90DF90CF90BF9076
:101F9000AF900895AF92BF92CF92DF92EF92FF92EF
:101FA0000F931F93CF93DF9300D0CDB7DEB76C01B3
:101FB0005B017A01FC0182819381468540FF28C044
:101FC000FA82E9822017310740F19C0142E050E09B
:101FD000BE016F5F7F4FC6010E94860FE114F104BE
:101FE00049F09C01A701B501C6010E94860FF601C8
:101FF00093838283C7010F900F90DF91CF911F9140
:102000000F91FF90EF90DF90CF90BF90AF90089529
:102010002E153F0518F77901E1CFF12CE12CEACF1D
:10202000AF92BF92CF92DF92EF92FF920F931F93E6
:10203000CF93DF936C015B017A01E901FC0104811C
:102040001581021B130B4017510708F48A01F60192
:10205000648575856C0F7D1FA801C5010E941F2234
:102060000E151F0558F4A701401B510BF60164859E
:102070007585C501800F911F0E941F22CE018E0D14
:102080009F1DF601248135818217930710F0821B72
:10209000930BDF91CF911F910F91FF90EF90DF9005
:1020A000CF90BF90AF900895AF92BF92CF92DF9242
:1020B000EF92FF920F931F93CF93DF9300D0CDB792
:1020C000DEB77C015B016A018901FC01208131815D
:1020D000868580FF12C042E050E0BE016F5F7F4FF7
:1020E000C7010E9410109C0189819A810250110938
:1020F000C816D906F8F4D12CC12CC016D10608F4A4
:1021000086010115110541F0A801B501C7010E9422
:102110001010F70191838083C8010F900F90DF9119
:10212000CF911F910F91FF90EF90DF90CF90BF90D4
:10213000AF9008956C01E1CFEF92FF921F93CF9380
:10214000DF93EC017B0111E0413021F010E04230DF
:1021500009F414E0E114F10419F4EE24E394F12CF1
:10216000F0E0E0E0CF3E8FEFD807B8F4CE01419623
:102170000E943808FC01892B81F08CE0DF011D9260
:102180008A95E9F7CF014096958784872196D58374
:10219000C483F782E68216871786CF01DF91CF913D
:1021A0001F91FF90EF900895FC01268521FF0C946C
:1021B000700820E111922A95E9F70895FC010FB605
:1021C000F8940F9280859185892BB1F4828593854F
:1021D000892B91F486819781248135814CE0DF0140
:1021E0001D924A95E9F73583248397838683178662
:1021F00081E00F900FBE089580E0FBCFFC01808549
:102200009185892BA1F482859385892B81F4868120
:102210009781248135814CE0DF011D924A95E9F7D1
:102220003583248397838683178681E0089580E031
:1022300008956115710511F461E070E0FC012481DD
:1022400035816217730720F47783668381E00895F0
:1022500080E00895FC012481358180819181608135
:10226000718142815381A081B181A817B907A9F773
:10227000C9010197860F971F841B950B821793073F
:1022800010F0821B930B08950C94730F2F923F92C2
:102290004F925F926F927F928F929F92AF92BF9276
:1022A000CF92DF92EF92FF920F931F93CF93DF9322
:1022B00000D000D01F92CDB7DEB75C011B012A0110
:1022C0003D832C83FC0184819581019726854A01F9
:1022D00020FF54C0F2E08F0E911C8815990510F470
:1022E0001D821C828C819D81892B09F04DC0C50106
:1022F0000E942A113C0184019301A201B101C50190
:102300000E94CA0F4C01892B01F1C5010E94730F75
:10231000F5012681378182179307B8F00E942A17AA
:10232000F50180859185892B71F080859185F12C4F
:10233000E12C00E020E030E0A90167850E943F1D0C
:10234000F501118610860E944618C4010F900F9067
:102350000F900F900F90DF91CF911F910F91FF90F1
:10236000EF90DF90CF90BF90AF909F908F907F9035
:102370006F905F904F903F902F900895841795072E
:1023800008F0B0CF4C01AECFCE0101960E94901B59
:102390000FB6F8940F92C5010E942A113C018815CE
:1023A000990558F5F501678590E080E00E94D31FFC
:1023B0000E94E01BF501938782870F900FBECC80AF
:1023C000DD80F12CE12C00E010E0980140E050E0CD
:1023D000BA0187850E94881CF50113861286BE010A
:1023E0006C5F7F4FCE0101960E94AB1B882381F268
:1023F0006114710409F47BCF7ECF0F900FBEF8CF2C
:10240000AF92BF92CF92DF92EF92FF920F931F9302
:10241000CF93DF93EC015B017A0169018E858A011C
:1024200080FF02C00E5F1F4FCE010E942A119C0147
:10243000A701B501CE010E94CA0F5C01892BC9F02A
:10244000CE010E94730F2E813F818217930788F07F
:1024500088859985892B69F088859985F12CE12CEF
:1024600000E020E030E0A9016F850E941F1E198660
:102470001886C501DF91CF911F910F91FF90EF90CA
:10248000DF90CF90BF90AF9008956F927F928F9220
:102490009F92AF92BF92CF92DF92EF92FF920F93F3
:1024A0001F93CF93DF93EC014B013A0169018E85B5
:1024B00080FD47C0B12CA12C82FF02C0AE80BF803E
:1024C000C114D10429F10FB6F8940F92CE010E94E5
:1024D000730F8C01A816B90648F06F8590E080E074
:1024E0000E94D31F0E94E01B998788870F900FBE20
:1024F000A016B10650F1F12CE12C00E010E098019B
:1025000040E050E0BA018F850E94881C1986188629
:10251000CE010E94730F8C01A816B906B0F0B12C41
:10252000A12CC501DF91CF911F910F91FF90EF90EA
:10253000DF90CF90BF90AF909F908F907F906F90E3
:10254000089582E0A82EB12CBBCF9801A301B4015D
:10255000CE010E9454105C01892B09F30E942A17B6
:102560008A859B85892B69F08A859B85F12CE12CD6
:1025700000E020E030E0A9016F850E943F1D1B862E
:102580001A860E944618CDCF0F931F93CF93DF93E7
:1025900000D0CDB7DEB7FC01268520FD09C090E054
:1025A00080E00F900F90DF91CF911F910F910895D0
:1025B0008C010E94730F039790F3F8012081318101
:1025C00042E050E0BE016F5F7F4FC8010E941010D3
:1025D00089819A81E6CFAF92BF92CF92DF92EF923C
:1025E000FF920F931F93CF93DF93EC015B017A016E
:1025F00069018E8510E000E080FF02C002E010E07B
:10260000CE010E94730F0817190770F0B12CA12C8E
:10261000C501DF91CF911F910F91FF90EF90DF9057
:10262000CF90BF90AF9008959C01A701B501CE0156
:102630000E9454105C01892B49F38A859B85892B64
:1026400039F38A859B85F12CE12C00E020E030E015
:10265000A9016F850E941F1E1B861A86D9CFFC0117
:10266000208131814281538181E04217530709F073
:1026700080E00895CF93DF93FC012685D0E0C0E091
:1026800020FF02C0C2E0D0E00E942A1121E0C8175A
:10269000D90708F420E0822FDF91CF910895CF92DF
:1026A000DF92EF92FF920F93CF93DF93FC0120858F
:1026B0003185232BC1F06B01EC0180859185F12CD4
:1026C000E12C00E020E030E0A90167850E941F1E98
:1026D0001986188681E0DF91CF910F91FF90EF90DE
:1026E000DF90CF90089580E0F6CFCF92DF92EF9207
:1026F000FF920F93CF93DF93FC0122853385232B29
:10270000C1F06B01EC0182859385F12CE12C00E096
:1027100020E030E0A90167850E941F1E1B861A86F3
:1027200081E0DF91CF910F91FF90EF90DF90CF90FC
:10273000089580E0F6CFFC0187850895FC01678746
:102740000895E0912507F09126078081811107C047
:102750008FEF9FEF9093FC068093FB060895E09126
:102760002507F09126070580F681E02D8081918173
:10277000F1CFBF92CF92DF92EF92FF920F931F9310
:10278000CF93DF93EC01B62EC0900407D0900507DD
:102790000091250710912607E0902307F090240769
:1027A00080915D0790915E0702960E94EC08CF3FF2
:1027B000DC0709F042C0BB2009F43FC0E0910807E4
:1027C000F0910907A0915D07B0915E071596FC9303
:1027D000EE931497A0915D07B0915E078481958177
:1027E00017969C938E93169780915D0790915E0744
:1027F000A481B581029613969C938E931297809133
:102800005D0790915E07029695838483E0915D0752
:10281000F0915E0787E097E09387828780910707B2
:102820008F5F80930707DF91CF911F910F91FF90EA
:10283000EF90DF90CF90BF900895CC0DDD1DE0911B
:102840005D07F0915E07D383C28360915D0770914D
:102850005E076E5F7F4FCC15DD0560F4C701DF9129
:10286000CF911F910F91FF90EF90DF90CF90BF908D
:102870000C94B608C8010E94B6088091FB0690919E
:10288000FC06C817D90778F6D093FC06C093FB0660
:10289000CACFCF93DF9380911007811103C0DF91DE
:1028A000CF9108950FB6F8940F92E0911607F0912A
:1028B0001707C681D781CE0102960E94EC0880914D
:1028C00006078150809306078091100781508093FE
:1028D00010070F900FBE8F89988D0E947008CE014F
:1028E0000E947008D8CF0E94491480913907823025
:1028F000D0F30E94B109F7CF4F925F926F927F920F
:102900008F929F92AF92BF92CF92DF92EF92FF92FF
:102910000F93CF93DF934C015B012901C42ED12C7F
:10292000C6010E9438083C01892B09F4CDC086E21B
:1029300090E00E943808EC01892B09F4C2C086E2BD
:10294000DE011D928A95E9F7788E6F8AB1E0CB1A85
:10295000D108C60CD71CA114B10409F0C6C00430BC
:1029600008F003E00E8B5E01B2E0AB0EB11CC501B6
:102970000E949208CE010C960E949208D987C887BF
:1029800084E090E0801B91099D878C87DB8BCA8B4C
:10299000A201B401C6010E940F0999838883E11442
:1029A000F10419F0F701D183C0830FB6F8940F92A8
:1029B000809106078F5F8093060780915D07909155
:1029C0005E07892B09F0A7C0D0935E07C0935D070F
:1029D00080910607813081F589E397E00E948408A1
:1029E00082E497E00E9484088BE497E00E948408C8
:1029F00084E597E00E94840880E397E00E948408C1
:102A000087E297E00E9484088AE197E00E948408A8
:102A100081E197E00E94840887E097E00E948408A3
:102A200080E397E0909326078093250787E297E05D
:102A300090932407809323078091FD068F5F8093F6
:102A4000FD06AE89809103078A1710F4A09303074F
:102A500029E02A9FD0011124A75CB84F11960D9050
:102A6000BC91A02DBD83AC8314968D919C9115973C
:102A70009F838E8314968D919C911597FC01B38250
:102A8000A2821596BC92AE9214979E89929FF001F5
:102A90001124E75CF84FFB87EA8780818F5F808392
:102AA0000F900FBE80910207882349F0E0915D07E7
:102AB000F0915E078689891710F40E94B10981E0C0
:102AC00004C0C3010E9470088FEFDF91CF910F9176
:102AD000FF90EF90DF90CF90BF90AF909F908F903E
:102AE0007F906F905F904F900895F501AE01475E23
:102AF0005F4FC50108962191DA012D93AD019F0129
:102B000021503109D9012C91222319F0E817F90736
:102B100091F718A224CF8091020781118DCFE09107
:102B20005D07F0915E079E898689981708F484CF27
:102B3000D0935E07C0935D077FCF0F931F93CF9312
:102B4000DF93EC010FB6F8940F92892B21F4C0911A
:102B50005D07D0915E078E010E5F1F4FC8010E9476
:102B6000EC088C899D89892B21F0CE010C960E945E
:102B7000EC088091FD068F5F8093FD0680915D07D4
:102B800090915E0720910207222359F18C179D072F
:102B900041F5B80181E197E00E9496088091100705
:102BA0008F5F8093100781E00F900FBE813039F066
:102BB0008F89988D0E947008CE010E9470088091C4
:102BC0000207882349F080915D0790915E078C177A
:102BD0009D0711F40E94B109DF91CF911F910F91D0
:102BE0000895809106078150809306070E94A113E3
:102BF00080E0DACF0F931F93CF93DF93EC018091A6
:102C00005D0790915E078C179D0709F459C02097C6
:102C100009F456C00FB6F8940F928A859B858750A9
:102C2000974009F04BC08C899D89E7E08A319E0767
:102C300009F444C0892B09F041C08DA18130F1F124
:102C40008E010E5F1F4FC8010E94EC08AE89809173
:102C500003078A1710F4A093030729E02A9FD001E5
:102C60001124A75CB84F11960D90BC91A02DBD8387
:102C7000AC8314968D919C9115979F838E831496A7
:102C80008D919C911597FC011383028315961C93DB
:102C90000E9314979E89929FF0011124E75CF84FE0
:102CA000FB87EA8780818F5F8083E0915D07F091E9
:102CB0005E078689891710F40E94B1090F900FBE34
:102CC000DF91CF911F910F910895EF92FF921F9383
:102CD000CF93DF93EC018A859B858750974009F05D
:102CE00062C08C899D8927E08A31920709F45BC014
:102CF000892B09F058C08DA1813009F454C080910E
:102D0000F806811149C0E0915D07F0915E079E8948
:102D1000868910E0891720F481E08093FF0611E096
:102D20007E0182E0E80EF11CC7010E94EC08AE892A
:102D3000809103078A1710F4A093030789E08A9F04
:102D4000D0011124A75CB84F11960D90BC91A02D15
:102D5000BD83AC8314962D913C9115973F832E83B0
:102D60001496ED91FC911597F382E2821596FC92F0
:102D7000EE921497EE89E89FF0011124E75CF84F7A
:102D8000FB87EA8780818F5F8083812FDF91CF91DE
:102D90001F91FF90EF900895BE01645F7F4F8AE11D
:102DA00097E00E94960810E0F0CFEF92FF920F9309
:102DB000CF93DF93CDB7DEB728970FB6F894DEBF79
:102DC0000FBECDBFA2EDB0E0FE0131962AED30E09E
:102DD000BF018D918193882319F02A173B07C9F70A
:102DE00089EFE82E86E0F82E00E030E020E040E8B1
:102DF00083E794E10E947C14882389F0813079F480
:102E0000F8942FEF3FEF3093FC062093FB0680935E
:102E1000020710920507109204070E947B09809117
:102E20008A0028960FB6F894DEBF0FBECDBFDF91A3
:102E3000CF910F91FF90EF9008958091F9069091B6
:102E4000FA060E949D150E944914F89410920207F8
:102E50000C94B0098091F8068F5F8093F80608956E
:102E60000FB6F8940F9280910407909105070F9088
:102E70000FBE0895809104079091050708958091F1
:102E800006070895009721F480915D0790915E07F1
:102E900049960895CF92DF92EF92FF920F931F937E
:102EA000CF93DF938091F8068111E5C0C0910407AC
:102EB000D09105076E018FEFC81AD80AD092050786
:102EC000C0920407C114D104B9F4809125079091F0
:102ED000260720912307309124073093260720935B
:102EE000250790932407809323078091FE068F5F28
:102EF0008093FE060E94A1138091FB069091FC0630
:102F0000C816D906E8F480E0E0915D07F0915E070D
:102F1000E689D9E0ED9FF0011124E75CF84F90813C
:102F2000923008F081E09091FF06911181E0DF91ED
:102F3000CF911F910F91FF90EF90DF90CF90089568
:102F400080E069E0E0912507F091260790819111DA
:102F500007C02FEF3FEF3093FC062093FB06D4CF42
:102F6000E0912507F09126070580F681E02D068087
:102F7000F781E02D22813381C216D30660F3C2852A
:102F8000D3852481358146815781D90115965C937B
:102F90004E93149746815781DA0113963C932E93F2
:102FA00012979F012E5F3F4F09811A810217130765
:102FB00011F45A834983138612869881915098831D
:102FC000A489B5891097F9F046855785008911893C
:102FD000EA011D830C8300891189E8015B834A8320
:102FE0001196ED90FC901297AF01445F5F4FE4168D
:102FF000F50621F412961C930E931197158A148AE4
:103000009C9191509C93A689909103079A1710F474
:10301000A09303076A9FD0011124A75CB84F1196B3
:103020000D90BC91A02DB583A48314964D915C9115
:1030300015975783468314964D915C911597EA0135
:103040003B832A8315963C932E9314972689269FBB
:10305000D0011124A75CB84FB387A2879C919F5FD2
:103060009C93E0915D07F0915E079689921708F0B6
:1030700069CF81E067CF80910007909101070196A9
:10308000909301078093000780E051CFEF92FF9269
:103090000F931F93CF93DF930FB6F8940F92809105
:1030A000F80681508093F8068091F806882351F045
:1030B00080E00F900FBEDF91CF911F910F91FF9095
:1030C000EF90089580910607882391F3E0901F0701
:1030D000F0902007F0E0E0E039E041E080911A074D
:1030E000811122C0EF2B11F00E94A113C0910007A3
:1030F000D0910107209761F011E00E944A178111D9
:103100001093FF062197C9F710920107109200074C
:103110008091FF06882361F280915D0790915E07A0
:103120000E94B10981E0C5CFD7011696ED91FC91BF
:10313000A489B5896685778580899189EB019D830E
:103140008C8380899189EC017B836A83BF01645FF2
:103150007F4F11960D911C9112970617170721F4B6
:1031600012969C938E931197158A148A8C91815094
:103170008C93A285B3858481958166817781EC01EA
:103180007D836C8366817781EB019B838A83CF018A
:10319000029611960D911C9112970817190721F4A8
:1031A00012967C936E931197138612862C91215060
:1031B0002C93A689209103072A1710F4A0930307E4
:1031C0003A9FD0011124A75CB84F11960D90BC9185
:1031D000A02DB583A48314966D917C911597778368
:1031E000668314966D917C911597EB019B838A837E
:1031F00015969C938E9314979689939FD0011124D2
:10320000A75CB84FB387A2878C918F5F8C93A091F6
:103210005D07B0915E0756968C91891708F05ECFD6
:103220004093FF065BCF0F931F93CF93DF93EC0187
:103230008B010E942A1720910407309105074881CD
:103240005981CA01800F911F9983888324173507FC
:1032500080F48417950780F0C0E00E944618811121
:1032600002C00E94B1098C2FDF91CF911F910F9165
:1032700008958417950718F02817390768F760E054
:10328000821B930B0E94B913C1E0E7CFCF93DF936A
:10329000EC01892B29F40E94B109DF91CF910895A7
:1032A0000E942A1760E0CE010E94B9130E944618BE
:1032B000882389F3F2CFCF93DF93EC010E942A1782
:1032C0000FB6F8940F9280910007909101078C0F30
:1032D0009D1F90930107809300070F900FBEDF9111
:1032E000CF910C9446188091F806882321F081E054
:1032F0008093FF0608951092FF062091030789E04E
:10330000422F50E0849FF001859FF00D1124E75C6F
:10331000F84F9081992359F1A181B28112966D9154
:103320007C9172836183289FC0011124845C984F33
:103330006817790721F4858196819283818389E0DA
:10334000849FF001859FF00D1124E75CF84F018008
:10335000F281E02D8681978190935E0780935D07CF
:103360002093030780915D0790915E070895215097
:10337000C7CF0F931F93CF93DF93EC010FB6F89451
:103380000F92892B21F4C0915D07D0915E078E01C9
:103390000E5F1F4FC8010E94EC088C899D89892B04
:1033A00021F0CE010C960E94EC08B80187E097E06E
:1033B0000E9496088DA1813009F41DA20F900FBEC6
:1033C00080910207882339F00FB6F8940F920E947B
:1033D000A1130F900FBE80915D0790915E078C172F
:1033E0009D0731F480910207882339F00E94B109CA
:1033F000DF91CF911F910F910895909106078091D1
:103400000707981305C010925E0710925D07F0CF72
:10341000DF91CF911F910F910C947319CF93DF938C
:10342000EB0160915D0770915E07645F7F4F0E94C2
:10343000B60861E0CE01DF91CF910C94B913CF9320
:10344000DF93FC01A0915D07B0915E0770681D9647
:103450007C936E931C97A181B281C0915D07D0913E
:103460005E07BF87AE87C0915D07D0915E07149657
:103470008D919C911597998B888B20915D07309148
:103480005E071496CD91DC911597245F3F4F3B83E7
:103490002A8320915D0730915E07245F3F4F159688
:1034A0003C932E931497A0915D07B0915E075596BB
:1034B000FC93EE93549790819F5F908361E0CA01E3
:1034C000DF91CF910C94B913CF93DF93DC01159664
:1034D000ED91FC910680F781E02DA489B589868560
:1034E000978520893189EC013D832C83C089D1895E
:1034F0009B838A83CF010C9611962D913C91129754
:103500002817390721F41296DC93CE931197158A68
:10351000148A2C9121502C932091F806211157C028
:10352000A285B3858481958126813781EC013D8315
:103530002C83C681D7819B838A83CF010296119603
:103540002D913C9112972817390721F41296DC939C
:10355000CE931197138612862C9121502C93C689F5
:10356000209103072C1710F4C093030729E02C9F28
:10357000E0011124C75CD84F0980DA81C02DD583C2
:10358000C4834C815D8157834683AC81BD81139692
:103590009C938E9312979D838C83A689A29FD001C2
:1035A0001124A75CB84FB387A2878C918F5F8C934F
:1035B000A0915D07B0915E07968956968C91891708
:1035C00030F581E08093FF06DF91CF910895A091BF
:1035D0001B07B0911C07B787A68714962D913C91C5
:1035E0001597318B208B1496CD91DC9115979B8389
:1035F0008A8315969C938E9314978AE197E0958B16
:10360000848B80911A078F5F80931A07D1CF80E057
:10361000DBCFCF93DF93DC01706811967C936E93C0
:103620001696ED91FC91179718964D915C9119970C
:1036300012962D913C91139714968D919C9115970C
:10364000E9019D838C8314968D919C911597EC01D3
:103650003B832A83EA0129813A812A173B0711F427
:103660009A83898319961C921E921897DA018C917D
:1036700081508C93A285B385848195812681378181
:10368000EC013D832C83C681D7819B838A83CF0144
:10369000029611962D913C9112972817390721F423
:1036A0001296DC93CE931197138612862C9121509B
:1036B0002C93C689209103072C1710F4C09303079D
:1036C00049E04C9FE0011124C75CD84F0980DA81A2
:1036D000C02DD583C4832C813D81378326832C81E3
:1036E0003D81D90113969C938E9312979D838C8371
:1036F0009689949FD0011124A75CB84FB387A28705
:103700008C918F5F8C93E0915D07F0915E078689C5
:10371000891718F481E08093FF06DF91CF91089517
:103720000FB6F8940F922091FE06FC0120832091A1
:10373000040730910507328321830F900FBE08954F
:103740002091FE06FC01208320910407309105079B
:10375000328321830895CF93DF930FB6F8940F92AD
:103760004091040750910507DB012D913C912F3FBB
:10377000320701F1EC01E981FA81A091FE06B881DE
:10378000BA1761F04E175F0748F0FB0111821082F3
:1037900081E00F900FBEDF91CF9108954E1B5F0B1C
:1037A0004217530790F7241B350BDB012D933C93F5
:1037B0000E94A01B80E0EDCF81E08093FF0608957A
:1037C00080915D0790915E070895811105C08091F9
:1037D0005D0790915E07089590E080E00895E09184
:1037E0005D07F0915E0784859585A0915D07B09196
:1037F0005E07E0915D07F0915E0756964C9124E0DC
:1038000030E0241B3109358724870895CF92DF9259
:10381000EF92FF920F931F93CF93DF93C82FE62E63
:103820006A010E942A170FB6F8940F92E0915D0783
:10383000F0915E07D0E08E01000F111F000F111FE5
:10384000E00FF11F81A192A1A3A1B4A1892B8A2B22
:103850008B2B69F4E0915D07F0915E07EC0FFD1F83
:1038600081E085A3FF24F394C114D10409F4F12C61
:103870000F900FBE21E0F21204C061E0C6010E9469
:10388000B9130E94461891E0F91204C0811102C0D8
:103890000E94B1090FB6F8940F92E0915D07F09184
:1038A0005E07E00FF11F61A172A183A194A16115D0
:1038B00071058105910569F020915D0730915E07E2
:1038C000020F131FEE20B9F0F80111A212A213A2E9
:1038D00014A220915D0730915E07C20FD31F1DA275
:1038E0000F900FBEDF91CF911F910F91FF90EF903E
:1038F000DF90CF9008956B017C01F1E0CF1AD108E1
:10390000E108F108F801C1A2D2A2E3A2F4A2E1CF3A
:103910004F925F926F927F928F929F92AF92BF92DF
:10392000CF92DF92EF92FF920F931F93CF93DF938B
:10393000C82F2A013B01480159010E942A170FB6DE
:10394000F8940F92E0915D07F0915E07D0E0EC0FE4
:10395000FD1F85A1823039F1E0915D07F0915E078E
:10396000CE01880F991F880F991FE80FF91F81A1B9
:1039700092A1A3A1B4A14094509460947094842126
:103980009521A621B72181A392A3A3A3B4A3E0917B
:103990005D07F0915E07EC0FFD1F81E085A311E04C
:1039A000C114D10409F410E00F900FBE113021F4BE
:1039B00061E0C6010E94B9130E944618113021F43B
:1039C000811102C00E94B1090FB6F8940F92E11460
:1039D000F104A1F0E0915D07F0915E07CE01880F40
:1039E000991F880F991FE80FF91F81A192A1A3A128
:1039F000B4A1F70180839183A283B383E0915D0733
:103A0000F0915E07EC0FFD1F85A18230B1F5E091CA
:103A10005D07F0915E07CE01880F991F880F991FEF
:103A2000E80FF91F81A192A1A3A1B4A18094909461
:103A3000A094B09488219921AA21BB2181A392A3AB
:103A4000A3A3B4A381E020915D0730915E07C20F6C
:103A5000D31F1DA20F900FBEDF91CF911F910F9129
:103A6000FF90EF90DF90CF90BF90AF909F908F909E
:103A70007F906F905F904F90089580E0E4CF8F9299
:103A80009F92AF92BF92CF92DF92EF92FF920F93ED
:103A9000CF93DF93DC010FB6F8940F9270E0E1143E
:103AA000F10481F0FB01EE0FFF1FEE0FFF1FE80F87
:103AB000F91F81A092A0A3A0B4A0E70188829982F7
:103AC000AA82BB82FD01E60FF71F85A192E095A3B4
:103AD0000230E1F1A0F4013029F1813009F44AC04B
:103AE00081E00F900FBEDF91CF910F91FF90EF908B
:103AF000DF90CF90BF90AF909F908F90089503304C
:103B000029F0043051F7823009F497C0660F771F0F
:103B1000660F771FFD01E60FF71F21A332A343A312
:103B200054A3DBCF660F771F660F771FFD01E60FEB
:103B3000F71FC1A0D2A0E3A0F4A0C22AD32AE42A8E
:103B4000F52AC1A2D2A2E3A2F4A2C7CF660F771FC3
:103B5000660F771FFD01E60FF71F41A152A163A178
:103B600074A14F5F5F4F6F4F7F4F41A352A363A379
:103B700074A3B3CF1A96ED91FC911B9714968D9177
:103B80009C91159716962D913C911797EC013D83CA
:103B90002C831696CD91DC9117979B838A839D0188
:103BA0002E5F3F4F818192818217930711F4D28358
:103BB000C1831B961C921E921A978081815080832C
:103BC0005696CC915697809103078C1710F4C093AA
:103BD000030749E04C9FE0011124C75CD84F0980DE
:103BE000DA81C02D1596DC93CE9314978C819D813C
:103BF00017969C938E9316978C819D81FC0133833D
:103C000022833D832C8356969C915697949FF00176
:103C10001124E75CF84F1B96FC93EE931A97808172
:103C20008F5F8083E0915D07F0915E078689891739
:103C300008F056CF0E94B10953CF80E052CF8F9247
:103C40009F92AF92BF92CF92DF92EF92FF920F932B
:103C5000CF93DF93DC0170E0E114F10481F0FB010C
:103C6000EE0FFF1FEE0FFF1FE80FF91F81A092A0BC
:103C7000A3A0B4A0E70188829982AA82BB82FD0139
:103C8000E60FF71F85A192E095A30230D1F190F4E1
:103C9000013019F1813009F448C081E0DF91CF9102
:103CA0000F91FF90EF90DF90CF90BF90AF909F90DB
:103CB0008F900895033029F0043061F7823009F4C1
:103CC000C5C0660F771F660F771FFD01E60FF71F50
:103CD00021A332A343A354A3DDCF660F771F660F42
:103CE000771FFD01E60FF71F81A092A0A3A0B4A04B
:103CF000822A932AA42AB52A81A292A2A3A2B4A2BC
:103D0000C9CF660F771F660F771FFD01E60FF71FFC
:103D100041A152A163A174A14F5F5F4F6F4F7F4FCD
:103D200041A352A363A374A3B5CF8091F806811178
:103D30006BC01A96ED91FC911B9714968D919C91F6
:103D4000159716962D913C911797EC013D832C8386
:103D50001696CD91DC9117979B838A839D012E5FE8
:103D60003F4F818192818217930711F4D283C183DF
:103D70001B961C921E921A978081815080835696C2
:103D8000CC915697809103078C1710F4C0930307CA
:103D900089E08C9FE0011124C75CD84F0980DA814B
:103DA000C02D1596DC93CE9314974C815D811796A8
:103DB0005C934E931697EC81FD81338322833D8380
:103DC0002C835696EC915697E89FF0011124E75CFE
:103DD000F84F1B96FC93EE931A9780818F5F808338
:103DE000E0915D07F0915E0756969C918689891750
:103DF00008F053CFC114D10419F081E0F60180839B
:103E000081E08093FF064ACFE0911B07F0911C07E9
:103E10001F96FC93EE931E978481958151969C93F7
:103E20008E935097C481D581CD010C969B838A8354
:103E3000958384838AE197E055969C938E9354975B
:103E400080911A078F5F80931A07CACF80E026CF30
:103E50000F931F93CF93DF93FC01A62FB0E0EC01EB
:103E6000CA0FDB1F8DA192E09DA3AA0FBB1FAA0F53
:103E7000BB1FAE0FBF1F91960D911D912D913C91CF
:103E800094970F5F1F4F2F4F3F4F91960D931D93A8
:103E90002D933C939497813009F05EC08091F80691
:103EA00081115FC0A285B385848195812681378188
:103EB000EC013D832C83C681D7819B838A83CF010C
:103EC000029611962D913C9112972817390721F4EB
:103ED0001296DC93CE931197138612862C91215063
:103EE0002C93C689209103072C1710F4C093030765
:103EF00029E02C9FE0011124C75CD84F0980DA81AA
:103F0000C02DD583C4836C817D8177836683AC812A
:103F1000BD8113969C938E9312979D838C83A68963
:103F2000A29FD0011124A75CB84FB387A2878C91C0
:103F30008F5F8C93A0915D07B0915E07968956962E
:103F40008C91891748F44115510519F081E0FA0167
:103F5000808381E08093FF06DF91CF911F910F91C5
:103F60000895A0911B07B0911C07B787A6871496E8
:103F70008D919C911597918B808B1496CD91DC91AE
:103F80001597CF010C969B838A8315969C938E93ED
:103F900014978AE197E0958B848B80911A078F5F45
:103FA00080931A07C7CF009721F480915D07909105
:103FB0005E070FB6F8940F92FC01E60FF11D85A184
:103FC000823029F415A281E00F900FBE089580E0A1
:103FD000FBCFCF92DF92EF92FF92009721F4809176
:103FE0005D0790915E070FB6F8940F9274E0679F9B
:103FF000F0011124E80FF91F61A172A183A194A11E
:10400000C1A0D2A0E3A0F4A0209530954095509592
:10401000C222D322E422F522C1A2D2A2E3A2F4A2B8
:104020000F900FBEFF90EF90DF90CF900895109209
:104030005E0710925D07109210071092060710920B
:1040400005071092040710920307109202071092BE
:104050000107109200071092FF061092FE061092C0
:10406000FD061092FC061092FB061092F8060895C9
:104070000E9490030E94370460E080E80E94D5020D
:104080000E9471030E94770362E370E080E090E099
:104090000E947B030E94A501FFCFA1E21A2EAA1B5A
:1040A000BB1BFD010DC0AA1FBB1FEE1FFF1FA217E8
:1040B000B307E407F50720F0A21BB30BE40BF50BE5
:1040C000661F771F881F991F1A9469F7609570956E
:1040D000809590959B01AC01BD01CF010895052EFF
:1040E00097FB1EF400940E94862057FD07D00E9483
:1040F0004D2007FC03D04EF40C948620509540953B
:10410000309521953F4F4F4F5F4F08959095809583
:10411000709561957F4F8F4F9F4F0895EE0FFF1F52
:104120000590F491E02D09940E94A8200C945A2146
:104130000E94532158F00E944C2140F029F45F3F27
:1041400029F00C94432151110C948E210C94492197
:104150000E946B2168F39923B1F3552391F3951BCA
:10416000550BBB27AA2762177307840738F09F5F98
:104170005F4F220F331F441FAA1FA9F335D00E2E05
:104180003AF0E0E832D091505040E695001CCAF772
:104190002BD0FE2F29D0660F771F881FBB1F261735
:1041A00037074807AB07B0E809F0BB0B802DBF010C
:1041B000FF2793585F4F3AF09E3F510578F00C94DB
:1041C00043210C948E215F3FE4F3983ED4F386950F
:1041D00077956795B795F7959F5FC9F7880F911DFC
:1041E0009695879597F90895E1E0660F771F881FE8
:1041F000BB1F621773078407BA0720F0621B730B9B
:10420000840BBA0BEE1F88F7E0950895E89409C077
:1042100097FB3EF490958095709561957F4F8F4FF9
:104220009F4F9923A9F0F92F96E9BB279395F6950F
:10423000879577956795B795F111F8CFFAF4BB0F8D
:1042400011F460FF1BC06F5F7F4F8F4F9F4F16C0F1
:10425000882311F096E911C0772321F09EE8872F7B
:10426000762F05C0662371F096E8862F70E060E037
:104270002AF09A95660F771F881FDAF7880F9695B0
:10428000879597F9089597F99F6780E870E060E057
:1042900008959FEF80EC089500240A9416161706DF
:1042A00018060906089500240A9412161306140627
:1042B00005060895092E0394000C11F4882352F08A
:1042C000BB0F40F4BF2B11F460FF04C06F5F7F4F42
:1042D0008F4F9F4F089557FD9058440F551F59F029
:1042E0005F3F71F04795880F97FB991F61F09F3FE3
:1042F00079F087950895121613061406551FF2CF0C
:104300004695F1DF08C0161617061806991FF1CF5B
:1043100086957105610508940895E894BB27662782
:104320007727CB0197F908950E94A7210C945A2171
:104330000E944C2138F00E94532120F0952311F067
:104340000C9443210C94492111240C948E210E9439
:104350006B2170F3959FC1F3950F50E0551F629F3D
:10436000F001729FBB27F00DB11D639FAA27F00DCE
:10437000B11DAA1F649F6627B00DA11D661F829FF5
:104380002227B00DA11D621F739FB00DA11D621FDA
:10439000839FA00D611D221F749F3327A00D611DF7
:1043A000231F849F600D211D822F762F6A2F1124D9
:1043B0009F5750409AF0F1F088234AF0EE0FFF1F0C
:1043C000BB1F661F771F881F91505040A9F79E3F63
:1043D000510580F00C9443210C948E215F3FE4F34F
:1043E000983ED4F3869577956795B795F795E795B9
:1043F0009F5FC1F7FE2B880F911D9695879597F9C2
:104400000895EF920F931F93CF93DF93E80134E069
:1044100047FD34E1042E000C550B57FF03C05195A6
:1044200041955109E32E022F242FAE010E94322420
:10443000CE01DF91CF911F910F91EF900895FB0175
:10444000DC0102C001900D9241505040D8F7089510
:10445000AEE0B0E0EEE2F2E20C941B270D891E897B
:104460008F89988D26E02C831A83098397FF02C0D9
:1044700080E090E801979E838D83AE01455E5F4F9B
:10448000698D7A8DCE0101960E9458224D815E8100
:1044900057FD0AC02F813885421753070CF49A0143
:1044A000020F131FF80110822E96E4E00C943727B8
:1044B000ABE0B0E0EEE5F2E20C940D277C013B01AD
:1044C0008A01FC0117821682838181FFC8C1CE0157
:1044D00001965C01F7019381F30193FD859193FFB0
:1044E00081913F01882309F453C1853239F493FD4A
:1044F000859193FF81913F01853229F4B70190E0C6
:104500000E947F26E7CF912C212C312CFFE1F3155F
:1045100038F08B3211F190F4803209F1833229F1B5
:1045200037FC3CC020ED280F2A3050F536FE20C065
:104530008AE0989E200D1124922E06C08D3291F0B3
:10454000803371F7689430F8F30193FD859193FF00
:1045500081913F018111DACF21C0689431F86894CC
:1045600032F8F2CF689433F8EFCF689434F8ECCF98
:10457000EAE02E9E200D1124222E689435F8E4CF17
:104580008E3229F436FC04C1689436F8DDCF8C36BF
:1045900019F4689437F8D8CF8836B1F2982F9F7DF8
:1045A00095549330E0F08336A1F18337C1F1833520
:1045B00009F063C02801F2E04F0E511CF801C080E1
:1045C000D180692D70E036FC02C06FEF7FEFC6012D
:1045D0000E9469264C01689437F882010AC00C5F7A
:1045E0001F4FFFE3F98388248394912C6501E8949D
:1045F00037F833FE2DC0522C8114910471F55520EB
:1046000009F468CFB70180E290E00E947F265A94B7
:10461000F6CFF801808189830E5F1F4FE4CF280118
:10462000F2E04F0E511CF801C080D180692D70E07E
:1046300036FC02C06FEF7FEFC6010E9474264C016A
:104640008201D5CFB70180E290E00E947F262A94B4
:104650002814190409F0B0F7CECFF60137FC859184
:1046600037FE81916F01B70190E00E947F265110C3
:104670005A94F1E08F1A9108BFCF843619F0893629
:1046800009F077C0F80137FE6BC0608171818281CB
:1046900093810C5F1F4FF32DFF763F2E97FF09C0CC
:1046A00090958095709561957F4F8F4F9F4F68943F
:1046B00037F82AE030E0A5010E94AF26C82ECA18BC
:1046C0008C2C432C36FE0CC0E89440F8C91440F4FE
:1046D00034FE05C032FC03C0F32DFE7E4F2E892C24
:1046E00044FE95C0FE01EC0DF11D8081803309F080
:1046F00087C0242D297E422E842D8870582E43FC9D
:1047000095C040FE8FC09C2C821418F42C0C922C67
:10471000981844FE91C0B70180E390E00E947F2684
:1047200042FE09C088E790E041FE02C088E590E0C3
:10473000B7010E947F26C91408F48AC0CA94D12CFC
:104740009FEFC91AD90ACA0CDB1CF60182916F01CE
:10475000B70190E00E947F26AC14BD04B1F74FCFA3
:1047600060817181072E000C880B990B0E5F1F4F23
:1047700092CFD32CE894D4F82AE030E0853739F191
:10478000232D297FD22E8F3601F148F48835A9F0E8
:10479000F701868197812B96E2E10C9429278037D7
:1047A00049F08837A9F7D4FE02C06894D2F820E116
:1047B00030E00DC06894D4F8F6CF34FE03C0822FE9
:1047C0008660D82E20E132E002C028E030E0F80117
:1047D000D7FE0FC060817181828193810C5F1F4F72
:1047E000A5010E94AF26C82ECA183D2CE89437F8C0
:1047F00067CF6081718190E080E00E5F1F4FF0CF46
:1048000042FC02C0839478CF8394839475CF842D27
:10481000867809F471CFF6CFB70180E290E00E946C
:104820007F2683948214C0F3512C73CF522C5818D6
:10483000821408F46ECFF8CF842D867809F47BCFEC
:104840008BE241FE80E247FC8DE2B70190E071CF40
:10485000B70180E390E00E947F269A946CCF8FEF9F
:104860009FEF99CFA9E0B0E0E8E3F4E20C941327BE
:104870006A01F22EB02E102FFBE3AF2EA01608F423
:104880001BE31F5F012F27E0AE014F5F5F4F0E94C8
:104890009125BC018981982F9970913009F43FC00E
:1048A0009BE2E1FC04C09E2D9170E0FC3AC05E2DBD
:1048B0005071E82FE87083FF46C084E0911101C079
:1048C00083E0EF2DE81B8F1508F0E0E0D6018E2F76
:1048D00020E2552351F1992329F0D6019C93C6017A
:1048E00001966C0196012D5F3F4FE2FE24C08EE4DD
:1048F000D6018C9391E411969C93119712968C9308
:10490000D9018E2F90E281111BC0E20FF32FF11D10
:1049100010828EEF9FEF2996ECE00C942F279DE2FA
:10492000C6CF90E2C4CF2D9381508111FCCFCE0E23
:10493000D11CE0E0D0CF8EE6D6018C9391E6DBCFA0
:104940009D938150E0CF482F447082FF3DC084E0AA
:10495000911101C083E08F1510F4EF2DE81BD601F3
:104960008E2F20E2552309F1992329F0D6019C933B
:10497000C60101966C0196012D5F3F4FE2FE1BC000
:1049800089E4D6018C938EE411968C93119786E47A
:1049900012968C93D9018E2F90E2882309F4B5CF1B
:1049A0009D938150FACF2D9381508111FCCFCE0E73
:1049B000D11CE0E0D9CF89E6D6018C938EE6119622
:1049C0008C93119786E6E4CF9B0177FF02C030E01D
:1049D00020E0A1E0B0E0911102C0B0E0A0E0F90158
:1049E0003196AE0FBF1F8B2C912CBB2009F461C0F8
:1049F0005401EFEFAE1ABE0AAA0DBB1DFA161B0634
:104A000019F014F04F2D4A1B511188C0E3FC59C016
:104A10007601A42FB0E2A1114FC0C40ED11C99237E
:104A200009F45BC040E0D6011196F60190836D0158
:104A3000552309F448C0012F060F9A81582F507151
:104A400084FF03C0913309F4015010160CF047C0E5
:104A5000093008F008E0EEE2FE2E5B01A01AB10872
:104A600085019194819491082F3F320729F4D60152
:104A7000FC92F60131966F016217730794F10217E9
:104A800013077CF5DB01A21BB30BAA24A394B12C62
:104A9000AC0EBD1EAA0DBB1D11968C912150310983
:104AA000D601119628153905F4F0F60180836D01C1
:104AB000DBCFB12CA12CA0CFF701B1937F01A15086
:104AC000AACF9111B0CFD601942F50E302C05D93CD
:104AD00091509111FCCFC40ED11C40E0ACCF01E04D
:104AE000BACF80E3DBCF6217730731F4963388F4D3
:104AF000953311F4552369F0F6018083FD01842F6D
:104B000090E2811108C0A40FB11D1C9290E080E0DA
:104B100002CF81E3F1CF91938150F3CF911183CFF5
:104B20008ACF283008F027E03327DA01990F311DAA
:104B300087FD916000966105710539F432602E5F42
:104B40003D9330E32A95E1F708959F3F30F0803898
:104B50007105610509F03C5F3C5F3D93913008F0C1
:104B60008068911DDF93CF931F930F93FF92EF9275
:104B7000192F987F9695E92F96959695E90FFF271F
:104B8000E255FF4F99273327EE24FF24A701E701C1
:104B900005900894079428F4360FE71EF81E491F65
:104BA000511D660F771F881F991F0694A1F7059066
:104BB000079428F4E70EF81E491F561FC11D770FF2
:104BC000881F991F661F0694A1F70590079428F483
:104BD000F80E491F561FC71FD11D880F991F661F4A
:104BE000771F0694A1F70590079420F4490F561FEC
:104BF000C71FD81F990F661F771F881F0694A9F734
:104C000084911095177041F0D695C79557954795A3
:104C1000F794E7941A95C1F7E4E5F0E068941590ED
:104C2000159135916591959105907FE27395E11805
:104C3000F10A430B560BC90BD009C0F7E10CF11E6A
:104C4000431F561FC91FD01D7EF4703311F48A957F
:104C5000E6CFE894015030F0080F0AF4002702175D
:104C600008F4202F2395022F7A3328F079E37D93DF
:104C70002A95E9F710C07D932A9589F606949795B1
:104C80006795379517951794E118F10A430B560B62
:104C9000C90BD00998F023957E9173957A3308F06B
:104CA00070E37C932013B8F77E9170617D9330F0B0
:104CB000839571E37D9370E32A95E1F71124EF90DA
:104CC000FF900F911F91CF91DF91992787FD9095CC
:104CD0000895FC010590615070400110D8F780954F
:104CE00090958E0F9F1F0895FC01615070400190B8
:104CF0000110D8F7809590958E0F9F1F08950F9300
:104D00001F93CF93DF93182F092FEB018B8181FD28
:104D100009C01FEF0FEF812F902FDF91CF911F91CF
:104D20000F91089582FF14C02E813F818C819D8157
:104D3000281739073CF4E881F981CF01019699835E
:104D4000888310838E819F8101969F838E83E3CF1A
:104D5000E885F985812F0995892BA1F3DACFFA012E
:104D6000AA27283051F1203181F1E8946F936E7FAA
:104D70006E5F7F4F8F4F9F4FAF4FB1E03ED0B4E09B
:104D80003CD0670F781F891F9A1FA11D680F791FDC
:104D90008A1F911DA11D6A0F711D811D911DA11DED
:104DA00020D009F468943F912AE0269F11243019FD
:104DB000305D3193DEF6CF010895462F4770405D98
:104DC0004193B3E00FD0C9F7F6CF462F4F70405D47
:104DD0004A3318F0495D31FD4052419302D0A9F7A2
:104DE000EACFB4E0A6959795879577956795BA959C
:104DF000C9F700976105710508959B01AC010A2E62
:104E000006945795479537952795BA95C9F7620F38
:104E1000731F841F951FA01D08952F923F924F92DC
:104E20005F926F927F928F929F92AF92BF92CF923A
:104E3000DF92EF92FF920F931F93CF93DF93CDB743
:104E4000DEB7CA1BDB0B0FB6F894DEBF0FBECDBFBB
:104E500009942A88398848885F846E847D848C848C
:104E60009B84AA84B984C884DF80EE80FD800C8195
:104E70001B81AA81B981CE0FD11D0FB6F894DEBF78
:0C4E80000FBECDBFED010895F894FFCFE8
:104E8C0082000001008200010100860004010086FE
:104E9C0000050100860006010086000701003100B4
:104EAC0032003700380037003800034368617267FE
:104EBC00653A20002500566F6C746167653A2000D6
:104ECC004368617267696E675374617274005374DE
:104EDC006F7053657373696F6E00446973706C61A6
:104EEC007952656672657368004144433A202564C3
:084EFC000A0049444C45000086
:00000001FF
