:100000000C94A7000C94C4000C94C4000C94C4007D
:100010000C94C4000C94C4000C94C4000C94AA0763
:100020000C94C4000C94C4000C94C4000C94C40040
:100030000C94C4000C94C4000C94C4000C94C40030
:100040000C94C4000C94C4000C94C4000C94C40020
:100050000C94C40000407A10F35A00A0724E1809A4
:100060000010A5D4E80000E87648170000E40B541F
:10007000020000CA9A3B000000E1F50500008096EE
:100080009800000040420F000000A0860100000020
:10009000102700000000E8030000000064000000DA
:1000A00000000A00000000000100000000002C76A3
:1000B000D888DC674F0823DFC1DFAE59E1B1B796BE
:1000C000E5E3E453C63AE651997696E8E6C284261B
:1000D000EB898C9B62ED407C6FFCEFBC9C9F40F2F7
:1000E000BAA56FA5F490055A2AF75C936B6CF96773
:1000F0006DC11BFCE0E40D47FEF520E6B500D0ED38
:10010000902E0300943577050080841E080000209F
:100110004E0A000000C80C333333330F986E12833D
:100120001141EF8D2114893BE65516CFFEE6DB1811
:10013000D1844B381BF77C1D901DA4BBE4242032D6
:1001400084725E228100C9F124ECA1E53D271124CF
:100150001FBECFE5D8E0DEBFCDBF10E0A0E6B0E027
:10016000E2EAF7E402C005900D92A83BB107D9F787
:1001700027E0A8EBB0E001C01D92A533B207E1F77C
:100180000E94C31C0C94CF230C94000096B1987F5E
:1001900096B98031C1F040F4843079F0883079F03C
:1001A0008230C9F4309A0895803479F0803881F033
:1001B000803289F486B1856004C0319A089586B191
:1001C000836086B90895329A089586B18660F9CF22
:1001D00086B18760F6CF86B1887FF3CF97B19F73E2
:1001E00097B93E9A811104C087B18F7387B908957A
:1001F000813011F43E9A08958330E1F787B1806C25
:10020000F5CFCF93C62F379A0E94C6008C2F0E943D
:10021000EE003D98CF91089597B1907E97B98830C0
:1002200030F5E82FF0E0E95EFE4F0C94861E3701B2
:100230001F01260128012C012E0131013401389AB9
:10024000369A349BFECF84B195B10895399AF8CF90
:1002500087B1836087B9F4CF3A9AF2CF87B18560CE
:10026000F9CF87B18660F6CF87B18760F3CF87B1CA
:10027000807EF0CFCF93DF93CDB7DEB72C970FB64C
:10028000F894DEBF0FBECDBFBC0190E080E00E94BD
:10029000691D69877A878B879C8720E030EC4FE760
:1002A00054E469857A858B859C850E94F71C6D8353
:1002B0007E838F83988720E030E040EA50E46D81B0
:1002C0007E818F8198850E94F71D69837A838B8355
:1002D0009C8369817A818B819C812C960FB6F894DE
:1002E000DEBF0FBECDBFDF91CF91089598B39F7051
:1002F000282F207F922B98BBC098C19A42E04A9544
:10030000F1F700C0C198EFE8F1E03197F1F700C0D4
:10031000000098B39F70F0E18F9F90011124892F06
:10032000822B88BBC19A42E04A95F1F700C0C19880
:100330008FE99FE00197F1F700C00000089598B39E
:100340009F70282F207F922B98BBC09AC19A42E0C1
:100350004A95F1F700C0C198EFE8F1E03197F1F765
:1003600000C0000098B39F70F0E18F9F90011124AE
:10037000892F822B88BBC19A42E04A95F1F700C0D1
:10038000C1988FE99FE00197F1F700C00000089540
:100390008FEF87BB8FE39CE90197F1F700C0000066
:1003A00082E00E94760188E20E9476018CE00E9441
:1003B000760186E00E94760181E00E9476018FE955
:1003C0009FE00197F1F700C000000895CF93DF93FD
:1003D000EC018991811103C0DF91CF9108950E94B2
:1003E0009F01F7CFCF93DF93EA01811109C0862FD8
:1003F0008068603158F0CE01DF91CF910C94E60116
:100400008130C9F76031B8F7862F806C0E94760181
:10041000F2CF81E00E9476018FE99FE00197F1F72A
:1004200000C0000080E80C947601CF92DF92EF923A
:10043000FF921F93CF93DF936C01162FF42E8AE166
:1004400090E00E947C05EC018FEF209709F456C0E4
:100450008091BF009091C000892B21F5D093C000FE
:10046000C093BF0080EE90E00E94C80589EE90E046
:100470000E94C80587ED90E00E94C8058EEC90E0D0
:100480000E94C80581EC90E00E94C80587ED90E0CD
:100490009093CD008093CC008EEC90E09093CB00B5
:1004A0008093CA00111111E0198E188E1E8BFF8ADD
:1004B000FE01C192D1927F01CF010E94D605CE01EB
:1004C0000C960E94D605D987C887DB8BCA8B82E041
:1004D00090E0811B91099D878C878E899091BE0049
:1004E000981710F48093BE00F9E08F9FC00111248B
:1004F000B70180529F4F0E94DA0581E0DF91CF91D2
:100500001F91FF90EF90DF90CF9008950F931F936E
:10051000CF93DF938B01C091BC00D091BD00C80F79
:10052000D91F8091BF009091C00002960E943006B2
:100530006091BF007091C000FB01D383C2838091A2
:10054000BC009091BD006E5F7F4FC817D907B0F413
:100550008091CA009091CB000E94FA050115110507
:1005600091F06091BF007091C000645F7F4FC8013F
:10057000DF91CF911F910F910C94FA058091CC00DF
:100580009091CD00E9CFDF91CF911F910F91089508
:10059000FF920F931F93CF93DF938091CC009091A4
:1005A000CD00892B09F444C099E0F92E8091C10057
:1005B000811144C00E9457132091BA003091BB00B2
:1005C000821B930B9093B9008093B80089E0F82EBA
:1005D0002091B8003091B9008091BC009091BD008D
:1005E0002115310509F04CC09093BB008093BA00EF
:1005F0008091BE00282F30E099E0929FF001939FF8
:10060000F00D1124E052FF4F408141118DC088232D
:1006100069F08150282F30E0929FF001939FF00DF8
:100620001124E052FF4F908191117EC08093BE0053
:10063000DF91CF911F910F91FF900895F894E09171
:10064000C600F091C700C681D781CE010C960E94EA
:10065000300678948E010E5F1F4FC8010E9430064D
:100660008E899091BE00981710F48093BE008F9DE4
:10067000C0011124B80180529F4F0E94DA0596CF25
:1006800001969093BD008093BC00215031093093B6
:10069000B9002093B800892B81F48091CC0090910F
:1006A000CD002091CA003091CB003093CD00209333
:1006B000CC009093CB008093CA00E091CC00F091E5
:1006C000CD002091BC003091BD008081882309F4C9
:1006D0007FCF0580F681E02DC681D7818A819B81FD
:1006E0002817390708F474CFF8948E010E5F1F4F56
:1006F000C8010E9430068C899D89892B21F0CE018A
:100700000C960E94300678948E899091BE009817BE
:1007100010F48093BE008F9DC0011124B801805257
:100720009F4F0E94DA05C9CF8093BE0049E0429FE7
:10073000C001439F900D1124FC01E052FF4FA181A5
:10074000B28112964D915C91528341838D519F4F9E
:100750004817590721F4858196819283818389E026
:10076000829FF001839FF00D1124E052FF4F018022
:10077000F281E02D868197819093C0008093BF0025
:10078000DC01ED91FC91119757966C91DF91CF911F
:100790001F910F91FF9009940F931F93CF93DF93B5
:1007A000DC011596ED91FC91C681D7818E01045F25
:1007B0001F4FC8010E943006B80181EC90E00E94F2
:1007C000DA05E091BF00F091C00081E02E899689A2
:1007D000291708F480E0DF91CF911F910F910895C0
:1007E0001092CD001092CC001092CB001092CA0053
:1007F0001092C0001092BF001092BE001092BD0077
:100800001092BC001092BB001092BA001092B90076
:100810001092B8000895CF93DF938BE090E00E9490
:100820007C05EC01009731F0FC0111921192CF018F
:100830000E94C805CE01DF91CF910895AF92BF927B
:10084000CF92DF92EF92FF920F931F93CF93DF939C
:100850006C017B01B42EA22E0E945113F601C081BF
:10086000D181CE018E219F21A11040C0892B09F09A
:1008700041C00115110589F070E060E0BB2011F066
:1008800060E071E0A11074606E297F29A801C601A3
:1008900002960E94EE15D0E0C0E00E946D14012B7C
:1008A000C9F0811102C00E94F5060E94B81791FD9F
:1008B0000FC00FB6F8940F92F601808191819701D5
:1008C00028233923A11023C0232B21F50F900FBE1D
:1008D000EC01DD27CE01DF91CF911F910F91FF90A9
:1008E000EF90DF90CF90BF90AF900895E816F90693
:1008F00009F0BFCFBB2041F0C701809590958C23B4
:100900009D23F6019183808310E000E0C6CFE216BC
:10091000F306E1F6BB20D1F2E094F094E822F9224C
:10092000F601F182E082D2CFFC010FB6F8940F926B
:1009300080819181609570956823792371836083AC
:100940000F900FBE0895FC01808191810895CF9290
:10095000DF92EF92FF920F931F93CF93DF93EC01FF
:100960008B017C0185E0E80EF11C0E945113EF81A0
:10097000F88568817981602B712B7983688310E019
:1009800000E068817981EE15FF0599F400951095D6
:1009900006231723198308830E946D148881998187
:1009A000DF91CF911F910F91FF90EF90DF90CF904B
:1009B0000895C280D38020813181C9019927AC017B
:1009C0004623572332FD04C0452B29F4F601D9CF25
:1009D00084179507D9F730FF02C0082B192B7260D6
:1009E000CF010E94D716F2CFAF92BF92CF92DF9283
:1009F000EF92FF920F931F93CF93DF937C01EB0154
:100A00008A0169010E945113F701A080B180BE01E3
:100A1000C7010E94A704CA29DB29CE0180239123A4
:100A20008017910709F03BC0F701808191819801FF
:100A3000209530958223932391838083D12CC12CE0
:100A40000E946D14CD28F9F0811102C00E94F506B4
:100A50000E94B81791FD15C00FB6F8940F92F701D8
:100A6000808191819801282339232017310739F497
:100A7000A8014095509548235923518340830F90F6
:100A80000FBEEC01DD27CE01DF91CF911F910F91B9
:100A9000FF90EF90DF90CF90BF90AF900895C1147A
:100AA000D10451F0A601B8017560C70102960E94F9
:100AB000EE15D0E0C0E0C4CFF701C081D181C0CF36
:100AC000CF93DF93EC010E9451138A81811107C0FB
:100AD0000E946D14CE01DF91CF910C94B40560E0BB
:100AE00072E08F8198850E94D716EFCFBA010C94DF
:100AF000A704BA010C9494040F931F93CF93DF9330
:100B00008C010E9451138091F2009091F300892B87
:100B100031F486EF90E09093F3008093F20001159A
:100B20001105F9F02091F4003091F500020F131F28
:100B30000B3D85E01807A8F42017310790F4C09109
:100B4000F200D091F300C20FD31F1093F500009371
:100B5000F4000E946D14CE01DF91CF911F910F918F
:100B60000895D0E0C0E0F5CF08951092F5001092FE
:100B7000F40008952091F4003091F5008BED95E09C
:100B8000821B930B08951092F5001092F4000895C3
:100B9000FC010396928381832FEF3FEF34832383FD
:100BA000968385839087878310820895FC01118640
:100BB00010860895CF93DF939C01FB01DC01119611
:100BC000CD91DC91D383C2838C819D819583848375
:100BD0008C819D81DC0113967C936E9312977D83AB
:100BE0006C8331872087F90180818F5F8083DF915B
:100BF000CF9108950F931F93CF93DF938C01FB0147
:100C000080819181D80113968F3F9807F1F4E80114
:100C1000AF81B88512968D919C91139793838283AF
:100C2000EC01FD83EC83B583A4831396FC93EE93D0
:100C3000129711870087F80180818F5F8083DF9191
:100C4000CF911F910F910895D90112962D913C914A
:100C50001397E9014881598184179507A8F7DACFDE
:100C6000CF93DF93FC01A085B1858281938124819C
:100C70003581EC013D832C83C481D5819B838A839C
:100C800011968D919C9112978E179F0721F41296C1
:100C9000DC93CE931197118610868C9181508C93A2
:100CA000DF91CF91089531E1FC013083319722E249
:100CB00020833197A3E3A0833197608331977083BA
:100CC00031971082319760E86083319710823197B5
:100CD00062E06083319763E06083319764E0608312
:100CE000319765E06083319766E06083319767E014
:100CF0006083319768E06083319769E06083319762
:100D000060E1608331973083319732E130833197EE
:100D100033E13083319734E13083319735E13083EB
:100D2000319736E13083319737E13083319738E1BD
:100D30003083319739E13083319730E23083319716
:100D400031E2308331972083319723E2208331973A
:100D5000408331975083319726E22083319727E2F1
:100D60002083319728E22083319729E2208331972D
:100D700020E32083319721E32083869708951BBCCD
:100D80008CE78ABD8BE08EBD89B7806189BFA09159
:100D90002E07B0912F07CD91CDBFDD91DEBFFF9122
:100DA000EF91DF91CF91BF91AF919F918F917F9103
:100DB0006F915F914F913F912F911F910F91FF90F4
:100DC000EF90DF90CF90BF90AF909F908F907F90EB
:100DD0006F905F904F903F902F901F900F900FBE9D
:100DE0000F90089581E0089508950F920FB6F8943A
:100DF0000F921F9211242F923F924F925F926F9207
:100E00007F928F929F92AF92BF92CF92DF92EF929A
:100E1000FF920F931F932F933F934F935F936F9383
:100E20007F938F939F93AF93BF93CF93DF93EF9372
:100E3000FF93A0912E07B0912F070DB60D920EB61D
:100E40000D920E949815A0912E07B0912F07CD9179
:100E5000CDBFDD91DEBFFF91EF91DF91CF91BF91CB
:100E6000AF919F918F917F916F915F914F913F9142
:100E70002F911F910F91FF90EF90DF90CF90BF9037
:100E8000AF909F908F907F906F905F904F903F902A
:100E90002F901F900F900FBE0F9008950F920FB6D6
:100EA000F8940F921F9211242F923F924F925F92CB
:100EB0006F927F928F929F92AF92BF92CF92DF926A
:100EC000EF92FF920F931F932F933F934F935F9354
:100ED0006F937F938F939F93AF93BF93CF93DF9342
:100EE000EF93FF93A0912E07B0912F070DB60D92AF
:100EF0000EB60D920E94711381110E949815A09157
:100F00002E07B0912F07CD91CDBFDD91DEBFFF91B0
:100F1000EF91DF91CF91BF91AF919F918F917F9191
:100F20006F915F914F913F912F911F910F91FF9082
:100F3000EF90DF90CF90BF90AF909F908F907F9079
:100F40006F905F904F903F902F901F900F900FBE2B
:100F50000F9008950E944E0718950FB6F8940F92BF
:100F6000FC01928D0F900FBE81E0911180E00895F9
:100F70000F931F93CF93DF93EC01042F1A8D4C8DA9
:100F80004423C1F050E001111DC08A819B810E9461
:100F9000AA1E8C8D2A813B81820F932F911D9B83EA
:100FA0008A832C813D818217930720F08881998163
:100FB0009B838A831F5F1A8F80E0DF91CF911F91FF
:100FC0000F9108958E819F810E94AA1E8C8D90E0C2
:100FD0009195819591092E813F81280F391F3F837B
:100FE0002E83488159812417350730F42C813D81A7
:100FF000820F931F9F838E830230E1F61123D1F27B
:101000001150D8CFFC01CB01448D4423A1F050E016
:1010100026813781240F351F3783268364817581AC
:101020002617370720F02081318137832683668198
:1010300077810C94AA1E0895EF92FF921F93CF938D
:10104000DF93EC010FB6F8940F921E8D7C0181E1C5
:10105000E80EF11C1116C4F08FEF8E8F0F900FBEAB
:101060000FB6F8940F921D8D7E0188E0E80EF11CFA
:101070001116ACF08FEF8D8F0F900FBEDF91CF91D7
:101080001F91FF90EF9008958989882329F3C70164
:101090000E94321681110E94A5171150DBCF88855E
:1010A000882341F3C7010E94321681110E94A517BF
:1010B0001150DECFCF93DF93009709F43FC0FC01BE
:1010C000238D222309F43AC0EC01448D0FB6F89425
:1010D0000F9280819181FC01249FE00DF11D11246C
:1010E000FD83EC831A8E9B838A832150330B429FAE
:1010F000F001439FF00D11248E0F9F1F9F838E835D
:101100008FEF8D8F8E8F611110C08885882339F005
:10111000CE0108960E94321681110E94F5060F90AA
:101120000FBE81E0DF91CF910895CE0108960E9415
:10113000C805CE0141960E94C805F1CF80E0F2CFEC
:101140000F931F93CF93DF93811108C0D0E0C0E0CD
:10115000CE01DF91CF911F910F910895869F90014D
:101160001124213E310594F7162F082FC9014F96FF
:101170000E947C05EC01009749F3111109C0998385
:1011800088830B8F1C8F61E0CE010E945A08E0CF4C
:101190004F9699838883F5CFAF92BF92CF92DF921B
:1011A000FF920F931F93CF93DF9300D000D01F9235
:1011B000CDB7DEB78C016B015D834C83F22E80E0EE
:1011C000580198E0A90EB11C0FB6F8940F92F801DF
:1011D000228D938D291718F0F2E0FF1222C04F2DB7
:1011E000B601C8010E94B807F8019189992321F03E
:1011F000C80141960E94321681110E94F5060F9097
:101200000FBE81E00F900F900F900F900F90DF9125
:10121000CF911F910F91FF90DF90CF90BF90AF9033
:1012200008952C813D81232B21F40F900FBE80E087
:10123000E9CF811104C0CE0101960E946E170F9074
:101240000FBE0E9451130FB6F8940F92F801858DCE
:101250008F3F09F4158EF801868D8F3F09F4168EA5
:101260000F900FBEBE016C5F7F4FCE0101960E94B2
:101270007917811120C00FB6F8940F92F801928D62
:101280000F900FBE838D981310C06C817D81C501B6
:101290000E94DE15C8010E941C080E946D14811175
:1012A00002C00E94F50681E08FCFC8010E941C0891
:1012B0000E946D14F8CFC8010E941C080E946D1492
:1012C000B6CFEF92FF921F93CF93DF93EC019A8DED
:1012D0008B8D981718F080E02230D1F47A011E8DA2
:1012E0008A8D422FCE010E94B8071F3FB9F4898929
:1012F000811102C081E00CC0CE0141960E943216DD
:101300008823C1F3E114F104A9F381E0F70180839C
:10131000DF91CF911F91FF90EF9008950E94661387
:10132000181740F71F5F1E8FE5CFEF92FF921F93B4
:10133000CF93DF93EC018A8D9B8D891720F57B017C
:101340001E8D8F5F8A8F1F3FB9F48989811102C07A
:1013500081E00CC0CE0141960E9432168823C1F371
:10136000E114F104A9F381E0F7018083DF91CF91CB
:101370001F91FF90EF9008950E946613181740F791
:101380001F5F1E8FE5CF80E0F1CFAF92BF92CF926B
:10139000DF92FF920F931F93CF93DF9300D000D083
:1013A0001F92CDB7DEB78C016B015D834C8380E06B
:1013B000580191E1A90EB11C0FB6F8940F92F801F3
:1013C000F28CFF2019F1B601C8010E940208FA94BC
:1013D000F801F28E8085882339F0C80108960E94B2
:1013E000321681110E94F5060F900FBE81E00F901A
:1013F0000F900F900F900F90DF91CF911F910F9151
:10140000FF90DF90CF90BF90AF9008952C813D81E9
:10141000232B21F40F900FBE80E0E9CF811104C08F
:10142000CE0101960E946E170F900FBE0E945113BD
:101430000FB6F8940F92F801858D8F3F09F4158E41
:10144000F801868D8F3F09F4168E0F900FBEBE01F6
:101450006C5F7F4FCE0101960E94791781111BC0EE
:10146000C8010E94AD07882381F06C817D81C50190
:101470000E94DE15C8010E941C080E946D14811193
:1014800002C00E94F50681E097CFC8010E941C08A7
:101490000E946D14F8CFC8010E941C080E946D14B0
:1014A000C8010E94AD07882371F3B6CFEF92FF9277
:1014B0000F931F93CF93DF9300D000D01F92CDB72F
:1014C000DEB78C017D836C8390E0780181E1E80ECA
:1014D000F11C0FB6F8940F92F801828D8823D9F091
:1014E0008150828F8085882339F0C80108960E9438
:1014F000321681110E94F5060F900FBE81E00F9009
:101500000F900F900F900F90DF91CF911F910F913F
:10151000FF90EF9008952C813D81232B21F40F90B3
:101520000FBE80E0ECCF911104C0CE0101960E9465
:101530006E170F900FBE0E9451130FB6F8940F92C2
:10154000F801858D8F3F09F4158EF801868D8F3F48
:1015500009F4168E0F900FBEBE016C5F7F4FCE0157
:1015600001960E94791781111BC0C8010E94AD0726
:10157000882381F06C817D81C7010E94DE15C8013E
:101580000E941C080E946D14811102C00E94F50681
:1015900091E09FCFC8010E941C080E946D14F8CFF3
:1015A000C8010E941C080E946D14C8010E94AD076A
:1015B000882371F3B6CFCF92DF92EF92FF920F9311
:1015C0001F93CF93DF9300D000D01F92CDB7DEB72B
:1015D0008C017B015D834C8380E0680191E1C90E41
:1015E000D11C0FB6F8940F92F801928D992321F136
:1015F000C680D780B701C8010E940208F801D782CF
:10160000C6828189882339F0C80141960E9432162A
:1016100081110E94F5060F900FBE81E00F900F9090
:101620000F900F900F90DF91CF911F910F91FF902E
:10163000EF90DF90CF9008952C813D81232B21F4F2
:101640000F900FBE80E0EACF811104C0CE01019659
:101650000E946E170F900FBE0E9451130FB6F894A0
:101660000F92F801858D8F3F09F4158EF801868D54
:101670008F3F09F4168E0F900FBEBE016C5F7F4F37
:10168000CE0101960E94791781111BC0C8010E94EA
:10169000AD07882381F06C817D81C6010E94DE1533
:1016A000C8010E941C080E946D14811102C00E9492
:1016B000F50681E096CFC8010E941C080E946D14B7
:1016C000F8CFC8010E941C080E946D14C8010E9436
:1016D000AD07882371F3B6CFEF92FF920F931F935C
:1016E000CF93DF93FC01028D002341F17A01EC01DD
:1016F000158D0E94020801500A8F1F3FC1F4888592
:10170000811102C081E00CC0CE0108960E94321601
:101710008823C1F3E114F104A9F381E0F701808388
:10172000DF91CF911F910F91FF90EF9008950E944C
:101730006613181738F71F5F1D8FE4CF80E0F0CFD6
:101740000F931F93CF93DF93FC01228D222369F027
:10175000EC01068117810E9402081F830E8381E03D
:10176000DF91CF911F910F91089580E0F9CF0FB6CF
:10177000F8940F92FC01828D0F900FBE08950FB662
:10178000F8940F92FC01228D0F900FBE838D821B67
:101790000895FC01828D08950C94B405FC01848D9C
:1017A0000895FC01838D0895FC01928D81E09111D3
:1017B00080E00895FC01928D81E0238D291380E063
:1017C0000895CF93DF93EC01F8940FB6F8940F923D
:1017D0008A8D9B8D0F900FBE891311C04115510545
:1017E00059F0BE01685F7F4FCA010E94860278945B
:1017F0008CEFDF91CF910895789480E0FACF7894C0
:10180000F8948A8D891790F440E0CE010E94B807C1
:101810008989811103C081E07894EBCFCE01419694
:101820000E94CC038823B9F38BEFF6CF80E0F4CF8E
:10183000CF93DF93EC01FB01F8948A8D811111C0E5
:101840004115510559F0BE016F5E7F4FCA010E94DC
:10185000860278948CEFDF91CF910895789480E0A0
:10186000FACF7894F8948A8D882339F14C8D50E022
:101870002E813F81240F351F3F832E838C819D81D4
:101880002817390720F0888199819F838E839A8D4C
:1018900091509A8F6E817F81CF010E94AA1E888508
:1018A000811103C081E07894D6CFCE0108960E94C2
:1018B000CC038823B9F38BEFF6CF80E0F4CF1F93EE
:1018C000CF93DF93EC01142F9A8D8B8D981788F4AA
:1018D00040E0CE010E94B80711110BC0898988230E
:1018E00041F0CE0141960E94CC0311E0811101C06C
:1018F00010E0812FDF91CF911F9108950F931F93D7
:10190000CF93DF93EC018A8D882391F12C8D30E009
:10191000AE81BF81A20FB31FBF83AE838C819D8137
:10192000A817B90720F0888199819F838E838A0147
:10193000CB014A8D41504A8F6E817F81A9010E945F
:10194000AA1EF8018081882331F081E0DF91CF91D8
:101950001F910F91089588858823B9F3CE010896C9
:101960000E94CC03882389F381E0F8018083EECFC5
:1019700080E0ECCFFC014481558122813381240F2A
:10198000351F80819181B901681B790BCB016417E8
:10199000750710F0841B950B0895AF92BF92CF92FC
:1019A000DF92EF92FF920F931F93CF93DF936C011F
:1019B0005B017A01E901FC0104811581021B130B13
:1019C0004017510708F48A01F60184859585A8011E
:1019D000B5018C0F9D1F0E94AA1E0E151F0558F4FD
:1019E000A701401B510BB501600F711FF6018485E3
:1019F00095850E94AA1ECE018E0D9F1DF6012481A1
:101A000035818217930710F0821B930BDF91CF91E2
:101A10001F910F91FF90EF90DF90CF90BF90AF900C
:101A20000895AF92BF92CF92DF92EF92FF920F9301
:101A30001F93CF93DF9300D0CDB7DEB76C015B016E
:101A40007A01FC0182819381468540FF28C0FA8299
:101A5000E9822017310740F19C0142E050E0BE01CD
:101A60006F5F7F4FC6010E94CD0CE114F10449F075
:101A70009C01A701B501C6010E94CD0CF60193831C
:101A80008283C7010F900F90DF91CF911F910F912B
:101A9000FF90EF90DF90CF90BF90AF9008952E15FC
:101AA0003F0518F77901E1CFF12CE12CEACFAF9295
:101AB000BF92CF92DF92EF92FF920F931F93CF933B
:101AC000DF936C015B017A01E901FC01048115815E
:101AD000021B130B4017510708F48A01F6016485B5
:101AE00075856C0F7D1FA801C5010E94AA1E0E15E9
:101AF0001F0558F4A701401B510BF601648575853D
:101B0000C501800F911F0E94AA1ECE018E0D9F1D40
:101B1000F601248135818217930710F0821B930B05
:101B2000DF91CF911F910F91FF90EF90DF90CF90B9
:101B3000BF90AF900895AF92BF92CF92DF92EF9295
:101B4000FF920F931F93CF93DF9300D0CDB7DEB7F3
:101B50007C015B016A018901FC012081318186855C
:101B600080FF12C042E050E0BE016F5F7F4FC701AF
:101B70000E94570D9C0189819A8102501109C81653
:101B8000D906F8F4D12CC12CC016D10608F4860170
:101B90000115110541F0A801B501C7010E94570DBB
:101BA000F70191838083C8010F900F90DF91CF914F
:101BB0001F910F91FF90EF90DF90CF90BF90AF906B
:101BC00008956C01E1CFEF92FF921F93CF93DF93C3
:101BD000EC017B0111E0413021F010E0423009F4CA
:101BE00014E0E114F10419F4EE24E394F12CF0E094
:101BF000E0E0CF3E8FEFD807B8F4CE0141960E94C7
:101C00007C05FC01892B81F08CE0DF011D928A9517
:101C1000E9F7CF014096958784872196D583C483C1
:101C2000F782E68216871786CF01DF91CF911F9149
:101C3000FF90EF900895FC01268521FF0C94B405D8
:101C400020E111922A95E9F70895FC010FB6F89466
:101C50000F9280859185892BB1F482859385892B9C
:101C600091F486819781248135814CE0DF011D92BA
:101C70004A95E9F73583248397838683178681E025
:101C80000F900FBE089580E0FBCFFC018085918509
:101C9000892BA1F482859385892B81F48681978194
:101CA000248135814CE0DF011D924A95E9F73583A7
:101CB000248397838683178681E0089580E00895C2
:101CC0006115710511F461E070E0FC01248135813A
:101CD0006217730720F47783668381E0089580E0BC
:101CE0000895FC0124813581808191816081718119
:101CF00042815381A081B181A817B907A9F7C90111
:101D00000197860F971F841B950B8217930710F07E
:101D1000821B930B08950C94BA0C2F923F924F9212
:101D20005F926F927F928F929F92AF92BF92CF926B
:101D3000DF92EF92FF920F931F93CF93DF9300D028
:101D400000D01F92CDB7DEB75C011B012A013D8395
:101D50002C83FC0184819581019726854A0120FF0F
:101D600054C0F2E08F0E911C8815990510F41D8265
:101D70001C828C819D81892B09F04DC0C5010E9478
:101D8000710E3C0184019301A201B101C5010E94C1
:101D9000110D4C01892B01F1C5010E94BA0CF5010E
:101DA0002681378182179307B8F00E945113F501FD
:101DB00080859185892B71F080859185F12CE12CAE
:101DC00000E020E030E0A90167850E940619F501D6
:101DD000118610860E946D14C4010F900F900F9011
:101DE0000F900F90DF91CF911F910F91FF90EF9087
:101DF000DF90CF90BF90AF909F908F907F906F902B
:101E00005F904F903F902F9008958417950708F0AA
:101E1000B0CF4C01AECFCE0101960E945E170FB637
:101E2000F8940F92C5010E94710E3C018815990526
:101E300058F5F501678590E080E00E949A1B0E94AA
:101E4000A917F501938782870F900FBECC80DD80A4
:101E5000F12CE12C00E010E0980140E050E0BA01E4
:101E600087850E945018F50113861286BE016C5FAB
:101E70007F4FCE0101960E947917882381F2611469
:101E8000710409F47BCF7ECF0F900FBEF8CFAF92D5
:101E9000BF92CF92DF92EF92FF920F931F93CF9357
:101EA000DF93EC015B017A0169018E858A0180FF75
:101EB00002C00E5F1F4FCE010E94710E9C01A70150
:101EC000B501CE010E94110D5C01892BC9F0CE0134
:101ED0000E94BA0C2E813F818217930788F0888573
:101EE0009985892B69F088859985F12CE12C00E092
:101EF00020E030E0A9016F850E94E6191986188656
:101F0000C501DF91CF911F910F91FF90EF90DF906E
:101F1000CF90BF90AF9008956F927F928F929F92D3
:101F2000AF92BF92CF92DF92EF92FF920F931F93E7
:101F3000CF93DF93EC014B013A0169018E8580FD5F
:101F400047C0B12CA12C82FF02C0AE80BF80C1145B
:101F5000D10429F10FB6F8940F92CE010E94BA0C69
:101F60008C01A816B90648F06F8590E080E00E94C9
:101F70009A1B0E94A917998788870F900FBEA016F9
:101F8000B10650F1F12CE12C00E010E0980140E0A6
:101F900050E0BA018F850E94501819861886CE012C
:101FA0000E94BA0C8C01A816B906B0F0B12CA12C75
:101FB000C501DF91CF911F910F91FF90EF90DF90BE
:101FC000CF90BF90AF909F908F907F906F9008952B
:101FD00082E0A82EB12CBBCF9801A301B401CE01A1
:101FE0000E949B0D5C01892B09F30E9451138A8585
:101FF0009B85892B69F08A859B85F12CE12C00E07B
:1020000020E030E0A9016F850E9406191B861A8620
:102010000E946D14CDCF0F931F93CF93DF9300D009
:10202000CDB7DEB7FC01268520FD09C090E080E039
:102030000F900F90DF91CF911F910F9108958C0118
:102040000E94BA0C039790F3F8012081318142E09D
:1020500050E0BE016F5F7F4FC8010E94570D89811C
:102060009A81E6CFAF92BF92CF92DF92EF92FF922A
:102070000F931F93CF93DF93EC015B017A0169010A
:102080008E8510E000E080FF02C002E010E0CE018B
:102090000E94BA0C0817190770F0B12CA12CC501C9
:1020A000DF91CF911F910F91FF90EF90DF90CF9034
:1020B000BF90AF9008959C01A701B501CE010E9489
:1020C0009B0D5C01892B49F38A859B85892B39F30C
:1020D0008A859B85F12CE12C00E020E030E0A9010D
:1020E0006F850E94E6191B861A86D9CFFC012081D4
:1020F00031814281538181E04217530709F080E02A
:102100000895CF93DF93FC012685D0E0C0E020FF47
:1021100002C0C2E0D0E00E94710E21E0C817D907CA
:1021200008F420E0822FDF91CF910895CF92DF92C3
:10213000EF92FF920F93CF93DF93FC0120853185BF
:10214000232BC1F06B01EC0180859185F12CE12CF2
:1021500000E020E030E0A90167850E94E6191986B9
:10216000188681E0DF91CF910F91FF90EF90DF9083
:10217000CF90089580E0F6CFCF92DF92EF92FF925A
:102180000F93CF93DF93FC0122853385232BC1F07E
:102190006B01EC0182859385F12CE12C00E020E0BD
:1021A00030E0A90167850E94E6191B861A8681E046
:1021B000DF91CF910F91FF90EF90DF90CF90089536
:1021C00080E0F6CFFC0187850895FC0167870895BC
:1021D000E091F606F091F7068081811107C08FEF3C
:1021E0009FEF9093D6068093D5060895E091F6066A
:1021F000F091F7060580F681E02D80819181F1CF85
:10220000CF92DF92EF92FF920F931F93CF93DF93C2
:10221000EC01C090DE06D090DF060091F60610912A
:10222000F706E090F406F090F50680912E07909165
:102230002F0702960E943006CC0DDD1DE0912E077F
:10224000F0912F07D383C28360912E0770912F07DF
:102250006E5F7F4FCC15DD0558F4C701DF91CF913C
:102260001F910F91FF90EF90DF90CF900C94FA05A3
:10227000C8010E94FA058091D5069091D606C8172C
:10228000D90720F4D093D606C093D506DF91CF911D
:102290001F910F91FF90EF90DF90CF900895CF9313
:1022A000DF938091E106811103C0DF91CF91089502
:1022B0000FB6F8940F92E091E706F091E806C68118
:1022C000D781CE0102960E9430068091E0068150AF
:1022D0008093E0068091E10681508093E1060F90A3
:1022E0000FBE8F89988D0E94B405CE010E94B4055F
:1022F000D8CF0E944F1180910A078230D0F30E94FC
:10230000F506F7CF4F925F926F927F928F929F92D6
:10231000AF92BF92CF92DF92EF92FF920F93CF9343
:10232000DF934C015B012901C42ED12CC6010E9410
:102330007C053C01892B09F4C9C086E290E00E942B
:102340007C05EC01892B09F4BEC086E2DE011D92FA
:102350008A95E9F7788E6F8AB1E0CB1AD108C60C5E
:10236000D71CA114B10409F0C2C0043008F003E086
:102370000E8B5E01B2E0AB0EB11CC5010E94D6050A
:10238000CE010C960E94D605D987C88784E090E0DC
:10239000801B91099D878C87DB8BCA8BA201B401BE
:1023A000C6010E94530699838883E114F10419F051
:1023B000F701D183C0830FB6F8940F928091E006A5
:1023C0008F5F8093E00680912E0790912F07892BD5
:1023D00009F0A3C0D0932F07C0932E078091E00689
:1023E000813061F58AE097E00E94C80583E197E0BB
:1023F0000E94C8058CE197E00E94C80585E297E03D
:102400000E94C80581E097E00E94C80588EF96E029
:102410000E94C8058BEE96E00E94C80582EE96E009
:102420000E94C80581E097E09093F7068093F60636
:1024300088EF96E09093F5068093F4068091D70696
:102440008F5F8093D706AE898091DD068A1710F4DE
:10245000A093DD0629E02A9FD0011124A65FB84F82
:1024600011960D90BC91A02DBD83AC8314968D91D7
:102470009C9115979F838E8314968D919C911597AF
:10248000FC01B382A2821596BC92AE9214979E89EB
:10249000929FF0011124E65FF84FFB87EA87808165
:1024A0008F5F80830F900FBE8091DC06882349F0F8
:1024B000E0912E07F0912F078689891710F40E946A
:1024C000F50681E004C0C3010E94B4058FEFDF91DF
:1024D000CF910F91FF90EF90DF90CF90BF90AF9092
:1024E0009F908F907F906F905F904F900895F5012F
:1024F000AE01475E5F4FC50108962191DA012D9329
:10250000AD019F0121503109D9012C91222319F0ED
:10251000E817F90791F718A228CF8091DC068111FE
:102520008DCFE0912E07F0912F079E89868998170D
:1025300008F484CFD0932F07C0932E077FCF0F933B
:102540001F93CF93DF93EC010FB6F8940F92892B72
:1025500021F4C0912E07D0912F078E010E5F1F4FDF
:10256000C8010E9430068C899D89892B21F0CE01FB
:102570000C960E9430068091D7068F5F8093D70615
:1025800080912E0790912F072091DC06222359F18C
:102590008C179D0741F5B80182EE96E00E94DA059E
:1025A0008091E1068F5F8093E10681E00F900FBE7E
:1025B000813039F08F89988D0E94B405CE010E9438
:1025C000B4058091DC06882349F080912E07909114
:1025D0002F078C179D0711F40E94F506DF91CF910C
:1025E0001F910F9108958091E00681508093E0063D
:1025F0000E94E81080E0DACFEF92FF920F93CF9322
:10260000DF93CDB7DEB728970FB6F894DEBF0FBEC5
:10261000CDBFA1E6B0E0FE01319629E630E0BF0172
:102620008D918193882319F02A173B07C9F783ED11
:10263000E82E86E0F82E00E030E020E045E589E76E
:1026400091E10E948211882389F0813079F4F89415
:102650002FEF3FEF3093D6062093D5068093DC060C
:102660001092DF061092DE060E94BF068091600085
:1026700028960FB6F894DEBF0FBECDBFDF91CF9185
:102680000F91FF90EF9008958091D3069091D4061A
:102690000E949F120E944F11F8941092DC060C9435
:1026A000F4068091D2068F5F8093D20608950FB60C
:1026B000F8940F928091DE069091DF060F900FBE86
:1026C00008958091DE069091DF0608958091E006DE
:1026D0000895009721F480912E0790912F07499635
:1026E0000895CF92DF92EF92FF920F931F93CF93B3
:1026F000DF938091D2068111E5C0C091DE06D091B2
:10270000DF066E018FEFC81AD80AD092DF06C0929A
:10271000DE06C114D104B9F48091F6069091F70653
:102720002091F4063091F5063093F7062093F606D3
:102730009093F5068093F4068091D8068F5F80937E
:10274000D8060E94E8108091D5069091D606C8164A
:10275000D906E8F480E0E0912E07F0912F07E68992
:10276000D9E0ED9FF0011124E65FF84F908192309F
:1027700008F081E09091D906911181E0DF91CF912D
:102780001F910F91FF90EF90DF90CF90089580E020
:1027900069E0E091F606F091F7069081911107C08B
:1027A0002FEF3FEF3093D6062093D506D4CFE0919C
:1027B000F606F091F7060580F681E02D0680F78198
:1027C000E02D22813381C216D30660F3C285D38502
:1027D0002481358146815781D90115965C934E93AA
:1027E000149746815781DA0113963C932E931297E2
:1027F0009F012E5F3F4F09811A810217130711F4C1
:102800005A83498313861286988191509883A489AC
:10281000B5891097F9F04685578500891189EA0135
:102820001D830C8300891189E8015B834A8311961B
:10283000ED90FC901297AF01445F5F4FE416F506F0
:1028400021F412961C930E931197158A148A9C9169
:1028500091509C93A6899091DD069A1710F4A0934D
:10286000DD066A9FD0011124A65FB84F11960D9026
:10287000BC91A02DB583A48314964D915C911597BE
:102880005783468314964D915C911597EA013B83DB
:102890002A8315963C932E9314972689269FD00160
:1028A0001124A65FB84FB387A2879C919F5F9C932A
:1028B000E0912E07F0912F079689921708F069CFC3
:1028C00081E067CF8091DA069091DB0601969093C4
:1028D000DB068093DA0680E051CFEF92FF920F93F0
:1028E0001F93CF93DF930FB6F8940F928091D20687
:1028F00081508093D2068091D206882351F080E0E7
:102900000F900FBEDF91CF911F910F91FF90EF902D
:1029100008958091E006882391F3E090F006F0900E
:10292000F106F0E0E0E039E041E08091EB06811152
:1029300022C0EF2B11F00E94E810C091DA06D0916E
:10294000DB06209761F011E00E9471138111109352
:10295000D9062197C9F71092DB061092DA0680910A
:10296000D906882361F280912E0790912F070E944B
:10297000F50681E0C5CFD7011696ED91FC91A489AB
:10298000B5896685778580899189EB019D838C83E4
:1029900080899189EC017B836A83BF01645F7F4FEB
:1029A00011960D911C9112970617170721F4129694
:1029B0009C938E931197158A148A8C9181508C93D5
:1029C000A285B3858481958166817781EC017D83C1
:1029D0006C8366817781EB019B838A83CF010296AA
:1029E00011960D911C9112970817190721F4129650
:1029F0007C936E931197138612862C9121502C9301
:102A0000A6892091DD062A1710F4A093DD063A9FCF
:102A1000D0011124A65FB84F11960D90BC91A02D46
:102A2000B583A48314966D917C9115977783668303
:102A300014966D917C911597EB019B838A83159673
:102A40009C938E9314979689939FD0011124A65F2F
:102A5000B84FB387A2878C918F5F8C93A0912E077C
:102A6000B0912F0756968C91891708F05ECF40934E
:102A7000D9065BCF0F931F93CF93DF93EC018B01AC
:102A80000E9451132091DE063091DF064881598162
:102A9000CA01800F911F998388832417350780F41A
:102AA0008417950780F0C0E00E946D14811102C068
:102AB0000E94F5068C2FDF91CF911F910F91089501
:102AC0008417950718F02817390768F7821B930BAE
:102AD0000E940011C1E0E8CFCF93DF93EC01892B76
:102AE00029F40E94F506DF91CF9108950E945113B9
:102AF000CE010E9400110E946D14882391F3F3CF40
:102B0000CF93DF93EC010E9451130FB6F8940F920C
:102B10008091DA069091DB068C0F9D1F9093DB0667
:102B20008093DA060F900FBEDF91CF910C946D1455
:102B30008091D206882321F081E08093D906089500
:102B40001092D9062091DD0689E0422F50E0849F43
:102B5000F001859FF00D1124E65FF84F90819923D5
:102B600059F1A181B28112966D917C91728361833A
:102B7000289FC0011124835F984F6817790721F4BB
:102B8000858196819283818389E0849FF001859F6E
:102B9000F00D1124E65FF84F0180F281E02D86816F
:102BA000978190932F0780932E072093DD068091C5
:102BB0002E0790912F0708952150C7CFCF93DF9311
:102BC000EB0160912E0770912F07645F7F4F0E9489
:102BD000FA05CE01DF91CF910C940011CF93DF93D2
:102BE000FC01A0912E07B0912F0770681D967C9371
:102BF0006E931C97A181B281C0912E07D0912F07AF
:102C0000BF87AE87C0912E07D0912F0714968D9164
:102C10009C911597998B888B20912E0730912F07C7
:102C20001496CD91DC911597245F3F4F3B832A8307
:102C300020912E0730912F07245F3F4F15963C932C
:102C40002E931497A0912E07B0912F075596FC93C1
:102C5000EE93549790819F5F9083CA01DF91CF914B
:102C60000C940011CF93DF93DC011596ED91FC914C
:102C70000680F781E02DA489B5898685978520890E
:102C80003189EC013D832C83C089D1899B838A8360
:102C9000CF010C9611962D913C9112972817390768
:102CA00021F41296DC93CE931197158A148A2C91F5
:102CB00021502C932091D206211157C0A285B385B3
:102CC0008481958126813781EC013D832C83C681E7
:102CD000D7819B838A83CF01029611962D913C91D7
:102CE00012972817390721F41296DC93CE93119787
:102CF000138612862C9121502C93C6892091DD06D3
:102D00002C1710F4C093DD0629E02C9FE00111245C
:102D1000C65FD84F0980DA81C02DD583C4834C812A
:102D20005D8157834683AC81BD8113969C938E93BE
:102D300012979D838C83A689A29FD0011124A65F40
:102D4000B84FB387A2878C918F5F8C93A0912E0789
:102D5000B0912F07968956968C91891730F581E0AE
:102D60008093D906DF91CF910895A091EC06B091A0
:102D7000ED06B787A68714962D913C911597318B58
:102D8000208B1496CD91DC9115979B838A831596A1
:102D90009C938E9314978BEE96E0958B848B809109
:102DA000EB068F5F8093EB06D1CF80E0DBCFCF9334
:102DB000DF93DC01706811967C936E931696ED910B
:102DC000FC91179718964D915C91199712962D9139
:102DD0003C91139714968D919C911597E9019D83D1
:102DE0008C8314968D919C911597EC013B832A83DB
:102DF000EA0129813A812A173B0711F49A838983D2
:102E000019961C921E921897DA018C9181508C931E
:102E1000A285B3858481958126813781EC013D832C
:102E20002C83C681D7819B838A83CF01029611961A
:102E30002D913C9112972817390721F41296DC93B3
:102E4000CE931197138612862C9121502C93C6890C
:102E50002091DD062C1710F4C093DD0649E04C9F4D
:102E6000E0011124C65FD84F0980DA81C02DD583D7
:102E7000C4832C813D81378326832C813D81D901F8
:102E800013969C938E9312979D838C839689949F1F
:102E9000D0011124A65FB84FB387A2878C918F5FB2
:102EA0008C93E0912E07F0912F078689891718F4EB
:102EB00081E08093D906DF91CF9108950FB6F89401
:102EC0000F922091D806FC0120832091DE063091DC
:102ED000DF06328321830F900FBE08952091D8061C
:102EE000FC0120832091DE063091DF0632832183AE
:102EF00008950FB6F8940F922091DE063091DF0608
:102F0000DC0111964D915C911297E091D806FC91ED
:102F1000FE1751F02417350738F0FB01118210829B
:102F200081E00F900FBE0895241B350BDB014D91FE
:102F30005C912417350788F7421B530BFB01518323
:102F400040830E946E1780E0ECCF81E08093D90629
:102F5000089580912E0790912F070895811105C043
:102F600080912E0790912F07089590E080E00895BA
:102F7000E0912E07F0912F0784859585A0912E076B
:102F8000B0912F07E0912E07F0912F0756964C91A4
:102F900024E030E0241B3109358724870895CF923F
:102FA000DF92EF92FF920F931F93CF93DF93C82F7F
:102FB000E62E6A010E9451130FB6F8940F92E09129
:102FC0002E07F0912F07D0E08E01000F111F000F88
:102FD000111FE00FF11F81A192A1A3A1B4A1892B20
:102FE0008A2B8B2B69F4E0912E07F0912F07EC0FC1
:102FF000FD1F81E085A3FF24F394C114D10409F4DB
:10300000F12C0F900FBE21E0F21203C0C6010E9406
:1030100000110E946D1491E0F91204C0811102C0E8
:103020000E94F5060FB6F8940F92E0912E07F091EA
:103030002F07E00FF11F61A172A183A194A1611577
:1030400071058105910569F020912E0730912F07B8
:10305000020F131FEE20B9F0F80111A212A213A261
:1030600014A220912E0730912F07C20FD31F1DA24B
:103070000F900FBEDF91CF911F910F91FF90EF90B6
:10308000DF90CF9008956B017C01F1E0CF1AD10859
:10309000E108F108F801C1A2D2A2E3A2F4A2E1CFB3
:1030A0004F925F926F927F928F929F92AF92BF9258
:1030B000CF92DF92EF92FF920F931F93CF93DF9304
:1030C000C82F2A013B01480159010E9451130FB634
:1030D000F8940F92E0912E07F0912F07D0E0EC0FBB
:1030E000FD1F85A1823039F1E0912E07F0912F0765
:1030F000CE01880F991F880F991FE80FF91F81A132
:1031000092A1A3A1B4A1409450946094709484219E
:103110009521A621B72181A392A3A3A3B4A3E091F3
:103120002E07F0912F07EC0FFD1F81E085A311E022
:10313000C114D10409F410E00F900FBE113019F43E
:10314000C6010E9400110E946D14113021F48111FA
:1031500002C00E94F5060FB6F8940F92E114F10434
:10316000A1F0E0912E07F0912F07CE01880F991F53
:10317000880F991FE80FF91F81A192A1A3A1B4A103
:10318000F70180839183A283B383E0912E07F091AE
:103190002F07EC0FFD1F85A18230B1F5E0912E07BE
:1031A000F0912F07CE01880F991F880F991FE80F04
:1031B000F91F81A192A1A3A1B4A180949094A0949D
:1031C000B09488219921AA21BB2181A392A3A3A312
:1031D000B4A381E020912E0730912F07C20FD31F97
:1031E0001DA20F900FBEDF91CF911F910F91FF9005
:1031F000EF90DF90CF90BF90AF909F908F907F9097
:103200006F905F904F90089580E0E4CF8F929F92EF
:10321000AF92BF92CF92DF92EF92FF920F93CF9334
:10322000DF93DC010FB6F8940F9270E0E114F10423
:1032300081F0FB01EE0FFF1FEE0FFF1FE80FF91FDC
:1032400081A092A0A3A0B4A0E70188829982AA825B
:10325000BB82FD01E60FF71F85A192E095A3023026
:10326000E1F1A0F4013029F1813009F44AC081E094
:103270000F900FBEDF91CF910F91FF90EF90DF90F5
:10328000CF90BF90AF909F908F900895033029F01A
:10329000043051F7823009F497C0660F771F660F2C
:1032A000771FFD01E60FF71F21A332A343A354A309
:1032B000DBCF660F771F660F771FFD01E60FF71F45
:1032C000C1A0D2A0E3A0F4A0C22AD32AE42AF52AFE
:1032D000C1A2D2A2E3A2F4A2C7CF660F771F660FE6
:1032E000771FFD01E60FF71F41A152A163A174A151
:1032F0004F5F5F4F6F4F7F4F41A352A363A374A3F0
:10330000B3CF1A96ED91FC911B9714968D919C91D9
:10331000159716962D913C911797EC013D832C83C0
:103320001696CD91DC9117979B838A839D012E5F22
:103330003F4F818192818217930711F4D283C18319
:103340001B961C921E921A978081815080835696FC
:10335000CC9156978091DD068C1710F4C093DD0652
:1033600049E04C9FE0011124C65FD84F0980DA8103
:10337000C02D1596DC93CE9314978C819D81179662
:103380009C938E9316978C819D81FC0133832283BD
:103390003D832C8356969C915697949FF00111245F
:1033A000E65FF84F1B96FC93EE931A9780818F5F30
:1033B0008083E0912E07F0912F078689891708F006
:1033C00056CF0E94F50653CF80E052CF8F929F9246
:1033D000AF92BF92CF92DF92EF92FF920F93CF9373
:1033E000DF93DC0170E0E114F10481F0FB01EE0FEA
:1033F000FF1FEE0FFF1FE80FF91F81A092A0A3A0EF
:10340000B4A0E70188829982AA82BB82FD01E60FFF
:10341000F71F85A192E095A30230D1F190F401301D
:1034200019F1813009F448C081E0DF91CF910F910B
:10343000FF90EF90DF90CF90BF90AF909F908F90D4
:103440000895033029F0043061F7823009F4C5C0D3
:10345000660F771F660F771FFD01E60FF71F21A389
:1034600032A343A354A3DDCF660F771F660F771FE8
:10347000FD01E60FF71F81A092A0A3A0B4A0822AAD
:10348000932AA42AB52A81A292A2A3A2B4A2C9CF48
:10349000660F771F660F771FFD01E60FF71F41A12B
:1034A00052A163A174A14F5F5F4F6F4F7F4F41A344
:1034B00052A363A374A3B5CF8091D20681116BC0D0
:1034C0001A96ED91FC911B9714968D919C911597EE
:1034D00016962D913C911797EC013D832C831696FF
:1034E000CD91DC9117979B838A839D012E5F3F4F7F
:1034F000818192818217930711F4D283C1831B9635
:103500001C921E921A978081815080835696CC918E
:1035100056978091DD068C1710F4C093DD0689E084
:103520008C9FE0011124C65FD84F0980DA81C02D3D
:103530001596DC93CE9314974C815D8117965C931E
:103540004E931697EC81FD81338322833D832C8338
:103550005696EC915697E89FF0011124E65FF84FDC
:103560001B96FC93EE931A9780818F5F8083E09186
:103570002E07F0912F0756969C918689891708F09F
:1035800053CFC114D10419F081E0F601808381E0AA
:103590008093D9064ACFE091EC06F091ED061F9694
:1035A000FC93EE931E978481958151969C938E9304
:1035B0005097C481D581CD010C969B838A839583D6
:1035C00084838BEE96E055969C938E9354978091CE
:1035D000EB068F5F8093EB06CACF80E026CF0F9378
:1035E0001F93CF93DF93FC01A62FB0E0EC01CA0F2D
:1035F000DB1F8DA192E09DA3AA0FBB1FAA0FBB1FCB
:10360000AE0FBF1F91960D911D912D913C919497F6
:103610000F5F1F4F2F4F3F4F91960D931D932D938B
:103620003C939497813009F05EC08091D20681115D
:103630005FC0A285B3858481958126813781EC01A5
:103640003D832C83C681D7819B838A83CF010296D9
:1036500011962D913C9112972817390721F4129653
:10366000DC93CE931197138612862C9121502C93C4
:10367000C6892091DD062C1710F4C093DD0629E0E1
:103680002C9FE0011124C65FD84F0980DA81C02D3C
:10369000D583C4836C817D8177836683AC81BD8152
:1036A00013969C938E9312979D838C83A689A29FD9
:1036B000D0011124A65FB84FB387A2878C918F5F8A
:1036C0008C93A0912E07B0912F07968956968C91D6
:1036D000891748F44115510519F081E0FA018083FA
:1036E00081E08093D906DF91CF911F910F910895CA
:1036F000A091EC06B091ED06B787A68714968D9140
:103700009C911597918B808B1496CD91DC91159798
:10371000CF010C969B838A8315969C938E93149766
:103720008BEE96E0958B848B8091EB068F5F809378
:10373000EB06C7CF009721F480912E0790912F07B9
:103740000FB6F8940F92FC01E60FF11D85A18230AF
:1037500029F415A281E00F900FBE089580E0FBCF01
:10376000CF92DF92EF92FF92009721F480912E0783
:1037700090912F070FB6F8940F9274E0679FF001B5
:103780001124E80FF91F61A172A183A194A1C1A026
:10379000D2A0E3A0F4A02095309540955095C22288
:1037A000D322E422F522C1A2D2A2E3A2F4A20F9076
:1037B0000FBEFF90EF90DF90CF90089510922F07EB
:1037C00010922E071092E1061092E0061092DF068A
:1037D0001092DE061092DD061092DC061092DB06D7
:1037E0001092DA061092D9061092D8061092D706D7
:1037F0001092D6061092D5061092D206089580E057
:103800000E940C0181E00E940C018536910568F050
:10381000F12CE12C02E020E030E0A90160E0809191
:103820003107909132070E94061984EF91E00E94BF
:103830006C15E5CF4FEF5FEF61E080E00E94CF179E
:1038400081E080933007A89A88EE93E00E946C157F
:10385000A89810923007EECF9C0150E040E060E263
:1038600071EA87E090E00E94641E2150310930BD6A
:1038700029B988E08AB986E880BD08955D9BFECFAE
:103880008CB90895CF93DF93EC018991811103C026
:10389000DF91CF9108950E943E1CF7CFCF93DF9325
:1038A000CDB7DEB7A8970FB6F894DEBF0FBECDBF79
:1038B00086E6882E80E0982E90E2D92ECE010196E1
:1038C0007C012EE7A22E20E0B22E80E00E940C01A7
:1038D000182F092F0E943A016DA37EA38FA398A7EA
:1038E0000F931F939F928F921F92DF92FF92EF92FE
:1038F0000E94B31EC7010E94421C6DA17EA18FA130
:1039000098A5870122E030E04AEF5FEF0E948C1E0D
:10391000C7010E94421C89E790E00E94421C81E09E
:103920000E940C01182F092F0E943A0169A37AA363
:103930008BA39CA30F931F93BF92AF921F92DF9212
:10394000FF92EF920E94B31EC7010E94421C69A120
:103950007AA18BA19CA1870122E030E04AEF5FEFC2
:103960000E948C1EC7010E94421C89E790E00E94C1
:10397000421C84EF91E00E946C150FB6F894DEBFF4
:103980000FBECDBFA2CF60E080E80E94010180E8B9
:1039900095E20E942C1CA09A83E3E82E87E0F82E83
:1039A00001E030E020E040E864E970E08FEF9BE167
:1039B0000E948211F12CE12C02E030E020E040E88E
:1039C0006DE970E08EE49CE10E94821191E3E92EA2
:1039D00097E0F92E01E030E020E040E867EA70E08F
:1039E0008AE19CE10E9482110E94FC12FFCF0E949A
:1039F0000B1D0C94BD1D0E94B61D58F00E94AF1DFA
:103A000040F029F45F3F29F00C94A61D51110C944D
:103A1000F11D0C94AC1D0E94CE1D68F39923B1F3E7
:103A2000552391F3951B550BBB27AA2762177307E4
:103A3000840738F09F5F5F4F220F331F441FAA1F78
:103A4000A9F335D00E2E3AF0E0E832D09150504034
:103A5000E695001CCAF72BD0FE2F29D0660F771FE2
:103A6000881FBB1F261737074807AB07B0E809F0C8
:103A7000BB0B802DBF01FF2793585F4F3AF09E3F4D
:103A8000510578F00C94A61D0C94F11D5F3FE4F3F2
:103A9000983ED4F3869577956795B795F7959F5F90
:103AA000C9F7880F911D9695879597F90895E1E0DC
:103AB000660F771F881FBB1F621773078407BA073B
:103AC00020F0621B730B840BBA0BEE1F88F7E09596
:103AD0000895E89409C097FB3EF490958095709501
:103AE00061957F4F8F4F9F4F9923A9F0F92F96E94A
:103AF000BB279395F695879577956795B795F111BF
:103B0000F8CFFAF4BB0F11F460FF1BC06F5F7F4F5B
:103B10008F4F9F4F16C0882311F096E911C077236D
:103B200021F09EE8872F762F05C0662371F096E876
:103B3000862F70E060E02AF09A95660F771F881F45
:103B4000DAF7880F9695879597F9089597F99F6703
:103B500080E870E060E008959FEF80EC0895002415
:103B60000A941616170618060906089500240A94E2
:103B700012161306140605060895092E0394000C68
:103B800011F4882352F0BB0F40F4BF2B11F460FFF7
:103B900004C06F5F7F4F8F4F9F4F089557FD905820
:103BA000440F551F59F05F3F71F04795880F97FB01
:103BB000991F61F09F3F79F08795089512161306BB
:103BC0001406551FF2CF4695F1DF08C016161706EA
:103BD0001806991FF1CF869571056105089408951F
:103BE000E894BB2766277727CB0197F908950E94B1
:103BF0000A1E0C94BD1D0E94AF1D38F00E94B61D18
:103C000020F0952311F00C94A61D0C94AC1D1124EA
:103C10000C94F11D0E94CE1D70F3959FC1F3950F7A
:103C200050E0551F629FF001729FBB27F00DB11D40
:103C3000639FAA27F00DB11DAA1F649F6627B00DD0
:103C4000A11D661F829F2227B00DA11D621F739FB9
:103C5000B00DA11D621F839FA00D611D221F749FC7
:103C60003327A00D611D231F849F600D211D822F0E
:103C7000762F6A2F11249F5750409AF0F1F0882335
:103C80004AF0EE0FFF1FBB1F661F771F881F915062
:103C90005040A9F79E3F510580F00C94A61D0C944E
:103CA000F11D5F3FE4F3983ED4F3869577956795D1
:103CB000B795F795E7959F5FC1F7FE2B880F911D8C
:103CC0009695879597F90895A1E21A2EAA1BBB1B1A
:103CD000FD010DC0AA1FBB1FEE1FFF1FA217B307D8
:103CE000E407F50720F0A21BB30BE40BF50B661FEE
:103CF000771F881F991F1A9469F7609570958095B2
:103D000090959B01AC01BD01CF010895EE0FFF1FFF
:103D10000590F491E02D0994EF920F931F93CF93A8
:103D2000DF93E80134E047FD34E1042E000C550B2D
:103D300057FF03C0519541955109E32E022F242FBF
:103D4000AE010E94BD20CE01DF91CF911F910F9156
:103D5000EF900895FB01DC0102C001900D924150EB
:103D60005040D8F70895AEE0B0E0E9EBFEE10C94E6
:103D7000A6230D891E898F89988D26E02C831A83AE
:103D8000098397FF02C080E090E801979E838D83AE
:103D9000AE01455E5F4F698D7A8DCE0101960E941E
:103DA000E31E4D815E8157FD0AC02F813885421781
:103DB00053070CF49A01020F131FF80110822E967C
:103DC000E4E00C94C223ABE0B0E0E9EEFEE10C9439
:103DD00098237C013B018A01FC01178216828381B2
:103DE00081FFC8C1CE0101965C01F7019381F30107
:103DF00093FD859193FF81913F01882309F453C17D
:103E0000853239F493FD859193FF81913F0185328D
:103E100029F4B70190E00E940A23E7CF912C212CCE
:103E2000312CFFE1F31538F08B3211F190F4803230
:103E300009F1833229F137FC3CC020ED280F2A30EC
:103E400050F536FE20C08AE0989E200D1124922E57
:103E500006C08D3291F0803371F7689430F8F30129
:103E600093FD859193FF81913F018111DACF21C0AC
:103E7000689431F8689432F8F2CF689433F8EFCF51
:103E8000689434F8ECCFEAE02E9E200D1124222E07
:103E9000689435F8E4CF8E3229F436FC04C1689476
:103EA00036F8DDCF8C3619F4689437F8D8CF8836D9
:103EB000B1F2982F9F7D95549330E0F08336A1F1B5
:103EC0008337C1F1833509F063C02801F2E04F0E5A
:103ED000511CF801C080D180692D70E036FC02C011
:103EE0006FEF7FEFC6010E94F4224C01689437F80F
:103EF00082010AC00C5F1F4FFFE3F983882483947B
:103F0000912C6501E89437F833FE2DC0522C8114B2
:103F1000910471F5552009F468CFB70180E290E073
:103F20000E940A235A94F6CFF801808189830E5F9C
:103F30001F4FE4CF2801F2E04F0E511CF801C08062
:103F4000D180692D70E036FC02C06FEF7FEFC601B3
:103F50000E94FF224C018201D5CFB70180E290E0A0
:103F60000E940A232A942814190409F0B0F7CECF2E
:103F7000F60137FC859137FE81916F01B70190E022
:103F80000E940A2351105A94F1E08F1A9108BFCF72
:103F9000843619F0893609F077C0F80137FE6BC016
:103FA00060817181828193810C5F1F4FF32DFF76B9
:103FB0003F2E97FF09C090958095709561957F4F32
:103FC0008F4F9F4F689437F82AE030E0A5010E9498
:103FD0003A23C82ECA188C2C432C36FE0CC0E89409
:103FE00040F8C91440F434FE05C032FC03C0F32D80
:103FF000FE7E4F2E892C44FE95C0FE01EC0DF11D76
:104000008081803309F087C0242D297E422E842DA3
:104010008870582E43FC95C040FE8FC09C2C8214A3
:1040200018F42C0C922C981844FE91C0B70180E330
:1040300090E00E940A2342FE09C088E790E041FE1A
:1040400002C088E590E0B7010E940A23C91408F471
:104050008AC0CA94D12C9FEFC91AD90ACA0CDB1C9A
:10406000F60182916F01B70190E00E940A23AC141F
:10407000BD04B1F74FCF60817181072E000C880B12
:10408000990B0E5F1F4F92CFD32CE894D4F82AE0FF
:1040900030E0853739F1232D297FD22E8F3601F17B
:1040A00048F48835A9F0F701868197812B96E2E1E3
:1040B0000C94B423803749F08837A9F7D4FE02C0A6
:1040C0006894D2F820E130E00DC06894D4F8F6CFBF
:1040D00034FE03C0822F8660D82E20E132E002C079
:1040E00028E030E0F801D7FE0FC060817181828145
:1040F00093810C5F1F4FA5010E943A23C82ECA1856
:104100003D2CE89437F867CF6081718190E080E0C2
:104110000E5F1F4FF0CF42FC02C0839478CF839490
:10412000839475CF842D867809F471CFF6CFB701CB
:1041300080E290E00E940A2383948214C0F3512C01
:1041400073CF522C5818821408F46ECFF8CF842DF8
:10415000867809F47BCF8BE241FE80E247FC8DE25A
:10416000B70190E071CFB70180E390E00E940A238D
:104170009A946CCF8FEF9FEF99CFA9E0B0E0E3EC7A
:10418000F0E20C949E236A01F22EB02E102FFBE376
:10419000AF2EA01608F41BE31F5F012F27E0AE012E
:1041A0004F5F5F4F0E941C22BC018981982F99703C
:1041B000913009F43FC09BE2E1FC04C09E2D917058
:1041C000E0FC3AC05E2D5071E82FE87083FF46C0D6
:1041D00084E0911101C083E0EF2DE81B8F1508F0FA
:1041E000E0E0D6018E2F20E2552351F1992329F0EA
:1041F000D6019C93C60101966C0196012D5F3F4F3D
:10420000E2FE24C08EE4D6018C9391E411969C9337
:10421000119712968C93D9018E2F90E281111BC0B9
:10422000E20FF32FF11D10828EEF9FEF2996ECE045
:104230000C94BA239DE2C6CF90E2C4CF2D93815057
:104240008111FCCFCE0ED11CE0E0D0CF8EE6D6019E
:104250008C9391E6DBCF9D938150E0CF482F447043
:1042600082FF3DC084E0911101C083E08F1510F4FE
:10427000EF2DE81BD6018E2F20E2552309F199235B
:1042800029F0D6019C93C60101966C0196012D5F21
:104290003F4FE2FE1BC089E4D6018C938EE4119659
:1042A0008C93119786E412968C93D9018E2F90E20D
:1042B000882309F4B5CF9D938150FACF2D93815077
:1042C0008111FCCFCE0ED11CE0E0D9CF89E6D6011A
:1042D0008C938EE611968C93119786E6E4CF9B0122
:1042E00077FF02C030E020E0A1E0B0E0911102C011
:1042F000B0E0A0E0F9013196AE0FBF1F8B2C912CDE
:10430000BB2009F461C05401EFEFAE1ABE0AAA0D3A
:10431000BB1DFA161B0619F014F04F2D4A1B511144
:1043200088C0E3FC59C07601A42FB0E2A1114FC0B0
:10433000C40ED11C992309F45BC040E0D60111964C
:10434000F60190836D01552309F448C0012F060F33
:104350009A81582F507184FF03C0913309F40150A2
:1043600010160CF047C0093008F008E0EEE2FE2E0F
:104370005B01A01AB10885019194819491082F3FA7
:10438000320729F4D601FC92F60131966F016217CB
:10439000730794F1021713077CF5DB01A21BB30B23
:1043A000AA24A394B12CAC0EBD1EAA0DBB1D119660
:1043B0008C9121503109D601119628153905F4F058
:1043C000F60180836D01DBCFB12CA12CA0CFF701CA
:1043D000B1937F01A150AACF9111B0CFD601942FF4
:1043E00050E302C05D9391509111FCCFC40ED11CDB
:1043F00040E0ACCF01E0BACF80E3DBCF62177307B8
:1044000031F4963388F4953311F4552369F0F601AD
:104410008083FD01842F90E2811108C0A40FB11D9B
:104420001C9290E080E002CF81E3F1CF9193815024
:10443000F3CF911183CF8ACF283008F027E03327BC
:10444000DA01990F311D87FD9160009661057105B4
:1044500039F432602E5F3D9330E32A95E1F70895F9
:104460009F3F30F080387105610509F03C5F3C5F8B
:104470003D93913008F08068911DDF93CF931F9397
:104480000F93FF92EF92192F987F9695E92F9695AB
:104490009695E90FFF27E255FF4F99273327EE2422
:1044A000FF24A701E70105900894079428F4360F2C
:1044B000E71EF81E491F511D660F771F881F991FA1
:1044C0000694A1F70590079428F4E70EF81E491FFB
:1044D000561FC11D770F881F991F661F0694A1F7ED
:1044E0000590079428F4F80E491F561FC71FD11DC9
:1044F000880F991F661F771F0694A1F705900794F0
:1045000020F4490F561FC71FD81F990F661F771F2A
:10451000881F0694A9F784911095177041F0D695DD
:10452000C79557954795F794E7941A95C1F7E4E531
:10453000F0E06894159015913591659195910590ED
:104540007FE27395E118F10A430B560BC90BD009B2
:10455000C0F7E10CF11E431F561FC91FD01D7EF48A
:10456000703311F48A95E6CFE894015030F0080FCB
:104570000AF40027021708F4202F2395022F7A331C
:1045800028F079E37D932A95E9F710C07D932A9569
:1045900089F6069497956795379517951794E118BE
:1045A000F10A430B560BC90BD00998F023957E9165
:1045B00073957A3308F070E37C932013B8F77E91FB
:1045C00070617D9330F0839571E37D9370E32A955C
:1045D000E1F71124EF90FF900F911F91CF91DF91A0
:1045E000992787FD90950895FC01059061507040D2
:1045F0000110D8F7809590958E0F9F1F0895FC01AC
:104600006150704001900110D8F7809590958E0F01
:104610009F1F08950F931F93CF93DF93182F092F98
:10462000EB018B8181FD09C01FEF0FEF812F902FD0
:10463000DF91CF911F910F91089582FF14C02E81B9
:104640003F818C819D81281739073CF4E881F981ED
:10465000CF0101969983888310838E819F81019673
:104660009F838E83E3CFE885F985812F0995892B78
:10467000A1F3DACFFA01AA27283051F1203181F1D4
:10468000E8946F936E7F6E5F7F4F8F4F9F4FAF4F5A
:10469000B1E03ED0B4E03CD0670F781F891F9A1F6D
:1046A000A11D680F791F8A1F911DA11D6A0F711D21
:1046B000811D911DA11D20D009F468943F912AE02D
:1046C000269F11243019305D3193DEF6CF01089515
:1046D000462F4770405D4193B3E00FD0C9F7F6CF46
:1046E000462F4F70405D4A3318F0495D31FD40520E
:1046F000419302D0A9F7EACFB4E0A69597958795A4
:1047000077956795BA95C9F7009761057105089582
:104710009B01AC010A2E069457954795379527952E
:10472000BA95C9F7620F731F841F951FA01D0895C6
:104730002F923F924F925F926F927F928F929F92B1
:10474000AF92BF92CF92DF92EF92FF920F931F939F
:10475000CF93DF93CDB7DEB7CA1BDB0B0FB6F89450
:10476000DEBF0FBECDBF09942A88398848885F8490
:104770006E847D848C849B84AA84B984C884DF8001
:10478000EE80FD800C811B81AA81B981CE0FD11DE5
:104790000FB6F894DEBF0FBECDBFED010895F894BB
:0247A000FFCF49
:1047A2000349444C45004144433A2025642C205699
:1047B2006F6C746167653A200020560D0A0041440F
:1047C200435F4F433A2025642C20566F6C74616717
:1047D200653A2000414443205461736B00554152B5
:1047E20054205461736B004F766572637572726503
:0847F2006E74205461736B002A
:00000001FF
