:100000000C94A7000C94C4000C94C4000C94C4007D
:100010000C94C4000C94C4000C94C4000C94AA0763
:100020000C94C4000C94C4000C94C4000C94C40040
:100030000C94C4000C94C4000C94C4000C94C40030
:100040000C94C4000C94C4000C94C4000C94C40020
:100050000C94C40000407A10F35A00A0724E1809A4
:100060000010A5D4E80000E87648170000E40B541F
:10007000020000CA9A3B000000E1F50500008096EE
:100080009800000040420F000000A0860100000020
:10009000102700000000E8030000000064000000DA
:1000A00000000A00000000000100000000002C76A3
:1000B000D888DC674F0823DFC1DFAE59E1B1B796BE
:1000C000E5E3E453C63AE651997696E8E6C284261B
:1000D000EB898C9B62ED407C6FFCEFBC9C9F40F2F7
:1000E000BAA56FA5F490055A2AF75C936B6CF96773
:1000F0006DC11BFCE0E40D47FEF520E6B500D0ED38
:10010000902E0300943577050080841E080000209F
:100110004E0A000000C80C333333330F986E12833D
:100120001141EF8D2114893BE65516CFFEE6DB1811
:10013000D1844B381BF77C1D901DA4BBE4242032D6
:1001400084725E228100C9F124ECA1E53D271124CF
:100150001FBECFE5D8E0DEBFCDBF11E0A0E6B0E026
:10016000E8E4F9E402C005900D92AA31B107D9F78D
:1001700027E0AAE1B1E001C01D92AF39B207E1F773
:100180000E94601D0C94A2240C94000096B1987FEC
:1001900096B98031C1F040F4843079F0883079F03C
:1001A0008230C9F4309A0895803479F0803881F033
:1001B000803289F486B1856004C0319A089586B191
:1001C000836086B90895329A089586B18660F9CF22
:1001D00086B18760F6CF86B1887FF3CF97B19F73E2
:1001E00097B93E9A811104C087B18F7387B908957A
:1001F000813011F43E9A08958330E1F787B1806C25
:10020000F5CFCF93C62F379A0E94C6008C2F0E943D
:10021000EE003D98CF91089597B1907E97B98830C0
:1002200030F5E82FF0E0E95EFE4F0C94591F3701DE
:100230001F01260128012C012E0131013401389AB9
:10024000369A349BFECF84B195B10895399AF8CF90
:1002500087B1836087B9F4CF3A9AF2CF87B18560CE
:10026000F9CF87B18660F6CF87B18760F3CF87B1CA
:10027000807EF0CFCF93DF93CDB7DEB72C970FB64C
:10028000F894DEBF0FBECDBFBC0190E080E00E94BD
:100290003C1E69877A878B879C8720E030EC4FE78C
:1002A00054E469857A858B859C850E94CA1D6D837F
:1002B0007E838F83988720E030E040EA50E46D81B0
:1002C0007E818F8198850E94CA1E69837A838B8381
:1002D0009C8369817A818B819C812C960FB6F894DE
:1002E000DEBF0FBECDBFDF91CF91089598B39F7051
:1002F000282F207F922B98BBC098C19A42E04A9544
:10030000F1F700C0C198EFE8F1E03197F1F700C0D4
:10031000000098B39F70F0E18F9F90011124892F06
:10032000822B88BBC19A42E04A95F1F700C0C19880
:100330008FE99FE00197F1F700C00000089598B39E
:100340009F70282F207F922B98BBC09AC19A42E0C1
:100350004A95F1F700C0C198EFE8F1E03197F1F765
:1003600000C0000098B39F70F0E18F9F90011124AE
:10037000892F822B88BBC19A42E04A95F1F700C0D1
:10038000C1988FE99FE00197F1F700C00000089540
:100390008FEF87BB8FE39CE90197F1F700C0000066
:1003A00082E00E94760188E20E9476018CE00E9441
:1003B000760186E00E94760181E00E9476018FE955
:1003C0009FE00197F1F700C000000895CF93DF93FD
:1003D000EC018991811103C0DF91CF9108950E94B2
:1003E0009F01F7CFCF93DF93EA01811109C0862FD8
:1003F0008068603158F0CE01DF91CF910C94E60116
:100400008130C9F76031B8F7862F806C0E94760181
:10041000F2CF81E00E9476018FE99FE00197F1F72A
:1004200000C0000080E80C947601CF92DF92EF923A
:10043000FF921F93CF93DF936C01162FF42E8AE166
:1004400090E00E947C05EC018FEF209709F456C0E4
:100450008091210190912201892B21F5D0932201D5
:10046000C093210182E491E00E94C8058BE491E0F1
:100470000E94C80589E391E00E94C80580E391E0ED
:100480000E94C80583E291E00E94C80589E391E0DB
:1004900090932F0180932E0180E391E090932D01A2
:1004A00080932C01111111E0198E188E1E8BFF8A7A
:1004B000FE01C192D1927F01CF010E94D605CE01EB
:1004C0000C960E94D605D987C887DB8BCA8B82E041
:1004D00090E0811B91099D878C878E8990912001E6
:1004E000981710F480932001F9E08F9FC001112428
:1004F000B7018E5B9E4F0E94DA0581E0DF91CF91BC
:100500001F91FF90EF90DF90CF9008950F931F936E
:10051000CF93DF938B01C0911E01D0911F01C80FB3
:10052000D91F809121019091220102960E943006EC
:100530006091210170912201FB01D383C2838091DC
:100540001E0190911F016E5F7F4FC817D907B0F44D
:1005500080912C0190912D010E94FA050115110541
:1005600091F06091210170912201645F7F4FC80179
:10057000DF91CF911F910F910C94FA0580912E017C
:1005800090912F01E9CFDF91CF911F910F910895A5
:10059000FF920F931F93CF93DF9380912E01909141
:1005A0002F01892B09F444C099E0F92E8091230191
:1005B000811144C00E94571320911C0130911D01EC
:1005C000821B930B90931B0180931A0189E0F82EF4
:1005D00020911A0130911B0180911E0190911F0101
:1005E0002115310509F04CC090931D0180931C0129
:1005F00080912001282F30E099E0929FF001939F95
:10060000F00D1124EE5BFE4F408141118DC0882317
:1006100069F08150282F30E0929FF001939FF00DF8
:100620001124EE5BFE4F908191117EC080932001DA
:10063000DF91CF911F910F91FF900895F894E09171
:100640002801F0912901C681D781CE010C960E9424
:10065000300678948E010E5F1F4FC8010E9430064D
:100660008E8990912001981710F4809320018F9D1E
:10067000C0011124B8018E5B9E4F0E94DA0596CF0F
:10068000019690931F0180931E01215031093093F0
:100690001B0120931A01892B81F480912E019091E6
:1006A0002F0120912C0130912D0130932F012093A7
:1006B0002E0190932D0180932C01E0912E01F09159
:1006C0002F0120911E0130911F018081882309F4A0
:1006D0007FCF0580F681E02DC681D7818A819B81FD
:1006E0002817390708F474CFF8948E010E5F1F4F56
:1006F000C8010E9430068C899D89892B21F0CE018A
:100700000C960E94300678948E899091200198175B
:1007100010F4809320018F9DC0011124B8018E5BDD
:100720009E4F0E94DA05C9CF8093200149E0429F85
:10073000C001439F900D1124FC01EE5BFE4FA1818F
:10074000B28112964D915C91528341838B5B9E4F97
:100750004817590721F4858196819283818389E026
:10076000829FF001839FF00D1124EE5BFE4F01800C
:10077000F281E02D8681978190932201809321015F
:10078000DC01ED91FC91119757966C91DF91CF911F
:100790001F910F91FF9009940F931F93CF93DF93B5
:1007A000DC011596ED91FC91C681D7818E01045F25
:1007B0001F4FC8010E943006B80183E291E00E94F9
:1007C000DA05E0912101F091220181E02E899689DC
:1007D000291708F480E0DF91CF911F910F910895C0
:1007E00010922F0110922E0110922D0110922C01C7
:1007F00010922201109221011092200110921F01EB
:1008000010921E0110921D0110921C0110921B01EA
:1008100010921A010895CF93DF938BE090E00E942D
:100820007C05EC01009731F0FC0111921192CF018F
:100830000E94C805CE01DF91CF910895AF92BF927B
:10084000CF92DF92EF92FF920F931F93CF93DF939C
:100850006C017B01B42EA22E0E945113F601C081BF
:10086000D181CE018E219F21A11040C0892B09F09A
:1008700041C00115110589F070E060E0BB2011F066
:1008800060E071E0A11074606E297F29A801C601A3
:1008900002960E94EE15D0E0C0E00E946D14012B7C
:1008A000C9F0811102C00E94F5060E94B81791FD9F
:1008B0000FC00FB6F8940F92F601808191819701D5
:1008C00028233923A11023C0232B21F50F900FBE1D
:1008D000EC01DD27CE01DF91CF911F910F91FF90A9
:1008E000EF90DF90CF90BF90AF900895E816F90693
:1008F00009F0BFCFBB2041F0C701809590958C23B4
:100900009D23F6019183808310E000E0C6CFE216BC
:10091000F306E1F6BB20D1F2E094F094E822F9224C
:10092000F601F182E082D2CFFC010FB6F8940F926B
:1009300080819181609570956823792371836083AC
:100940000F900FBE0895FC01808191810895CF9290
:10095000DF92EF92FF920F931F93CF93DF93EC01FF
:100960008B017C0185E0E80EF11C0E945113EF81A0
:10097000F88568817981602B712B7983688310E019
:1009800000E068817981EE15FF0599F400951095D6
:1009900006231723198308830E946D148881998187
:1009A000DF91CF911F910F91FF90EF90DF90CF904B
:1009B0000895C280D38020813181C9019927AC017B
:1009C0004623572332FD04C0452B29F4F601D9CF25
:1009D00084179507D9F730FF02C0082B192B7260D6
:1009E000CF010E94D716F2CFAF92BF92CF92DF9283
:1009F000EF92FF920F931F93CF93DF937C01EB0154
:100A00008A0169010E945113F701A080B180BE01E3
:100A1000C7010E94A704CA29DB29CE0180239123A4
:100A20008017910709F03BC0F701808191819801FF
:100A3000209530958223932391838083D12CC12CE0
:100A40000E946D14CD28F9F0811102C00E94F506B4
:100A50000E94B81791FD15C00FB6F8940F92F701D8
:100A6000808191819801282339232017310739F497
:100A7000A8014095509548235923518340830F90F6
:100A80000FBEEC01DD27CE01DF91CF911F910F91B9
:100A9000FF90EF90DF90CF90BF90AF900895C1147A
:100AA000D10451F0A601B8017560C70102960E94F9
:100AB000EE15D0E0C0E0C4CFF701C081D181C0CF36
:100AC000CF93DF93EC010E9451138A81811107C0FB
:100AD0000E946D14CE01DF91CF910C94B40560E0BB
:100AE00072E08F8198850E94D716EFCFBA010C94DF
:100AF000A704BA010C9494040F931F93CF93DF9330
:100B00008C010E9451138091540190915501892BC1
:100B100031F488E591E090935501809354010115DB
:100B20001105F9F02091560130915701020F131F62
:100B30000B3D85E01807A8F42017310790F4C09109
:100B40005401D0915501C20FD31F10935701009348
:100B500056010E946D14CE01DF91CF911F910F912C
:100B60000895D0E0C0E0F5CF08951092570110929B
:100B70005601089520915601309157018BED95E073
:100B8000821B930B089510925701109256010895FD
:100B9000FC010396928381832FEF3FEF34832383FD
:100BA000968385839087878310820895FC01118640
:100BB00010860895CF93DF939C01FB01DC01119611
:100BC000CD91DC91D383C2838C819D819583848375
:100BD0008C819D81DC0113967C936E9312977D83AB
:100BE0006C8331872087F90180818F5F8083DF915B
:100BF000CF9108950F931F93CF93DF938C01FB0147
:100C000080819181D80113968F3F9807F1F4E80114
:100C1000AF81B88512968D919C91139793838283AF
:100C2000EC01FD83EC83B583A4831396FC93EE93D0
:100C3000129711870087F80180818F5F8083DF9191
:100C4000CF911F910F910895D90112962D913C914A
:100C50001397E9014881598184179507A8F7DACFDE
:100C6000CF93DF93FC01A085B1858281938124819C
:100C70003581EC013D832C83C481D5819B838A839C
:100C800011968D919C9112978E179F0721F41296C1
:100C9000DC93CE931197118610868C9181508C93A2
:100CA000DF91CF91089531E1FC013083319722E249
:100CB00020833197A3E3A0833197608331977083BA
:100CC00031971082319760E86083319710823197B5
:100CD00062E06083319763E06083319764E0608312
:100CE000319765E06083319766E06083319767E014
:100CF0006083319768E06083319769E06083319762
:100D000060E1608331973083319732E130833197EE
:100D100033E13083319734E13083319735E13083EB
:100D2000319736E13083319737E13083319738E1BD
:100D30003083319739E13083319730E23083319716
:100D400031E2308331972083319723E2208331973A
:100D5000408331975083319726E22083319727E2F1
:100D60002083319728E22083319729E2208331972D
:100D700020E32083319721E32083869708951BBCCD
:100D80008CE78ABD8BE08EBD89B7806189BFA09159
:100D90009007B0919107CD91CDBFDD91DEBFFF915E
:100DA000EF91DF91CF91BF91AF919F918F917F9103
:100DB0006F915F914F913F912F911F910F91FF90F4
:100DC000EF90DF90CF90BF90AF909F908F907F90EB
:100DD0006F905F904F903F902F901F900F900FBE9D
:100DE0000F90089581E0089508950F920FB6F8943A
:100DF0000F921F9211242F923F924F925F926F9207
:100E00007F928F929F92AF92BF92CF92DF92EF929A
:100E1000FF920F931F932F933F934F935F936F9383
:100E20007F938F939F93AF93BF93CF93DF93EF9372
:100E3000FF93A0919007B09191070DB60D920EB659
:100E40000D920E949815A0919007B0919107CD91B5
:100E5000CDBFDD91DEBFFF91EF91DF91CF91BF91CB
:100E6000AF919F918F917F916F915F914F913F9142
:100E70002F911F910F91FF90EF90DF90CF90BF9037
:100E8000AF909F908F907F906F905F904F903F902A
:100E90002F901F900F900FBE0F9008950F920FB6D6
:100EA000F8940F921F9211242F923F924F925F92CB
:100EB0006F927F928F929F92AF92BF92CF92DF926A
:100EC000EF92FF920F931F932F933F934F935F9354
:100ED0006F937F938F939F93AF93BF93CF93DF9342
:100EE000EF93FF93A0919007B09191070DB60D92EB
:100EF0000EB60D920E94711381110E949815A09157
:100F00009007B0919107CD91CDBFDD91DEBFFF91EC
:100F1000EF91DF91CF91BF91AF919F918F917F9191
:100F20006F915F914F913F912F911F910F91FF9082
:100F3000EF90DF90CF90BF90AF909F908F907F9079
:100F40006F905F904F903F902F901F900F900FBE2B
:100F50000F9008950E944E0718950FB6F8940F92BF
:100F6000FC01928D0F900FBE81E0911180E00895F9
:100F70000F931F93CF93DF93EC01042F1A8D4C8DA9
:100F80004423C1F050E001111DC08A819B810E9461
:100F90007D1F8C8D2A813B81820F932F911D9B8316
:100FA0008A832C813D818217930720F08881998163
:100FB0009B838A831F5F1A8F80E0DF91CF911F91FF
:100FC0000F9108958E819F810E947D1F8C8D90E0EE
:100FD0009195819591092E813F81280F391F3F837B
:100FE0002E83488159812417350730F42C813D81A7
:100FF000820F931F9F838E830230E1F61123D1F27B
:101000001150D8CFFC01CB01448D4423A1F050E016
:1010100026813781240F351F3783268364817581AC
:101020002617370720F02081318137832683668198
:1010300077810C947D1F0895EF92FF921F93CF93B9
:10104000DF93EC010FB6F8940F921E8D7C0181E1C5
:10105000E80EF11C1116C4F08FEF8E8F0F900FBEAB
:101060000FB6F8940F921D8D7E0188E0E80EF11CFA
:101070001116ACF08FEF8D8F0F900FBEDF91CF91D7
:101080001F91FF90EF9008958989882329F3C70164
:101090000E94321681110E94A5171150DBCF88855E
:1010A000882341F3C7010E94321681110E94A517BF
:1010B0001150DECFCF93DF93009709F43FC0FC01BE
:1010C000238D222309F43AC0EC01448D0FB6F89425
:1010D0000F9280819181FC01249FE00DF11D11246C
:1010E000FD83EC831A8E9B838A832150330B429FAE
:1010F000F001439FF00D11248E0F9F1F9F838E835D
:101100008FEF8D8F8E8F611110C08885882339F005
:10111000CE0108960E94321681110E94F5060F90AA
:101120000FBE81E0DF91CF910895CE0108960E9415
:10113000C805CE0141960E94C805F1CF80E0F2CFEC
:101140000F931F93CF93DF93811108C0D0E0C0E0CD
:10115000CE01DF91CF911F910F910895869F90014D
:101160001124213E310594F7162F082FC9014F96FF
:101170000E947C05EC01009749F3111109C0998385
:1011800088830B8F1C8F61E0CE010E945A08E0CF4C
:101190004F9699838883F5CFAF92BF92CF92DF921B
:1011A000FF920F931F93CF93DF9300D000D01F9235
:1011B000CDB7DEB78C016B015D834C83F22E80E0EE
:1011C000580198E0A90EB11C0FB6F8940F92F801DF
:1011D000228D938D291718F0F2E0FF1222C04F2DB7
:1011E000B601C8010E94B807F8019189992321F03E
:1011F000C80141960E94321681110E94F5060F9097
:101200000FBE81E00F900F900F900F900F90DF9125
:10121000CF911F910F91FF90DF90CF90BF90AF9033
:1012200008952C813D81232B21F40F900FBE80E087
:10123000E9CF811104C0CE0101960E946E170F9074
:101240000FBE0E9451130FB6F8940F92F801858DCE
:101250008F3F09F4158EF801868D8F3F09F4168EA5
:101260000F900FBEBE016C5F7F4FCE0101960E94B2
:101270007917811120C00FB6F8940F92F801928D62
:101280000F900FBE838D981310C06C817D81C501B6
:101290000E94DE15C8010E941C080E946D14811175
:1012A00002C00E94F50681E08FCFC8010E941C0891
:1012B0000E946D14F8CFC8010E941C080E946D1492
:1012C000B6CFEF92FF921F93CF93DF93EC019A8DED
:1012D0008B8D981718F080E02230D1F47A011E8DA2
:1012E0008A8D422FCE010E94B8071F3FB9F4898929
:1012F000811102C081E00CC0CE0141960E943216DD
:101300008823C1F3E114F104A9F381E0F70180839C
:10131000DF91CF911F91FF90EF9008950E94661387
:10132000181740F71F5F1E8FE5CFEF92FF921F93B4
:10133000CF93DF93EC018A8D9B8D891720F57B017C
:101340001E8D8F5F8A8F1F3FB9F48989811102C07A
:1013500081E00CC0CE0141960E9432168823C1F371
:10136000E114F104A9F381E0F7018083DF91CF91CB
:101370001F91FF90EF9008950E946613181740F791
:101380001F5F1E8FE5CF80E0F1CFAF92BF92CF926B
:10139000DF92FF920F931F93CF93DF9300D000D083
:1013A0001F92CDB7DEB78C016B015D834C8380E06B
:1013B000580191E1A90EB11C0FB6F8940F92F801F3
:1013C000F28CFF2019F1B601C8010E940208FA94BC
:1013D000F801F28E8085882339F0C80108960E94B2
:1013E000321681110E94F5060F900FBE81E00F901A
:1013F0000F900F900F900F90DF91CF911F910F9151
:10140000FF90DF90CF90BF90AF9008952C813D81E9
:10141000232B21F40F900FBE80E0E9CF811104C08F
:10142000CE0101960E946E170F900FBE0E945113BD
:101430000FB6F8940F92F801858D8F3F09F4158E41
:10144000F801868D8F3F09F4168E0F900FBEBE01F6
:101450006C5F7F4FCE0101960E94791781111BC0EE
:10146000C8010E94AD07882381F06C817D81C50190
:101470000E94DE15C8010E941C080E946D14811193
:1014800002C00E94F50681E097CFC8010E941C08A7
:101490000E946D14F8CFC8010E941C080E946D14B0
:1014A000C8010E94AD07882371F3B6CFEF92FF9277
:1014B0000F931F93CF93DF9300D000D01F92CDB72F
:1014C000DEB78C017D836C8390E0780181E1E80ECA
:1014D000F11C0FB6F8940F92F801828D8823D9F091
:1014E0008150828F8085882339F0C80108960E9438
:1014F000321681110E94F5060F900FBE81E00F9009
:101500000F900F900F900F90DF91CF911F910F913F
:10151000FF90EF9008952C813D81232B21F40F90B3
:101520000FBE80E0ECCF911104C0CE0101960E9465
:101530006E170F900FBE0E9451130FB6F8940F92C2
:10154000F801858D8F3F09F4158EF801868D8F3F48
:1015500009F4168E0F900FBEBE016C5F7F4FCE0157
:1015600001960E94791781111BC0C8010E94AD0726
:10157000882381F06C817D81C7010E94DE15C8013E
:101580000E941C080E946D14811102C00E94F50681
:1015900091E09FCFC8010E941C080E946D14F8CFF3
:1015A000C8010E941C080E946D14C8010E94AD076A
:1015B000882371F3B6CFCF92DF92EF92FF920F9311
:1015C0001F93CF93DF9300D000D01F92CDB7DEB72B
:1015D0008C017B015D834C8380E0680191E1C90E41
:1015E000D11C0FB6F8940F92F801928D992321F136
:1015F000C680D780B701C8010E940208F801D782CF
:10160000C6828189882339F0C80141960E9432162A
:1016100081110E94F5060F900FBE81E00F900F9090
:101620000F900F900F90DF91CF911F910F91FF902E
:10163000EF90DF90CF9008952C813D81232B21F4F2
:101640000F900FBE80E0EACF811104C0CE01019659
:101650000E946E170F900FBE0E9451130FB6F894A0
:101660000F92F801858D8F3F09F4158EF801868D54
:101670008F3F09F4168E0F900FBEBE016C5F7F4F37
:10168000CE0101960E94791781111BC0C8010E94EA
:10169000AD07882381F06C817D81C6010E94DE1533
:1016A000C8010E941C080E946D14811102C00E9492
:1016B000F50681E096CFC8010E941C080E946D14B7
:1016C000F8CFC8010E941C080E946D14C8010E9436
:1016D000AD07882371F3B6CFEF92FF920F931F935C
:1016E000CF93DF93FC01028D002341F17A01EC01DD
:1016F000158D0E94020801500A8F1F3FC1F4888592
:10170000811102C081E00CC0CE0108960E94321601
:101710008823C1F3E114F104A9F381E0F701808388
:10172000DF91CF911F910F91FF90EF9008950E944C
:101730006613181738F71F5F1D8FE4CF80E0F0CFD6
:101740000F931F93CF93DF93FC01228D222369F027
:10175000EC01068117810E9402081F830E8381E03D
:10176000DF91CF911F910F91089580E0F9CF0FB6CF
:10177000F8940F92FC01828D0F900FBE08950FB662
:10178000F8940F92FC01228D0F900FBE838D821B67
:101790000895FC01828D08950C94B405FC01848D9C
:1017A0000895FC01838D0895FC01928D81E09111D3
:1017B00080E00895FC01928D81E0238D291380E063
:1017C0000895CF93DF93EC01F8940FB6F8940F923D
:1017D0008A8D9B8D0F900FBE891311C04115510545
:1017E00059F0BE01685F7F4FCA010E94860278945B
:1017F0008CEFDF91CF910895789480E0FACF7894C0
:10180000F8948A8D891790F440E0CE010E94B807C1
:101810008989811103C081E07894EBCFCE01419694
:101820000E94CC038823B9F38BEFF6CF80E0F4CF8E
:10183000CF93DF93EC01FB01F8948A8D811111C0E5
:101840004115510559F0BE016F5E7F4FCA010E94DC
:10185000860278948CEFDF91CF910895789480E0A0
:10186000FACF7894F8948A8D882339F14C8D50E022
:101870002E813F81240F351F3F832E838C819D81D4
:101880002817390720F0888199819F838E839A8D4C
:1018900091509A8F6E817F81CF010E947D1F888534
:1018A000811103C081E07894D6CFCE0108960E94C2
:1018B000CC038823B9F38BEFF6CF80E0F4CF1F93EE
:1018C000CF93DF93EC01142F9A8D8B8D981788F4AA
:1018D00040E0CE010E94B80711110BC0898988230E
:1018E00041F0CE0141960E94CC0311E0811101C06C
:1018F00010E0812FDF91CF911F9108950F931F93D7
:10190000CF93DF93EC018A8D882391F12C8D30E009
:10191000AE81BF81A20FB31FBF83AE838C819D8137
:10192000A817B90720F0888199819F838E838A0147
:10193000CB014A8D41504A8F6E817F81A9010E945F
:101940007D1FF8018081882331F081E0DF91CF9104
:101950001F910F91089588858823B9F3CE010896C9
:101960000E94CC03882389F381E0F8018083EECFC5
:1019700080E0ECCFFC014481558122813381240F2A
:10198000351F80819181B901681B790BCB016417E8
:10199000750710F0841B950B0895AF92BF92CF92FC
:1019A000DF92EF92FF920F931F93CF93DF936C011F
:1019B0005B017A01E901FC0104811581021B130B13
:1019C0004017510708F48A01F60184859585A8011E
:1019D000B5018C0F9D1F0E947D1F0E151F0558F429
:1019E000A701401B510BB501600F711FF6018485E3
:1019F00095850E947D1FCE018E0D9F1DF6012481CD
:101A000035818217930710F0821B930BDF91CF91E2
:101A10001F910F91FF90EF90DF90CF90BF90AF900C
:101A20000895AF92BF92CF92DF92EF92FF920F9301
:101A30001F93CF93DF9300D0CDB7DEB76C015B016E
:101A40007A01FC0182819381468540FF28C0FA8299
:101A5000E9822017310740F19C0142E050E0BE01CD
:101A60006F5F7F4FC6010E94CD0CE114F10449F075
:101A70009C01A701B501C6010E94CD0CF60193831C
:101A80008283C7010F900F90DF91CF911F910F912B
:101A9000FF90EF90DF90CF90BF90AF9008952E15FC
:101AA0003F0518F77901E1CFF12CE12CEACFAF9295
:101AB000BF92CF92DF92EF92FF920F931F93CF933B
:101AC000DF936C015B017A01E901FC01048115815E
:101AD000021B130B4017510708F48A01F6016485B5
:101AE00075856C0F7D1FA801C5010E947D1F0E1515
:101AF0001F0558F4A701401B510BF601648575853D
:101B0000C501800F911F0E947D1FCE018E0D9F1D6C
:101B1000F601248135818217930710F0821B930B05
:101B2000DF91CF911F910F91FF90EF90DF90CF90B9
:101B3000BF90AF900895AF92BF92CF92DF92EF9295
:101B4000FF920F931F93CF93DF9300D0CDB7DEB7F3
:101B50007C015B016A018901FC012081318186855C
:101B600080FF12C042E050E0BE016F5F7F4FC701AF
:101B70000E94570D9C0189819A8102501109C81653
:101B8000D906F8F4D12CC12CC016D10608F4860170
:101B90000115110541F0A801B501C7010E94570DBB
:101BA000F70191838083C8010F900F90DF91CF914F
:101BB0001F910F91FF90EF90DF90CF90BF90AF906B
:101BC00008956C01E1CFEF92FF921F93CF93DF93C3
:101BD000EC017B0111E0413021F010E0423009F4CA
:101BE00014E0E114F10419F4EE24E394F12CF0E094
:101BF000E0E0CF3E8FEFD807B8F4CE0141960E94C7
:101C00007C05FC01892B81F08CE0DF011D928A9517
:101C1000E9F7CF014096958784872196D583C483C1
:101C2000F782E68216871786CF01DF91CF911F9149
:101C3000FF90EF900895FC01268521FF0C94B405D8
:101C400020E111922A95E9F70895FC010FB6F89466
:101C50000F9280859185892BB1F482859385892B9C
:101C600091F486819781248135814CE0DF011D92BA
:101C70004A95E9F73583248397838683178681E025
:101C80000F900FBE089580E0FBCFFC018085918509
:101C9000892BA1F482859385892B81F48681978194
:101CA000248135814CE0DF011D924A95E9F73583A7
:101CB000248397838683178681E0089580E00895C2
:101CC0006115710511F461E070E0FC01248135813A
:101CD0006217730720F47783668381E0089580E0BC
:101CE0000895FC0124813581808191816081718119
:101CF00042815381A081B181A817B907A9F7C90111
:101D00000197860F971F841B950B8217930710F07E
:101D1000821B930B08950C94BA0C2F923F924F9212
:101D20005F926F927F928F929F92AF92BF92CF926B
:101D3000DF92EF92FF920F931F93CF93DF9300D028
:101D400000D01F92CDB7DEB75C011B012A013D8395
:101D50002C83FC0184819581019726854A0120FF0F
:101D600054C0F2E08F0E911C8815990510F41D8265
:101D70001C828C819D81892B09F04DC0C5010E9478
:101D8000710E3C0184019301A201B101C5010E94C1
:101D9000110D4C01892B01F1C5010E94BA0CF5010E
:101DA0002681378182179307B8F00E945113F501FD
:101DB00080859185892B71F080859185F12CE12CAE
:101DC00000E020E030E0A90167850E940619F501D6
:101DD000118610860E946D14C4010F900F900F9011
:101DE0000F900F90DF91CF911F910F91FF90EF9087
:101DF000DF90CF90BF90AF909F908F907F906F902B
:101E00005F904F903F902F9008958417950708F0AA
:101E1000B0CF4C01AECFCE0101960E945E170FB637
:101E2000F8940F92C5010E94710E3C018815990526
:101E300058F5F501678590E080E00E949A1B0E94AA
:101E4000A917F501938782870F900FBECC80DD80A4
:101E5000F12CE12C00E010E0980140E050E0BA01E4
:101E600087850E945018F50113861286BE016C5FAB
:101E70007F4FCE0101960E947917882381F2611469
:101E8000710409F47BCF7ECF0F900FBEF8CFAF92D5
:101E9000BF92CF92DF92EF92FF920F931F93CF9357
:101EA000DF93EC015B017A0169018E858A0180FF75
:101EB00002C00E5F1F4FCE010E94710E9C01A70150
:101EC000B501CE010E94110D5C01892BC9F0CE0134
:101ED0000E94BA0C2E813F818217930788F0888573
:101EE0009985892B69F088859985F12CE12C00E092
:101EF00020E030E0A9016F850E94E6191986188656
:101F0000C501DF91CF911F910F91FF90EF90DF906E
:101F1000CF90BF90AF9008956F927F928F929F92D3
:101F2000AF92BF92CF92DF92EF92FF920F931F93E7
:101F3000CF93DF93EC014B013A0169018E8580FD5F
:101F400047C0B12CA12C82FF02C0AE80BF80C1145B
:101F5000D10429F10FB6F8940F92CE010E94BA0C69
:101F60008C01A816B90648F06F8590E080E00E94C9
:101F70009A1B0E94A917998788870F900FBEA016F9
:101F8000B10650F1F12CE12C00E010E0980140E0A6
:101F900050E0BA018F850E94501819861886CE012C
:101FA0000E94BA0C8C01A816B906B0F0B12CA12C75
:101FB000C501DF91CF911F910F91FF90EF90DF90BE
:101FC000CF90BF90AF909F908F907F906F9008952B
:101FD00082E0A82EB12CBBCF9801A301B401CE01A1
:101FE0000E949B0D5C01892B09F30E9451138A8585
:101FF0009B85892B69F08A859B85F12CE12C00E07B
:1020000020E030E0A9016F850E9406191B861A8620
:102010000E946D14CDCF0F931F93CF93DF9300D009
:10202000CDB7DEB7FC01268520FD09C090E080E039
:102030000F900F90DF91CF911F910F9108958C0118
:102040000E94BA0C039790F3F8012081318142E09D
:1020500050E0BE016F5F7F4FC8010E94570D89811C
:102060009A81E6CFAF92BF92CF92DF92EF92FF922A
:102070000F931F93CF93DF93EC015B017A0169010A
:102080008E8510E000E080FF02C002E010E0CE018B
:102090000E94BA0C0817190770F0B12CA12CC501C9
:1020A000DF91CF911F910F91FF90EF90DF90CF9034
:1020B000BF90AF9008959C01A701B501CE010E9489
:1020C0009B0D5C01892B49F38A859B85892B39F30C
:1020D0008A859B85F12CE12C00E020E030E0A9010D
:1020E0006F850E94E6191B861A86D9CFFC012081D4
:1020F00031814281538181E04217530709F080E02A
:102100000895CF93DF93FC012685D0E0C0E020FF47
:1021100002C0C2E0D0E00E94710E21E0C817D907CA
:1021200008F420E0822FDF91CF910895CF92DF92C3
:10213000EF92FF920F93CF93DF93FC0120853185BF
:10214000232BC1F06B01EC0180859185F12CE12CF2
:1021500000E020E030E0A90167850E94E6191986B9
:10216000188681E0DF91CF910F91FF90EF90DF9083
:10217000CF90089580E0F6CFCF92DF92EF92FF925A
:102180000F93CF93DF93FC0122853385232BC1F07E
:102190006B01EC0182859385F12CE12C00E020E0BD
:1021A00030E0A90167850E94E6191B861A8681E046
:1021B000DF91CF910F91FF90EF90DF90CF90089536
:1021C00080E0F6CFFC0187850895FC0167870895BC
:1021D000E0915807F09159078081811107C08FEF76
:1021E0009FEF90933807809337070895E091580741
:1021F000F09159070580F681E02D80819181F1CF22
:10220000CF92DF92EF92FF920F931F93CF93DF93C2
:10221000EC01C0904007D090410700915807109101
:102220005907E0905607F0905707809190079091DA
:10223000910702960E943006CC0DDD1DE0919007BB
:10224000F0919107D383C2836091900770919107B9
:102250006E5F7F4FCC15DD0558F4C701DF91CF913C
:102260001F910F91FF90EF90DF90CF900C94FA05A3
:10227000C8010E94FA058091370790913807C81766
:10228000D90720F4D0933807C0933707DF91CF9157
:102290001F910F91FF90EF90DF90CF900895CF9313
:1022A000DF9380914307811103C0DF91CF9108959F
:1022B0000FB6F8940F92E0914907F0914A07C68152
:1022C000D781CE0102960E9430068091420781504C
:1022D00080934207809143078150809343070F907A
:1022E0000FBE8F89988D0E94B405CE010E94B4055F
:1022F000D8CF0E944F1180916C078230D0F30E949A
:10230000F506F7CF4F925F926F927F928F929F92D6
:10231000AF92BF92CF92DF92EF92FF920F93CF9343
:10232000DF934C015B012901C42ED12CC6010E9410
:102330007C053C01892B09F4C9C086E290E00E942B
:102340007C05EC01892B09F4BEC086E2DE011D92FA
:102350008A95E9F7788E6F8AB1E0CB1AD108C60C5E
:10236000D71CA114B10409F0C2C0043008F003E086
:102370000E8B5E01B2E0AB0EB11CC5010E94D6050A
:10238000CE010C960E94D605D987C88784E090E0DC
:10239000801B91099D878C87DB8BCA8BA201B401BE
:1023A000C6010E94530699838883E114F10419F051
:1023B000F701D183C0830FB6F8940F928091420742
:1023C0008F5F809342078091900790919107892BAE
:1023D00009F0A3C0D0939107C09390078091420762
:1023E000813061F58CE697E00E94C80585E797E0AB
:1023F0000E94C8058EE797E00E94C80587E897E02D
:102400000E94C80583E697E00E94C8058AE597E028
:102410000E94C8058DE497E00E94C80584E497E017
:102420000E94C80583E697E0909359078093580768
:102430008AE597E090935707809356078091390774
:102440008F5F80933907AE8980913F078A1710F418
:10245000A0933F0729E02A9FD0011124A459B84F27
:1024600011960D90BC91A02DBD83AC8314968D91D7
:102470009C9115979F838E8314968D919C911597AF
:10248000FC01B382A2821596BC92AE9214979E89EB
:10249000929FF0011124E459F84FFB87EA8780816D
:1024A0008F5F80830F900FBE80913E07882349F095
:1024B000E0919007F09191078689891710F40E94A6
:1024C000F50681E004C0C3010E94B4058FEFDF91DF
:1024D000CF910F91FF90EF90DF90CF90BF90AF9092
:1024E0009F908F907F906F905F904F900895F5012F
:1024F000AE01475E5F4FC50108962191DA012D9329
:10250000AD019F0121503109D9012C91222319F0ED
:10251000E817F90791F718A228CF80913E0781119B
:102520008DCFE0919007F09191079E898689981749
:1025300008F484CFD0939107C09390077FCF0F9377
:102540001F93CF93DF93EC010FB6F8940F92892B72
:1025500021F4C0919007D09191078E010E5F1F4F1B
:10256000C8010E9430068C899D89892B21F0CE01FB
:102570000C960E943006809139078F5F809339074F
:10258000809190079091910720913E07222359F165
:102590008C179D0741F5B80184E497E00E94DA05A5
:1025A000809143078F5F8093430781E00F900FBEB8
:1025B000813039F08F89988D0E94B405CE010E9438
:1025C000B40580913E07882349F08091900790914F
:1025D00091078C179D0711F40E94F506DF91CF91AA
:1025E0001F910F9108958091420781508093420777
:1025F0000E94E81080E0DACFEF92FF920F93CF9322
:10260000DF93CDB7DEB728970FB6F894DEBF0FBEC5
:10261000CDBFA1E6B0E0FE01319629E630E0BF0172
:102620008D918193882319F02A173B07C9F785E319
:10263000E82E87E0F82E00E030E020E045E589E76D
:1026400091E10E948211882389F0813079F4F89415
:102650002FEF3FEF309338072093370780933E07E3
:1026600010924107109240070E94BF0680916000BF
:1026700028960FB6F894DEBF0FBECDBFDF91CF9185
:102680000F91FF90EF900895809135079091360754
:102690000E949F120E944F11F89410923E070C94D2
:1026A000F406809134078F5F8093340708950FB646
:1026B000F8940F9280914007909141070F900FBEC0
:1026C00008958091400790914107089580914207B5
:1026D0000895009721F48091900790919107499671
:1026E0000895CF92DF92EF92FF920F931F93CF93B3
:1026F000DF93809134078111E5C0C0914007D091EC
:1027000041076E018FEFC81AD80AD0924107C092D4
:102710004007C114D104B9F480915807909159072A
:102720002091560730915707309359072093580747
:10273000909357078093560780913A078F5F809355
:102740003A070E94E8108091370790913807C81621
:10275000D906E8F480E0E0919007F0919107E689CE
:10276000D9E0ED9FF0011124E459F84F90819230A7
:1027700008F081E090913B07911181E0DF91CF91CA
:102780001F910F91FF90EF90DF90CF90089580E020
:1027900069E0E0915807F09159079081911107C0C5
:1027A0002FEF3FEF3093380720933707D4CFE091D6
:1027B0005807F09159070580F681E02D0680F781D2
:1027C000E02D22813381C216D30660F3C285D38502
:1027D0002481358146815781D90115965C934E93AA
:1027E000149746815781DA0113963C932E931297E2
:1027F0009F012E5F3F4F09811A810217130711F4C1
:102800005A83498313861286988191509883A489AC
:10281000B5891097F9F04685578500891189EA0135
:102820001D830C8300891189E8015B834A8311961B
:10283000ED90FC901297AF01445F5F4FE416F506F0
:1028400021F412961C930E931197158A148A9C9169
:1028500091509C93A68990913F079A1710F4A093EA
:102860003F076A9FD0011124A459B84F11960D90CB
:10287000BC91A02DB583A48314964D915C911597BE
:102880005783468314964D915C911597EA013B83DB
:102890002A8315963C932E9314972689269FD00160
:1028A0001124A459B84FB387A2879C919F5F9C9332
:1028B000E0919007F09191079689921708F069CFFF
:1028C00081E067CF80913C0790913D0701969093FE
:1028D0003D0780933C0780E051CFEF92FF920F932A
:1028E0001F93CF93DF930FB6F8940F928091340724
:1028F00081508093340780913407882351F080E021
:102900000F900FBEDF91CF911F910F91FF90EF902D
:10291000089580914207882391F3E0905207F09048
:102920005307F0E0E0E039E041E080914D0781118C
:1029300022C0EF2B11F00E94E810C0913C07D0910B
:102940003D07209761F011E00E94711381111093EF
:102950003B072197C9F710923D0710923C078091E1
:102960003B07882361F280919007909191070E9424
:10297000F50681E0C5CFD7011696ED91FC91A489AB
:10298000B5896685778580899189EB019D838C83E4
:1029900080899189EC017B836A83BF01645F7F4FEB
:1029A00011960D911C9112970617170721F4129694
:1029B0009C938E931197158A148A8C9181508C93D5
:1029C000A285B3858481958166817781EC017D83C1
:1029D0006C8366817781EB019B838A83CF010296AA
:1029E00011960D911C9112970817190721F4129650
:1029F0007C936E931197138612862C9121502C9301
:102A0000A68920913F072A1710F4A0933F073A9F09
:102A1000D0011124A459B84F11960D90BC91A02D4E
:102A2000B583A48314966D917C9115977783668303
:102A300014966D917C911597EB019B838A83159673
:102A40009C938E9314979689939FD0011124A45937
:102A5000B84FB387A2878C918F5F8C93A09190071A
:102A6000B091910756968C91891708F05ECF4093EC
:102A70003B075BCF0F931F93CF93DF93EC018B0149
:102A80000E9451132091400730914107488159819C
:102A9000CA01800F911F998388832417350780F41A
:102AA0008417950780F0C0E00E946D14811102C068
:102AB0000E94F5068C2FDF91CF911F910F91089501
:102AC0008417950718F02817390768F7821B930BAE
:102AD0000E940011C1E0E8CFCF93DF93EC01892B76
:102AE00029F40E94F506DF91CF9108950E945113B9
:102AF000CE010E9400110E946D14882391F3F3CF40
:102B0000CF93DF93EC010E9451130FB6F8940F920C
:102B100080913C0790913D078C0F9D1F90933D073E
:102B200080933C070F900FBEDF91CF910C946D14F2
:102B300080913407882321F081E080933B0708953A
:102B400010923B0720913F0789E0422F50E0849F7D
:102B5000F001859FF00D1124E459F84F90819923DD
:102B600059F1A181B28112966D917C91728361833A
:102B7000289FC00111248159984F6817790721F4C3
:102B8000858196819283818389E0849FF001859F6E
:102B9000F00D1124E459F84F0180F281E02D868177
:102BA0009781909391078093900720933F0780919E
:102BB00090079091910708952150C7CFCF93DF934D
:102BC000EB016091900770919107645F7F4F0E94C5
:102BD000FA05CE01DF91CF910C940011CF93DF93D2
:102BE000FC01A0919007B091910770681D967C93AD
:102BF0006E931C97A181B281C0919007D0919107EB
:102C0000BF87AE87C0919007D091910714968D91A0
:102C10009C911597998B888B209190073091910703
:102C20001496CD91DC911597245F3F4F3B832A8307
:102C30002091900730919107245F3F4F15963C9368
:102C40002E931497A0919007B09191075596FC93FD
:102C5000EE93549790819F5F9083CA01DF91CF914B
:102C60000C940011CF93DF93DC011596ED91FC914C
:102C70000680F781E02DA489B5898685978520890E
:102C80003189EC013D832C83C089D1899B838A8360
:102C9000CF010C9611962D913C9112972817390768
:102CA00021F41296DC93CE931197158A148A2C91F5
:102CB00021502C9320913407211157C0A285B38550
:102CC0008481958126813781EC013D832C83C681E7
:102CD000D7819B838A83CF01029611962D913C91D7
:102CE00012972817390721F41296DC93CE93119787
:102CF000138612862C9121502C93C68920913F0770
:102D00002C1710F4C0933F0729E02C9FE0011124F9
:102D1000C459D84F0980DA81C02DD583C4834C8132
:102D20005D8157834683AC81BD8113969C938E93BE
:102D300012979D838C83A689A29FD0011124A45948
:102D4000B84FB387A2878C918F5F8C93A091900727
:102D5000B0919107968956968C91891730F581E04C
:102D600080933B07DF91CF910895A0914E07B091DA
:102D70004F07B787A68714962D913C911597318BF5
:102D8000208B1496CD91DC9115979B838A831596A1
:102D90009C938E9314978DE497E0958B848B809110
:102DA0004D078F5F80934D07D1CF80E0DBCFCF936E
:102DB000DF93DC01706811967C936E931696ED910B
:102DC000FC91179718964D915C91199712962D9139
:102DD0003C91139714968D919C911597E9019D83D1
:102DE0008C8314968D919C911597EC013B832A83DB
:102DF000EA0129813A812A173B0711F49A838983D2
:102E000019961C921E921897DA018C9181508C931E
:102E1000A285B3858481958126813781EC013D832C
:102E20002C83C681D7819B838A83CF01029611961A
:102E30002D913C9112972817390721F41296DC93B3
:102E4000CE931197138612862C9121502C93C6890C
:102E500020913F072C1710F4C0933F0749E04C9F87
:102E6000E0011124C459D84F0980DA81C02DD583DF
:102E7000C4832C813D81378326832C813D81D901F8
:102E800013969C938E9312979D838C839689949F1F
:102E9000D0011124A459B84FB387A2878C918F5FBA
:102EA0008C93E0919007F09191078689891718F427
:102EB00081E080933B07DF91CF9108950FB6F8949E
:102EC0000F9220913A07FC01208320914007309116
:102ED0004107328321830F900FBE089520913A0756
:102EE000FC012083209140073091410732832183E8
:102EF00008950FB6F8940F92209140073091410742
:102F0000DC0111964D915C911297E0913A07FC918A
:102F1000FE1751F02417350738F0FB01118210829B
:102F200081E00F900FBE0895241B350BDB014D91FE
:102F30005C912417350788F7421B530BFB01518323
:102F400040830E946E1780E0ECCF81E080933B07C6
:102F5000089580919007909191070895811105C07F
:102F60008091900790919107089590E080E00895F6
:102F7000E0919007F091910784859585A091900745
:102F8000B0919107E0919007F091910756964C917E
:102F900024E030E0241B3109358724870895CF923F
:102FA000DF92EF92FF920F931F93CF93DF93C82F7F
:102FB000E62E6A010E9451130FB6F8940F92E09129
:102FC0009007F0919107D0E08E01000F111F000FC4
:102FD000111FE00FF11F81A192A1A3A1B4A1892B20
:102FE0008A2B8B2B69F4E0919007F0919107EC0FFD
:102FF000FD1F81E085A3FF24F394C114D10409F4DB
:10300000F12C0F900FBE21E0F21203C0C6010E9406
:1030100000110E946D1491E0F91204C0811102C0E8
:103020000E94F5060FB6F8940F92E0919007F09188
:103030009107E00FF11F61A172A183A194A1611515
:1030400071058105910569F02091900730919107F4
:10305000020F131FEE20B9F0F80111A212A213A261
:1030600014A22091900730919107C20FD31F1DA287
:103070000F900FBEDF91CF911F910F91FF90EF90B6
:10308000DF90CF9008956B017C01F1E0CF1AD10859
:10309000E108F108F801C1A2D2A2E3A2F4A2E1CFB3
:1030A0004F925F926F927F928F929F92AF92BF9258
:1030B000CF92DF92EF92FF920F931F93CF93DF9304
:1030C000C82F2A013B01480159010E9451130FB634
:1030D000F8940F92E0919007F0919107D0E0EC0FF7
:1030E000FD1F85A1823039F1E0919007F0919107A1
:1030F000CE01880F991F880F991FE80FF91F81A132
:1031000092A1A3A1B4A1409450946094709484219E
:103110009521A621B72181A392A3A3A3B4A3E091F3
:103120009007F0919107EC0FFD1F81E085A311E05E
:10313000C114D10409F410E00F900FBE113019F43E
:10314000C6010E9400110E946D14113021F48111FA
:1031500002C00E94F5060FB6F8940F92E114F10434
:10316000A1F0E0919007F0919107CE01880F991F8F
:10317000880F991FE80FF91F81A192A1A3A1B4A103
:10318000F70180839183A283B383E0919007F0914C
:103190009107EC0FFD1F85A18230B1F5E0919007FA
:1031A000F0919107CE01880F991F880F991FE80FA2
:1031B000F91F81A192A1A3A1B4A180949094A0949D
:1031C000B09488219921AA21BB2181A392A3A3A312
:1031D000B4A381E02091900730919107C20FD31FD3
:1031E0001DA20F900FBEDF91CF911F910F91FF9005
:1031F000EF90DF90CF90BF90AF909F908F907F9097
:103200006F905F904F90089580E0E4CF8F929F92EF
:10321000AF92BF92CF92DF92EF92FF920F93CF9334
:10322000DF93DC010FB6F8940F9270E0E114F10423
:1032300081F0FB01EE0FFF1FEE0FFF1FE80FF91FDC
:1032400081A092A0A3A0B4A0E70188829982AA825B
:10325000BB82FD01E60FF71F85A192E095A3023026
:10326000E1F1A0F4013029F1813009F44AC081E094
:103270000F900FBEDF91CF910F91FF90EF90DF90F5
:10328000CF90BF90AF909F908F900895033029F01A
:10329000043051F7823009F497C0660F771F660F2C
:1032A000771FFD01E60FF71F21A332A343A354A309
:1032B000DBCF660F771F660F771FFD01E60FF71F45
:1032C000C1A0D2A0E3A0F4A0C22AD32AE42AF52AFE
:1032D000C1A2D2A2E3A2F4A2C7CF660F771F660FE6
:1032E000771FFD01E60FF71F41A152A163A174A151
:1032F0004F5F5F4F6F4F7F4F41A352A363A374A3F0
:10330000B3CF1A96ED91FC911B9714968D919C91D9
:10331000159716962D913C911797EC013D832C83C0
:103320001696CD91DC9117979B838A839D012E5F22
:103330003F4F818192818217930711F4D283C18319
:103340001B961C921E921A978081815080835696FC
:10335000CC91569780913F078C1710F4C0933F078C
:1033600049E04C9FE0011124C459D84F0980DA810B
:10337000C02D1596DC93CE9314978C819D81179662
:103380009C938E9316978C819D81FC0133832283BD
:103390003D832C8356969C915697949FF00111245F
:1033A000E459F84F1B96FC93EE931A9780818F5F38
:1033B0008083E0919007F09191078689891708F042
:1033C00056CF0E94F50653CF80E052CF8F929F9246
:1033D000AF92BF92CF92DF92EF92FF920F93CF9373
:1033E000DF93DC0170E0E114F10481F0FB01EE0FEA
:1033F000FF1FEE0FFF1FE80FF91F81A092A0A3A0EF
:10340000B4A0E70188829982AA82BB82FD01E60FFF
:10341000F71F85A192E095A30230D1F190F401301D
:1034200019F1813009F448C081E0DF91CF910F910B
:10343000FF90EF90DF90CF90BF90AF909F908F90D4
:103440000895033029F0043061F7823009F4C5C0D3
:10345000660F771F660F771FFD01E60FF71F21A389
:1034600032A343A354A3DDCF660F771F660F771FE8
:10347000FD01E60FF71F81A092A0A3A0B4A0822AAD
:10348000932AA42AB52A81A292A2A3A2B4A2C9CF48
:10349000660F771F660F771FFD01E60FF71F41A12B
:1034A00052A163A174A14F5F5F4F6F4F7F4F41A344
:1034B00052A363A374A3B5CF8091340781116BC06D
:1034C0001A96ED91FC911B9714968D919C911597EE
:1034D00016962D913C911797EC013D832C831696FF
:1034E000CD91DC9117979B838A839D012E5F3F4F7F
:1034F000818192818217930711F4D283C1831B9635
:103500001C921E921A978081815080835696CC918E
:10351000569780913F078C1710F4C0933F0789E0BE
:103520008C9FE0011124C459D84F0980DA81C02D45
:103530001596DC93CE9314974C815D8117965C931E
:103540004E931697EC81FD81338322833D832C8338
:103550005696EC915697E89FF0011124E459F84FE4
:103560001B96FC93EE931A9780818F5F8083E09186
:103570009007F091910756969C918689891708F0DB
:1035800053CFC114D10419F081E0F601808381E0AA
:1035900080933B074ACFE0914E07F0914F071F966B
:1035A000FC93EE931E978481958151969C938E9304
:1035B0005097C481D581CD010C969B838A839583D6
:1035C00084838DE497E055969C938E9354978091D5
:1035D0004D078F5F80934D07CACF80E026CF0F93B2
:1035E0001F93CF93DF93FC01A62FB0E0EC01CA0F2D
:1035F000DB1F8DA192E09DA3AA0FBB1FAA0FBB1FCB
:10360000AE0FBF1F91960D911D912D913C919497F6
:103610000F5F1F4F2F4F3F4F91960D931D932D938B
:103620003C939497813009F05EC0809134078111FA
:103630005FC0A285B3858481958126813781EC01A5
:103640003D832C83C681D7819B838A83CF010296D9
:1036500011962D913C9112972817390721F4129653
:10366000DC93CE931197138612862C9121502C93C4
:10367000C68920913F072C1710F4C0933F0729E01B
:103680002C9FE0011124C459D84F0980DA81C02D44
:10369000D583C4836C817D8177836683AC81BD8152
:1036A00013969C938E9312979D838C83A689A29FD9
:1036B000D0011124A459B84FB387A2878C918F5F92
:1036C0008C93A0919007B0919107968956968C9112
:1036D000891748F44115510519F081E0FA018083FA
:1036E00081E080933B07DF91CF911F910F91089567
:1036F000A0914E07B0914F07B787A68714968D917A
:103700009C911597918B808B1496CD91DC91159798
:10371000CF010C969B838A8315969C938E93149766
:103720008DE497E0958B848B80914D078F5F80931C
:103730004D07C7CF009721F4809190079091910792
:103740000FB6F8940F92FC01E60FF11D85A18230AF
:1037500029F415A281E00F900FBE089580E0FBCF01
:10376000CF92DF92EF92FF92009721F48091900721
:10377000909191070FB6F8940F9274E0679FF00153
:103780001124E80FF91F61A172A183A194A1C1A026
:10379000D2A0E3A0F4A02095309540955095C22288
:1037A000D322E422F522C1A2D2A2E3A2F4A20F9076
:1037B0000FBEFF90EF90DF90CF9008951092910789
:1037C00010929007109243071092420710924107FF
:1037D0001092400710923F0710923E0710923D074B
:1037E00010923C0710923B0710923A07109239074B
:1037F000109238071092370710923407089580E02E
:103800000E940C0181E00E940C014A9768F0F12CA3
:10381000E12C02E020E030E0A90160E0809198070F
:10382000909199070E9406198CE291E00E946C1514
:10383000E6CFC1E082E00E940C018438934068F436
:10384000C0939E0780919307811102C0C093930794
:1038500088EC90E00E946C15EDCF10929E0790913D
:10386000930780919307923011F0843071F4F12C1A
:10387000E12C02E020E030E0A90160E080919607B1
:10388000909197070E940619E3CF10929307E0CF1B
:10389000809193078230F1F048F4882391F08130D1
:1038A000B1F088EC90E00E946C15F2CF8330B9F053
:1038B0008430B9F7AE9AAD98AB98A998AA98AC980D
:1038C000F0CFA99AAA98AB98AC98AE98EACFAA9AEA
:1038D000A998F9CFAD9AAB9AA998AA98F5CFAD98C7
:1038E000AC9AAA98AB98A998F0CFC4E0D3E012E0C4
:1038F00080919307882349F0B09910939307B19969
:10390000D0939307B299C093930788EC90E00E94FC
:103910006C15EECFC3E04FEF5FEF61E080E00E94F7
:10392000CF1781E080939507C0939307A89A88EEFC
:1039300093E00E946C15A89810929507ECCFC3E015
:103940004FEF5FEF61E080E00E94CF1781E080934E
:103950009407C0939307AF9A80ED97E00E946C158F
:10396000AF981092940710929307EACF9C0150E011
:1039700040E060E271EA87E090E00E94371F21504A
:10398000310930BD29B988E08AB986E880BD08953B
:103990005D9BFECF8CB90895CF93DF93EC018991A5
:1039A000811103C0DF91CF9108950E94C81CF7CF09
:1039B000CF93DF93CDB7DEB7A8970FB6F894DEBFED
:1039C0000FBECDBF86E6682E80E0782E90E2D92E1D
:1039D000CE0101967C012EE7822E20E0922E34E962
:1039E000A32E30E0B32E80E00E940C01182F092F87
:1039F0000E943A016DA37EA38FA398A70F931F93F4
:103A00007F926F921F92DF92FF92EF920E94861F29
:103A1000C7010E94CC1C6DA17EA18FA198A5870132
:103A200022E030E04AEF5FEF0E945F1FC7010E9473
:103A3000CC1C89E790E00E94CC1C81E00E940C0124
:103A4000182F092F0E943A0169A37AA38BA39CA384
:103A50000F931F939F928F921F92DF92FF92EF928C
:103A60000E94861FC7010E94CC1C69A17AA18BA16C
:103A70009CA1870122E030E04AEF5FEF0E945F1FC8
:103A8000C7010E94CC1C89E790E00E94CC1C809169
:103A900093071F928F93BF92AF921F92DF92FF9274
:103AA000EF920E94861FC7010E94CC1C84EF91E018
:103AB0000E946C150FB6F894DEBF0FBECDBF93CF3A
:103AC00060E080E80E94010180E895E20E94B61C57
:103AD00084B38FEF84BB8CE9E82E87E0F82E01E0F9
:103AE00030E020E040E86AEA70E08FEF9BE10E945E
:103AF0008211F12CE12C05E030E020E040E863EB9E
:103B000070E088ED9CE10E94821198E9E92E97E02F
:103B1000F92E01E030E020E040E86DEB70E08AE84B
:103B20009CE10E94821126E9E22E27E0F22E02E0BB
:103B300030E020E040E86EEC70E08FE99CE10E940C
:103B40008211F12CE12C04E030E020E040E865EE49
:103B500070E088E49CE10E9482113AE9E32E37E0AC
:103B6000F32E02E030E020E040E869EF70E089E108
:103B70009CE10E948211F12CE12C03E030E020E076
:103B800040E86CE071E085E79CE10E9482110E94B0
:103B9000FC12FFCF0E94DE1D0C94901E0E94891E15
:103BA00058F00E94821E40F029F45F3F29F00C94E7
:103BB000791E51110C94C41E0C947F1E0E94A11EEC
:103BC00068F39923B1F3552391F3951B550BBB274C
:103BD000AA2762177307840738F09F5F5F4F220F91
:103BE000331F441FAA1FA9F335D00E2E3AF0E0E888
:103BF00032D091505040E695001CCAF72BD0FE2FD2
:103C000029D0660F771F881FBB1F26173707480765
:103C1000AB07B0E809F0BB0B802DBF01FF2793581D
:103C20005F4F3AF09E3F510578F00C94791E0C944A
:103C3000C41E5F3FE4F3983ED4F38695779567956D
:103C4000B795F7959F5FC9F7880F911D9695879552
:103C500097F90895E1E0660F771F881FBB1F621771
:103C600073078407BA0720F0621B730B840BBA0B2F
:103C7000EE1F88F7E0950895E89409C097FB3EF49D
:103C800090958095709561957F4F8F4F9F4F9923A9
:103C9000A9F0F92F96E9BB279395F6958795779527
:103CA0006795B795F111F8CFFAF4BB0F11F460FFE7
:103CB0001BC06F5F7F4F8F4F9F4F16C0882311F03F
:103CC00096E911C0772321F09EE8872F762F05C053
:103CD000662371F096E8862F70E060E02AF09A95EE
:103CE000660F771F881FDAF7880F9695879597F9E3
:103CF000089597F99F6780E870E060E008959FEF6E
:103D000080EC089500240A94161617061806090672
:103D1000089500240A941216130614060506089541
:103D2000092E0394000C11F4882352F0BB0F40F4C9
:103D3000BF2B11F460FF04C06F5F7F4F8F4F9F4F09
:103D4000089557FD9058440F551F59F05F3F71F08B
:103D50004795880F97FB991F61F09F3F79F08795F2
:103D60000895121613061406551FF2CF4695F1DF7B
:103D700008C0161617061806991FF1CF869571050B
:103D8000610508940895E894BB2766277727CB013F
:103D900097F908950E94DD1E0C94901E0E94821EC9
:103DA00038F00E94891E20F0952311F00C94791EA2
:103DB0000C947F1E11240C94C41E0E94A11E70F34B
:103DC000959FC1F3950F50E0551F629FF001729FC0
:103DD000BB27F00DB11D639FAA27F00DB11DAA1FCF
:103DE000649F6627B00DA11D661F829F2227B00D1C
:103DF000A11D621F739FB00DA11D621F839FA00DA7
:103E0000611D221F749F3327A00D611D231F849FF6
:103E1000600D211D822F762F6A2F11249F5750404D
:103E20009AF0F1F088234AF0EE0FFF1FBB1F661FC8
:103E3000771F881F91505040A9F79E3F510580F091
:103E40000C94791E0C94C41E5F3FE4F3983ED4F3A7
:103E5000869577956795B795F795E7959F5FC1F735
:103E6000FE2B880F911D9695879597F90895A1E2ED
:103E70001A2EAA1BBB1BFD010DC0AA1FBB1FEE1FE4
:103E8000FF1FA217B307E407F50720F0A21BB30B2F
:103E9000E40BF50B661F771F881F991F1A9469F7AB
:103EA00060957095809590959B01AC01BD01CF0107
:103EB0000895EE0FFF1F0590F491E02D0994EF9205
:103EC0000F931F93CF93DF93E80134E047FD34E174
:103ED000042E000C550B57FF03C051954195510915
:103EE000E32E022F242FAE010E949021CE01DF91FC
:103EF000CF911F910F91EF900895FB01DC0102C05B
:103F000001900D9241505040D8F70895AEE0B0E0D6
:103F1000ECE8FFE10C9479240D891E898F89988D36
:103F200026E02C831A83098397FF02C080E090E883
:103F300001979E838D83AE01455E5F4F698D7A8DBB
:103F4000CE0101960E94B61F4D815E8157FD0AC0C9
:103F50002F813885421753070CF49A01020F131F63
:103F6000F80110822E96E4E00C949524ABE0B0E0CA
:103F7000ECEBFFE10C946B247C013B018A01FC011A
:103F800017821682838181FFC8C1CE0101965C0130
:103F9000F7019381F30193FD859193FF81913F0197
:103FA000882309F453C1853239F493FD859193FF39
:103FB00081913F01853229F4B70190E00E94DD2311
:103FC000E7CF912C212C312CFFE1F31538F08B3207
:103FD00011F190F4803209F1833229F137FC3CC0B1
:103FE00020ED280F2A3050F536FE20C08AE0989E3A
:103FF000200D1124922E06C08D3291F0803371F77E
:10400000689430F8F30193FD859193FF81913F010E
:104010008111DACF21C0689431F8689432F8F2CF78
:10402000689433F8EFCF689434F8ECCFEAE02E9E32
:10403000200D1124222E689435F8E4CF8E3229F415
:1040400036FC04C1689436F8DDCF8C3619F46894D8
:1040500037F8D8CF8836B1F2982F9F7D955493309A
:10406000E0F08336A1F18337C1F1833509F063C0F5
:104070002801F2E04F0E511CF801C080D180692D5B
:1040800070E036FC02C06FEF7FEFC6010E94C723CD
:104090004C01689437F882010AC00C5F1F4FFFE3A0
:1040A000F98388248394912C6501E89437F833FED2
:1040B0002DC0522C8114910471F5552009F468CF5C
:1040C000B70180E290E00E94DD235A94F6CFF80118
:1040D000808189830E5F1F4FE4CF2801F2E04F0EED
:1040E000511CF801C080D180692D70E036FC02C0FF
:1040F0006FEF7FEFC6010E94D2234C018201D5CF22
:10410000B70180E290E00E94DD232A94281419046C
:1041100009F0B0F7CECFF60137FC859137FE8191DB
:104120006F01B70190E00E94DD2351105A94F1E035
:104130008F1A9108BFCF843619F0893609F077C0FD
:10414000F80137FE6BC060817181828193810C5FC1
:104150001F4FF32DFF763F2E97FF09C09095809556
:10416000709561957F4F8F4F9F4F689437F82AE085
:1041700030E0A5010E940D24C82ECA188C2C432CB7
:1041800036FE0CC0E89440F8C91440F434FE05C073
:1041900032FC03C0F32DFE7E4F2E892C44FE95C0C9
:1041A000FE01EC0DF11D8081803309F087C0242DC4
:1041B000297E422E842D8870582E43FC95C040FEE7
:1041C0008FC09C2C821418F42C0C922C981844FE4E
:1041D00091C0B70180E390E00E94DD2342FE09C058
:1041E00088E790E041FE02C088E590E0B7010E94B8
:1041F000DD23C91408F48AC0CA94D12C9FEFC91AD0
:10420000D90ACA0CDB1CF60182916F01B70190E05C
:104210000E94DD23AC14BD04B1F74FCF60817181E2
:10422000072E000C880B990B0E5F1F4F92CFD32CDB
:10423000E894D4F82AE030E0853739F1232D297F3E
:10424000D22E8F3601F148F48835A9F0F701868126
:1042500097812B96E2E10C948724803749F08837C8
:10426000A9F7D4FE02C06894D2F820E130E00DC076
:104270006894D4F8F6CF34FE03C0822F8660D82E1F
:1042800020E132E002C028E030E0F801D7FE0FC0A4
:1042900060817181828193810C5F1F4FA5010E9413
:1042A0000D24C82ECA183D2CE89437F867CF6081DA
:1042B000718190E080E00E5F1F4FF0CF42FC02C0A2
:1042C000839478CF8394839475CF842D867809F472
:1042D00071CFF6CFB70180E290E00E94DD23839496
:1042E0008214C0F3512C73CF522C5818821408F446
:1042F0006ECFF8CF842D867809F47BCF8BE241FE18
:1043000080E247FC8DE2B70190E071CFB70180E316
:1043100090E00E94DD239A946CCF8FEF9FEF99CFAE
:10432000A9E0B0E0E6E9F1E20C9471246A01F22E12
:10433000B02E102FFBE3AF2EA01608F41BE31F5F77
:10434000012F27E0AE014F5F5F4F0E94EF22BC01BB
:104350008981982F9970913009F43FC09BE2E1FC6C
:1043600004C09E2D9170E0FC3AC05E2D5071E82F84
:10437000E87083FF46C084E0911101C083E0EF2D17
:10438000E81B8F1508F0E0E0D6018E2F20E25523C0
:1043900051F1992329F0D6019C93C60101966C0135
:1043A00096012D5F3F4FE2FE24C08EE4D6018C9330
:1043B00091E411969C93119712968C93D9018E2FAC
:1043C00090E281111BC0E20FF32FF11D10828EEFDE
:1043D0009FEF2996ECE00C948D249DE2C6CF90E2ED
:1043E000C4CF2D9381508111FCCFCE0ED11CE0E0C3
:1043F000D0CF8EE6D6018C9391E6DBCF9D93815092
:10440000E0CF482F447082FF3DC084E0911101C08D
:1044100083E08F1510F4EF2DE81BD6018E2F20E2DC
:10442000552309F1992329F0D6019C93C6010196E1
:104430006C0196012D5F3F4FE2FE1BC089E4D6015F
:104440008C938EE411968C93119786E412968C933C
:10445000D9018E2F90E2882309F4B5CF9D93815026
:10446000FACF2D9381508111FCCFCE0ED11CE0E00C
:10447000D9CF89E6D6018C938EE611968C9311974D
:1044800086E6E4CF9B0177FF02C030E020E0A1E0A8
:10449000B0E0911102C0B0E0A0E0F9013196AE0F9A
:1044A000BF1F8B2C912CBB2009F461C05401EFEF8E
:1044B000AE1ABE0AAA0DBB1DFA161B0619F014F09F
:1044C0004F2D4A1B511188C0E3FC59C07601A42F1F
:1044D000B0E2A1114FC0C40ED11C992309F45BC0F6
:1044E00040E0D6011196F60190836D01552309F441
:1044F00048C0012F060F9A81582F507184FF03C0C6
:10450000913309F4015010160CF047C0093008F03F
:1045100008E0EEE2FE2E5B01A01AB108850191943D
:10452000819491082F3F320729F4D601FC92F601BD
:1045300031966F016217730794F1021713077CF528
:10454000DB01A21BB30BAA24A394B12CAC0EBD1E9D
:10455000AA0DBB1D11968C9121503109D6011196DF
:1045600028153905F4F0F60180836D01DBCFB12CFD
:10457000A12CA0CFF701B1937F01A150AACF911137
:10458000B0CFD601942F50E302C05D9391509111AA
:10459000FCCFC40ED11C40E0ACCF01E0BACF80E329
:1045A000DBCF6217730731F4963388F4953311F437
:1045B000552369F0F6018083FD01842F90E281117B
:1045C00008C0A40FB11D1C9290E080E002CF81E3EF
:1045D000F1CF91938150F3CF911183CF8ACF2830BF
:1045E00008F027E03327DA01990F311D87FD91602C
:1045F00000966105710539F432602E5F3D9330E31A
:104600002A95E1F708959F3F30F0803871056105E4
:1046100009F03C5F3C5F3D93913008F08068911D4C
:10462000DF93CF931F930F93FF92EF92192F987FF1
:104630009695E92F96959695E90FFF27E255FF4F3E
:1046400099273327EE24FF24A701E701059008945A
:10465000079428F4360FE71EF81E491F511D660FF8
:10466000771F881F991F0694A1F70590079428F4D7
:10467000E70EF81E491F561FC11D770F881F991F8F
:10468000661F0694A1F70590079428F4F80E491FB9
:10469000561FC71FD11D880F991F661F771F0694CD
:1046A000A1F70590079420F4490F561FC71FD81F84
:1046B000990F661F771F881F0694A9F7849110959C
:1046C000177041F0D695C79557954795F794E7949D
:1046D0001A95C1F7E4E5F0E06894159015913591CD
:1046E0006591959105907FE27395E118F10A430B6E
:1046F000560BC90BD009C0F7E10CF11E431F561F22
:10470000C91FD01D7EF4703311F48A95E6CFE8946A
:10471000015030F0080F0AF40027021708F4202F88
:104720002395022F7A3328F079E37D932A95E9F7D0
:1047300010C07D932A9589F60694979567953795CD
:1047400017951794E118F10A430B560BC90BD009C2
:1047500098F023957E9173957A3308F070E37C93FB
:104760002013B8F77E9170617D9330F0839571E3EB
:104770007D9370E32A95E1F71124EF90FF900F915C
:104780001F91CF91DF91992787FD90950895FC01A6
:104790000590615070400110D8F7809590958E0F6C
:1047A0009F1F0895FC016150704001900110D8F7DF
:1047B000809590958E0F9F1F08950F931F93CF9311
:1047C000DF93182F092FEB018B8181FD09C01FEFAB
:1047D0000FEF812F902FDF91CF911F910F910895AF
:1047E00082FF14C02E813F818C819D81281739075B
:1047F0003CF4E881F981CF01019699838883108385
:104800008E819F8101969F838E83E3CFE885F98512
:10481000812F0995892BA1F3DACFFA01AA27283035
:1048200051F1203181F1E8946F936E7F6E5F7F4F7D
:104830008F4F9F4FAF4FB1E03ED0B4E03CD0670FF9
:10484000781F891F9A1FA11D680F791F8A1F911D4C
:10485000A11D6A0F711D811D911DA11D20D009F49C
:1048600068943F912AE0269F11243019305D3193DE
:10487000DEF6CF010895462F4770405D4193B3E0C7
:104880000FD0C9F7F6CF462F4F70405D4A3318F06E
:10489000495D31FD4052419302D0A9F7EACFB4E01F
:1048A000A6959795879577956795BA95C9F70097D7
:1048B0006105710508959B01AC010A2E0694579578
:1048C000479537952795BA95C9F7620F731F841FCF
:1048D000951FA01D08952F923F924F925F926F9265
:1048E0007F928F929F92AF92BF92CF92DF92EF9280
:1048F000FF920F931F93CF93DF93CDB7DEB7CA1B01
:10490000DB0B0FB6F894DEBF0FBECDBF09942A882B
:10491000398848885F846E847D848C849B84AA84D3
:10492000B984C884DF80EE80FD800C811B81AA8160
:10493000B981CE0FD11D0FB6F894DEBF0FBECDBF2B
:08494000ED010895F894FFCF8A
:104948000349444C45004144433A2025642C2056F1
:104958006F6C746167653A200020560D0A00414467
:10496800435F4F433A2025642C20566F6C7461676F
:10497800653A20004368617267696E6720737461E5
:1049880074653A202564200D0A004144432054618F
:10499800736B0055415254205461736B004F766518
:1049A8007263757272656E74205461736B0053750F
:1049B8006464656E20446973636F6E6E656374200A
:1049C8005461736B004C4544204D616E6167656DA1
:1049D800656E74205461736B0056656869636C6515
:1049E80020436865636B205461736B00427574746F
:0A49F8006F6E73205461736B0000B2
:00000001FF
