:100000000C94A7000C94C4000C94C4000C94C4007D
:100010000C94C4000C94C4000C94C4000C9487018C
:100020000C94C4000C94C4000C94C4000C94C40040
:100030000C94C4000C94C4000C94C4000C94C40030
:100040000C94C4000C94C4000C94C4000C94C40020
:100050000C94C40000407A10F35A00A0724E1809A4
:100060000010A5D4E80000E87648170000E40B541F
:10007000020000CA9A3B000000E1F50500008096EE
:100080009800000040420F000000A0860100000020
:10009000102700000000E8030000000064000000DA
:1000A00000000A00000000000100000000002C76A3
:1000B000D888DC674F0823DFC1DFAE59E1B1B796BE
:1000C000E5E3E453C63AE651997696E8E6C284261B
:1000D000EB898C9B62ED407C6FFCEFBC9C9F40F2F7
:1000E000BAA56FA5F490055A2AF75C936B6CF96773
:1000F0006DC11BFCE0E40D47FEF520E6B500D0ED38
:10010000902E0300943577050080841E080000209F
:100110004E0A000000C80C333333330F986E12833D
:100120001141EF8D2114893BE65516CFFEE6DB1811
:10013000D1844B381BF77C1D901DA4BBE4242032D6
:1001400084725E228100C9F124ECA1E53D271124CF
:100150001FBECFE5D8E0DEBFCDBF10E0A0E6B0E027
:10016000EEE7FDE402C005900D92A83DB107D9F776
:1001700025E0A8EDB0E001C01D92A139B207E1F77A
:100180000E94B31F0C94BD260C940000CF93DF9304
:1001900000D0CDB7DEB70E94AB169A8389830E9448
:1001A000FB038BE890E00E94D8036DEC7CEC8CE8BC
:1001B00090E40E94070484E990E00E94D80380EC58
:1001C0000E941C0386E990E00E94D80363E373E376
:1001D00083E590E40E94070464E670E0CE01019696
:1001E0000E948E18DCCFCF93DF9300D0CDB7DEB75F
:1001F0000E94AB169A838983A09AA89A64EF71E053
:10020000CE0101960E948E1820E050E040E070E0A0
:1002100060E080918F05909190050E94000B90E026
:1002200080E00E943419E9CFCF93DF9300D0CDB79F
:10023000DEB70E94AB169A8389836FEF7FEF8091C0
:100240008F05909190050E948A0C8130B1F70E9431
:10025000170360ED77E0CE0101960E948E18F7CF6C
:10026000FFCFFFCFEF92FF920F9343E060E081E07A
:100270000E94D40A9093900580938F0587E8E82E1A
:1002800085E0F82E03E030E020E040E860EA70E02E
:1002900083EF90E00E94F7139DE8E92E95E0F92E98
:1002A00002E030E020E040E86EEA70E084E191E0B6
:1002B0000E94F71323E8E22E25E0F22E01E030E061
:1002C00020E040E86AEB70E086EC90E00E94F713D3
:1002D0000F91FF90EF900C9450161FBC88E08EBDDC
:1002E00089E698E19BBD8ABD80E189BF7894089535
:1002F0008EB583608EBD08958EB5887F8EBD0895BE
:10030000009721F09093D9008093D80008951F9210
:100310000F920FB60F9211242F933F934F935F9339
:100320006F937F938F939F93AF93BF93EF93FF93BD
:10033000E091D800F091D900309709F00995FF912C
:10034000EF91BF91AF919F918F917F916F915F914D
:100350004F913F912F910F900FBE0F901F901895C6
:100360009B01AC01C901BA010895DC01ED91FC913A
:1003700060830895DC011296ED91FC9160830895ED
:10038000DC011296ED91FC9180810895DC011296BA
:10039000ED91FC91808121E030E001C0220F6A954F
:1003A000EAF7822B80830895DC011296ED91FC918F
:1003B000208181E090E001C0880F6A95EAF780957E
:1003C000822380830895DC011296ED91FC912081B7
:1003D00081E090E0062E02C0880F991F0A94E2F790
:1003E00030E08223932302C0959587956A95E2F7C2
:1003F00008950F931F93CF93DF93C0E6D0E001E001
:1004000010E0E881F9810190F081E02D8B8181304D
:10041000D1F48A81980102C0220F331F8A95E2F736
:1004200020832C816A8188819981213071F40E9416
:10043000C601259630E0CE37D30719F7DF91CF916B
:100440001F910F9108951082ECCF0E94D401F1CF3B
:1004500096B1987F96B98031C1F040F4843079F03C
:10046000883079F08230C9F4309A0895803479F078
:10047000803881F0803289F486B1856004C0319A79
:10048000089586B1836086B90895329A089586B139
:100490008660F9CF86B18760F6CF86B1887FF3CFCB
:1004A00097B19F7397B93E9A811104C087B18F733A
:1004B00087B90895813011F43E9A08958330E1F7A9
:1004C00087B1806CF5CFCF93C62F379A0E94280250
:1004D0008C2F0E9450023D98CF91089597B1907E45
:1004E00097B9883030F5E82FF0E0E758FD4F0C94CD
:1004F00007209902810288028A028E0290029302EA
:100500009602389A369A349BFECF84B195B10895FD
:10051000399AF8CF87B1836087B9F4CF3A9AF2CF8E
:1005200087B18560F9CF87B18660F6CF87B18760E4
:10053000F3CF87B1807EF0CFBC0190E080E00E94D5
:100540007F2020E030EC4FE754E40E940D2020E0B3
:1005500030E040EA50E40E940D2108958091DC00D3
:100560009091DD0001969093DD008093DC0008956A
:100570000F931F93CF93DF93CDB7DEB7A0970FB63E
:10058000F894DEBF0FBECDBF80E895E20E942A043A
:100590000E94AE022091DC003091DD008091DA00F3
:1005A0009091DB0028173907F9F41092DD001092C2
:1005B000DC0080E00E946E029F938F9389EC90E0B4
:1005C0009F938F931F9280E28F938E010F5F1F4F37
:1005D0001F930F930E94A121C8010E9440040FB6EF
:1005E000F894DEBF0FBECDBFA0960FB6F894DEBF65
:1005F0000FBECDBFDF91CF911F910F9108950E9443
:100600006D0188EB92E00C9480010C9478010C94BD
:100610007C0122E330E040E050E00E94C61F3093AE
:10062000DB002093DA000895A09AA89A0895D19843
:10063000D998A19AA99A0895CF93C82F86E890E0F7
:100640000E94C0018F706C2F607F682B86E890E05D
:100650000E94BA0160E082E890E00E94D40161E06B
:1006600082E890E00E94C60182E08A95F1F700C01E
:1006700061E082E890E00E94D4018FE891E0019768
:10068000F1F700C0000086E890E00E94C0018F7082
:1006900090E1C99FB0011124682B86E890E00E9488
:1006A000BA0161E082E890E00E94C60182E08A958A
:1006B000F1F700C061E082E890E00E94D4018FE988
:1006C0009FE00197F1F700C00000CF910895CF930C
:1006D000C82F86E890E00E94C0018F706C2F607F69
:1006E000682B86E890E00E94BA0160E082E890E022
:1006F0000E94C60161E082E890E00E94C60182E0AB
:100700008A95F1F700C061E082E890E00E94D40190
:100710008FE891E00197F1F700C0000086E890E0D3
:100720000E94C0018F7090E1C99FB0011124682B15
:1007300086E890E00E94BA0161E082E890E00E94C1
:10074000C60182E08A95F1F700C061E082E890E09E
:100750000E94D4018FE99FE00197F1F700C00000EB
:10076000CF91089560EF86E890E00E94B50163E0C4
:1007700082E890E00E94B5018FE39CE90197F1F7D0
:1007800000C0000082E00E941C0388E20E941C035B
:100790008CE00E941C0386E00E941C0381E00E9402
:1007A0001C038FE99FE00197F1F700C00000089556
:1007B000CF93DF93EC018991811103C0DF91CF9139
:1007C00008950E946703F7CFCF93DF93EA01811169
:1007D00009C0862F8068603158F0CE01DF91CF913B
:1007E0000C94D8038130C9F76031B8F7862F806C3C
:1007F0000E941C03F2CF81E00E941C038FE99FE05E
:100800000197F1F700C0000080E80C941C030F93DF
:100810001F93CF93DF93CDB7DEB72A970FB6F89427
:10082000DEBF0FBECDBF8E010F5F1F4F22E030E055
:1008300044E050E00E947A21C8010E94D8032A9621
:100840000FB6F894DEBF0FBECDBFDF91CF911F91E1
:100850000F9108959C0150E040E060E271EA87E06A
:1008600090E00E94E81F2150310930BD29B988E08D
:100870008AB986E880BD08955D9BFECF8CB9089546
:10088000CF93DF93EC018991811103C0DF91CF9168
:1008900008950E943C04F7CFCF92DF92EF92FF922F
:1008A0001F93CF93DF936C01162FF42E8AE190E013
:1008B0000E94B307EC018FEF209709F456C0809196
:1008C000E5009091E600892B21F5D093E600C093D6
:1008D000E50086E091E00E94FF078FE091E00E9432
:1008E000FF078DEF90E00E94FF0784EF90E00E94E9
:1008F000FF0787EE90E00E94FF078DEF90E0909356
:10090000F3008093F20084EF90E09093F1008093E5
:10091000F000111111E0198E188E1E8BFF8AFE0156
:10092000C192D1927F01CF010E940D08CE010C9699
:100930000E940D08D987C887DB8BCA8B82E090E0C4
:10094000811B91099D878C878E899091E40098176F
:1009500010F48093E400F9E08F9FC0011124B701E7
:100960008A5F9E4F0E94110881E0DF91CF911F9115
:10097000FF90EF90DF90CF9008950F931F93CF9348
:10098000DF938B01C091E200D091E300C80FD91F23
:100990008091E5009091E60002960E9467086091C0
:1009A000E5007091E600FB01D383C2838091E200F1
:1009B0009091E3006E5F7F4FC817D907B0F4809124
:1009C000F0009091F1000E9431080115110591F09D
:1009D0006091E5007091E600645F7F4FC801DF9190
:1009E000CF911F910F910C9431088091F20090915A
:1009F000F300E9CFDF91CF911F910F910895FF92FE
:100A00000F931F93CF93DF938091F2009091F300A7
:100A1000892B09F444C099E0F92E8091E7008111F7
:100A200044C00E94AB162091E0003091E100821B8F
:100A3000930B9093DF008093DE0089E0F82E2091E5
:100A4000DE003091DF008091E2009091E3002115FB
:100A5000310509F04CC09093E1008093E000809153
:100A6000E400282F30E099E0929FF001939FF00D71
:100A70001124EA5FFE4F408141118DC0882369F047
:100A80008150282F30E0929FF001939FF00D1124A8
:100A9000EA5FFE4F908191117EC08093E400DF9168
:100AA000CF911F910F91FF900895F894E091EC0081
:100AB000F091ED00C681D781CE010C960E946708A7
:100AC00078948E010E5F1F4FC8010E9467088E89BF
:100AD0009091E400981710F48093E4008F9DC0017A
:100AE0001124B8018A5F9E4F0E94110896CF01968B
:100AF0009093E3008093E200215031093093DF00AE
:100B00002093DE00892B81F48091F2009091F30014
:100B10002091F0003091F1003093F3002093F20027
:100B20009093F1008093F000E091F200F091F300D7
:100B30002091E2003091E3008081882309F47FCF87
:100B40000580F681E02DC681D7818A819B81281797
:100B5000390708F474CFF8948E010E5F1F4FC80157
:100B60000E9467088C899D89892B21F0CE010C9603
:100B70000E94670878948E899091E400981710F489
:100B80008093E4008F9DC0011124B8018A5F9E4FBD
:100B90000E941108C9CF8093E40049E0429FC00140
:100BA000439F900D1124FC01EA5FFE4FA181B281A9
:100BB00012964D915C9152834183875F9E4F4817F7
:100BC000590721F4858196819283818389E0829FF0
:100BD000F001839FF00D1124EA5FFE4F0180F28146
:100BE000E02D868197819093E6008093E500DC01FB
:100BF000ED91FC91119757966C91DF91CF911F91D8
:100C00000F91FF9009940F931F93CF93DF93DC0113
:100C10001596ED91FC91C681D7818E01045F1F4F1F
:100C2000C8010E946708B80187EE90E00E94110891
:100C3000E091E500F091E60081E02E899689291780
:100C400008F480E0DF91CF911F910F9108951092E9
:100C5000F3001092F2001092F1001092F000109246
:100C6000E6001092E5001092E4001092E30010926A
:100C7000E2001092E1001092E0001092DF0010926A
:100C8000DE000895CF93DF938BE090E00E94B307DE
:100C9000EC01009731F0FC0111921192CF010E94FA
:100CA000FF07CE01DF91CF910895AF92BF92CF920F
:100CB000DF92EF92FF920F931F93CF93DF936C011C
:100CC0007B01B42EA22E0E94A516F601C081D1810F
:100CD000CE018E219F21A11040C0892B09F041C077
:100CE0000115110589F070E060E0BB2011F060E0B3
:100CF00071E0A11074606E297F29A801C6010296D7
:100D00000E949A19D0E0C0E00E94C117012BC9F0DF
:100D1000811102C00E942C090E946A1B91FD0FC024
:100D20000FB6F8940F92F6018081918197012823E4
:100D30003923A11023C0232B21F50F900FBEEC0106
:100D4000DD27CE01DF91CF911F910F91FF90EF90A2
:100D5000DF90CF90BF90AF900895E816F90609F0A4
:100D6000BFCFBB2041F0C701809590958C239D2378
:100D7000F6019183808310E000E0C6CFE216F3060F
:100D8000E1F6BB20D1F2E094F094E822F922F601DA
:100D9000F182E082D2CFFC010FB6F8940F928081ED
:100DA00091816095709568237923718360830F909A
:100DB0000FBE0895FC01808191810895CF92DF924A
:100DC000EF92FF920F931F93CF93DF93EC018B0170
:100DD0007C0185E0E80EF11C0E94A516EF81F885E4
:100DE00068817981602B712B7983688310E000E042
:100DF00068817981EE15FF0599F400951095062319
:100E00001723198308830E94C11788819981DF9174
:100E1000CF911F910F91FF90EF90DF90CF900895A9
:100E2000C280D38020813181C9019927AC0146233A
:100E3000572332FD04C0452B29F4F601D9CF84177E
:100E40009507D9F730FF02C0082B192B7260CF012C
:100E50000E94841AF2CFAF92BF92CF92DF92EF92AC
:100E6000FF920F931F93CF93DF937C01EB018A01D5
:100E700069010E94A516F701A080B180BE01C701DB
:100E80000E94DE06CA29DB29CE0180239123801728
:100E9000910709F03BC0F70180819181980120956D
:100EA00030958223932391838083D12CC12C0E947F
:100EB000C117CD28F9F0811102C00E942C090E94AF
:100EC0006A1B91FD15C00FB6F8940F92F70180814F
:100ED00091819801282339232017310739F4A8017B
:100EE0004095509548235923518340830F900FBE5E
:100EF000EC01DD27CE01DF91CF911F910F91FF9083
:100F0000EF90DF90CF90BF90AF900895C114D104BF
:100F100051F0A601B8017560C70102960E949A19A6
:100F2000D0E0C0E0C4CFF701C081D181C0CFCF9362
:100F3000DF93EC010E94A5168A81811107C00E94EF
:100F4000C117CE01DF91CF910C94EB0760E072E006
:100F50008F8198850E94841AEFCFBA010C94DE0627
:100F6000BA010C94CB060F931F93CF93DF938C01A0
:100F70000E94A5168091180190911901892B31F4D6
:100F80008CE191E0909319018093180101151105EE
:100F9000F9F020911A0130911B01020F131F0F3F2E
:100FA00083E01807A8F42017310790F4C0911801C6
:100FB000D0911901C20FD31F10931B0100931A0186
:100FC0000E94C117CE01DF91CF911F910F9108951B
:100FD000D0E0C0E0F5CF089510921B0110921A01E5
:100FE000089520911A0130911B018FEF93E0821B2D
:100FF000930B089510921B0110921A010895FC01A1
:101000000396928381832FEF3FEF3483238396836C
:1010100085839087878310820895FC01118610864E
:101020000895CF93DF939C01FB01DC011196CD91D4
:10103000DC91D383C2838C819D81958384838C8151
:101040009D81DC0113967C936E9312977D836C8354
:1010500031872087F90180818F5F8083DF91CF9175
:1010600008950F931F93CF93DF938C01FB01808131
:101070009181D80113968F3F9807F1F4E801AF8171
:10108000B88512968D919C91139793838283EC017E
:10109000FD83EC83B583A4831396FC93EE931297A0
:1010A00011870087F80180818F5F8083DF91CF9166
:1010B0001F910F910895D90112962D913C9113978C
:1010C000E9014881598184179507A8F7DACFCF93B2
:1010D000DF93FC01A085B1858281938124813581D4
:1010E000EC013D832C83C481D5819B838A83119637
:1010F0008D919C9112978E179F0721F41296DC9385
:10110000CE931197118610868C9181508C93DF912C
:10111000CF91089531E1FC013083319722E22083A1
:101120003197A3E3A0833197608331977083319720
:101130001082319760E8608331971082319762E0C6
:101140006083319763E06083319764E06083319717
:1011500065E06083319766E06083319767E0608384
:10116000319768E06083319769E06083319760E18F
:10117000608331973083319732E13083319733E1A7
:101180003083319734E13083319735E130833197C3
:1011900036E13083319737E13083319738E130835E
:1011A000319739E13083319730E23083319731E242
:1011B000308331972083319723E220833197408316
:1011C00031975083319726E22083319727E220839D
:1011D000319728E22083319729E22083319720E359
:1011E0002083319721E32083869708951BBC8CE7E9
:1011F0008ABD8BE08EBD89B7806189BFA0918105D2
:10120000B0918205CD91CDBFDD91DEBFFF91EF9111
:10121000DF91CF91BF91AF919F918F917F916F910E
:101220005F914F913F912F911F910F91FF90EF9000
:10123000DF90CF90BF90AF909F908F907F906F90F6
:101240005F904F903F902F901F900F900FBE0F9088
:10125000089581E0089508950F920FB6F8940F92C3
:101260001F9211242F923F924F925F926F927F9222
:101270008F929F92AF92BF92CF92DF92EF92FF92A6
:101280000F931F932F933F934F935F936F937F938E
:101290008F939F93AF93BF93CF93DF93EF93FF937E
:1012A000A0918105B09182050DB60D920EB60D92FA
:1012B0000E94EE18A0918105B0918205CD91CDBF1D
:1012C000DD91DEBFFF91EF91DF91CF91BF91AF91A3
:1012D0009F918F917F916F915F914F913F912F914E
:1012E0001F910F91FF90EF90DF90CF90BF90AF9044
:1012F0009F908F907F906F905F904F903F902F9036
:101300001F900F900FBE0F9008950F920FB6F89494
:101310000F921F9211242F923F924F925F926F92E1
:101320007F928F929F92AF92BF92CF92DF92EF9275
:10133000FF920F931F932F933F934F935F936F935E
:101340007F938F939F93AF93BF93CF93DF93EF934D
:10135000FF93A0918105B09182050DB60D920EB656
:101360000D920E94C51681110E94EE18A091810570
:10137000B0918205CD91CDBFDD91DEBFFF91EF91A0
:10138000DF91CF91BF91AF919F918F917F916F919D
:101390005F914F913F912F911F910F91FF90EF908F
:1013A000DF90CF90BF90AF909F908F907F906F9085
:1013B0005F904F903F902F901F900F900FBE0F9017
:1013C00008950FB6F8940F92FC01928D0F900FBE06
:1013D00081E0911180E008950F931F93CF93DF93E5
:1013E000EC01042F1A8D4C8D4423C1F050E0011103
:1013F0001DC08A819B810E9498218C8D2A813B810E
:10140000820F932F911D9B838A832C813D818217AC
:10141000930720F0888199819B838A831F5F1A8FAD
:1014200080E0DF91CF911F910F9108958E819F8170
:101430000E9498218C8D90E09195819591092E8143
:101440003F81280F391F3F832E83488159812417FC
:10145000350730F42C813D81820F931F9F838E834B
:101460000230E1F61123D1F21150D8CFFC01CB01AB
:10147000448D4423A1F050E026813781240F351F8D
:1014800037832683648175812617370720F02081F2
:10149000318137832683668177810C949821089562
:1014A000EF92FF921F93CF93DF93EC010FB6F89466
:1014B0000F921E8D7C0181E1E80EF11C1116C4F023
:1014C0008FEF8E8F0F900FBE0FB6F8940F921D8D79
:1014D0007E0188E0E80EF11C1116ACF08FEF8D8FC5
:1014E0000F900FBEDF91CF911F91FF90EF90089565
:1014F0008989882329F3C7010E94DF1981110E947D
:10150000571B1150DBCF8885882341F3C7010E9408
:10151000DF1981110E94571B1150DECFCF93DF934B
:10152000009709F43FC0FC01238D222309F43AC03F
:10153000EC01448D0FB6F8940F9280819181FC01EB
:10154000249FE00DF11D1124FD83EC831A8E9B83F3
:101550008A832150330B429FF001439FF00D1124E9
:101560008E0F9F1F9F838E838FEF8D8F8E8F6111C4
:1015700010C08885882339F0CE0108960E94DF19B3
:1015800081110E942C090F900FBE81E0DF91CF9155
:101590000895CE0108960E94FF07CE0141960E9451
:1015A000FF07F1CF80E0F2CF0F931F93CF93DF932C
:1015B000811108C0D0E0C0E0CE01DF91CF911F9132
:1015C0000F910895869F90011124213E310594F7D3
:1015D000162F082FC9014F960E94B307EC01009700
:1015E00049F3111109C0998388830B8F1C8F61E027
:1015F000CE010E948E0AE0CF4F9699838883F5CF63
:10160000AF92BF92CF92DF92FF920F931F93CF932F
:10161000DF9300D000D01F92CDB7DEB78C016B01F5
:101620005D834C83F22E80E0580198E0A90EB11C36
:101630000FB6F8940F92F801228D938D291718F0A8
:10164000F2E0FF1222C04F2DB601C8010E94EC0942
:10165000F8019189992321F0C80141960E94DF1970
:1016600081110E942C090F900FBE81E00F900F9006
:101670000F900F900F90DF91CF911F910F91FF90DE
:10168000DF90CF90BF90AF9008952C813D81232BA8
:1016900021F40F900FBE80E0E9CF811104C0CE018C
:1016A00001960E941B1B0F900FBE0E94A5160FB63D
:1016B000F8940F92F801858D8F3F09F4158EF8018B
:1016C000868D8F3F09F4168E0F900FBEBE016C5FA2
:1016D0007F4FCE0101960E94261B811120C00FB6BC
:1016E000F8940F92F801928D0F900FBE838D98138E
:1016F00010C06C817D81C5010E948919C8010E94BA
:10170000500A0E94C117811102C00E942C0981E079
:101710008FCFC8010E94500A0E94C117F8CFC8019C
:101720000E94500A0E94C117B6CFEF92FF921F93FA
:10173000CF93DF93EC019A8D8B8D981718F080E092
:101740002230D1F47A011E8D8A8D422FCE010E9463
:10175000EC091F3FB9F48989811102C081E00CC0F6
:10176000CE0141960E94DF198823C1F3E114F104F0
:10177000A9F381E0F7018083DF91CF911F91FF9062
:10178000EF9008950E94BA16181740F71F5F1E8F3A
:10179000E5CFEF92FF921F93CF93DF93EC018A8DF9
:1017A0009B8D891720F57B011E8D8F5F8A8F1F3FD0
:1017B000B9F48989811102C081E00CC0CE01419643
:1017C0000E94DF198823C1F3E114F104A9F381E039
:1017D000F7018083DF91CF911F91FF90EF900895E3
:1017E0000E94BA16181740F71F5F1E8FE5CF80E0E2
:1017F000F1CFAF92BF92CF92DF92FF920F931F93E0
:10180000CF93DF9300D000D01F92CDB7DEB78C010D
:101810006B015D834C8380E0580191E1A90EB11CFE
:101820000FB6F8940F92F801F28CFF2019F1B6016F
:10183000C8010E94360AFA94F801F28E8085882346
:1018400039F0C80108960E94DF1981110E942C0905
:101850000F900FBE81E00F900F900F900F900F90A0
:10186000DF91CF911F910F91FF90DF90CF90BF90AC
:10187000AF9008952C813D81232B21F40F900FBE52
:1018800080E0E9CF811104C0CE0101960E941B1BAC
:101890000F900FBE0E94A5160FB6F8940F92F80194
:1018A000858D8F3F09F4158EF801868D8F3F09F4E1
:1018B000168E0F900FBEBE016C5F7F4FCE0101965A
:1018C0000E94261B81111BC0C8010E94E1098823C8
:1018D00081F06C817D81C5010E948919C8010E9437
:1018E000500A0E94C117811102C00E942C0981E098
:1018F00097CFC8010E94500A0E94C117F8CFC801B3
:101900000E94500A0E94C117C8010E94E109882361
:1019100071F3B6CFEF92FF920F931F93CF93DF93A4
:1019200000D000D01F92CDB7DEB78C017D836C83D1
:1019300090E0780181E1E80EF11C0FB6F8940F9267
:10194000F801828D8823D9F08150828F8085882389
:1019500039F0C80108960E94DF1981110E942C09F4
:101960000F900FBE81E00F900F900F900F900F908F
:10197000DF91CF911F910F91FF90EF9008952C81EF
:101980003D81232B21F40F900FBE80E0ECCF91110D
:1019900004C0CE0101960E941B1B0F900FBE0E9437
:1019A000A5160FB6F8940F92F801858D8F3F09F4B4
:1019B000158EF801868D8F3F09F4168E0F900FBE9D
:1019C000BE016C5F7F4FCE0101960E94261B8111E4
:1019D0001BC0C8010E94E109882381F06C817D81D0
:1019E000C7010E948919C8010E94500A0E94C117AC
:1019F000811102C00E942C0991E09FCFC8010E9472
:101A0000500A0E94C117F8CFC8010E94500A0E94D4
:101A1000C117C8010E94E109882371F3B6CFCF92A4
:101A2000DF92EF92FF920F931F93CF93DF9300D03B
:101A300000D01F92CDB7DEB78C017B015D834C8354
:101A400080E0680191E1C90ED11C0FB6F8940F92A5
:101A5000F801928D992321F1C680D780B701C80182
:101A60000E94360AF801D782C6828189882339F01C
:101A7000C80141960E94DF1981110E942C090F9024
:101A80000FBE81E00F900F900F900F900F90DF919D
:101A9000CF911F910F91FF90EF90DF90CF9008951D
:101AA0002C813D81232B21F40F900FBE80E0EACFE3
:101AB000811104C0CE0101960E941B1B0F900FBE26
:101AC0000E94A5160FB6F8940F92F801858D8F3FEE
:101AD00009F4158EF801868D8F3F09F4168E0F904C
:101AE0000FBEBE016C5F7F4FCE0101960E94261B88
:101AF00081111BC0C8010E94E109882381F06C811B
:101B00007D81C6010E948919C8010E94500A0E9465
:101B1000C117811102C00E942C0981E096CFC80133
:101B20000E94500A0E94C117F8CFC8010E94500AB3
:101B30000E94C117C8010E94E109882371F3B6CF42
:101B4000EF92FF920F931F93CF93DF93FC01028DCF
:101B5000002341F17A01EC01158D0E94360A0150F3
:101B60000A8F1F3FC1F48885811102C081E00CC03B
:101B7000CE0108960E94DF198823C1F3E114F10415
:101B8000A9F381E0F7018083DF91CF911F910F913D
:101B9000FF90EF9008950E94BA16181738F71F5F4C
:101BA0001D8FE4CF80E0F0CF0F931F93CF93DF938F
:101BB000FC01228D222369F0EC01068117810E942D
:101BC000360A1F830E8381E0DF91CF911F910F9121
:101BD000089580E0F9CF0FB6F8940F92FC01828D42
:101BE0000F900FBE08950FB6F8940F92FC01228D4E
:101BF0000F900FBE838D821B0895FC01828D089586
:101C00000C94EB07FC01848D0895FC01838D0895ED
:101C1000FC01928D81E0911180E00895FC01928D8C
:101C200081E0238D291380E00895CF93DF93EC01A9
:101C3000F8940FB6F8940F928A8D9B8D0F900FBE7B
:101C4000891311C04115510559F0BE01685F7F4FDE
:101C5000CA010E94BD0478948CEFDF91CF91089562
:101C6000789480E0FACF7894F8948A8D891790F46C
:101C700040E0CE010E94EC098989811103C081E016
:101C80007894EBCFCE0141960E9403068823B9F3E6
:101C90008BEFF6CF80E0F4CFCF93DF93EC01FB0125
:101CA000F8948A8D811111C04115510559F0BE017A
:101CB0006F5E7F4FCA010E94BD0478948CEFDF9164
:101CC000CF910895789480E0FACF7894F8948A8D33
:101CD000882339F14C8D50E02E813F81240F351F30
:101CE0003F832E838C819D812817390720F08881BE
:101CF00099819F838E839A8D91509A8F6E817F8177
:101D0000CF010E9498218885811103C081E07894D9
:101D1000D6CFCE0108960E9403068823B9F38BEF35
:101D2000F6CF80E0F4CF1F93CF93DF93EC01142F15
:101D30009A8D8B8D981788F440E0CE010E94EC09B3
:101D400011110BC08989882341F0CE0141960E9470
:101D5000030611E0811101C010E0812FDF91CF91C6
:101D60001F9108950F931F93CF93DF93EC018A8DFA
:101D7000882391F12C8D30E0AE81BF81A20FB31F7B
:101D8000BF83AE838C819D81A817B90720F088811D
:101D900099819F838E838A01CB014A8D41504A8F5E
:101DA0006E817F81A9010E949821F801808188239A
:101DB00031F081E0DF91CF911F910F9108958885D7
:101DC0008823B9F3CE0108960E940306882389F37D
:101DD00081E0F8018083EECF80E0ECCFFC0144810C
:101DE000558122813381240F351F80819181B90172
:101DF000681B790BCB016417750710F0841B950BDA
:101E00000895AF92BF92CF92DF92EF92FF920F931D
:101E10001F93CF93DF936C015B017A01E901FC0111
:101E200004811581021B130B4017510708F48A0126
:101E3000F60184859585A801B5018C0F9D1F0E9430
:101E400098210E151F0558F4A701401B510BB50131
:101E5000600F711FF601848595850E949821CE013F
:101E60008E0D9F1DF601248135818217930710F096
:101E7000821B930BDF91CF911F910F91FF90EF90F9
:101E8000DF90CF90BF90AF900895AF92BF92CF9266
:101E9000DF92EF92FF920F931F93CF93DF9300D0C7
:101EA000CDB7DEB76C015B017A01FC0182819381C1
:101EB000468540FF28C0FA82E9822017310740F1A9
:101EC0009C0142E050E0BE016F5F7F4FC6010E945F
:101ED000010FE114F10449F09C01A701B501C6010D
:101EE0000E94010FF60193838283C7010F900F9028
:101EF000DF91CF911F910F91FF90EF90DF90CF90E6
:101F0000BF90AF9008952E153F0518F77901E1CFE6
:101F1000F12CE12CEACFAF92BF92CF92DF92EF92F9
:101F2000FF920F931F93CF93DF936C015B017A01B4
:101F3000E901FC0104811581021B130B40175107B5
:101F400008F48A01F601648575856C0F7D1FA80170
:101F5000C5010E9498210E151F0558F4A701401BCA
:101F6000510BF60164857585C501800F911F0E9494
:101F70009821CE018E0D9F1DF60124813581821797
:101F8000930710F0821B930BDF91CF911F910F915C
:101F9000FF90EF90DF90CF90BF90AF900895AF92F9
:101FA000BF92CF92DF92EF92FF920F931F93CF9346
:101FB000DF9300D0CDB7DEB77C015B016A018901F8
:101FC000FC0120813181868580FF12C042E050E013
:101FD000BE016F5F7F4FC7010E948B0F9C018981FB
:101FE0009A8102501109C816D906F8F4D12CC12CD7
:101FF000C016D10608F486010115110541F0A801AB
:10200000B501C7010E948B0FF70191838083C8013E
:102010000F900F90DF91CF911F910F91FF90EF9054
:10202000DF90CF90BF90AF9008956C01E1CFEF9219
:10203000FF921F93CF93DF93EC017B0111E04130BE
:1020400021F010E0423009F414E0E114F10419F435
:10205000EE24E394F12CF0E0E0E0CF3E8FEFD807E0
:10206000B8F4CE0141960E94B307FC01892B81F0A0
:102070008CE0DF011D928A95E9F7CF0140969587A4
:1020800084872196D583C483F782E68216871786D4
:10209000CF01DF91CF911F91FF90EF900895FC0148
:1020A000268521FF0C94EB0720E111922A95E9F790
:1020B0000895FC010FB6F8940F9280859185892BC5
:1020C000B1F482859385892B91F48681978124814F
:1020D00035814CE0DF011D924A95E9F73583248371
:1020E00097838683178681E00F900FBE089580E066
:1020F000FBCFFC0180859185892BA1F48285938596
:10210000892B81F486819781248135814CE0DF0120
:102110001D924A95E9F73583248397838683178632
:1021200081E0089580E008956115710511F461E082
:1021300070E0FC01248135816217730720F47783F6
:10214000668381E0089580E00895FC012481358153
:10215000808191816081718142815381A081B181AF
:10216000A817B907A9F7C9010197860F971F841B04
:10217000950B8217930710F0821B930B08950C9414
:10218000EE0E2F923F924F925F926F927F928F92BC
:102190009F92AF92BF92CF92DF92EF92FF920F93F6
:1021A0001F93CF93DF9300D000D01F92CDB7DEB73F
:1021B0005C011B012A013D832C83FC0184819581F4
:1021C000019726854A0120FF54C0F2E08F0E911C32
:1021D0008815990510F41D821C828C819D81892BA4
:1021E00009F04DC0C5010E94A5103C018401930176
:1021F000A201B101C5010E94450F4C01892B01F1DB
:10220000C5010E94EE0EF5012681378182179307E2
:10221000B8F00E94A516F50180859185892B71F093
:1022200080859185F12CE12C00E020E030E0A901CF
:1022300067850E94BA1CF501118610860E94C1179D
:10224000C4010F900F900F900F900F90DF91CF91DE
:102250001F910F91FF90EF90DF90CF90BF90AF90C4
:102260009F908F907F906F905F904F903F902F90B6
:1022700008958417950708F0B0CF4C01AECFCE017A
:1022800001960E940B1B0FB6F8940F92C5010E9495
:10229000A5103C018815990558F5F501678590E072
:1022A00080E00E944E1F0E945B1BF501938782878E
:1022B0000F900FBECC80DD80F12CE12C00E010E00F
:1022C000980140E050E0BA0187850E94031CF501A7
:1022D00013861286BE016C5F7F4FCE0101960E946D
:1022E000261B882381F26114710409F47BCF7ECF11
:1022F0000F900FBEF8CFAF92BF92CF92DF92EF92C6
:10230000FF920F931F93CF93DF93EC015B017A0150
:1023100069018E858A0180FF02C00E5F1F4FCE01CA
:102320000E94A5109C01A701B501CE010E94450F96
:102330005C01892BC9F0CE010E94EE0E2E813F81F7
:102340008217930788F088859985892B69F088859D
:102350009985F12CE12C00E020E030E0A9016F85A7
:102360000E949A1D19861886C501DF91CF911F9191
:102370000F91FF90EF90DF90CF90BF90AF900895B6
:102380006F927F928F929F92AF92BF92CF92DF9285
:10239000EF92FF920F931F93CF93DF93EC014B01CA
:1023A0003A0169018E8580FD47C0B12CA12C82FFC6
:1023B00002C0AE80BF80C114D10429F10FB6F894D9
:1023C0000F92CE010E94EE0E8C01A816B90648F0BD
:1023D0006F8590E080E00E944E1F0E945B1B9987F2
:1023E00088870F900FBEA016B10650F1F12CE12C9A
:1023F00000E010E0980140E050E0BA018F850E94B3
:10240000031C19861886CE010E94EE0E8C01A816B8
:10241000B906B0F0B12CA12CC501DF91CF911F916D
:102420000F91FF90EF90DF90CF90BF90AF909F9073
:102430008F907F906F90089582E0A82EB12CBBCF33
:102440009801A301B401CE010E94CF0F5C01892B3A
:1024500009F30E94A5168A859B85892B69F08A85D8
:102460009B85F12CE12C00E020E030E0A9016F8594
:102470000E94BA1C1B861A860E94C117CDCF0F93EB
:102480001F93CF93DF9300D0CDB7DEB7FC01268535
:1024900020FD09C090E080E00F900F90DF91CF9178
:1024A0001F910F9108958C010E94EE0E039790F3F7
:1024B000F8012081318142E050E0BE016F5F7F4F23
:1024C000C8010E948B0F89819A81E6CFAF92BF929B
:1024D000CF92DF92EF92FF920F931F93CF93DF93F0
:1024E000EC015B017A0169018E8510E000E080FF5C
:1024F00002C002E010E0CE010E94EE0E081719079C
:1025000070F0B12CA12CC501DF91CF911F910F91DB
:10251000FF90EF90DF90CF90BF90AF9008959C0117
:10252000A701B501CE010E94CF0F5C01892B49F3B1
:102530008A859B85892B39F38A859B85F12CE12C33
:1025400000E020E030E0A9016F850E949A1D1B8603
:102550001A86D9CFFC01208131814281538181E0EB
:102560004217530709F080E00895CF93DF93FC01F1
:102570002685D0E0C0E020FF02C0C2E0D0E00E948B
:10258000A51021E0C817D90708F420E0822FDF91B9
:10259000CF910895CF92DF92EF92FF920F93CF9356
:1025A000DF93FC0120853185232BC1F06B01EC0109
:1025B00080859185F12CE12C00E020E030E0A9013C
:1025C00067850E949A1D1986188681E0DF91CF9158
:1025D0000F91FF90EF90DF90CF90089580E0F6CFBD
:1025E000CF92DF92EF92FF920F93CF93DF93FC0194
:1025F00022853385232BC1F06B01EC018285938505
:10260000F12CE12C00E020E030E0A90167850E9478
:102610009A1D1B861A8681E0DF91CF910F91FF9062
:10262000EF90DF90CF90089580E0F6CFFC01878592
:102630000895FC0167870895E0914905F0914A05E6
:102640008081811107C08FEF9FEF909320058093C9
:102650001F050895E0914905F0914A050580F6812E
:10266000E02D80819181F1CFBF92CF92DF92EF92E6
:10267000FF920F931F93CF93DF93EC01B62EC09080
:102680002805D09029050091490510914A05E09050
:102690004705F0904805809181059091820502964A
:1026A0000E946708CF3FDC0709F042C0BB2009F455
:1026B0003FC0E0912C05F0912D05A0918105B091CE
:1026C00082051596FC93EE931497A0918105B09125
:1026D00082058481958117969C938E93169780919D
:1026E000810590918205A481B581029613969C93F1
:1026F0008E93129780918105909182050296958321
:102700008483E0918105F09182058BE295E09387C7
:10271000828780912B058F5F80932B05DF91CF916E
:102720001F910F91FF90EF90DF90CF90BF90089591
:10273000CC0DDD1DE0918105F0918205D383C2832C
:1027400060918105709182056E5F7F4FCC15DD052C
:1027500060F4C701DF91CF911F910F91FF90EF902F
:10276000DF90CF90BF900C943108C8010E943108CF
:1027700080911F0590912005C817D90778F6D0934E
:102780002005C0931F05CACFCF93DF9380913405F6
:10279000811103C0DF91CF9108950FB6F8940F9285
:1027A000E0913A05F0913B05C681D781CE010296B2
:1027B0000E94670880912A05815080932A058091A4
:1027C00034058150809334050F900FBE8F89988D0A
:1027D0000E94EB07CE010E94EB07D8CF0E94C413E2
:1027E00080915D058230D0F30E942C09F7CF4F9283
:1027F0005F926F927F928F929F92AF92BF92CF9291
:10280000DF92EF92FF920F93CF93DF934C015B0126
:102810002901C42ED12CC6010E94B3073C01892B8B
:1028200009F4CDC086E290E00E94B307EC01892B49
:1028300009F4C2C086E2DE011D928A95E9F7788E1E
:102840006F8AB1E0CB1AD108C60CD71CA114B10411
:1028500009F0C6C0043008F003E00E8B5E01B2E060
:10286000AB0EB11CC5010E940D08CE010C960E9452
:102870000D08D987C88784E090E0801B91099D8767
:102880008C87DB8BCA8BA201B401C6010E948A0827
:1028900099838883E114F10419F0F701D183C0838F
:1028A0000FB6F8940F9280912A058F5F80932A05C6
:1028B0008091810590918205892B09F0A7C0D09362
:1028C0008205C093810580912A05813081F58DE5CF
:1028D00095E00E94FF0786E695E00E94FF078FE6DD
:1028E00095E00E94FF0788E795E00E94FF0784E5D6
:1028F00095E00E94FF078BE495E00E94FF078EE3BE
:1029000095E00E94FF0785E395E00E94FF078BE2B8
:1029100095E00E94FF0784E595E090934A05809337
:1029200049058BE495E09093480580934705809195
:1029300021058F5F80932105AE89809127058A1735
:1029400010F4A093270529E02A9FD0011124A35A4F
:10295000BA4F11960D90BC91A02DBD83AC831496F7
:102960008D919C9115979F838E8314968D919C9148
:102970001597FC01B382A2821596BC92AE92149771
:102980009E89929FF0011124E35AFA4FFB87EA8750
:1029900080818F5F80830F900FBE809126058823F2
:1029A00049F0E0918105F09182058689891710F43C
:1029B0000E942C0981E004C0C3010E94EB078FEF45
:1029C000DF91CF910F91FF90EF90DF90CF90BF906C
:1029D000AF909F908F907F906F905F904F900895F1
:1029E000F501AE01475E5F4FC50108962191DA01FE
:1029F0002D93AD019F0121503109D9012C91222342
:102A000019F0E817F90791F718A224CF809126054D
:102A100081118DCFE0918105F09182059E89868993
:102A2000981708F484CFD0938205C09381057FCF97
:102A30000F931F93CF93DF93EC010FB6F8940F928F
:102A4000892B21F4C0918105D09182058E010E5F02
:102A50001F4FC8010E9467088C899D89892B21F02E
:102A6000CE010C960E946708809121058F5F8093AC
:102A700021058091810590918205209126052223D0
:102A800059F18C179D0741F5B80185E395E00E9447
:102A90001108809134058F5F8093340581E00F9099
:102AA0000FBE813039F08F89988D0E94EB07CE01DF
:102AB0000E94EB0780912605882349F080918105CB
:102AC000909182058C179D0711F40E942C09DF91CB
:102AD000CF911F910F91089580912A058150809385
:102AE0002A050E941C1380E0DACF0F931F93CF9327
:102AF000DF93EC0180918105909182058C179D07F1
:102B000009F459C0209709F456C00FB6F8940F92F3
:102B10008A859B858B52954009F04BC08C899D8995
:102B2000E5E08E339E0709F444C0892B09F041C0CB
:102B30008DA18130F1F18E010E5F1F4FC8010E94FF
:102B40006708AE89809127058A1710F4A09327059E
:102B500029E02A9FD0011124A35ABA4F11960D9053
:102B6000BC91A02DBD83AC8314968D919C9115973B
:102B70009F838E8314968D919C911597FC011383EE
:102B8000028315961C930E9314979E89929FF001D1
:102B90001124E35AFA4FFB87EA8780818F5F808395
:102BA000E0918105F09182058689891710F40E94D1
:102BB0002C090F900FBEDF91CF911F910F910895B7
:102BC000EF92FF921F93CF93DF93EC018A859B8551
:102BD0008B52954009F062C08C899D8925E08E3327
:102BE000920709F45BC0892B09F058C08DA1813090
:102BF00009F454C080911C05811149C0E091810500
:102C0000F09182059E89868910E0891720F481E081
:102C10008093230511E07E0182E0E80EF11CC701DC
:102C20000E946708AE89809127058A1710F4A09347
:102C3000270589E08A9FD0011124A35ABA4F119623
:102C40000D90BC91A02DBD83AC8314962D913C9129
:102C500015973F832E831496ED91FC911597F3827F
:102C6000E2821596FC92EE921497EE89E89FF001AD
:102C70001124E35AFA4FFB87EA8780818F5F8083B4
:102C8000812FDF91CF911F91FF90EF900895BE01AA
:102C9000645F7F4F8EE395E00E94110810E0F0CF53
:102CA000EF92FF920F93CF93DF93CDB7DEB72897C4
:102CB0000FB6F894DEBF0FBECDBFA2EDB0E0FE01AF
:102CC00031962AED30E0BF018D918193882319F070
:102CD0002A173B07C9F78DE1E82E85E0F82E00E0C2
:102CE00030E020E045E58EEE93E10E94F713882363
:102CF00089F0813079F4F8942FEF3FEF309320057D
:102D000020931F058093260510922905109228050F
:102D10000E94F60880918A0028960FB6F894DEBFCC
:102D20000FBECDBFDF91CF910F91FF90EF9008952F
:102D300080911D0590911E050E9418150E94C413D4
:102D4000F894109226050C942B0980911C058F5F36
:102D500080931C0508950FB6F8940F928091280572
:102D6000909129050F900FBE0895809128059091AC
:102D70002905089580912A050895009721F48091EE
:102D800081059091820549960895CF92DF92EF9246
:102D9000FF920F931F93CF93DF9380911C058111B6
:102DA000E5C0C0912805D09129056E018FEFC81AA2
:102DB000D80AD0922905C0922805C114D104B9F4CB
:102DC0008091490590914A05209147053091480529
:102DD00030934A0520934905909348058093470511
:102DE000809122058F5F809322050E941C138091A1
:102DF0001F0590912005C816D906E8F480E0E091FF
:102E00008105F0918205E689D9E0ED9FF00111245A
:102E1000E35AFA4F9081923008F081E090912305B7
:102E2000911181E0DF91CF911F910F91FF90EF9071
:102E3000DF90CF90089580E069E0E0914905F0913E
:102E40004A059081911107C02FEF3FEF3093200585
:102E500020931F05D4CFE0914905F0914A050580E4
:102E6000F681E02D0680F781E02D22813381C216A4
:102E7000D30660F3C285D38524813581468157818D
:102E8000D90115965C934E93149746815781DA01C8
:102E900013963C932E9312979F012E5F3F4F09810B
:102EA0001A810217130711F45A8349831386128675
:102EB000988191509883A489B5891097F9F0468537
:102EC000578500891189EA011D830C8300891189C6
:102ED000E8015B834A831196ED90FC901297AF0155
:102EE000445F5F4FE416F50621F412961C930E938F
:102EF0001197158A148A9C9191509C93A689909160
:102F000027059A1710F4A09327056A9FD001112472
:102F1000A35ABA4F11960D90BC91A02DB583A483EE
:102F200014964D915C9115975783468314964D9155
:102F30005C911597EA013B832A8315963C932E9367
:102F400014972689269FD0011124A35ABA4FB3871C
:102F5000A2879C919F5F9C93E0918105F0918205EF
:102F60009689921708F069CF81E067CF8091240598
:102F7000909125050196909325058093240580E086
:102F800051CFEF92FF920F931F93CF93DF930FB622
:102F9000F8940F9280911C05815080931C058091BC
:102FA0001C05882351F080E00F900FBEDF91CF9178
:102FB0001F910F91FF90EF90089580912A0588232B
:102FC00091F3E0904305F0904405F0E0E0E039E053
:102FD00041E080913E05811122C0EF2B11F00E944B
:102FE0001C13C0912405D0912505209761F011E0B4
:102FF0000E94C5168111109323052197C9F71092DD
:1030000025051092240580912305882361F2809183
:103010008105909182050E942C0981E0C5CFD701DE
:103020001696ED91FC91A489B5896685778580898E
:103030009189EB019D838C8380899189EC017B834D
:103040006A83BF01645F7F4F11960D911C911297A7
:103050000617170721F412969C938E931197158AE1
:10306000148A8C9181508C93A285B385848195813B
:1030700066817781EC017D836C8366817781EB01CA
:103080009B838A83CF01029611960D911C91129712
:103090000817190721F412967C936E9311971386E3
:1030A00012862C9121502C93A689209127052A174E
:1030B00010F4A09327053A9FD0011124A35ABA4FC8
:1030C00011960D90BC91A02DB583A48314966D919B
:1030D0007C9115977783668314966D917C911597F3
:1030E000EB019B838A8315969C938E931497968904
:1030F000939FD0011124A35ABA4FB387A2878C9112
:103100008F5F8C93A0918105B091820556968C912A
:10311000891708F05ECF409323055BCF0F931F9371
:10312000CF93DF93EC018B010E94A5162091280517
:103130003091290548815981CA01800F911F9983D7
:1031400088832417350780F48417950780F0C0E042
:103150000E94C117811102C00E942C098C2FDF919F
:10316000CF911F910F9108958417950718F0281794
:10317000390768F760E0821B930B0E943413C1E0AB
:10318000E7CFCF93DF93EC01892B29F40E942C0920
:10319000DF91CF9108950E94A51660E0CE010E94B4
:1031A00034130E94C117882389F3F2CFCF93DF93A2
:1031B000EC010E94A5160FB6F8940F928091240599
:1031C000909125058C0F9D1F9093250580932405D4
:1031D0000F900FBEDF91CF910C94C11780911C0509
:1031E000882321F081E08093230508951092230520
:1031F0002091270589E0422F50E0849FF001859FB0
:10320000F00D1124E35AFA4F9081992359F1A181CD
:10321000B28112966D917C9172836183289FC00167
:103220001124805A9A4F6817790721F48581968175
:103230009283818389E0849FF001859FF00D1124A2
:10324000E35AFA4F0180F281E02D868197819093B5
:1032500082058093810520932705809181059091B7
:10326000820508952150C7CF0F931F93CF93DF930B
:10327000EC010FB6F8940F92892B21F4C0918105CF
:10328000D09182058E010E5F1F4FC8010E94670812
:103290008C899D89892B21F0CE010C960E946708AC
:1032A000B8018BE295E00E9411088DA1813009F4EC
:1032B0001DA20F900FBE80912605882339F00FB60E
:1032C000F8940F920E941C130F900FBE80918105FD
:1032D000909182058C179D0731F4809126058823F3
:1032E00039F00E942C09DF91CF911F910F91089521
:1032F00090912A0580912B05981305C010928205A4
:1033000010928105F0CFDF91CF911F910F910C9416
:10331000EE18CF93DF93EB016091810570918205E8
:10332000645F7F4F0E94310861E0CE01DF91CF9151
:103330000C943413CF93DF93FC01A0918105B091DD
:10334000820570681D967C936E931C97A181B28153
:10335000C0918105D0918205BF87AE87C09181055C
:10336000D091820514968D919C911597998B888B9D
:1033700020918105309182051496CD91DC911597AD
:10338000245F3F4F3B832A83209181053091820542
:10339000245F3F4F15963C932E931497A09181057F
:1033A000B09182055596FC93EE93549790819F5F60
:1033B000908361E0CA01DF91CF910C943413CF93D5
:1033C000DF93DC011596ED91FC910680F781E02DED
:1033D000A489B5898685978520893189EC013D834B
:1033E0002C83C089D1899B838A83CF010C96119647
:1033F0002D913C9112972817390721F41296DC93EE
:10340000CE931197158A148A2C9121502C932091D8
:103410001C05211157C0A285B38584819581268121
:103420003781EC013D832C83C681D7819B838A83BE
:10343000CF01029611962D913C91129728173907CA
:1034400021F41296DC93CE931197138612862C9159
:1034500021502C93C689209127052C1710F4C09376
:10346000270529E02C9FE0011124C35ADA4F098077
:10347000DA81C02DD583C4834C815D815783468317
:10348000AC81BD8113969C938E9312979D838C8300
:10349000A689A29FD0011124A35ABA4FB387A2874D
:1034A0008C918F5F8C93A0918105B0918205968954
:1034B00056968C91891730F581E080932305DF9132
:1034C000CF910895A0913F05B0914005B787A68799
:1034D00014962D913C911597318B208B1496CD919C
:1034E000DC9115979B838A8315969C938E931497F2
:1034F0008EE395E0958B848B80913E058F5F809362
:103500003E05D1CF80E0DBCFCF93DF93DC01706845
:1035100011967C936E931696ED91FC9117971896E1
:103520004D915C91199712962D913C911397149699
:103530008D919C911597E9019D838C8314968D91B3
:103540009C911597EC013B832A83EA0129813A81FA
:103550002A173B0711F49A83898319961C921E92AD
:103560001897DA018C9181508C93A285B385848160
:10357000958126813781EC013D832C83C681D781DB
:103580009B838A83CF01029611962D913C911297CD
:103590002817390721F41296DC93CE9311971386DE
:1035A00012862C9121502C93C689209127052C1727
:1035B00010F4C093270549E04C9FE0011124C35A41
:1035C000DA4F0980DA81C02DD583C4832C813D81F7
:1035D000378326832C813D81D90113969C938E934A
:1035E00012979D838C839689949FD0011124A35AAE
:1035F000BA4FB387A2878C918F5F8C93E09181053E
:10360000F09182058689891718F481E0809323055B
:10361000DF91CF9108950FB6F8940F922091220573
:10362000FC012083209128053091290532832183D4
:103630000F900FBE089520912205FC012083209158
:10364000280530912905328321830895CF93DF9394
:103650000FB6F8940F924091280550912905DB018F
:103660002D913C912F3F320701F1EC01E981FA8164
:10367000A0912205B881BA1761F04E175F0748F094
:10368000FB011182108281E00F900FBEDF91CF917C
:1036900008954E1B5F0B4217530790F7241B350B01
:1036A000DB012D933C930E941B1B80E0EDCF81E05A
:1036B0008093230508958091810590918205089556
:1036C000811105C08091810590918205089590E057
:1036D00080E00895E0918105F091820584859585CB
:1036E000A0918105B0918205E0918105F09182055C
:1036F00056964C9124E030E0241B3109358724870D
:103700000895CF92DF92EF92FF920F931F93CF9382
:10371000DF93C82FE62E6A010E94A5160FB6F89413
:103720000F92E0918105F0918205D0E08E01000FAB
:10373000111F000F111FE00FF11F81A192A1A3A182
:10374000B4A1892B8A2B8B2B69F4E0918105F09130
:103750008205EC0FFD1F81E085A3FF24F394C114C3
:10376000D10409F4F12C0F900FBE21E0F21204C035
:1037700061E0C6010E9434130E94C11791E0F91262
:1037800004C0811102C00E942C090FB6F8940F9258
:10379000E0918105F0918205E00FF11F61A172A116
:1037A00083A194A1611571058105910569F02091AE
:1037B000810530918205020F131FEE20B9F0F80148
:1037C00011A212A213A214A22091810530918205A8
:1037D000C20FD31F1DA20F900FBEDF91CF911F917B
:1037E0000F91FF90EF90DF90CF9008956B017C01D7
:1037F000F1E0CF1AD108E108F108F801C1A2D2A284
:10380000E3A2F4A2E1CF4F925F926F927F928F92E8
:103810009F92AF92BF92CF92DF92EF92FF920F935F
:103820001F93CF93DF93C82F2A013B014801590111
:103830000E94A5160FB6F8940F92E0918105F091C1
:103840008205D0E0EC0FFD1F85A1823039F1E091B7
:103850008105F0918205CE01880F991F880F991F6D
:10386000E80FF91F81A192A1A3A1B4A140945094A3
:103870006094709484219521A621B72181A392A3FD
:10388000A3A3B4A3E0918105F0918205EC0FFD1F85
:1038900081E085A311E0C114D10409F410E00F9078
:1038A0000FBE113021F461E0C6010E9434130E9462
:1038B000C117113021F4811102C00E942C090FB6EA
:1038C000F8940F92E114F104A1F0E0918105F091D8
:1038D0008205CE01880F991F880F991FE80FF91FE5
:1038E00081A192A1A3A1B4A1F70180839183A283B6
:1038F000B383E0918105F0918205EC0FFD1F85A156
:103900008230B1F5E0918105F0918205CE01880FFA
:10391000991F880F991FE80FF91F81A192A1A3A1F8
:10392000B4A180949094A094B09488219921AA2164
:10393000BB2181A392A3A3A3B4A381E0209181051D
:1039400030918205C20FD31F1DA20F900FBEDF91D1
:10395000CF911F910F91FF90EF90DF90CF90BF908C
:10396000AF909F908F907F906F905F904F90089551
:1039700080E0E4CF8F929F92AF92BF92CF92DF927E
:10398000EF92FF920F93CF93DF93DC010FB6F89481
:103990000F9270E0E114F10481F0FB01EE0FFF1FC4
:1039A000EE0FFF1FE80FF91F81A092A0A3A0B4A003
:1039B000E70188829982AA82BB82FD01E60FF71F88
:1039C00085A192E095A30230E1F1A0F4013029F144
:1039D000813009F44AC081E00F900FBEDF91CF9192
:1039E0000F91FF90EF90DF90CF90BF90AF909F909E
:1039F0008F900895033029F0043051F7823009F494
:103A000097C0660F771F660F771FFD01E60FF71F40
:103A100021A332A343A354A3DBCF660F771F660F06
:103A2000771FFD01E60FF71FC1A0D2A0E3A0F4A00D
:103A3000C22AD32AE42AF52AC1A2D2A2E3A2F4A27E
:103A4000C7CF660F771F660F771FFD01E60FF71FC1
:103A500041A152A163A174A14F5F5F4F6F4F7F4F90
:103A600041A352A363A374A3B3CF1A96ED91FC9123
:103A70001B9714968D919C91159716962D913C91BC
:103A80001797EC013D832C831696CD91DC91179707
:103A90009B838A839D012E5F3F4F81819281821794
:103AA000930711F4D283C1831B961C921E921A971E
:103AB0008081815080835696CC91569780912705BE
:103AC0008C1710F4C093270549E04C9FE0011124A6
:103AD000C35ADA4F0980DA81C02D1596DC93CE9354
:103AE00014978C819D8117969C938E9316978C8149
:103AF0009D81FC01338322833D832C8356969C91C8
:103B00005697949FF0011124E35AFA4F1B96FC93A9
:103B1000EE931A9780818F5F8083E0918105F09109
:103B200082058689891708F056CF0E942C0953CF49
:103B300080E052CF8F929F92AF92BF92CF92DF924E
:103B4000EF92FF920F93CF93DF93DC0170E0E114CB
:103B5000F10481F0FB01EE0FFF1FEE0FFF1FE80FD6
:103B6000F91F81A092A0A3A0B4A0E7018882998246
:103B7000AA82BB82FD01E60FF71F85A192E095A303
:103B80000230D1F190F4013019F1813009F448C0CC
:103B900081E0DF91CF910F91FF90EF90DF90CF9078
:103BA000BF90AF909F908F900895033029F004301C
:103BB00061F7823009F4C5C0660F771F660F771F63
:103BC000FD01E60FF71F21A332A343A354A3DDCFCA
:103BD000660F771F660F771FFD01E60FF71F81A0A5
:103BE00092A0A3A0B4A0822A932AA42AB52A81A2D3
:103BF00092A2A3A2B4A2C9CF660F771F660F771F48
:103C0000FD01E60FF71F41A152A163A174A14F5F0F
:103C10005F4F6F4F7F4F41A352A363A374A3B5CFF0
:103C200080911C0581116BC01A96ED91FC911B9738
:103C300014968D919C91159716962D913C911797FE
:103C4000EC013D832C831696CD91DC9117979B83D5
:103C50008A839D012E5F3F4F818192818217930756
:103C600011F4D283C1831B961C921E921A978081F5
:103C7000815080835696CC915697809127058C175A
:103C800010F4C093270589E08C9FE0011124C35AEA
:103C9000DA4F0980DA81C02D1596DC93CE93149704
:103CA0004C815D8117965C934E931697EC81FD8154
:103CB000338322833D832C835696EC915697E89F5D
:103CC000F0011124E35AFA4F1B96FC93EE931A97D6
:103CD00080818F5F8083E0918105F0918205569607
:103CE0009C918689891708F053CFC114D10419F02B
:103CF00081E0F601808381E0809323054ACFE09143
:103D00003F05F09140051F96FC93EE931E9784812A
:103D1000958151969C938E935097C481D581CD0106
:103D20000C969B838A83958384838EE395E05596D6
:103D30009C938E93549780913E058F5F80933E05B0
:103D4000CACF80E026CF0F931F93CF93DF93FC0160
:103D5000A62FB0E0EC01CA0FDB1F8DA192E09DA35E
:103D6000AA0FBB1FAA0FBB1FAE0FBF1F91960D91CD
:103D70001D912D913C9194970F5F1F4F2F4F3F4FF7
:103D800091960D931D932D933C939497813009F058
:103D90005EC080911C0581115FC0A285B3858481BE
:103DA000958126813781EC013D832C83C681D781A3
:103DB0009B838A83CF01029611962D913C91129795
:103DC0002817390721F41296DC93CE9311971386A6
:103DD00012862C9121502C93C689209127052C17EF
:103DE00010F4C093270529E02C9FE0011124C35A49
:103DF000DA4F0980DA81C02DD583C4836C817D813F
:103E000077836683AC81BD8113969C938E931297C2
:103E10009D838C83A689A29FD0011124A35ABA4FF7
:103E2000B387A2878C918F5F8C93A0918105B0910D
:103E30008205968956968C91891748F4411551054B
:103E400019F081E0FA01808381E080932305DF91FE
:103E5000CF911F910F910895A0913F05B09140051A
:103E6000B787A68714968D919C911597918B808B1F
:103E70001496CD91DC911597CF010C969B838A8384
:103E800015969C938E9314978EE395E0958B848B77
:103E900080913E058F5F80933E05C7CF009721F448
:103EA00080918105909182050FB6F8940F92FC01E4
:103EB000E60FF11D85A1823029F415A281E00F9053
:103EC0000FBE089580E0FBCFCF92DF92EF92FF927A
:103ED000009721F480918105909182050FB6F894A6
:103EE0000F9274E0679FF0011124E80FF91F61A1A0
:103EF00072A183A194A1C1A0D2A0E3A0F4A02095B7
:103F0000309540955095C222D322E422F522C1A2D9
:103F1000D2A2E3A2F4A20F900FBEFF90EF90DF9029
:103F2000CF90089510928205109281051092340569
:103F300010922A0510922905109228051092270543
:103F40001092260510922505109224051092230543
:103F500010922205109221051092200510921F0543
:103F600010921C0508950E94B20360E080E80E9450
:103F700063020E94FF020E94050362E370E080E09A
:103F800090E00E9409030E943201FFCFA1E21A2EA5
:103F9000AA1BBB1BFD010DC0AA1FBB1FEE1FFF1FED
:103FA000A217B307E407F50720F0A21BB30BE40B3D
:103FB000F50B661F771F881F991F1A9469F7609584
:103FC0007095809590959B01AC01BD01CF0108953E
:103FD000052E97FB1EF400940E94FF1F57FD07D08B
:103FE0000E94C61F07FC03D04EF40C94FF1F50958F
:103FF0004095309521953F4F4F4F5F4F08959095D5
:104000008095709561957F4F8F4F9F4F0895EE0F6C
:10401000FF1F0590F491E02D09940E9421200C943B
:10402000D3200E94CC2058F00E94C52040F029F4F3
:104030005F3F29F00C94BC2051110C9407210C9483
:10404000C2200E94E42068F39923B1F3552391F331
:10405000951B550BBB27AA2762177307840738F0F7
:104060009F5F5F4F220F331F441FAA1FA9F335D054
:104070000E2E3AF0E0E832D091505040E695001C08
:10408000CAF72BD0FE2F29D0660F771F881FBB1FC2
:10409000261737074807AB07B0E809F0BB0B802DA0
:1040A000BF01FF2793585F4F3AF09E3F510578F0CC
:1040B0000C94BC200C9407215F3FE4F3983ED4F3AA
:1040C000869577956795B795F7959F5FC9F7880FA0
:1040D000911D9695879597F90895E1E0660F771FF2
:1040E000881FBB1F621773078407BA0720F0621B83
:1040F000730B840BBA0BEE1F88F7E0950895E894D4
:1041000009C097FB3EF490958095709561957F4F1F
:104110008F4F9F4F9923A9F0F92F96E9BB279395CD
:10412000F695879577956795B795F111F8CFFAF4DD
:10413000BB0F11F460FF1BC06F5F7F4F8F4F9F4F0E
:1041400016C0882311F096E911C0772321F09EE86C
:10415000872F762F05C0662371F096E8862F70E0D2
:1041600060E02AF09A95660F771F881FDAF7880FAC
:104170009695879597F9089597F99F6780E870E07D
:1041800060E008959FEF80EC089500240A941616CD
:10419000170618060906089500240A941216130635
:1041A000140605060895092E0394000C11F48823C3
:1041B00052F0BB0F40F4BF2B11F460FF04C06F5FDF
:1041C0007F4F8F4F9F4F089557FD9058440F551FB5
:1041D00059F05F3F71F04795880F97FB991F61F089
:1041E0009F3F79F087950895121613061406551F00
:1041F000F2CF4695F1DF08C0161617061806991F6C
:10420000F1CF86957105610508940895E894BB2760
:1042100066277727CB0197F908950E9420210C94F7
:10422000D3200E94C52038F00E94CC2020F0952396
:1042300011F00C94BC200C94C22011240C94072182
:104240000E94E42070F3959FC1F3950F50E0551F35
:10425000629FF001729FBB27F00DB11D639FAA27DB
:10426000F00DB11DAA1F649F6627B00DA11D661F2A
:10427000829F2227B00DA11D621F739FB00DA11D4B
:10428000621F839FA00D611D221F749F3327A00D05
:10429000611D231F849F600D211D822F762F6A2FA1
:1042A00011249F5750409AF0F1F088234AF0EE0F06
:1042B000FF1FBB1F661F771F881F91505040A9F733
:1042C0009E3F510580F00C94BC200C9407215F3F69
:1042D000E4F3983ED4F3869577956795B795F7956F
:1042E000E7959F5FC1F7FE2B880F911D96958795E7
:1042F00097F90895EF920F931F93CF93DF93E801FF
:1043000034E047FD34E1042E000C550B57FF03C089
:10431000519541955109E32E022F242FAE010E94A1
:10432000AB23CE01DF91CF911F910F91EF900895B4
:10433000FB01DC0102C001900D9241505040D8F7C2
:104340000895AEE0B0E0E7EAF1E20C9494260D891E
:104350001E898F89988D26E02C831A83098397FF05
:1043600002C080E090E801979E838D83AE01455E98
:104370005F4F698D7A8DCE0101960E94D1214D81CA
:104380005E8157FD0AC02F813885421753070CF410
:104390009A01020F131FF80110822E96E4E00C948C
:1043A000B026ABE0B0E0E7EDF1E20C9486267C01AC
:1043B0003B018A01FC0117821682838181FFC8C1FB
:1043C000CE0101965C01F7019381F30193FD859184
:1043D00093FF81913F01882309F453C1853239F459
:1043E00093FD859193FF81913F01853229F4B701B7
:1043F00090E00E94F825E7CF912C212C312CFFE191
:10440000F31538F08B3211F190F4803209F18332D8
:1044100029F137FC3CC020ED280F2A3050F536FE3C
:1044200020C08AE0989E200D1124922E06C08D3265
:1044300091F0803371F7689430F8F30193FD859122
:1044400093FF81913F018111DACF21C0689431F847
:10445000689432F8F2CF689433F8EFCF689434F868
:10446000ECCFEAE02E9E200D1124222E689435F820
:10447000E4CF8E3229F436FC04C1689436F8DDCFDF
:104480008C3619F4689437F8D8CF8836B1F2982F63
:104490009F7D95549330E0F08336A1F18337C1F1CD
:1044A000833509F063C02801F2E04F0E511CF8017A
:1044B000C080D180692D70E036FC02C06FEF7FEFC5
:1044C000C6010E94E2254C01689437F882010AC0B7
:1044D0000C5F1F4FFFE3F98388248394912C6501BF
:1044E000E89437F833FE2DC0522C8114910471F5F5
:1044F000552009F468CFB70180E290E00E94F825CA
:104500005A94F6CFF801808189830E5F1F4FE4CF64
:104510002801F2E04F0E511CF801C080D180692DB6
:1045200070E036FC02C06FEF7FEFC6010E94ED2500
:104530004C018201D5CFB70180E290E00E94F825BE
:104540002A942814190409F0B0F7CECFF60137FCED
:10455000859137FE81916F01B70190E00E94F825A7
:1045600051105A94F1E08F1A9108BFCF843619F098
:10457000893609F077C0F80137FE6BC06081718120
:10458000828193810C5F1F4FF32DFF763F2E97FFA3
:1045900009C090958095709561957F4F8F4F9F4F83
:1045A000689437F82AE030E0A5010E942826C82E3A
:1045B000CA188C2C432C36FE0CC0E89440F8C91461
:1045C00040F434FE05C032FC03C0F32DFE7E4F2EB6
:1045D000892C44FE95C0FE01EC0DF11D80818033D5
:1045E00009F087C0242D297E422E842D8870582EF4
:1045F00043FC95C040FE8FC09C2C821418F42C0CF8
:10460000922C981844FE91C0B70180E390E00E947C
:10461000F82542FE09C088E790E041FE02C088E527
:1046200090E0B7010E94F825C91408F48AC0CA9422
:10463000D12C9FEFC91AD90ACA0CDB1CF601829152
:104640006F01B70190E00E94F825AC14BD04B1F7EA
:104650004FCF60817181072E000C880B990B0E5F84
:104660001F4F92CFD32CE894D4F82AE030E085375E
:1046700039F1232D297FD22E8F3601F148F4883568
:10468000A9F0F701868197812B96E2E10C94A2268E
:10469000803749F08837A9F7D4FE02C06894D2F871
:1046A00020E130E00DC06894D4F8F6CF34FE03C0AA
:1046B000822F8660D82E20E132E002C028E030E070
:1046C000F801D7FE0FC060817181828193810C5FF8
:1046D0001F4FA5010E942826C82ECA183D2CE89419
:1046E00037F867CF6081718190E080E00E5F1F4FE7
:1046F000F0CF42FC02C0839478CF8394839475CF2B
:10470000842D867809F471CFF6CFB70180E290E06E
:104710000E94F82583948214C0F3512C73CF522C3D
:104720005818821408F46ECFF8CF842D867809F4D7
:104730007BCF8BE241FE80E247FC8DE2B70190E047
:1047400071CFB70180E390E00E94F8259A946CCF76
:104750008FEF9FEF99CFA9E0B0E0E1EBF3E20C948B
:104760008C266A01F22EB02E102FFBE3AF2EA0167E
:1047700008F41BE31F5F012F27E0AE014F5F5F4F7F
:104780000E940A25BC018981982F9970913009F403
:104790003FC09BE2E1FC04C09E2D9170E0FC3AC05A
:1047A0005E2D5071E82FE87083FF46C084E09111C0
:1047B00001C083E0EF2DE81B8F1508F0E0E0D60183
:1047C0008E2F20E2552351F1992329F0D6019C9395
:1047D000C60101966C0196012D5F3F4FE2FE24C099
:1047E0008EE4D6018C9391E411969C9311971296C6
:1047F0008C93D9018E2F90E281111BC0E20FF32F11
:10480000F11D10828EEF9FEF2996ECE00C94A82604
:104810009DE2C6CF90E2C4CF2D9381508111FCCF91
:10482000CE0ED11CE0E0D0CF8EE6D6018C9391E67F
:10483000DBCF9D938150E0CF482F447082FF3DC075
:1048400084E0911101C083E08F1510F4EF2DE81B77
:10485000D6018E2F20E2552309F1992329F0D601A4
:104860009C93C60101966C0196012D5F3F4FE2FEBD
:104870001BC089E4D6018C938EE411968C9311971A
:1048800086E412968C93D9018E2F90E2882309F446
:10489000B5CF9D938150FACF2D9381508111FCCFDC
:1048A000CE0ED11CE0E0D9CF89E6D6018C938EE6FE
:1048B00011968C93119786E6E4CF9B0177FF02C097
:1048C00030E020E0A1E0B0E0911102C0B0E0A0E053
:1048D000F9013196AE0FBF1F8B2C912CBB2009F430
:1048E00061C05401EFEFAE1ABE0AAA0DBB1DFA1645
:1048F0001B0619F014F04F2D4A1B511188C0E3FC20
:1049000059C07601A42FB0E2A1114FC0C40ED11C32
:10491000992309F45BC040E0D6011196F60190831B
:104920006D01552309F448C0012F060F9A81582FB5
:10493000507184FF03C0913309F4015010160CF03C
:1049400047C0093008F008E0EEE2FE2E5B01A01A35
:10495000B10885019194819491082F3F320729F481
:10496000D601FC92F60131966F016217730794F13C
:10497000021713077CF5DB01A21BB30BAA24A39437
:10498000B12CAC0EBD1EAA0DBB1D11968C912150F1
:104990003109D601119628153905F4F0F601808306
:1049A0006D01DBCFB12CA12CA0CFF701B1937F011A
:1049B000A150AACF9111B0CFD601942F50E302C0DD
:1049C0005D9391509111FCCFC40ED11C40E0ACCF4F
:1049D00001E0BACF80E3DBCF6217730731F496337F
:1049E00088F4953311F4552369F0F6018083FD01B5
:1049F000842F90E2811108C0A40FB11D1C9290E099
:104A000080E002CF81E3F1CF91938150F3CF9111F8
:104A100083CF8ACF283008F027E03327DA01990FB7
:104A2000311D87FD916000966105710539F4326092
:104A30002E5F3D9330E32A95E1F708959F3F30F0D4
:104A400080387105610509F03C5F3C5F3D93913012
:104A500008F08068911DDF93CF931F930F93FF920F
:104A6000EF92192F987F9695E92F96959695E90FD5
:104A7000FF27E255FF4F99273327EE24FF24A70194
:104A8000E70105900894079428F4360FE71EF81EF6
:104A9000491F511D660F771F881F991F0694A1F7A4
:104AA0000590079428F4E70EF81E491F561FC11DF4
:104AB000770F881F991F661F0694A1F7059007942A
:104AC00028F4F80E491F561FC71FD11D880F991FC4
:104AD000661F771F0694A1F70590079420F4490FED
:104AE000561FC71FD81F990F661F771F881F069470
:104AF000A9F784911095177041F0D695C7955795F1
:104B00004795F794E7941A95C1F7E4E5F0E06894C7
:104B10001590159135916591959105907FE273956A
:104B2000E118F10A430B560BC90BD009C0F7E10C91
:104B3000F11E431F561FC91FD01D7EF4703311F4A0
:104B40008A95E6CFE894015030F0080F0AF4002768
:104B5000021708F4202F2395022F7A3328F079E3E7
:104B60007D932A95E9F710C07D932A9589F60694DE
:104B700097956795379517951794E118F10A430BA8
:104B8000560BC90BD00998F023957E9173957A3313
:104B900008F070E37C932013B8F77E9170617D93E9
:104BA00030F0839571E37D9370E32A95E1F711244A
:104BB000EF90FF900F911F91CF91DF91992787FD83
:104BC00090950895FC010590615070400110D8F750
:104BD000809590958E0F9F1F0895FC016150704045
:104BE00001900110D8F7809590958E0F9F1F089522
:104BF0000F931F93CF93DF93182F092FEB018B8116
:104C000081FD09C01FEF0FEF812F902FDF91CF9112
:104C10001F910F91089582FF14C02E813F818C81D6
:104C20009D81281739073CF4E881F981CF0101966D
:104C30009983888310838E819F8101969F838E83C1
:104C4000E3CFE885F985812F0995892BA1F3DACF88
:104C5000FA01AA27283051F1203181F1E8946F93AD
:104C60006E7F6E5F7F4F8F4F9F4FAF4FB1E03ED053
:104C7000B4E03CD0670F781F891F9A1FA11D680FF1
:104C8000791F8A1F911DA11D6A0F711D811D911D24
:104C9000A11D20D009F468943F912AE0269F112499
:104CA0003019305D3193DEF6CF010895462F4770FD
:104CB000405D4193B3E00FD0C9F7F6CF462F4F7058
:104CC000405D4A3318F0495D31FD4052419302D0B6
:104CD000A9F7EACFB4E0A69597958795779567955C
:104CE000BA95C9F700976105710508959B01AC015C
:104CF0000A2E06945795479537952795BA95C9F783
:104D0000620F731F841F951FA01D08952F923F925D
:104D10004F925F926F927F928F929F92AF92BF92CB
:104D2000CF92DF92EF92FF920F931F93CF93DF9377
:104D3000CDB7DEB7CA1BDB0B0FB6F894DEBF0FBED4
:104D4000CDBF09942A88398848885F846E847D8421
:104D50008C849B84AA84B984C884DF80EE80FD8023
:104D60000C811B81AA81B981CE0FD11D0FB6F89499
:0E4D7000DEBF0FBECDBFED010895F894FFCF5A
:104D7E00820000010082000101008600040100860D
:104D8E0000050100860006010086000701003100C3
:104D9E00320037003800370038000343686172670D
:104DAE00653A20002500566F6C746167653A2000E5
:104DBE004368617267696E675374617274005374ED
:104DCE006F7053657373696F6E00446973706C61B5
:104DDE007952656672657368004144433A202564D2
:084DEE000A0049444C45000095
:00000001FF
