:100000000C942A000C9447000C9447000C94470071
:100010000C9447000C9447000C9447000C94030781
:100020000C9447000C9447000C9447000C94470034
:100030000C9447000C9447000C9447000C94470024
:100040000C9447000C9447000C9447000C94470014
:100050000C94470011241FBECFE5D8E0DEBFCDBF12
:1000600010E0A0E6B0E0EAE7F0E402C005900D92EF
:10007000A037B107D9F726E0A0E7B0E001C01D9294
:10008000A83EB207E1F70E947A1B0C943B200C9427
:10009000000096B1987F96B98031C1F040F4843069
:1000A00079F0883079F08230C9F4309A089580343C
:1000B00079F0803881F0803289F486B1856004C09F
:1000C000319A089586B1836086B90895329A089569
:1000D00086B18660F9CF86B18760F6CF86B1887F1A
:1000E000F3CF97B19F7397B93E9A811104C087B13E
:1000F0008F7387B90895813011F43E9A0895833043
:10010000E1F787B1806CF5CFCF93C62F379A0E9465
:1001100049008C2F0E9471003D98CF91089597B1AE
:10012000907E97B9883030F5E82FF0E0E656FF4F23
:100130000C94DA1BBA00A200A900AB00AF00B1001A
:10014000B400B700389A369A349BFECF84B195B18B
:100150000895399AF8CF87B1836087B9F4CF3A9A76
:10016000F2CF87B18560F9CF87B18660F6CF87B1CE
:100170008760F3CF87B1807EF0CFBC0190E080E054
:100180000E94521C20E030EC4FE754E40E94E01B38
:1001900020E030E040EA50E40E94E01C089598B36B
:1001A0009F70282F207F922B98BBC098C19A42E065
:1001B0004A95F1F700C0C198EFE8F1E03197F1F707
:1001C00000C0000098B39F70F0E18F9F9001112450
:1001D000892F822B88BBC19A42E04A95F1F700C073
:1001E000C1988FE99FE00197F1F700C000000895E2
:1001F00098B39F70282F207F922B98BBC09AC19AEA
:1002000042E04A95F1F700C0C198EFE8F1E031977C
:10021000F1F700C0000098B39F70F0E18F9F90014C
:100220001124892F822B88BBC19A42E04A95F1F7AD
:1002300000C0C1988FE99FE00197F1F700C000006E
:1002400008958FEF87BB8FE39CE90197F1F700C01A
:10025000000082E00E94CF0088E20E94CF008CE084
:100260000E94CF0086E00E94CF0081E00E94CF0074
:100270008FE99FE00197F1F700C000000895CF9348
:10028000DF93EC018991811103C0DF91CF91089533
:100290000E94F800F7CFCF93DF93EA01811109C0E4
:1002A000862F8068603158F0CE01DF91CF910C9499
:1002B0003F018130C9F76031B8F7862F806C0E940A
:1002C000CF00F2CF81E00E94CF008FE99FE001973D
:1002D000F1F700C0000080E80C94CF00CF92DF92CD
:1002E000EF92FF921F93CF93DF936C01162FF42EA2
:1002F0008AE190E00E94D504EC018FEF209709F489
:1003000056C08091770090917800892B21F5D09389
:100310007800C093770088E990E00E94210581EA87
:1003200090E00E9421058FE890E00E94210586E878
:1003300090E00E94210589E790E00E9421058FE866
:1003400090E0909385008093840086E890E09093FD
:10035000830080938200111111E0198E188E1E8B7C
:10036000FF8AFE01C192D1927F01CF010E942F0529
:10037000CE010C960E942F05D987C887DB8BCA8BCC
:1003800082E090E0811B91099D878C878E899091F6
:100390007600981710F480937600F9E08F9FC001E3
:1003A0001124B70188569F4F0E94330581E0DF91E9
:1003B000CF911F91FF90EF90DF90CF9008950F9312
:1003C0001F93CF93DF938B01C0917400D091750080
:1003D000C80FD91F809177009091780002960E94F3
:1003E00089056091770070917800FB01D383C28307
:1003F00080917400909175006E5F7F4FC817D90788
:10040000B0F480918200909183000E945305011501
:10041000110591F06091770070917800645F7F4FD3
:10042000C801DF91CF911F910F910C9453058091DA
:10043000840090918500E9CFDF91CF911F910F91BA
:100440000895FF920F931F93CF93DF9380918400C1
:1004500090918500892B09F444C099E0F92E809190
:100460007900811144C00E94B01220917200309135
:100470007300821B930B909371008093700089E04E
:10048000F82E20917000309171008091740090914D
:1004900075002115310509F04CC0909373008093CD
:1004A000720080917600282F30E099E0929FF00151
:1004B000939FF00D1124E856FF4F408141118DC0EC
:1004C000882369F08150282F30E0929FF001939F9C
:1004D000F00D1124E856FF4F908191117EC080935A
:1004E0007600DF91CF911F910F91FF900895F894BE
:1004F000E0917E00F0917F00C681D781CE010C96FD
:100500000E94890578948E010E5F1F4FC8010E94DA
:1005100089058E8990917600981710F48093760063
:100520008F9DC0011124B80188569F4F0E9433054A
:1005300096CF0196909375008093740021503109F5
:100540003093710020937000892B81F48091840096
:100550009091850020918200309183003093850036
:10056000209384009093830080938200E091840024
:10057000F09185002091740030917500808188236E
:1005800009F47FCF0580F681E02DC681D7818A816D
:100590009B812817390708F474CFF8948E010E5FF9
:1005A0001F4FC8010E9489058C899D89892B21F0E4
:1005B000CE010C960E94890578948E8990917600E0
:1005C000981710F4809376008F9DC0011124B80114
:1005D00088569F4F0E943305C9CF8093760049E02B
:1005E000429FC001439F900D1124FC01E856FF4F2C
:1005F000A181B28112964D915C91528341838556BF
:100600009F4F4817590721F48581968192838183F2
:1006100089E0829FF001839FF00D1124E856FF4F7F
:100620000180F281E02D86819781909378008093FC
:100630007700DC01ED91FC91119757966C91DF9159
:10064000CF911F910F91FF9009940F931F93CF9318
:10065000DF93DC011596ED91FC91C681D7818E0167
:10066000045F1F4FC8010E948905B80189E790E027
:100670000E943305E0917700F091780081E02E89A7
:100680009689291708F480E0DF91CF911F910F918F
:1006900008951092850010928400109283001092A9
:1006A00082001092780010927700109276001092DB
:1006B00075001092740010927300109272001092E4
:1006C0007100109270000895CF93DF938BE090E05B
:1006D0000E94D504EC01009731F0FC0111921192B7
:1006E000CF010E942105CE01DF91CF910895AF92F5
:1006F000BF92CF92DF92EF92FF920F931F93CF930F
:10070000DF936C017B01B42EA22E0E94AA12F60187
:10071000C081D181CE018E219F21A11040C0892BA3
:1007200009F041C00115110589F070E060E0BB20BF
:1007300011F060E071E0A11074606E297F29A801BA
:10074000C60102960E944715D0E0C0E00E94C61381
:10075000012BC9F0811102C00E944E060E941117A0
:1007600091FD0FC00FB6F8940F92F6018081918130
:10077000970128233923A11023C0232B21F50F90A3
:100780000FBEEC01DD27CE01DF91CF911F910F91BC
:10079000FF90EF90DF90CF90BF90AF900895E81654
:1007A000F90609F0BFCFBB2041F0C70180959095B5
:1007B0008C239D23F6019183808310E000E0C6CF57
:1007C000E216F306E1F6BB20D1F2E094F094E822C1
:1007D000F922F601F182E082D2CFFC010FB6F89443
:1007E0000F92808191816095709568237923718340
:1007F00060830F900FBE0895FC0180819181089560
:10080000CF92DF92EF92FF920F931F93CF93DF93DC
:10081000EC018B017C0185E0E80EF11C0E94AA121C
:10082000EF81F88568817981602B712B79836883EA
:1008300010E000E068817981EE15FF0599F40095DC
:10084000109506231723198308830E94C6138881F5
:100850009981DF91CF911F910F91FF90EF90DF90E1
:10086000CF900895C280D38020813181C90199271A
:10087000AC014623572332FD04C0452B29F4F60171
:10088000D9CF84179507D9F730FF02C0082B192B51
:100890007260CF010E943016F2CFAF92BF92CF921A
:1008A000DF92EF92FF920F931F93CF93DF937C0120
:1008B000EB018A0169010E94AA12F701A080B180B0
:1008C000BE01C7010E940004CA29DB29CE01802392
:1008D00091238017910709F03BC0F7018081918136
:1008E0009801209530958223932391838083D12C86
:1008F000C12C0E94C613CD28F9F0811102C00E94BC
:100900004E060E94111791FD15C00FB6F8940F9274
:10091000F70180819181980128233923201731071D
:1009200039F4A801409550954823592351834083B9
:100930000F900FBEEC01DD27CE01DF91CF911F910B
:100940000F91FF90EF90DF90CF90BF90AF90089500
:10095000C114D10451F0A601B8017560C701029617
:100960000E944715D0E0C0E0C4CFF701C081D1811B
:10097000C0CFCF93DF93EC010E94AA128A8181112C
:1009800007C00E94C613CE01DF91CF910C940D05D4
:1009900060E072E08F8198850E943016EFCFBA0137
:1009A0000C940004BA010C94ED030F931F93CF93A2
:1009B000DF938C010E94AA128091AA009091AB0053
:1009C000892B31F48EEA90E09093AB008093AA00DB
:1009D00001151105F9F02091AC003091AD00020F26
:1009E000131F0B3D85E01807A8F42017310790F47A
:1009F000C091AA00D091AB00C20FD31F1093AD00DD
:100A00000093AC000E94C613CE01DF91CF911F91DD
:100A10000F910895D0E0C0E0F5CF08951092AD0099
:100A20001092AC0008952091AC003091AD008BED98
:100A300095E0821B930B08951092AD001092AC00CC
:100A40000895FC010396928381832FEF3FEF348357
:100A50002383968385839087878310820895FC0182
:100A6000118610860895CF93DF939C01FB01DC0172
:100A70001196CD91DC91D383C2838C819D81958326
:100A800084838C819D81DC0113967C936E931297F5
:100A90007D836C8331872087F90180818F5F80831C
:100AA000DF91CF9108950F931F93CF93DF938C0124
:100AB000FB0180819181D80113968F3F9807F1F453
:100AC000E801AF81B88512968D919C91139793831D
:100AD0008283EC01FD83EC83B583A4831396FC939E
:100AE000EE93129711870087F80180818F5F8083D2
:100AF000DF91CF911F910F910895D90112962D91F9
:100B00003C911397E9014881598184179507A8F70B
:100B1000DACFCF93DF93FC01A085B18582819381E9
:100B200024813581EC013D832C83C481D5819B8355
:100B30008A8311968D919C9112978E179F0721F4AD
:100B40001296DC93CE931197118610868C9181506A
:100B50008C93DF91CF91089531E1FC01308331977F
:100B600022E220833197A3E3A083319760833197FA
:100B7000708331971082319760E8608331971082DB
:100B8000319762E06083319763E06083319764E07E
:100B90006083319765E06083319766E060833197C9
:100BA00067E06083319768E06083319769E0608334
:100BB000319760E1608331973083319732E1308340
:100BC000319733E13083319734E13083319735E128
:100BD0003083319736E13083319737E13083319775
:100BE00038E13083319739E13083319730E2308317
:100BF000319731E2308331972083319723E220838C
:100C00003197408331975083319726E22083319783
:100C100027E22083319728E22083319729E220833D
:100C2000319720E32083319721E32083869708952D
:100C30001BBC8CE78ABD8BE08EBD89B7806189BF04
:100C4000A091E606B091E706CD91CDBFDD91DEBF64
:100C5000FF91EF91DF91CF91BF91AF919F918F91D4
:100C60007F916F915F914F913F912F911F910F91C4
:100C7000FF90EF90DF90CF90BF90AF909F908F90BC
:100C80007F906F905F904F903F902F901F900F90AC
:100C90000FBE0F90089581E0089508950F920FB64A
:100CA000F8940F921F9211242F923F924F925F92CD
:100CB0006F927F928F929F92AF92BF92CF92DF926C
:100CC000EF92FF920F931F932F933F934F935F9356
:100CD0006F937F938F939F93AF93BF93CF93DF9344
:100CE000EF93FF93A091E606B091E7060DB60D9243
:100CF0000EB60D920E94F114A091E606B091E7069F
:100D0000CD91CDBFDD91DEBFFF91EF91DF91CF910E
:100D1000BF91AF919F918F917F916F915F914F9113
:100D20003F912F911F910F91FF90EF90DF90CF9007
:100D3000BF90AF909F908F907F906F905F904F90FB
:100D40003F902F901F900F900FBE0F9008950F921D
:100D50000FB6F8940F921F9211242F923F924F9248
:100D60005F926F927F928F929F92AF92BF92CF923B
:100D7000DF92EF92FF920F931F932F933F934F9326
:100D80005F936F937F938F939F93AF93BF93CF9313
:100D9000DF93EF93FF93A091E606B091E7060DB6BF
:100DA0000D920EB60D920E94CA1281110E94F1148A
:100DB000A091E606B091E706CD91CDBFDD91DEBFF3
:100DC000FF91EF91DF91CF91BF91AF919F918F9163
:100DD0007F916F915F914F913F912F911F910F9153
:100DE000FF90EF90DF90CF90BF90AF909F908F904B
:100DF0007F906F905F904F903F902F901F900F903B
:100E00000FBE0F9008950E94A70618950FB6F8948C
:100E10000F92FC01928D0F900FBE81E0911180E046
:100E200008950F931F93CF93DF93EC01042F1A8D36
:100E30004C8D4423C1F050E001111DC08A819B817B
:100E40000E944D1D8C8D2A813B81820F932F911D15
:100E50009B838A832C813D818217930720F08881B0
:100E600099819B838A831F5F1A8F80E0DF91CF91E6
:100E70001F910F9108958E819F810E944D1D8C8D31
:100E800090E09195819591092E813F81280F391F1E
:100E90003F832E83488159812417350730F42C81F4
:100EA0003D81820F931F9F838E830230E1F61123D1
:100EB000D1F21150D8CFFC01CB01448D4423A1F0D5
:100EC00050E026813781240F351F378326836481C4
:100ED00075812617370720F02081318137832683DB
:100EE000668177810C944D1D0895EF92FF921F93B8
:100EF000CF93DF93EC010FB6F8940F921E8D7C0117
:100F000081E1E80EF11C1116C4F08FEF8E8F0F9067
:100F10000FBE0FB6F8940F921D8D7E0188E0E80E8B
:100F2000F11C1116ACF08FEF8D8F0F900FBEDF917B
:100F3000CF911F91FF90EF9008958989882329F31D
:100F4000C7010E948B1581110E94FE161150DBCF44
:100F50008885882341F3C7010E948B1581110E9467
:100F6000FE161150DECFCF93DF93009709F43FC0F8
:100F7000FC01238D222309F43AC0EC01448D0FB605
:100F8000F8940F9280819181FC01249FE00DF11D66
:100F90001124FD83EC831A8E9B838A832150330BAB
:100FA000429FF001439FF00D11248E0F9F1F9F83DE
:100FB0008E838FEF8D8F8E8F611110C0888588236F
:100FC00039F0CE0108960E948B1581110E944E06C1
:100FD0000F900FBE81E0DF91CF910895CE0108966A
:100FE0000E942105CE0141960E942105F1CF80E0AB
:100FF000F2CF0F931F93CF93DF93811108C0D0E0FE
:10100000C0E0CE01DF91CF911F910F910895869F8F
:1010100090011124213E310594F7162F082FC901A4
:101020004F960E94D504EC01009749F3111109C0B5
:10103000998388830B8F1C8F61E0CE010E94B307D8
:10104000E0CF4F9699838883F5CFAF92BF92CF922E
:10105000DF92FF920F931F93CF93DF9300D000D0C6
:101060001F92CDB7DEB78C016B015D834C83F22EEE
:1010700080E0580198E0A90EB11C0FB6F8940F92C9
:10108000F801228D938D291718F0F2E0FF1222C08B
:101090004F2DB601C8010E941107F80191899923CB
:1010A00021F0C80141960E948B1581110E944E06C5
:1010B0000F900FBE81E00F900F900F900F900F9048
:1010C000DF91CF911F910F91FF90DF90CF90BF9054
:1010D000AF9008952C813D81232B21F40F900FBEFA
:1010E00080E0E9CF811104C0CE0101960E94C716AD
:1010F0000F900FBE0E94AA120FB6F8940F92F8013B
:10110000858D8F3F09F4158EF801868D8F3F09F488
:10111000168E0F900FBEBE016C5F7F4FCE01019601
:101120000E94D216811120C00FB6F8940F92F801D8
:10113000928D0F900FBE838D981310C06C817D81AE
:10114000C5010E943715C8010E9475070E94C61389
:10115000811102C00E944E0681E08FCFC8010E941B
:1011600075070E94C613F8CFC8010E9475070E9438
:10117000C613B6CFEF92FF921F93CF93DF93EC018C
:101180009A8D8B8D981718F080E02230D1F47A0177
:101190001E8D8A8D422FCE010E9411071F3FB9F488
:1011A0008989811102C081E00CC0CE0141960E9464
:1011B0008B158823C1F3E114F104A9F381E0F70151
:1011C0008083DF91CF911F91FF90EF9008950E944F
:1011D000BF12181740F71F5F1E8FE5CFEF92FF92E7
:1011E0001F93CF93DF93EC018A8D9B8D891720F598
:1011F0007B011E8D8F5F8A8F1F3FB9F48989811112
:1012000002C081E00CC0CE0141960E948B1588235C
:10121000C1F3E114F104A9F381E0F7018083DF91C8
:10122000CF911F91FF90EF9008950E94BF12181761
:1012300040F71F5F1E8FE5CF80E0F1CFAF92BF92E6
:10124000CF92DF92FF920F931F93CF93DF9300D043
:1012500000D01F92CDB7DEB78C016B015D834C834C
:1012600080E0580191E1A90EB11C0FB6F8940F92DD
:10127000F801F28CFF2019F1B601C8010E945B074A
:10128000FA94F801F28E8085882339F0C801089617
:101290000E948B1581110E944E060F900FBE81E0B7
:1012A0000F900F900F900F900F90DF91CF911F91A3
:1012B0000F91FF90DF90CF90BF90AF9008952C8159
:1012C0003D81232B21F40F900FBE80E0E9CF8111E7
:1012D00004C0CE0101960E94C7160F900FBE0E9457
:1012E000AA120FB6F8940F92F801858D8F3F09F47A
:1012F000158EF801868D8F3F09F4168E0F900FBE64
:10130000BE016C5F7F4FCE0101960E94D216811103
:101310001BC0C8010E940607882381F06C817D8173
:10132000C5010E943715C8010E9475070E94C613A7
:10133000811102C00E944E0681E097CFC8010E9431
:1013400075070E94C613F8CFC8010E9475070E9456
:10135000C613C8010E940607882371F3B6CFEF9227
:10136000FF920F931F93CF93DF9300D000D01F9273
:10137000CDB7DEB78C017D836C8390E0780181E18D
:10138000E80EF11C0FB6F8940F92F801828D8823B5
:10139000D9F08150828F8085882339F0C801089662
:1013A0000E948B1581110E944E060F900FBE81E0A6
:1013B0000F900F900F900F900F90DF91CF911F9192
:1013C0000F91FF90EF9008952C813D81232B21F404
:1013D0000F900FBE80E0ECCF911104C0CE010196BA
:1013E0000E94C7160F900FBE0E94AA120FB6F89463
:1013F0000F92F801858D8F3F09F4158EF801868DC7
:101400008F3F09F4168E0F900FBEBE016C5F7F4FA9
:10141000CE0101960E94D21681111BC0C8010E9404
:101420000607882381F06C817D81C7010E943715F2
:10143000C8010E9475070E94C613811102C00E9454
:101440004E0691E09FCFC8010E9475070E94C61307
:10145000F8CFC8010E9475070E94C613C8010E94F8
:101460000607882371F3B6CFCF92DF92EF92FF92F7
:101470000F931F93CF93DF9300D000D01F92CDB76F
:10148000DEB78C017B015D834C8380E0680191E1D4
:10149000C90ED11C0FB6F8940F92F801928D9923C2
:1014A00021F1C680D780B701C8010E945B07F8010F
:1014B000D782C6828189882339F0C80141960E946B
:1014C0008B1581110E944E060F900FBE81E00F9088
:1014D0000F900F900F900F90DF91CF911F910F9170
:1014E000FF90EF90DF90CF9008952C813D81232BCA
:1014F00021F40F900FBE80E0EACF811104C0CE012D
:1015000001960E94C7160F900FBE0E94AA120FB636
:10151000F8940F92F801858D8F3F09F4158EF8012C
:10152000868D8F3F09F4168E0F900FBEBE016C5F43
:101530007F4FCE0101960E94D21681111BC0C801B7
:101540000E940607882381F06C817D81C6010E947C
:101550003715C8010E9475070E94C613811102C089
:101560000E944E0681E096CFC8010E9475070E9436
:10157000C613F8CFC8010E9475070E94C613C801A0
:101580000E940607882371F3B6CFEF92FF920F9364
:101590001F93CF93DF93FC01028D002341F17A0169
:1015A000EC01158D0E945B0701500A8F1F3FC1F4AB
:1015B0008885811102C081E00CC0CE0108960E948E
:1015C0008B158823C1F3E114F104A9F381E0F7013D
:1015D0008083DF91CF911F910F91FF90EF9008953D
:1015E0000E94BF12181738F71F5F1D8FE4CF80E0ED
:1015F000F0CF0F931F93CF93DF93FC01228D222313
:1016000069F0EC01068117810E945B071F830E833E
:1016100081E0DF91CF911F910F91089580E0F9CF84
:101620000FB6F8940F92FC01828D0F900FBE0895B3
:101630000FB6F8940F92FC01228D0F900FBE838D90
:10164000821B0895FC01828D08950C940D05FC0108
:10165000848D0895FC01838D0895FC01928D81E0B5
:10166000911180E00895FC01928D81E0238D291372
:1016700080E00895CF93DF93EC01F8940FB6F894CF
:101680000F928A8D9B8D0F900FBE891311C041154B
:10169000510559F0BE01685F7F4FCA010E94DF010A
:1016A00078948CEFDF91CF910895789480E0FACF11
:1016B0007894F8948A8D891790F440E0CE010E94C6
:1016C00011078989811103C081E07894EBCFCE01A5
:1016D00041960E9425038823B9F38BEFF6CF80E073
:1016E000F4CFCF93DF93EC01FB01F8948A8D811145
:1016F00011C04115510559F0BE016F5E7F4FCA01FF
:101700000E94DF0178948CEFDF91CF910895789457
:1017100080E0FACF7894F8948A8D882339F14C8D43
:1017200050E02E813F81240F351F3F832E838C8113
:101730009D812817390720F0888199819F838E83A6
:101740009A8D91509A8F6E817F81CF010E944D1D9D
:101750008885811103C081E07894D6CFCE010896A8
:101760000E9425038823B9F38BEFF6CF80E0F4CFF6
:101770001F93CF93DF93EC01142F9A8D8B8D9817C5
:1017800088F440E0CE010E94110711110BC0898935
:10179000882341F0CE0141960E94250311E081117A
:1017A00001C010E0812FDF91CF911F9108950F9319
:1017B0001F93CF93DF93EC018A8D882391F12C8DB9
:1017C00030E0AE81BF81A20FB31FBF83AE838C8197
:1017D0009D81A817B90720F0888199819F838E8306
:1017E0008A01CB014A8D41504A8F6E817F81A901C8
:1017F0000E944D1DF8018081882331F081E0DF9146
:10180000CF911F910F91089588858823B9F3CE0158
:1018100008960E942503882389F381E0F8018083DC
:10182000EECF80E0ECCFFC014481558122813381F1
:10183000240F351F80819181B901681B790BCB0181
:101840006417750710F0841B950B0895AF92BF9233
:10185000CF92DF92EF92FF920F931F93CF93DF937C
:101860006C015B017A01E901FC0104811581021B15
:10187000130B4017510708F48A01F60184859585FA
:10188000A801B5018C0F9D1F0E944D1D0E151F054F
:1018900058F4A701401B510BB501600F711FF601F1
:1018A000848595850E944D1DCE018E0D9F1DF601EC
:1018B000248135818217930710F0821B930BDF91EF
:1018C000CF911F910F91FF90EF90DF90CF90BF903D
:1018D000AF900895AF92BF92CF92DF92EF92FF92B6
:1018E0000F931F93CF93DF9300D0CDB7DEB76C017A
:1018F0005B017A01FC0182819381468540FF28C00B
:10190000FA82E9822017310740F19C0142E050E061
:10191000BE016F5F7F4FC6010E94260CE114F104E7
:1019200049F09C01A701B501C6010E94260CF601F1
:1019300093838283C7010F900F90DF91CF911F9106
:101940000F91FF90EF90DF90CF90BF90AF900895F0
:101950002E153F0518F77901E1CFF12CE12CEACFE4
:10196000AF92BF92CF92DF92EF92FF920F931F93AD
:10197000CF93DF936C015B017A01E901FC010481E3
:101980001581021B130B4017510708F48A01F60159
:10199000648575856C0F7D1FA801C5010E944D1DD2
:1019A0000E151F0558F4A701401B510BF601648565
:1019B0007585C501800F911F0E944D1DCE018E0DB2
:1019C0009F1DF601248135818217930710F0821B39
:1019D000930BDF91CF911F910F91FF90EF90DF90CC
:1019E000CF90BF90AF900895AF92BF92CF92DF9209
:1019F000EF92FF920F931F93CF93DF9300D0CDB759
:101A0000DEB77C015B016A018901FC012081318123
:101A1000868580FF12C042E050E0BE016F5F7F4FBD
:101A2000C7010E94B00C9C0189819A810250110962
:101A3000C816D906F8F4D12CC12CC016D10608F46A
:101A400086010115110541F0A801B501C7010E94E9
:101A5000B00CF70191838083C8010F900F90DF9144
:101A6000CF911F910F91FF90EF90DF90CF90BF909B
:101A7000AF9008956C01E1CFEF92FF921F93CF9347
:101A8000DF93EC017B0111E0413021F010E04230A6
:101A900009F414E0E114F10419F4EE24E394F12CB8
:101AA000F0E0E0E0CF3E8FEFD807B8F4CE014196EA
:101AB0000E94D504FC01892B81F08CE0DF011D928E
:101AC0008A95E9F7CF014096958784872196D5833B
:101AD000C483F782E68216871786CF01DF91CF9104
:101AE0001F91FF90EF900895FC01268521FF0C9433
:101AF0000D0520E111922A95E9F70895FC010FB632
:101B0000F8940F9280859185892BB1F48285938515
:101B1000892B91F486819781248135814CE0DF0106
:101B20001D924A95E9F73583248397838683178628
:101B300081E00F900FBE089580E0FBCFFC0180850F
:101B40009185892BA1F482859385892B81F48681E7
:101B50009781248135814CE0DF011D924A95E9F798
:101B60003583248397838683178681E0089580E0F8
:101B700008956115710511F461E070E0FC012481A4
:101B800035816217730720F47783668381E00895B7
:101B900080E00895FC0124813581808191816081FC
:101BA000718142815381A081B181A817B907A9F73A
:101BB000C9010197860F971F841B950B8217930706
:101BC00010F0821B930B08950C94130C2F923F92EC
:101BD0004F925F926F927F928F929F92AF92BF923D
:101BE000CF92DF92EF92FF920F931F93CF93DF93E9
:101BF00000D000D01F92CDB7DEB75C011B012A01D7
:101C00003D832C83FC0184819581019726854A01BF
:101C100020FF54C0F2E08F0E911C8815990510F436
:101C20001D821C828C819D81892B09F04DC0C501CC
:101C30000E94CA0D3C0184019301A201B101C501BA
:101C40000E946A0C4C01892B01F1C5010E94130C02
:101C5000F5012681378182179307B8F00E94AA12F6
:101C6000F50180859185892B71F080859185F12C16
:101C7000E12C00E020E030E0A90167850E945F18B8
:101C8000F501118610860E94C613C4010F900F90B3
:101C90000F900F900F90DF91CF911F910F91FF90B8
:101CA000EF90DF90CF90BF90AF909F908F907F90FC
:101CB0006F905F904F903F902F90089584179507F5
:101CC00008F0B0CF4C01AECFCE0101960E94B716FE
:101CD0000FB6F8940F92C5010E94CA0D3C018815F9
:101CE000990558F5F501678590E080E00E94F31AA8
:101CF0000E940217F501938782870F900FBECC8058
:101D0000DD80F12CE12C00E010E0980140E050E093
:101D1000BA0187850E94A917F50113861286BE01B4
:101D20006C5F7F4FCE0101960E94D216882381F20C
:101D30006114710409F47BCF7ECF0F900FBEF8CFF2
:101D4000AF92BF92CF92DF92EF92FF920F931F93C9
:101D5000CF93DF93EC015B017A0169018E858A01E3
:101D600080FF02C00E5F1F4FCE010E94CA0D9C0172
:101D7000A701B501CE010E946A0C5C01892BC9F054
:101D8000CE010E94130C2E813F818217930788F0A9
:101D900088859985892B69F088859985F12CE12CB6
:101DA00000E020E030E0A9016F850E943F1919860C
:101DB0001886C501DF91CF911F910F91FF90EF9091
:101DC000DF90CF90BF90AF9008956F927F928F92E7
:101DD0009F92AF92BF92CF92DF92EF92FF920F93BA
:101DE0001F93CF93DF93EC014B013A0169018E857C
:101DF00080FD47C0B12CA12C82FF02C0AE80BF8005
:101E0000C114D10429F10FB6F8940F92CE010E94AB
:101E1000130C8C01A816B90648F06F8590E080E09D
:101E20000E94F31A0E940217998788870F900FBEAD
:101E3000A016B10650F1F12CE12C00E010E0980161
:101E400040E050E0BA018F850E94A91719861886D4
:101E5000CE010E94130C8C01A816B906B0F0B12C6B
:101E6000A12CC501DF91CF911F910F91FF90EF90B1
:101E7000DF90CF90BF90AF909F908F907F906F90AA
:101E8000089582E0A82EB12CBBCF9801A301B40124
:101E9000CE010E94F40C5C01892B09F30E94AA1266
:101EA0008A859B85892B69F08A859B85F12CE12C9D
:101EB00000E020E030E0A9016F850E945F181B86DA
:101EC0001A860E94C613CDCF0F931F93CF93DF9333
:101ED00000D0CDB7DEB7FC01268520FD09C090E01B
:101EE00080E00F900F90DF91CF911F910F91089597
:101EF0008C010E94130C039790F3F801208131812B
:101F000042E050E0BE016F5F7F4FC8010E94B00CFD
:101F100089819A81E6CFAF92BF92CF92DF92EF9202
:101F2000FF920F931F93CF93DF93EC015B017A0134
:101F300069018E8510E000E080FF02C002E010E041
:101F4000CE010E94130C0817190770F0B12CA12CB8
:101F5000C501DF91CF911F910F91FF90EF90DF901E
:101F6000CF90BF90AF9008959C01A701B501CE011D
:101F70000E94F40C5C01892B49F38A859B85892B8F
:101F800039F38A859B85F12CE12C00E020E030E0DC
:101F9000A9016F850E943F191B861A86D9CFFC01C3
:101FA000208131814281538181E04217530709F03A
:101FB00080E00895CF93DF93FC012685D0E0C0E058
:101FC00020FF02C0C2E0D0E00E94CA0D21E0C81785
:101FD000D90708F420E0822FDF91CF910895CF92A6
:101FE000DF92EF92FF920F93CF93DF93FC01208556
:101FF0003185232BC1F06B01EC0180859185F12C9B
:10200000E12C00E020E030E0A90167850E943F1943
:102010001986188681E0DF91CF910F91FF90EF90A4
:10202000DF90CF90089580E0F6CFCF92DF92EF92CD
:10203000FF920F93CF93DF93FC0122853385232BEF
:10204000C1F06B01EC0182859385F12CE12C00E05D
:1020500020E030E0A90167850E943F191B861A869F
:1020600081E0DF91CF910F91FF90EF90DF90CF90C3
:10207000089580E0F6CFFC0187850895FC0167870D
:102080000895E091AE06F091AF068081811107C0FE
:102090008FEF9FEF90938E0680938D060895E091C9
:1020A000AE06F091AF060580F681E02D808191812A
:1020B000F1CFCF92DF92EF92FF920F931F93CF93C6
:1020C000DF93EC01C0909606D09097060091AE0683
:1020D0001091AF06E090AC06F090AD068091E60658
:1020E0009091E70602960E948905CC0DDD1DE091D6
:1020F000E606F091E706D383C2836091E60670910D
:10210000E7066E5F7F4FCC15DD0558F4C701DF9100
:10211000CF911F910F91FF90EF90DF90CF900C9493
:102120005305C8010E94530580918D0690918E063B
:10213000C817D90720F4D0938E06C0938D06DF917F
:10214000CF911F910F91FF90EF90DF90CF90089566
:10215000CF93DF9380919906811103C0DF91CF91D6
:1021600008950FB6F8940F92E0919F06F091A006A3
:10217000C681D781CE0102960E948905809198067A
:10218000815080939806809199068150809399069A
:102190000F900FBE8F89988D0E940D05CE010E9471
:1021A0000D05D8CF0E94A8108091C2068230D0F3CE
:1021B0000E944E06F7CF4F925F926F927F928F925E
:1021C0009F92AF92BF92CF92DF92EF92FF920F93C6
:1021D000CF93DF934C015B012901C42ED12CC601A2
:1021E0000E94D5043C01892B09F4C9C086E290E025
:1021F0000E94D504EC01892B09F4BEC086E2DE0101
:102200001D928A95E9F7788E6F8AB1E0CB1AD108D2
:10221000C60CD71CA114B10409F0C2C0043008F0E8
:1022200003E00E8B5E01B2E0AB0EB11CC5010E9453
:102230002F05CE010C960E942F05D987C88784E010
:1022400090E0801B91099D878C87DB8BCA8BA20154
:10225000B401C6010E94AC0599838883E114F1049E
:1022600019F0F701D183C0830FB6F8940F928091D3
:1022700098068F5F809398068091E6069091E70616
:10228000892B09F0A3C0D093E706C093E60680919E
:102290009806813061F582EC96E00E9421058BEC76
:1022A00096E00E94210584ED96E00E9421058DEDC7
:1022B00096E00E94210589EB96E00E94210580EBC3
:1022C00096E00E94210583EA96E00E9421058AE9B2
:1022D00096E00E94210589EB96E09093AF068093EB
:1022E000AE0680EB96E09093AD068093AC068091AD
:1022F0008F068F5F80938F06AE89809195068A172F
:1023000010F4A093950629E02A9FD0011124AE5322
:10231000B94F11960D90BC91A02DBD83AC8314963E
:102320008D919C9115979F838E8314968D919C918E
:102330001597FC01B382A2821596BC92AE921497B7
:102340009E89929FF0011124EE53F94FFB87EA8793
:1023500080818F5F80830F900FBE809194068823C9
:1023600049F0E091E606F091E7068689891710F4B6
:102370000E944E0681E004C0C3010E940D058FEF4C
:10238000DF91CF910F91FF90EF90DF90CF90BF90B2
:10239000AF909F908F907F906F905F904F90089537
:1023A000F501AE01475E5F4FC50108962191DA0144
:1023B0002D93AD019F0121503109D9012C91222388
:1023C00019F0E817F90791F718A228CF8091940621
:1023D00081118DCFE091E606F091E7069E8986890E
:1023E000981708F484CFD093E706C093E6067FCF12
:1023F0000F931F93CF93DF93EC010FB6F8940F92D6
:10240000892B21F4C091E606D091E7068E010E5F7C
:102410001F4FC8010E9489058C899D89892B21F055
:10242000CE010C960E94890580918F068F5F809364
:102430008F068091E6069091E7062091940622236C
:1024400059F18C179D0741F5B8018AE996E00E9481
:102450003305809199068F5F8093990681E00F90F4
:102460000FBE813039F08F89988D0E940D05CE0105
:102470000E940D0580919406882349F08091E6061C
:102480009091E7068C179D0711F40E944E06DF918C
:10249000CF911F910F91089580919806815080935C
:1024A00098060E94411080E0DACFEF92FF920F93DE
:1024B000CF93DF93CDB7DEB728970FB6F894DEBF82
:1024C0000FBECDBFA1E6B0E0FE01319629E630E0B7
:1024D000BF018D918193882319F02A173B07C9F713
:1024E0008BE8E82E86E0F82E00E030E020E045E5BD
:1024F00082ED90E10E94DB10882389F0813079F42D
:10250000F8942FEF3FEF30938E0620938D06809343
:10251000940610929706109296060E9418068091D3
:10252000600028960FB6F894DEBF0FBECDBFDF91D6
:10253000CF910F91FF90EF90089580918B0690912D
:102540008C060E94F8110E94A810F894109294062C
:102550000C944D0680918A068F5F80938A060895B9
:102560000FB6F8940F9280919606909197060F906F
:102570000FBE0895809196069091970608958091D8
:1025800098060895009721F48091E6069091E70659
:1025900049960895CF92DF92EF92FF920F931F9387
:1025A000CF93DF9380918A068111E5C0C091960692
:1025B000D09197066E018FEFC81AD80AD09297066D
:1025C000C0929606C114D104B9F48091AE069091E0
:1025D000AF062091AC063091AD063093AF06209344
:1025E000AE069093AD068093AC06809190068F5F07
:1025F000809390060E94411080918D0690918E06E6
:10260000C816D906E8F480E0E091E606F091E70606
:10261000E689D9E0ED9FF0011124EE53F94F908146
:10262000923008F081E090919106911181E0DF9164
:10263000CF911F910F91FF90EF90DF90CF90089571
:1026400080E069E0E091AE06F091AF0690819111D3
:1026500007C02FEF3FEF30938E0620938D06D4CF27
:10266000E091AE06F091AF060580F681E02D068080
:10267000F781E02D22813381C216D30660F3C28533
:10268000D3852481358146815781D90115965C9384
:102690004E93149746815781DA0113963C932E93FB
:1026A00012979F012E5F3F4F09811A81021713076E
:1026B00011F45A8349831386128698819150988326
:1026C000A489B5891097F9F0468557850089118945
:1026D000EA011D830C8300891189E8015B834A8329
:1026E0001196ED90FC901297AF01445F5F4FE41696
:1026F000F50621F412961C930E931197158A148AED
:102700009C9191509C93A689909195069A1710F4EC
:10271000A09395066A9FD0011124AE53B94F11962C
:102720000D90BC91A02DB583A48314964D915C911E
:1027300015975783468314964D915C911597EA013E
:102740003B832A8315963C932E9314972689269FC4
:10275000D0011124AE53B94FB387A2879C919F5FDC
:102760009C93E091E606F091E7069689921708F0AF
:1027700069CF81E067CF8091920690919306019690
:10278000909393068093920680E051CFEF92FF9250
:102790000F931F93CF93DF930FB6F8940F9280910E
:1027A0008A06815080938A0680918A06882351F098
:1027B00080E00F900FBEDF91CF911F910F91FF909E
:1027C000EF90089580919806882391F3E090A806F1
:1027D000F090A906F0E0E0E039E041E08091A30646
:1027E000811122C0EF2B11F00E944110C09192067E
:1027F000D0919306209761F011E00E94CA128111D6
:10280000109391062197C9F71092930610929206A1
:1028100080919106882361F28091E6069091E70607
:102820000E944E0681E0C5CFD7011696ED91FC912E
:10283000A489B5896685778580899189EB019D8317
:102840008C8380899189EC017B836A83BF01645FFB
:102850007F4F11960D911C9112970617170721F4BF
:1028600012969C938E931197158A148A8C9181509D
:102870008C93A285B3858481958166817781EC01F3
:102880007D836C8366817781EB019B838A83CF0193
:10289000029611960D911C9112970817190721F4B1
:1028A00012967C936E931197138612862C91215069
:1028B0002C93A689209195062A1710F4A0939506CB
:1028C0003A9FD0011124AE53B94F11960D90BC918F
:1028D000A02DB583A48314966D917C911597778371
:1028E000668314966D917C911597EB019B838A8387
:1028F00015969C938E9314979689939FD0011124DB
:10290000AE53B94FB387A2878C918F5F8C93A09100
:10291000E606B091E70656968C91891708F05ECFCF
:10292000409391065BCF0F931F93CF93DF93EC01FE
:102930008B010E94AA122091960630919706488139
:102940005981CA01800F911F998388832417350705
:1029500080F48417950780F0C0E00E94C6138111AF
:1029600002C00E944E068C2FDF91CF911F910F91D4
:1029700008958417950718F02817390768F7821B00
:10298000930B0E945910C1E0E8CFCF93DF93EC0185
:10299000892B29F40E944E06DF91CF9108950E9461
:1029A000AA12CE010E9459100E94C613882391F3E7
:1029B000F3CFCF93DF93EC010E94AA120FB6F894E5
:1029C0000F9280919206909193068C0F9D1F909389
:1029D0009306809392060F900FBEDF91CF910C94D7
:1029E000C61380918A06882321F081E080939106A6
:1029F0000895109291062091950689E0422F50E0AB
:102A0000849FF001859FF00D1124EE53F94F9081C2
:102A1000992359F1A181B28112966D917C917283B3
:102A20006183289FC00111248B53994F6817790740
:102A300021F4858196819283818389E0849FF001CE
:102A4000859FF00D1124EE53F94F0180F281E02DA6
:102A5000868197819093E7068093E60620939506FA
:102A60008091E6069091E70608952150C7CFCF9355
:102A7000DF93EB016091E6067091E706645F7F4F9C
:102A80000E945305CE01DF91CF910C945910CF9342
:102A9000DF93FC01A091E606B091E70670681D96F1
:102AA0007C936E931C97A181B281C091E606D09170
:102AB000E706BF87AE87C091E606D091E706149679
:102AC0008D919C911597998B888B2091E60630917A
:102AD000E7061496CD91DC911597245F3F4F3B8319
:102AE0002A832091E6063091E706245F3F4F159632
:102AF0003C932E931497A091E606B091E706559665
:102B0000FC93EE93549790819F5F9083CA01DF916D
:102B1000CF910C945910CF93DF93DC011596ED9172
:102B2000FC910680F781E02DA489B589868597857B
:102B300020893189EC013D832C83C089D1899B8315
:102B40008A83CF010C9611962D913C9112972817EC
:102B5000390721F41296DC93CE931197158A148AC3
:102B60002C9121502C9320918A06211157C0A285C7
:102B7000B3858481958126813781EC013D832C8347
:102B8000C681D7819B838A83CF01029611962D91AE
:102B90003C9112972817390721F41296DC93CE93B3
:102BA0001197138612862C9121502C93C68920915F
:102BB00095062C1710F4C093950629E02C9FE00190
:102BC0001124CE53D94F0980DA81C02DD583C48317
:102BD0004C815D8157834683AC81BD8113969C9364
:102BE0008E9312979D838C83A689A29FD001112476
:102BF000AE53B94FB387A2878C918F5F8C93A0910E
:102C0000E606B091E706968956968C91891730F5BD
:102C100081E080939106DF91CF910895A091A40661
:102C2000B091A506B787A68714962D913C9115976C
:102C3000318B208B1496CD91DC9115979B838A83E1
:102C400015969C938E93149783EA96E0958B848BCC
:102C50008091A3068F5F8093A306D1CF80E0DBCF66
:102C6000CF93DF93DC01706811967C936E93169678
:102C7000ED91FC91179718964D915C9119971296CA
:102C80002D913C91139714968D919C911597E90184
:102C90009D838C8314968D919C911597EC013B83B9
:102CA0002A83EA0129813A812A173B0711F49A8382
:102CB000898319961C921E921897DA018C91815083
:102CC0008C93A285B3858481958126813781EC011F
:102CD0003D832C83C681D7819B838A83CF01029653
:102CE00011962D913C9112972817390721F41296CD
:102CF000DC93CE931197138612862C9121502C933E
:102D0000C689209195062C1710F4C093950649E0CA
:102D10004C9FE0011124CE53D94F0980DA81C02D98
:102D2000D583C4832C813D81378326832C813D81CB
:102D3000D90113969C938E9312979D838C839689C9
:102D4000949FD0011124AE53B94FB387A2878C91C1
:102D50008F5F8C93E091E606F091E70686898917EC
:102D600018F481E080939106DF91CF9108950FB61A
:102D7000F8940F9220919006FC01208320919606F2
:102D800030919706328321830F900FBE08952091D2
:102D90009006FC012083209196063091970632839D
:102DA000218308950FB6F8940F92209196063091E2
:102DB0009706DC0111964D915C911297E091900677
:102DC000FC91FE1751F02417350738F0FB011182F2
:102DD000108281E00F900FBE0895241B350BDB019C
:102DE0004D915C912417350788F7421B530BFB016B
:102DF000518340830E94C71680E0ECCF81E080932E
:102E0000910608958091E6069091E7060895811154
:102E100005C08091E6069091E706089590E080E075
:102E20000895E091E606F091E70684859585A091E6
:102E3000E606B091E706E091E606F091E7065696C1
:102E40004C9124E030E0241B310935872487089514
:102E5000CF92DF92EF92FF920F931F93CF93DF9366
:102E6000C82FE62E6A010E94AA120FB6F8940F929C
:102E7000E091E606F091E706D0E08E01000F111F09
:102E8000000F111FE00FF11F81A192A1A3A1B4A116
:102E9000892B8A2B8B2B69F4E091E606F091E706EB
:102EA000EC0FFD1F81E085A3FF24F394C114D1042E
:102EB00009F4F12C0F900FBE21E0F21203C0C601FD
:102EC0000E9459100E94C61391E0F91204C08111AA
:102ED00002C00E944E060FB6F8940F92E091E606EB
:102EE000F091E706E00FF11F61A172A183A194A107
:102EF000611571058105910569F02091E606309113
:102F0000E706020F131FEE20B9F0F80111A212A27A
:102F100013A214A22091E6063091E706C20FD31F38
:102F20001DA20F900FBEDF91CF911F910F91FF90C7
:102F3000EF90DF90CF9008956B017C01F1E0CF1A04
:102F4000D108E108F108F801C1A2D2A2E3A2F4A2DB
:102F5000E1CF4F925F926F927F928F929F92AF924A
:102F6000BF92CF92DF92EF92FF920F931F93CF9376
:102F7000DF93C82F2A013B01480159010E94AA1280
:102F80000FB6F8940F92E091E606F091E706D0E0D4
:102F9000EC0FFD1F85A1823039F1E091E606F0913A
:102FA000E706CE01880F991F880F991FE80FF91FB8
:102FB00081A192A1A3A1B4A1409450946094709473
:102FC00084219521A621B72181A392A3A3A3B4A311
:102FD000E091E606F091E706EC0FFD1F81E085A386
:102FE00011E0C114D10409F410E00F900FBE1130AC
:102FF00019F4C6010E9459100E94C613113021F421
:10300000811102C00E944E060FB6F8940F92E1148F
:10301000F104A1F0E091E606F091E706CE01880FF9
:10302000991F880F991FE80FF91F81A192A1A3A1F1
:10303000B4A1F70180839183A283B383E091E60674
:10304000F091E706EC0FFD1F85A18230B1F5E0910C
:10305000E606F091E706CE01880F991F880F991FA9
:10306000E80FF91F81A192A1A3A1B4A1809490942B
:10307000A094B09488219921AA21BB2181A392A375
:10308000A3A3B4A381E02091E6063091E706C20F26
:10309000D31F1DA20F900FBEDF91CF911F910F91F3
:1030A000FF90EF90DF90CF90BF90AF909F908F9068
:1030B0007F906F905F904F90089580E0E4CF8F9263
:1030C0009F92AF92BF92CF92DF92EF92FF920F93B7
:1030D000CF93DF93DC010FB6F8940F9270E0E11408
:1030E000F10481F0FB01EE0FFF1FEE0FFF1FE80F51
:1030F000F91F81A092A0A3A0B4A0E70188829982C1
:10310000AA82BB82FD01E60FF71F85A192E095A37D
:103110000230E1F1A0F4013029F1813009F44AC014
:1031200081E00F900FBEDF91CF910F91FF90EF9054
:10313000DF90CF90BF90AF909F908F900895033015
:1031400029F0043051F7823009F497C0660F771FD9
:10315000660F771FFD01E60FF71F21A332A343A3DC
:1031600054A3DBCF660F771F660F771FFD01E60FB5
:10317000F71FC1A0D2A0E3A0F4A0C22AD32AE42A58
:10318000F52AC1A2D2A2E3A2F4A2C7CF660F771F8D
:10319000660F771FFD01E60FF71F41A152A163A142
:1031A00074A14F5F5F4F6F4F7F4F41A352A363A343
:1031B00074A3B3CF1A96ED91FC911B9714968D9141
:1031C0009C91159716962D913C911797EC013D8394
:1031D0002C831696CD91DC9117979B838A839D0152
:1031E0002E5F3F4F818192818217930711F4D28322
:1031F000C1831B961C921E921A97808181508083F6
:103200005696CC915697809195068C1710F4C093E2
:10321000950649E04C9FE0011124CE53D94F098017
:10322000DA81C02D1596DC93CE9314978C819D8105
:1032300017969C938E9316978C819D81FC01338306
:1032400022833D832C8356969C915697949FF00140
:103250001124EE53F94F1B96FC93EE931A9780813D
:103260008F5F8083E091E606F091E70686898917F3
:1032700008F056CF0E944E0653CF80E052CF8F9277
:103280009F92AF92BF92CF92DF92EF92FF920F93F5
:10329000CF93DF93DC0170E0E114F10481F0FB01D6
:1032A000EE0FFF1FEE0FFF1FE80FF91F81A092A086
:1032B000A3A0B4A0E70188829982AA82BB82FD0103
:1032C000E60FF71F85A192E095A30230D1F190F4AB
:1032D000013019F1813009F448C081E0DF91CF91CC
:1032E0000F91FF90EF90DF90CF90BF90AF909F90A5
:1032F0008F900895033029F0043061F7823009F48B
:10330000C5C0660F771F660F771FFD01E60FF71F19
:1033100021A332A343A354A3DDCF660F771F660F0B
:10332000771FFD01E60FF71F81A092A0A3A0B4A014
:10333000822A932AA42AB52A81A292A2A3A2B4A285
:10334000C9CF660F771F660F771FFD01E60FF71FC6
:1033500041A152A163A174A14F5F5F4F6F4F7F4F97
:1033600041A352A363A374A3B5CF80918A068111B0
:103370006BC01A96ED91FC911B9714968D919C91C0
:10338000159716962D913C911797EC013D832C8350
:103390001696CD91DC9117979B838A839D012E5FB2
:1033A0003F4F818192818217930711F4D283C183A9
:1033B0001B961C921E921A9780818150808356968C
:1033C000CC915697809195068C1710F4C093950672
:1033D00089E08C9FE0011124CE53D94F0980DA8116
:1033E000C02D1596DC93CE9314974C815D81179672
:1033F0005C934E931697EC81FD81338322833D834A
:103400002C835696EC915697E89FF0011124EE53C9
:10341000F94F1B96FC93EE931A9780818F5F808300
:10342000E091E606F091E70656969C918689891709
:1034300008F053CFC114D10419F081E0F601808364
:1034400081E0809391064ACFE091A406F091A50611
:103450001F96FC93EE931E978481958151969C93C1
:103460008E935097C481D581CD010C969B838A831E
:103470009583848383EA96E055969C938E93549724
:103480008091A3068F5F8093A306CACF80E026CFEA
:103490000F931F93CF93DF93FC01A62FB0E0EC01B5
:1034A000CA0FDB1F8DA192E09DA3AA0FBB1FAA0F1D
:1034B000BB1FAE0FBF1F91960D911D912D913C9199
:1034C00094970F5F1F4F2F4F3F4F91960D931D9372
:1034D0002D933C939497813009F05EC080918A06C9
:1034E00081115FC0A285B385848195812681378152
:1034F000EC013D832C83C681D7819B838A83CF01D6
:10350000029611962D913C9112972817390721F4B4
:103510001296DC93CE931197138612862C9121502C
:103520002C93C689209195062C1710F4C09395060C
:1035300029E02C9FE0011124CE53D94F0980DA8174
:10354000C02DD583C4836C817D8177836683AC81F4
:10355000BD8113969C938E9312979D838C83A6892D
:10356000A29FD0011124AE53B94FB387A2878C918B
:103570008F5F8C93A091E606B091E70696895696E8
:103580008C91891748F44115510519F081E0FA0131
:10359000808381E080939106DF91CF911F910F91FD
:1035A0000895A091A406B091A506B787A6871496A2
:1035B0008D919C911597918B808B1496CD91DC9178
:1035C0001597CF010C969B838A8315969C938E93B7
:1035D000149783EA96E0958B848B8091A3068F5F86
:1035E0008093A306C7CF009721F48091E6069091BF
:1035F000E7060FB6F8940F92FC01E60FF11D85A1C6
:10360000823029F415A281E00F900FBE089580E06A
:10361000FBCFCF92DF92EF92FF92009721F480913F
:10362000E6069091E7060FB6F8940F9274E0679F54
:10363000F0011124E80FF91F61A172A183A194A1E7
:10364000C1A0D2A0E3A0F4A020953095409550955C
:10365000C222D322E422F522C1A2D2A2E3A2F4A282
:103660000F900FBEFF90EF90DF90CF9008951092D3
:10367000E7061092E60610929906109298061092AC
:103680009706109296061092950610929406109244
:103690009306109292061092910610929006109244
:1036A0008F0610928E0610928D0610928A0608954B
:1036B0009C0150E040E060E271EA87E090E00E9407
:1036C000B81B2150310930BD29B988E08AB986E894
:1036D00080BD08955D9BFECF8CB90895CF93DF9395
:1036E000EC018991811103C0DF91CF9108950E946F
:1036F0006A1BF7CFCF93DF93CDB7DEB7A0970FB696
:10370000F894DEBF0FBECDBF60E080E80E94840069
:1037100080E895E20E94581B86E6E82E80E0F82EAD
:1037200090E2B92E8E010F5F1F4F80E00E948F0044
:10373000D82EC92E0E94BD00CF92DF92FF92EF9249
:103740001F92BF921F930F930E94561DC8010E94A3
:103750006E1B2FEF84E39CE0215080409040E1F706
:1037600000C000000FB6F894DEBF0FBECDBFDDCFA6
:10377000A1E21A2EAA1BBB1BFD010DC0AA1FBB1F75
:10378000EE1FFF1FA217B307E407F50720F0A21BE7
:10379000B30BE40BF50B661F771F881F991F1A9454
:1037A00069F760957095809590959B01AC01BD017E
:1037B000CF010895EE0FFF1F0590F491E02D0994BD
:1037C0000E94F41B0C94A61C0E949F1C58F00E949F
:1037D000981C40F029F45F3F29F00C948F1C511184
:1037E0000C94DA1C0C94951C0E94B71C68F3992366
:1037F000B1F3552391F3951B550BBB27AA276217ED
:103800007307840738F09F5F5F4F220F331F441FF9
:10381000AA1FA9F335D00E2E3AF0E0E832D091502D
:103820005040E695001CCAF72BD0FE2F29D0660F1A
:10383000771F881FBB1F261737074807AB07B0E85D
:1038400009F0BB0B802DBF01FF2793585F4F3AF063
:103850009E3F510578F00C948F1C0C94DA1C5F3F4E
:10386000E4F3983ED4F3869577956795B795F795E9
:103870009F5FC9F7880F911D9695879597F90895D1
:10388000E1E0660F771F881FBB1F6217730784076D
:10389000BA0720F0621B730B840BBA0BEE1F88F77C
:1038A000E0950895E89409C097FB3EF490958095C3
:1038B000709561957F4F8F4F9F4F9923A9F0F92FF6
:1038C00096E9BB279395F695879577956795B79574
:1038D000F111F8CFFAF4BB0F11F460FF1BC06F5F5A
:1038E0007F4F8F4F9F4F16C0882311F096E911C06C
:1038F000772321F09EE8872F762F05C0662371F08D
:1039000096E8862F70E060E02AF09A95660F771FA0
:10391000881FDAF7880F9695879597F9089597F994
:103920009F6780E870E060E008959FEF80EC089565
:1039300000240A941616170618060906089500248E
:103940000A9412161306140605060895092E039408
:10395000000C11F4882352F0BB0F40F4BF2B11F47C
:1039600060FF04C06F5F7F4F8F4F9F4F089557FDDB
:103970009058440F551F59F05F3F71F04795880FDD
:1039800097FB991F61F09F3F79F087950895121674
:1039900013061406551FF2CF4695F1DF08C0161620
:1039A00017061806991FF1CF8695710561050894D1
:1039B0000895E894BB2766277727CB0197F90895E8
:1039C0000E94F31C0C94A61C0E94981C38F00E94C4
:1039D0009F1C20F0952311F00C948F1C0C94951CC7
:1039E00011240C94DA1C0E94B71C70F3959FC1F34C
:1039F000950F50E0551F629FF001729FBB27F00D9D
:103A0000B11D639FAA27F00DB11DAA1F649F6627F1
:103A1000B00DA11D661F829F2227B00DA11D621F40
:103A2000739FB00DA11D621F839FA00D611D221FFA
:103A3000749F3327A00D611D231F849F600D211DDE
:103A4000822F762F6A2F11249F5750409AF0F1F061
:103A500088234AF0EE0FFF1FBB1F661F771F881FCA
:103A600091505040A9F79E3F510580F00C948F1C57
:103A70000C94DA1C5F3FE4F3983ED4F38695779577
:103A80006795B795F795E7959F5FC1F7FE2B880F70
:103A9000911D9695879597F90895FB01DC0102C069
:103AA00001900D9241505040D8F70895AEE0B0E03B
:103AB000ECE5FDE10C9412200D891E898F89988D0B
:103AC00026E02C831A83098397FF02C080E090E8E8
:103AD00001979E838D83AE01455E5F4F698D7A8D20
:103AE000CE0101960E94861D4D815E8157FD0AC060
:103AF0002F813885421753070CF49A01020F131FC8
:103B0000F80110822E96E4E00C942E20ABE0B0E099
:103B1000ECE8FDE10C9404207C013B018A01FC01EE
:103B200017821682838181FFC8C1CE0101965C0194
:103B3000F7019381F30193FD859193FF81913F01FB
:103B4000882309F453C1853239F493FD859193FF9D
:103B500081913F01853229F4B70190E00E94761FE0
:103B6000E7CF912C212C312CFFE1F31538F08B326B
:103B700011F190F4803209F1833229F137FC3CC015
:103B800020ED280F2A3050F536FE20C08AE0989E9E
:103B9000200D1124922E06C08D3291F0803371F7E2
:103BA000689430F8F30193FD859193FF81913F0173
:103BB0008111DACF21C0689431F8689432F8F2CFDD
:103BC000689433F8EFCF689434F8ECCFEAE02E9E97
:103BD000200D1124222E689435F8E4CF8E3229F47A
:103BE00036FC04C1689436F8DDCF8C3619F468943D
:103BF00037F8D8CF8836B1F2982F9F7D95549330FF
:103C0000E0F08336A1F18337C1F1833509F063C059
:103C10002801F2E04F0E511CF801C080D180692DBF
:103C200070E036FC02C06FEF7FEFC6010E94601F9C
:103C30004C01689437F882010AC00C5F1F4FFFE304
:103C4000F98388248394912C6501E89437F833FE36
:103C50002DC0522C8114910471F5552009F468CFC0
:103C6000B70180E290E00E94761F5A94F6CFF801E7
:103C7000808189830E5F1F4FE4CF2801F2E04F0E51
:103C8000511CF801C080D180692D70E036FC02C063
:103C90006FEF7FEFC6010E946B1F4C018201D5CFF1
:103CA000B70180E290E00E94761F2A94281419043C
:103CB00009F0B0F7CECFF60137FC859137FE819140
:103CC0006F01B70190E00E94761F51105A94F1E005
:103CD0008F1A9108BFCF843619F0893609F077C062
:103CE000F80137FE6BC060817181828193810C5F26
:103CF0001F4FF32DFF763F2E97FF09C090958095BB
:103D0000709561957F4F8F4F9F4F689437F82AE0E9
:103D100030E0A5010E94A61FC82ECA188C2C432C87
:103D200036FE0CC0E89440F8C91440F434FE05C0D7
:103D300032FC03C0F32DFE7E4F2E892C44FE95C02D
:103D4000FE01EC0DF11D8081803309F087C0242D28
:103D5000297E422E842D8870582E43FC95C040FE4B
:103D60008FC09C2C821418F42C0C922C981844FEB2
:103D700091C0B70180E390E00E94761F42FE09C027
:103D800088E790E041FE02C088E590E0B7010E941C
:103D9000761FC91408F48AC0CA94D12C9FEFC91A9F
:103DA000D90ACA0CDB1CF60182916F01B70190E0C1
:103DB0000E94761FAC14BD04B1F74FCF60817181B2
:103DC000072E000C880B990B0E5F1F4F92CFD32C40
:103DD000E894D4F82AE030E0853739F1232D297FA3
:103DE000D22E8F3601F148F48835A9F0F70186818B
:103DF00097812B96E2E10C942020803749F0883798
:103E0000A9F7D4FE02C06894D2F820E130E00DC0DA
:103E10006894D4F8F6CF34FE03C0822F8660D82E83
:103E200020E132E002C028E030E0F801D7FE0FC008
:103E300060817181828193810C5F1F4FA5010E9477
:103E4000A61FC82ECA183D2CE89437F867CF6081AA
:103E5000718190E080E00E5F1F4FF0CF42FC02C006
:103E6000839478CF8394839475CF842D867809F4D6
:103E700071CFF6CFB70180E290E00E94761F839465
:103E80008214C0F3512C73CF522C5818821408F4AA
:103E90006ECFF8CF842D867809F47BCF8BE241FE7C
:103EA00080E247FC8DE2B70190E071CFB70180E37B
:103EB00090E00E94761F9A946CCF8FEF9FEF99CF7E
:103EC000FC010590615070400110D8F780959095E5
:103ED0008E0F9F1F0895FC016150704001900110EA
:103EE000D8F7809590958E0F9F1F08950F931F937D
:103EF000CF93DF93182F092FEB018B8181FD09C030
:103F00001FEF0FEF812F902FDF91CF911F910F9116
:103F1000089582FF14C02E813F818C819D812817D6
:103F200039073CF4E881F981CF01019699838883B0
:103F300010838E819F8101969F838E83E3CFE885D6
:103F4000F985812F0995892BA1F3DACFFA01AA27E8
:103F5000283051F1203181F1E8946F936E7F6E5FCC
:103F60007F4F8F4F9F4FAF4FB1E03ED0B4E03CD07A
:103F7000670F781F891F9A1FA11D680F791F8A1F5D
:103F8000911DA11D6A0F711D811D911DA11D20D0C4
:103F900009F468943F912AE0269F11243019305D7E
:103FA0003193DEF6CF010895462F4770405D41936F
:103FB000B3E00FD0C9F7F6CF462F4F70405D4A33BC
:103FC00018F0495D31FD4052419302D0A9F7EACF84
:103FD000B4E0A6959795879577956795BA95C9F7B3
:103FE00000976105710508959B01AC010A2E0694A6
:103FF0005795479537952795BA95C9F7620F731F5F
:10400000841F951FA01D08952F923F924F925F929B
:104010006F927F928F929F92AF92BF92CF92DF92D8
:10402000EF92FF920F931F93CF93DF93CDB7DEB73D
:10403000CA1BDB0B0FB6F894DEBF0FBECDBF0994D1
:104040002A88398848885F846E847D848C849B8428
:10405000AA84B984C884DF80EE80FD800C811B8136
:10406000AA81B981CE0FD11D0FB6F894DEBF0FBE65
:0A407000CDBFED010895F894FFCFD5
:10407A000349444C45004144433A2025640A000060
:00000001FF
