:100000000C942A000C9447000C9447000C94470071
:100010000C9447000C9447000C9447000C947D0608
:100020000C9447000C9447000C9447000C94470034
:100030000C9447000C9447000C9447000C94470024
:100040000C9447000C9447000C9447000C94470014
:100050000C94470011241FBECFE5D8E0DEBFCDBF12
:1000600010E0A0E6B0E0ECE6F6E302C005900D92E9
:10007000A63CB107D9F727E0A6ECB0E001C01D927D
:10008000A834B207E1F70E94D71A0C94341B0C94E1
:10009000000098B39F70282F207F922B98BBC098A8
:1000A000C19A42E04A95F1F700C0C198EFE8F1E04B
:1000B0003197F1F700C0000098B39F70F0E18F9F77
:1000C00090011124892F822B88BBC19A42E04A9566
:1000D000F1F700C0C1988FE99FE00197F1F700C0E8
:1000E0000000089598B39F70282F207F922B98BB13
:1000F000C09AC19A42E04A95F1F700C0C198EFE872
:10010000F1E03197F1F700C0000098B39F70F0E183
:100110008F9F90011124892F822B88BBC19A42E0C6
:100120004A95F1F700C0C1988FE99FE00197F1F778
:1001300000C0000008958FEF87BB8FE39CE9019713
:10014000F1F700C0000082E00E94490088E20E94AE
:1001500049008CE00E94490086E00E94490081E04D
:100160000E9449008FE99FE00197F1F700C000006D
:100170000895CF93DF93EC018991811103C0DF9142
:10018000CF9108950E947200F7CFCF93DF93EA01D9
:10019000811109C0862F8068603158F0CE01DF914F
:1001A000CF910C94B9008130C9F76031B8F7862F30
:1001B000806C0E944900F2CF81E00E9449008FE9E3
:1001C0009FE00197F1F700C0000080E80C9449001F
:1001D000CF92DF92EF92FF921F93CF93DF936C0148
:1001E000162FF42E8AE190E00E944F04EC018FEF6D
:1001F000209709F456C08091CD009091CE00892BB4
:1002000021F5D093CE00C093CD008EEE90E00E94F9
:100210009B0487EF90E00E949B0485EE90E00E9493
:100220009B048CED90E00E949B048FEC90E00E9478
:100230009B0485EE90E09093DB008093DA008CEDD8
:1002400090E09093D9008093D800111111E0198E9D
:10025000188E1E8BFF8AFE01C192D1927F01CF01C1
:100260000E94A904CE010C960E94A904D987C887D0
:10027000DB8BCA8B82E090E0811B91099D878C8784
:100280008E899091CC00981710F48093CC00F9E0FF
:100290008F9FC0011124B70182519F4F0E94AD046E
:1002A00081E0DF91CF911F91FF90EF90DF90CF9091
:1002B00008950F931F93CF93DF938B01C091CA00D2
:1002C000D091CB00C80FD91F8091CD009091CE0066
:1002D00002960E9403056091CD007091CE00FB0153
:1002E000D383C2838091CA009091CB006E5F7F4F11
:1002F000C817D907B0F48091D8009091D9000E9416
:10030000CD040115110591F06091CD007091CE00E2
:10031000645F7F4FC801DF91CF911F910F910C94C3
:10032000CD048091DA009091DB00E9CFDF91CF918D
:100330001F910F910895FF920F931F93CF93DF9317
:100340008091DA009091DB00892B09F444C099E098
:10035000F92E8091CF00811144C00E942A12209171
:10036000C8003091C900821B930B9093C700809303
:10037000C60089E0F82E2091C6003091C700809118
:10038000CA009091CB002115310509F04CC0909323
:10039000C9008093C8008091CC00282F30E099E0FC
:1003A000929FF001939FF00D1124E251FF4F408185
:1003B00041118DC0882369F08150282F30E0929F31
:1003C000F001939FF00D1124E251FF4F90819111A4
:1003D0007EC08093CC00DF91CF911F910F91FF9051
:1003E0000895F894E091D400F091D500C681D781AA
:1003F000CE010C960E94030578948E010E5F1F4F6C
:10040000C8010E9403058E899091CC00981710F4C2
:100410008093CC008F9DC0011124B80182519F4F61
:100420000E94AD0496CF01969093CB008093CA00B2
:10043000215031093093C7002093C600892B81F4E5
:100440008091DA009091DB002091D8003091D900A2
:100450003093DB002093DA009093D9008093D8008A
:10046000E091DA00F091DB002091CA003091CB00DE
:100470008081882309F47FCF0580F681E02DC68135
:10048000D7818A819B812817390708F474CFF894A3
:100490008E010E5F1F4FC8010E9403058C899D8944
:1004A000892B21F0CE010C960E94030578948E8949
:1004B0009091CC00981710F48093CC008F9DC001D0
:1004C0001124B80182519F4F0E94AD04C9CF80937F
:1004D000CC0049E0429FC001439F900D1124FC01D4
:1004E000E251FF4FA181B28112964D915C915283EE
:1004F00041838F509F4F4817590721F4858196817A
:100500009283818389E0829FF001839FF00D112403
:10051000E251FF4F0180F281E02D86819781909317
:10052000CE008093CD00DC01ED91FC9111975796A0
:100530006C91DF91CF911F910F91FF9009940F93D0
:100540001F93CF93DF93DC011596ED91FC91C6814B
:10055000D7818E01045F1F4FC8010E940305B801B7
:100560008FEC90E00E94AD04E091CD00F091CE00C0
:1005700081E02E899689291708F480E0DF91CF91D8
:100580001F910F9108951092DB001092DA001092E3
:10059000D9001092D8001092CE001092CD00109287
:1005A000CC001092CB001092CA001092C900109299
:1005B000C8001092C7001092C6000895CF93DF9331
:1005C0008BE090E00E944F04EC01009731F0FC01B9
:1005D00011921192CF010E949B04CE01DF91CF9125
:1005E0000895AF92BF92CF92DF92EF92FF920F9356
:1005F0001F93CF93DF936C017B01B42EA22E0E9438
:100600002412F601C081D181CE018E219F21A1103B
:1006100040C0892B09F041C00115110589F070E037
:1006200060E0BB2011F060E071E0A11074606E2901
:100630007F29A801C60102960E94C114D0E0C0E043
:100640000E944013012BC9F0811102C00E94C8050D
:100650000E948B1691FD0FC00FB6F8940F92F60111
:1006600080819181970128233923A11023C0232B56
:1006700021F50F900FBEEC01DD27CE01DF91CF9168
:100680001F910F91FF90EF90DF90CF90BF90AF90B0
:100690000895E816F90609F0BFCFBB2041F0C70165
:1006A000809590958C239D23F6019183808310E0A3
:1006B00000E0C6CFE216F306E1F6BB20D1F2E094EB
:1006C000F094E822F922F601F182E082D2CFFC0117
:1006D0000FB6F8940F928081918160957095682390
:1006E0007923718360830F900FBE0895FC01808190
:1006F00091810895CF92DF92EF92FF920F931F9313
:10070000CF93DF93EC018B017C0185E0E80EF11CB7
:100710000E942412EF81F88568817981602B712B0A
:100720007983688310E000E068817981EE15FF0528
:1007300099F40095109506231723198308830E94C6
:10074000401388819981DF91CF911F910F91FF9084
:10075000EF90DF90CF900895C280D38020813181C7
:10076000C9019927AC014623572332FD04C0452B0C
:1007700029F4F601D9CF84179507D9F730FF02C0C5
:10078000082B192B7260CF010E94AA15F2CFAF92ED
:10079000BF92CF92DF92EF92FF920F931F93CF936E
:1007A000DF937C01EB018A0169010E942412F701A9
:1007B000A080B180BE01C7010E947A03CA29DB294B
:1007C000CE01802391238017910709F03BC0F701E8
:1007D0008081918198012095309582239323918384
:1007E0008083D12CC12C0E944013CD28F9F08111B7
:1007F00002C00E94C8050E948B1691FD15C00FB65D
:10080000F8940F92F7018081918198012823392370
:100810002017310739F4A8014095509548235923F2
:10082000518340830F900FBEEC01DD27CE01DF9195
:10083000CF911F910F91FF90EF90DF90CF90BF90DD
:10084000AF900895C114D10451F0A601B8017560AC
:10085000C70102960E94C114D0E0C0E0C4CFF701E6
:10086000C081D181C0CFCF93DF93EC010E942412CD
:100870008A81811107C00E944013CE01DF91CF9180
:100880000C94870460E072E08F8198850E94AA151D
:10089000EFCFBA010C947A03BA010C9467030F935B
:1008A0001F93CF93DF938C010E942412809100014B
:1008B00090910101892B31F484E091E09093010142
:1008C0008093000101151105F9F02091020130918A
:1008D0000301020F131F0B3D85E01807A8F4201732
:1008E000310790F4C0910001D0910101C20FD31FD4
:1008F00010930301009302010E944013CE01DF9187
:10090000CF911F910F910895D0E0C0E0F5CF0895E9
:10091000109203011092020108952091020130917A
:1009200003018BED95E0821B930B08951092030158
:10093000109202010895FC010396928381832FEFA8
:100940003FEF348323839683858390878783108248
:100950000895FC01118610860895CF93DF939C01C2
:10096000FB01DC011196CD91DC91D383C2838C8194
:100970009D81958384838C819D81DC0113967C937A
:100980006E9312977D836C8331872087F901808174
:100990008F5F8083DF91CF9108950F931F93CF9343
:1009A000DF938C01FB0180819181D80113968F3FE9
:1009B0009807F1F4E801AF81B88512968D919C916A
:1009C000139793838283EC01FD83EC83B583A48327
:1009D0001396FC93EE93129711870087F80180819C
:1009E0008F5F8083DF91CF911F910F910895D9017F
:1009F00012962D913C911397E901488159818417F2
:100A00009507A8F7DACFCF93DF93FC01A085B185D6
:100A10008281938124813581EC013D832C83C481C3
:100A2000D5819B838A8311968D919C9112978E1705
:100A30009F0721F41296DC93CE93119711861086AE
:100A40008C9181508C93DF91CF91089531E1FC011D
:100A50003083319722E220833197A3E3A08331973B
:100A600060833197708331971082319760E860839B
:100A700031971082319762E06083319763E0608341
:100A8000319764E06083319765E06083319766E079
:100A90006083319767E06083319768E060833197C6
:100AA00069E06083319760E16083319730833197EB
:100AB00032E13083319733E13083319734E1308351
:100AC000319735E13083319736E13083319737E123
:100AD0003083319738E13083319739E13083319772
:100AE00030E23083319731E2308331972083319780
:100AF00023E220833197408331975083319726E258
:100B00002083319727E22083319728E22083319791
:100B100029E22083319720E32083319721E320834A
:100B2000869708951BBC8CE78ABD8BE08EBD89B784
:100B3000806189BFA0913C07B0913D07CD91CDBFA9
:100B4000DD91DEBFFF91EF91DF91CF91BF91AF912A
:100B50009F918F917F916F915F914F913F912F91D5
:100B60001F910F91FF90EF90DF90CF90BF90AF90CB
:100B70009F908F907F906F905F904F903F902F90BD
:100B80001F900F900FBE0F90089581E00895089573
:100B90000F920FB6F8940F921F9211242F923F924A
:100BA0004F925F926F927F928F929F92AF92BF927D
:100BB000CF92DF92EF92FF920F931F932F933F9369
:100BC0004F935F936F937F938F939F93AF93BF9355
:100BD000CF93DF93EF93FF93A0913C07B0913D0734
:100BE0000DB60D920EB60D920E946B14A0913C07AB
:100BF000B0913D07CD91CDBFDD91DEBFFF91EF916B
:100C0000DF91CF91BF91AF919F918F917F916F9124
:100C10005F914F913F912F911F910F91FF90EF9016
:100C2000DF90CF90BF90AF909F908F907F906F900C
:100C30005F904F903F902F901F900F900FBE0F909E
:100C400008950F920FB6F8940F921F9211242F92CD
:100C50003F924F925F926F927F928F929F92AF924C
:100C6000BF92CF92DF92EF92FF920F931F932F9339
:100C70003F934F935F936F937F938F939F93AF9324
:100C8000BF93CF93DF93EF93FF93A0913C07B09175
:100C90003D070DB60D920EB60D920E9444128111C1
:100CA0000E946B14A0913C07B0913D07CD91CDBF40
:100CB000DD91DEBFFF91EF91DF91CF91BF91AF91B9
:100CC0009F918F917F916F915F914F913F912F9164
:100CD0001F910F91FF90EF90DF90CF90BF90AF905A
:100CE0009F908F907F906F905F904F903F902F904C
:100CF0001F900F900FBE0F9008950E942106189527
:100D00000FB6F8940F92FC01928D0F900FBE81E008
:100D1000911180E008950F931F93CF93DF93EC011F
:100D2000042F1A8D4C8D4423C1F050E001111DC0D9
:100D30008A819B810E942B1B8C8D2A813B81820F93
:100D4000932F911D9B838A832C813D81821793076A
:100D500020F0888199819B838A831F5F1A8F80E0AE
:100D6000DF91CF911F910F9108958E819F810E94F5
:100D70002B1B8C8D90E09195819591092E813F815F
:100D8000280F391F3F832E83488159812417350747
:100D900030F42C813D81820F931F9F838E8302301C
:100DA000E1F61123D1F21150D8CFFC01CB01448DD3
:100DB0004423A1F050E026813781240F351F37836B
:100DC0002683648175812617370720F020813181C1
:100DD00037832683668177810C942B1B0895EF92CD
:100DE000FF921F93CF93DF93EC010FB6F8940F920D
:100DF0001E8D7C0181E1E80EF11C1116C4F08FEF0D
:100E00008E8F0F900FBE0FB6F8940F921D8D7E013E
:100E100088E0E80EF11C1116ACF08FEF8D8F0F906B
:100E20000FBEDF91CF911F91FF90EF9008958989B8
:100E3000882329F3C7010E94051581110E947816A5
:100E40001150DBCF8885882341F3C7010E94051527
:100E500081110E9478161150DECFCF93DF93009757
:100E600009F43FC0FC01238D222309F43AC0EC01B0
:100E7000448D0FB6F8940F9280819181FC01249FDC
:100E8000E00DF11D1124FD83EC831A8E9B838A8370
:100E90002150330B429FF001439FF00D11248E0F20
:100EA0009F1F9F838E838FEF8D8F8E8F611110C058
:100EB0008885882339F0CE0108960E940515811196
:100EC0000E94C8050F900FBE81E0DF91CF91089579
:100ED000CE0108960E949B04CE0141960E949B047D
:100EE000F1CF80E0F2CF0F931F93CF93DF93811167
:100EF00008C0D0E0C0E0CE01DF91CF911F910F91EB
:100F00000895869F90011124213E310594F7162FF4
:100F1000082FC9014F960E944F04EC01009749F336
:100F2000111109C0998388830B8F1C8F61E0CE015A
:100F30000E942D07E0CF4F9699838883F5CFAF921B
:100F4000BF92CF92DF92FF920F931F93CF93DF93C5
:100F500000D000D01F92CDB7DEB78C016B015D834E
:100F60004C83F22E80E0580198E0A90EB11C0FB618
:100F7000F8940F92F801228D938D291718F0F2E062
:100F8000FF1222C04F2DB601C8010E948B06F80146
:100F90009189992321F0C80141960E94051581117C
:100FA0000E94C8050F900FBE81E00F900F900F9028
:100FB0000F900F90DF91CF911F910F91FF90DF90D5
:100FC000CF90BF90AF9008952C813D81232B21F4C9
:100FD0000F900FBE80E0E9CF811104C0CE010196D1
:100FE0000E9441160F900FBE0E9424120FB6F89473
:100FF0000F92F801858D8F3F09F4158EF801868DCB
:101000008F3F09F4168E0F900FBEBE016C5F7F4FAD
:10101000CE0101960E944C16811120C00FB6F894A3
:101020000F92F801928D0F900FBE838D981310C010
:101030006C817D81C5010E94B114C8010E94EF0638
:101040000E944013811102C00E94C80581E08FCF29
:10105000C8010E94EF060E944013F8CFC8010E9409
:10106000EF060E944013B6CFEF92FF921F93CF93EB
:10107000DF93EC019A8D8B8D981718F080E0223069
:10108000D1F47A011E8D8A8D422FCE010E948B06EB
:101090001F3FB9F48989811102C081E00CC0CE01E3
:1010A00041960E9405158823C1F3E114F104A9F3C8
:1010B00081E0F7018083DF91CF911F91FF90EF9046
:1010C00008950E943912181740F71F5F1E8FE5CF51
:1010D000EF92FF921F93CF93DF93EC018A8D9B8D4C
:1010E000891720F57B011E8D8F5F8A8F1F3FB9F412
:1010F0008989811102C081E00CC0CE0141960E9415
:1011000005158823C1F3E114F104A9F381E0F70187
:101110008083DF91CF911F91FF90EF9008950E94FF
:101120003912181740F71F5F1E8FE5CF80E0F1CF0F
:10113000AF92BF92CF92DF92FF920F931F93CF9304
:10114000DF9300D000D01F92CDB7DEB78C016B01CA
:101150005D834C8380E0580191E1A90EB11C0FB66C
:10116000F8940F92F801F28CFF2019F1B601C80132
:101170000E94D506FA94F801F28E8085882339F012
:10118000C80108960E94051581110E94C8050F909C
:101190000FBE81E00F900F900F900F900F90DF9196
:1011A000CF911F910F91FF90DF90CF90BF90AF90A4
:1011B00008952C813D81232B21F40F900FBE80E0F8
:1011C000E9CF811104C0CE0101960E9441160F9013
:1011D0000FBE0E9424120FB6F8940F92F801858D6D
:1011E0008F3F09F4158EF801868D8F3F09F4168E16
:1011F0000F900FBEBE016C5F7F4FCE0101960E9423
:101200004C1681111BC0C8010E948006882381F002
:101210006C817D81C5010E94B114C8010E94EF0656
:101220000E944013811102C00E94C80581E097CF3F
:10123000C8010E94EF060E944013F8CFC8010E9427
:10124000EF060E944013C8010E948006882371F3B4
:10125000B6CFEF92FF920F931F93CF93DF9300D0FF
:1012600000D01F92CDB7DEB78C017D836C8390E0F8
:10127000780181E1E80EF11C0FB6F8940F92F801A5
:10128000828D8823D9F08150828F8085882339F020
:10129000C80108960E94051581110E94C8050F908B
:1012A0000FBE81E00F900F900F900F900F90DF9185
:1012B000CF911F910F91FF90EF9008952C813D8168
:1012C000232B21F40F900FBE80E0ECCF911104C0CE
:1012D000CE0101960E9441160F900FBE0E9424126B
:1012E0000FB6F8940F92F801858D8F3F09F4158E93
:1012F000F801868D8F3F09F4168E0F900FBEBE0148
:101300006C5F7F4FCE0101960E944C1681111BC06D
:10131000C8010E948006882381F06C817D81C7010D
:101320000E94B114C8010E94EF060E94401381116F
:1013300002C00E94C80591E09FCFC8010E94EF063D
:101340000E944013F8CFC8010E94EF060E9440138C
:10135000C8010E948006882371F3B6CFCF92DF9236
:10136000EF92FF920F931F93CF93DF9300D000D0A3
:101370001F92CDB7DEB78C017B015D834C8380E08B
:10138000680191E1C90ED11C0FB6F8940F92F801D3
:10139000928D992321F1C680D780B701C8010E94A0
:1013A000D506F801D782C6828189882339F0C80121
:1013B00041960E94051581110E94C8050F900FBE2D
:1013C00081E00F900F900F900F900F90DF91CF91D1
:1013D0001F910F91FF90EF90DF90CF9008952C8197
:1013E0003D81232B21F40F900FBE80E0EACF8111C5
:1013F00004C0CE0101960E9441160F900FBE0E94BC
:1014000024120FB6F8940F92F801858D8F3F09F4DE
:10141000158EF801868D8F3F09F4168E0F900FBE42
:10142000BE016C5F7F4FCE0101960E944C16811168
:101430001BC0C8010E948006882381F06C817D81D9
:10144000C6010E94B114C8010E94EF060E94401319
:10145000811102C00E94C80581E096CFC8010E9498
:10146000EF060E944013F8CFC8010E94EF060E94C9
:101470004013C8010E948006882371F3B6CFEF9213
:10148000FF920F931F93CF93DF93FC01028D0023F4
:1014900041F17A01EC01158D0E94D50601500A8FA9
:1014A0001F3FC1F48885811102C081E00CC0CE01CC
:1014B00008960E9405158823C1F3E114F104A9F3ED
:1014C00081E0F7018083DF91CF911F910F91FF9011
:1014D000EF9008950E943912181738F71F5F1D8F7B
:1014E000E4CF80E0F0CF0F931F93CF93DF93FC0105
:1014F000228D222369F0EC01068117810E94D50616
:101500001F830E8381E0DF91CF911F910F9108958A
:1015100080E0F9CF0FB6F8940F92FC01828D0F9006
:101520000FBE08950FB6F8940F92FC01228D0F9014
:101530000FBE838D821B0895FC01828D08950C944B
:101540008704FC01848D0895FC01838D0895FC01BE
:10155000928D81E0911180E00895FC01928D81E0EF
:10156000238D291380E00895CF93DF93EC01F89445
:101570000FB6F8940F928A8D9B8D0F900FBE891332
:1015800011C04115510559F0BE01685F7F4FCA0176
:101590000E94590178948CEFDF91CF91089578944F
:1015A00080E0FACF7894F8948A8D891790F440E01F
:1015B000CE010E948B068989811103C081E0789455
:1015C000EBCFCE0141960E949F028823B9F38BEFA7
:1015D000F6CF80E0F4CFCF93DF93EC01FB01F894DA
:1015E0008A8D811111C04115510559F0BE016F5E00
:1015F0007F4FCA010E94590178948CEFDF91CF91FF
:101600000895789480E0FACF7894F8948A8D8823AE
:1016100039F14C8D50E02E813F81240F351F3F83DF
:101620002E838C819D812817390720F0888199812C
:101630009F838E839A8D91509A8F6E817F81CF0187
:101640000E942B1B8885811103C081E07894D6CF3E
:10165000CE0108960E949F028823B9F38BEFF6CF44
:1016600080E0F4CF1F93CF93DF93EC01142F9A8D7A
:101670008B8D981788F440E0CE010E948B061111E3
:101680000BC08989882341F0CE0141960E949F02B8
:1016900011E0811101C010E0812FDF91CF911F91E6
:1016A00008950F931F93CF93DF93EC018A8D8823C6
:1016B00091F12C8D30E0AE81BF81A20FB31FBF83AB
:1016C000AE838C819D81A817B90720F0888199810C
:1016D0009F838E838A01CB014A8D41504A8F6E8150
:1016E0007F81A9010E942B1BF8018081882331F0A2
:1016F00081E0DF91CF911F910F9108958885882314
:10170000B9F3CE0108960E949F02882389F381E0F5
:10171000F8018083EECF80E0ECCFFC01448155815D
:1017200022813381240F351F80819181B901681B8B
:10173000790BCB016417750710F0841B950B089586
:10174000AF92BF92CF92DF92EF92FF920F931F93CF
:10175000CF93DF936C015B017A01E901FC01048105
:101760001581021B130B4017510708F48A01F6017B
:1017700084859585A801B5018C0F9D1F0E942B1BA8
:101780000E151F0558F4A701401B510BB501600F42
:10179000711FF601848595850E942B1BCE018E0D4D
:1017A0009F1DF601248135818217930710F0821B5B
:1017B000930BDF91CF911F910F91FF90EF90DF90EE
:1017C000CF90BF90AF900895AF92BF92CF92DF922B
:1017D000EF92FF920F931F93CF93DF9300D0CDB77B
:1017E000DEB76C015B017A01FC0182819381468541
:1017F00040FF28C0FA82E9822017310740F19C019E
:1018000042E050E0BE016F5F7F4FC6010E94A00B17
:10181000E114F10449F09C01A701B501C6010E9441
:10182000A00BF60193838283C7010F900F90DF9185
:10183000CF911F910F91FF90EF90DF90CF90BF90CD
:10184000AF9008952E153F0518F77901E1CFF12CDF
:10185000E12CEACFAF92BF92CF92DF92EF92FF924C
:101860000F931F93CF93DF936C015B017A01E90122
:10187000FC0104811581021B130B4017510708F46A
:101880008A01F601648575856C0F7D1FA801C5016D
:101890000E942B1B0E151F0558F4A701401B510B6E
:1018A000F60164857585C501800F911F0E942B1B71
:1018B000CE018E0D9F1DF60124813581821793077D
:1018C00010F0821B930BDF91CF911F910F91FF902E
:1018D000EF90DF90CF90BF90AF900895AF92BF92FE
:1018E000CF92DF92EF92FF920F931F93CF93DF93EC
:1018F00000D0CDB7DEB77C015B016A018901FC0134
:1019000020813181868580FF12C042E050E0BE0117
:101910006F5F7F4FC7010E942A0C9C0189819A81C9
:1019200002501109C816D906F8F4D12CC12CC016E2
:10193000D10608F486010115110541F0A801B50191
:10194000C7010E942A0CF70191838083C8010F9080
:101950000F90DF91CF911F910F91FF90EF90DF904B
:10196000CF90BF90AF9008956C01E1CFEF92FF92BE
:101970001F93CF93DF93EC017B0111E0413021F005
:1019800010E0423009F414E0E114F10419F4EE24FB
:10199000E394F12CF0E0E0E0CF3E8FEFD807B8F40D
:1019A000CE0141960E944F04FC01892B81F08CE00E
:1019B000DF011D928A95E9F7CF01409695878487CC
:1019C0002196D583C483F782E68216871786CF01D6
:1019D000DF91CF911F91FF90EF900895FC01268534
:1019E00021FF0C94870420E111922A95E9F70895CC
:1019F000FC010FB6F8940F9280859185892BB1F484
:101A000082859385892B91F4868197812481358104
:101A10004CE0DF011D924A95E9F7358324839783D3
:101A20008683178681E00F900FBE089580E0FBCF7C
:101A3000FC0180859185892BA1F482859385892B72
:101A400081F486819781248135814CE0DF011D92EC
:101A50004A95E9F73583248397838683178681E047
:101A6000089580E008956115710511F461E070E05A
:101A7000FC01248135816217730720F47783668324
:101A800081E0089580E00895FC0124813581808102
:101A900091816081718142815381A081B181A817B8
:101AA000B907A9F7C9010197860F971F841B950BEA
:101AB0008217930710F0821B930B08950C948D0BE3
:101AC0002F923F924F925F926F927F928F929F924E
:101AD000AF92BF92CF92DF92EF92FF920F931F933C
:101AE000CF93DF9300D000D01F92CDB7DEB75C015B
:101AF0001B012A013D832C83FC0184819581019780
:101B000026854A0120FF54C0F2E08F0E911C8815F3
:101B1000990510F41D821C828C819D81892B09F00E
:101B20004DC0C5010E94440D3C0184019301A201F6
:101B3000B101C5010E94E40B4C01892B01F1C501E3
:101B40000E948D0BF5012681378182179307B8F02B
:101B50000E942412F50180859185892B71F0808582
:101B60009185F12CE12C00E020E030E0A9016785AF
:101B70000E94D917F501118610860E944013C401F6
:101B80000F900F900F900F900F90DF91CF911F91BA
:101B90000F91FF90EF90DF90CF90BF90AF909F900C
:101BA0008F907F906F905F904F903F902F9008950F
:101BB0008417950708F0B0CF4C01AECFCE01019647
:101BC0000E9431160FB6F8940F92C5010E94440D81
:101BD0003C018815990558F5F501678590E080E08E
:101BE0000E946D1A0E947C16F501938782870F90E0
:101BF0000FBECC80DD80F12CE12C00E010E09801DC
:101C000040E050E0BA0187850E942317F501138652
:101C10001286BE016C5F7F4FCE0101960E944C166A
:101C2000882381F26114710409F47BCF7ECF0F9079
:101C30000FBEF8CFAF92BF92CF92DF92EF92FF929A
:101C40000F931F93CF93DF93EC015B017A0169013E
:101C50008E858A0180FF02C00E5F1F4FCE010E9459
:101C6000440D9C01A701B501CE010E94E40B5C016B
:101C7000892BC9F0CE010E948D0B2E813F818217E6
:101C8000930788F088859985892B69F088859985DF
:101C9000F12CE12C00E020E030E0A9016F850E94EA
:101CA000B91819861886C501DF91CF911F910F9140
:101CB000FF90EF90DF90CF90BF90AF9008956F921C
:101CC0007F928F929F92AF92BF92CF92DF92EF92CC
:101CD000FF920F931F93CF93DF93EC014B013A01D7
:101CE00069018E8580FD47C0B12CA12C82FF02C006
:101CF000AE80BF80C114D10429F10FB6F8940F92C1
:101D0000CE010E948D0B8C01A816B90648F06F8594
:101D100090E080E00E946D1A0E947C169987888767
:101D20000F900FBEA016B10650F1F12CE12C00E08F
:101D300010E0980140E050E0BA018F850E9423171F
:101D400019861886CE010E948D0B8C01A816B90643
:101D5000B0F0B12CA12CC501DF91CF911F910F9153
:101D6000FF90EF90DF90CF90BF90AF909F908F90BB
:101D70007F906F90089582E0A82EB12CBBCF980180
:101D8000A301B401CE010E946E0C5C01892B09F302
:101D90000E9424128A859B85892B69F08A859B8500
:101DA000F12CE12C00E020E030E0A9016F850E94D9
:101DB000D9171B861A860E944013CDCF0F931F930D
:101DC000CF93DF9300D0CDB7DEB7FC01268520FD91
:101DD00009C090E080E00F900F90DF91CF911F91AC
:101DE0000F9108958C010E948D0B039790F3F801D9
:101DF0002081318142E050E0BE016F5F7F4FC8011A
:101E00000E942A0C89819A81E6CFAF92BF92CF922D
:101E1000DF92EF92FF920F931F93CF93DF93EC012A
:101E20005B017A0169018E8510E000E080FF02C04D
:101E300002E010E0CE010E948D0B0817190770F028
:101E4000B12CA12CC501DF91CF911F910F91FF9073
:101E5000EF90DF90CF90BF90AF9008959C01A701C5
:101E6000B501CE010E946E0C5C01892B49F38A8575
:101E70009B85892B39F38A859B85F12CE12C00E029
:101E800020E030E0A9016F850E94B9181B861A86F0
:101E9000D9CFFC01208131814281538181E04217F9
:101EA000530709F080E00895CF93DF93FC01268566
:101EB000D0E0C0E020FF02C0C2E0D0E00E94440DAC
:101EC00021E0C817D90708F420E0822FDF91CF91D5
:101ED0000895CF92DF92EF92FF920F93CF93DF930B
:101EE000FC0120853185232BC1F06B01EC0180853D
:101EF0009185F12CE12C00E020E030E0A90167851C
:101F00000E94B9181986188681E0DF91CF910F9150
:101F1000FF90EF90DF90CF90089580E0F6CFCF92C2
:101F2000DF92EF92FF920F93CF93DF93FC01228514
:101F30003385232BC1F06B01EC0182859385F12C55
:101F4000E12C00E020E030E0A90167850E94B9188B
:101F50001B861A8681E0DF91CF910F91FF90EF9061
:101F6000DF90CF90089580E0F6CFFC01878508953B
:101F7000FC0167870895E0910407F09105078081CF
:101F8000811107C08FEF9FEF9093E4068093E306E3
:101F90000895E0910407F09105070580F681E02D92
:101FA00080819181F1CFCF92DF92EF92FF920F93D8
:101FB0001F93CF93DF93EC01C090EC06D090ED0619
:101FC0000091040710910507E0900207F0900307C5
:101FD00080913C0790913D0702960E940305CC0D2D
:101FE000DD1DE0913C07F0913D07D383C2836091F2
:101FF0003C0770913D076E5F7F4FCC15DD0558F4AF
:10200000C701DF91CF911F910F91FF90EF90DF906B
:10201000CF900C94CD04C8010E94CD048091E306BA
:102020009091E406C817D90720F4D093E406C09332
:10203000E306DF91CF911F910F91FF90EF90DF901A
:10204000CF900895CF93DF938091EF06811103C065
:10205000DF91CF9108950FB6F8940F92E091F506B5
:10206000F091F606C681D781CE0102960E94030543
:102070008091EE0681508093EE068091EF068150AC
:102080008093EF060F900FBE8F89988D0E94870472
:10209000CE010E948704D8CF0E9422108091180799
:1020A0008230D0F30E94C805F7CF4F925F926F92B3
:1020B0007F928F929F92AF92BF92CF92DF92EF92D8
:1020C000FF920F93CF93DF934C015B012901C42E44
:1020D000D12CC6010E944F043C01892B09F4C9C0D0
:1020E00086E290E00E944F04EC01892B09F4BEC007
:1020F00086E2DE011D928A95E9F7788E6F8AB1E05B
:10210000CB1AD108C60CD71CA114B10409F0C2C067
:10211000043008F003E00E8B5E01B2E0AB0EB11CA0
:10212000C5010E94A904CE010C960E94A904D9877A
:10213000C88784E090E0801B91099D878C87DB8BAA
:10214000CA8BA201B401C6010E9426059983888327
:10215000E114F10419F0F701D183C0830FB6F894AC
:102160000F928091EE068F5F8093EE0680913C0780
:1021700090913D07892B09F0A3C0D0933D07C093F0
:102180003C078091EE06813061F588E197E00E947E
:102190009B0481E297E00E949B048AE297E00E9400
:1021A0009B0483E397E00E949B048FE097E00E94EA
:1021B0009B0486E097E00E949B0489EF96E00E94D2
:1021C0009B0480EF96E00E949B048FE097E0909341
:1021D00005078093040786E097E0909303078093B8
:1021E00002078091E5068F5F8093E506AE898091B6
:1021F000EB068A1710F4A093EB0629E02A9FD00182
:102200001124A85EB84F11960D90BC91A02DBD83EE
:10221000AC8314968D919C9115979F838E83149611
:102220008D919C911597FC01B382A2821596BC9268
:10223000AE9214979E89929FF0011124E85EF84FA8
:10224000FB87EA8780818F5F80830F900FBE80912C
:10225000EA06882349F0E0913C07F0913D07868922
:10226000891710F40E94C80581E004C0C3010E94D0
:1022700087048FEFDF91CF910F91FF90EF90DF9068
:10228000CF90BF90AF909F908F907F906F905F9016
:102290004F900895F501AE01475E5F4FC501089666
:1022A0002191DA012D93AD019F0121503109D9010E
:1022B0002C91222319F0E817F90791F718A228CFDB
:1022C0008091EA0681118DCFE0913C07F0913D07A6
:1022D0009E898689981708F484CFD0933D07C093D0
:1022E0003C077FCF0F931F93CF93DF93EC010FB683
:1022F000F8940F92892B21F4C0913C07D0913D07AF
:102300008E010E5F1F4FC8010E9403058C899D89B5
:10231000892B21F0CE010C960E9403058091E506E1
:102320008F5F8093E50680913C0790913D07209157
:10233000EA06222359F18C179D0741F5B80180EF79
:1023400096E00E94AD048091EF068F5F8093EF06C8
:1023500081E00F900FBE813039F08F89988D0E94F7
:102360008704CE010E9487048091EA06882349F001
:1023700080913C0790913D078C179D0711F40E94B6
:10238000C805DF91CF911F910F9108958091EE06BE
:1023900081508093EE060E94BB0F80E0DACFEF926F
:1023A000FF920F93CF93DF93CDB7DEB728970FB689
:1023B000F894DEBF0FBECDBFA1E6B0E0FE013196BE
:1023C00029E630E0BF018D918193882319F02A1707
:1023D0003B07C9F781EEE82E86E0F82E00E030E0FA
:1023E00020E045E58CE490E10E945510882389F0B7
:1023F000813079F4F8942FEF3FEF3093E406209387
:10240000E3068093EA061092ED061092EC060E9415
:1024100092058091600028960FB6F894DEBF0FBE3B
:10242000CDBFDF91CF910F91FF90EF9008958091F4
:10243000E1069091E2060E9472110E942210F89427
:102440001092EA060C94C7058091E0068F5F809396
:10245000E00608950FB6F8940F928091EC069091E3
:10246000ED060F900FBE08958091EC069091ED0659
:1024700008958091EE060895009721F480913C071D
:1024800090913D0749960895CF92DF92EF92FF9287
:102490000F931F93CF93DF938091E0068111E5C0E6
:1024A000C091EC06D091ED066E018FEFC81AD80AE4
:1024B000D092ED06C092EC06C114D104B9F480911B
:1024C000040790910507209102073091030730938C
:1024D00005072093040790930307809302078091D8
:1024E000E6068F5F8093E6060E94BB0F8091E306AD
:1024F0009091E406C816D906E8F480E0E0913C0724
:10250000F0913D07E689D9E0ED9FF0011124E85EE6
:10251000F84F9081923008F081E09091E706911198
:1025200081E0DF91CF911F910F91FF90EF90DF90AD
:10253000CF90089580E069E0E0910407F0910507ED
:102540009081911107C02FEF3FEF3093E406209365
:10255000E306D4CFE0910407F09105070580F681EA
:10256000E02D0680F781E02D22813381C216D3064B
:1025700060F3C285D3852481358146815781D90195
:1025800015965C934E93149746815781DA01139602
:102590003C932E9312979F012E5F3F4F09811A8122
:1025A0000217130711F45A83498313861286988100
:1025B00091509883A489B5891097F9F0468557857D
:1025C00000891189EA011D830C8300891189E801C2
:1025D0005B834A831196ED90FC901297AF01445FA4
:1025E0005F4FE416F50621F412961C930E93119793
:1025F000158A148A9C9191509C93A6899091EB0620
:102600009A1710F4A093EB066A9FD0011124A85EDC
:10261000B84F11960D90BC91A02DB583A48314964C
:102620004D915C9115975783468314964D915C911B
:102630001597EA013B832A8315963C932E931497B2
:102640002689269FD0011124A85EB84FB387A287A0
:102650009C919F5F9C93E0913C07F0913D07968988
:10266000921708F069CF81E067CF8091E8069091DA
:10267000E90601969093E9068093E80680E051CF41
:10268000EF92FF920F931F93CF93DF930FB6F894BF
:102690000F928091E00681508093E0068091E006E1
:1026A000882351F080E00F900FBEDF91CF911F91F2
:1026B0000F91FF90EF9008958091EE06882391F39B
:1026C000E090FE06F090FF06F0E0E0E039E041E047
:1026D0008091F906811122C0EF2B11F00E94BB0FEF
:1026E000C091E806D091E906209761F011E00E94C0
:1026F000441281111093E7062197C9F71092E90659
:102700001092E8068091E706882361F280913C07E9
:1027100090913D070E94C80581E0C5CFD70116966C
:10272000ED91FC91A489B589668577858089918929
:10273000EB019D838C8380899189EC017B836A8383
:10274000BF01645F7F4F11960D911C911297061780
:10275000170721F412969C938E931197158A148A69
:102760008C9181508C93A285B385848195816681FB
:102770007781EC017D836C8366817781EB019B839C
:102780008A83CF01029611960D911C91129708171A
:10279000190721F412967C936E9311971386128673
:1027A0002C9121502C93A6892091EB062A1710F426
:1027B000A093EB063A9FD0011124A85EB84F119662
:1027C0000D90BC91A02DB583A48314966D917C913E
:1027D00015977783668314966D917C911597EB011D
:1027E0009B838A8315969C938E9314979689939FC7
:1027F000D0011124A85EB84FB387A2878C918F5F58
:102800008C93A0913C07B0913D0756968C91891707
:1028100008F05ECF4093E7065BCF0F931F93CF93F3
:10282000DF93EC018B010E9424122091EC06309181
:10283000ED0648815981CA01800F911F99838883D1
:102840002417350780F48417950780F0C0E00E94B4
:102850004013811102C00E94C8058C2FDF91CF91D7
:102860001F910F9108958417950718F028173907BD
:1028700068F7821B930B0E94D30FC1E0E8CFCF9380
:10288000DF93EC01892B29F40E94C805DF91CF91D9
:1028900008950E942412CE010E94D30F0E9440137B
:1028A000882391F3F3CFCF93DF93EC010E9424129E
:1028B0000FB6F8940F928091E8069091E9068C0F7C
:1028C0009D1F9093E9068093E8060F900FBEDF915D
:1028D000CF910C9440138091E006882321F081E091
:1028E0008093E70608951092E7062091EB0689E0B1
:1028F000422F50E0849FF001859FF00D1124E85E87
:10290000F84F9081992359F1A181B28112966D916E
:102910007C9172836183289FC0011124855E984F4A
:102920006817790721F4858196819283818389E0F4
:10293000849FF001859FF00D1124E85EF84F01801F
:10294000F281E02D8681978190933D0780933C072B
:102950002093EB0680913C0790913D07089521500C
:10296000C7CFCF93DF93EB0160913C0770913D0798
:10297000645F7F4F0E94CD04CE01DF91CF910C9414
:10298000D30FCF93DF93FC01A0913C07B0913D079B
:1029900070681D967C936E931C97A181B281C09143
:1029A0003C07D0913D07BF87AE87C0913C07D091CF
:1029B0003D0714968D919C911597998B888B20914A
:1029C0003C0730913D071496CD91DC911597245F1B
:1029D0003F4F3B832A8320913C0730913D07245F82
:1029E0003F4F15963C932E931497A0913C07B091BE
:1029F0003D075596FC93EE93549790819F5F90838B
:102A0000CA01DF91CF910C94D30FCF93DF93DC01F8
:102A10001596ED91FC910680F781E02DA489B5898A
:102A20008685978520893189EC013D832C83C08977
:102A3000D1899B838A83CF010C9611962D913C916D
:102A400012972817390721F41296DC93CE93119729
:102A5000158A148A2C9121502C932091E006211183
:102A600057C0A285B3858481958126813781EC0189
:102A70003D832C83C681D7819B838A83CF010296B5
:102A800011962D913C9112972817390721F412962F
:102A9000DC93CE931197138612862C9121502C93A0
:102AA000C6892091EB062C1710F4C093EB0629E0A1
:102AB0002C9FE0011124C85ED84F0980DA81C02D17
:102AC000D583C4834C815D8157834683AC81BD81AE
:102AD00013969C938E9312979D838C83A689A29FB5
:102AE000D0011124A85EB84FB387A2878C918F5F65
:102AF0008C93A0913C07B0913D07968956968C9196
:102B0000891730F581E08093E706DF91CF91089532
:102B1000A091FA06B091FB06B787A68714962D916F
:102B20003C911597318B208B1496CD91DC911597A4
:102B30009B838A8315969C938E93149789EF96E0D6
:102B4000958B848B8091F9068F5F8093F906D1CFA6
:102B500080E0DBCFCF93DF93DC01706811967C932C
:102B60006E931696ED91FC91179718964D915C9186
:102B7000199712962D913C91139714968D919C91D3
:102B80001597E9019D838C8314968D919C911597DF
:102B9000EC013B832A83EA0129813A812A173B070A
:102BA00011F49A83898319961C921E921897DA0160
:102BB0008C9181508C93A285B385848195812681E7
:102BC0003781EC013D832C83C681D7819B838A8327
:102BD000CF01029611962D913C9112972817390733
:102BE00021F41296DC93CE931197138612862C91C2
:102BF00021502C93C6892091EB062C1710F4C0931A
:102C0000EB0649E04C9FE0011124C85ED84F0980D3
:102C1000DA81C02DD583C4832C813D8137832683FF
:102C20002C813D81D90113969C938E9312979D839D
:102C30008C839689949FD0011124A85EB84FB387E6
:102C4000A2878C918F5F8C93E0913C07F0913D07B8
:102C50008689891718F481E08093E706DF91CF9188
:102C600008950FB6F8940F922091E606FC01208398
:102C70002091EC063091ED06328321830F900FBE38
:102C800008952091E606FC0120832091EC06309106
:102C9000ED063283218308950FB6F8940F922091A8
:102CA000EC063091ED06DC0111964D915C91129786
:102CB000E091E606FC91FE1751F02417350738F035
:102CC000FB011182108281E00F900FBE0895241B3A
:102CD000350BDB014D915C912417350788F7421BBA
:102CE000530BFB01518340830E94411680E0ECCFDF
:102CF00081E08093E706089580913C0790913D071D
:102D00000895811105C080913C0790913D07089579
:102D100090E080E00895E0913C07F0913D078485C4
:102D20009585A0913C07B0913D07E0913C07F0915B
:102D30003D0756964C9124E030E0241B310935873D
:102D400024870895CF92DF92EF92FF920F931F9303
:102D5000CF93DF93C82FE62E6A010E9424120FB68C
:102D6000F8940F92E0913C07F0913D07D0E08E017E
:102D7000000F111F000F111FE00FF11F81A192A181
:102D8000A3A1B4A1892B8A2B8B2B69F4E0913C077A
:102D9000F0913D07EC0FFD1F81E085A3FF24F39424
:102DA000C114D10409F4F12C0F900FBE21E0F212EE
:102DB00003C0C6010E94D30F0E94401391E0F91294
:102DC00004C0811102C00E94C8050FB6F8940F928A
:102DD000E0913C07F0913D07E00FF11F61A172A166
:102DE00083A194A1611571058105910569F0209178
:102DF0003C0730913D07020F131FEE20B9F0F80198
:102E000011A212A213A214A220913C0730913D07F7
:102E1000C20FD31F1DA20F900FBEDF91CF911F9144
:102E20000F91FF90EF90DF90CF9008956B017C01A0
:102E3000F1E0CF1AD108E108F108F801C1A2D2A24D
:102E4000E3A2F4A2E1CF4F925F926F927F928F92B2
:102E50009F92AF92BF92CF92DF92EF92FF920F9329
:102E60001F93CF93DF93C82F2A013B0148015901DB
:102E70000E9424120FB6F8940F92E0913C07F09153
:102E80003D07D0E0EC0FFD1F85A1823039F1E091C4
:102E90003C07F0913D07CE01880F991F880F991FBD
:102EA000E80FF91F81A192A1A3A1B4A1409450946D
:102EB0006094709484219521A621B72181A392A3C7
:102EC000A3A3B4A3E0913C07F0913D07EC0FFD1FD5
:102ED00081E085A311E0C114D10409F410E00F9042
:102EE0000FBE113019F4C6010E94D30F0E94401387
:102EF000113021F4811102C00E94C8050FB6F89468
:102F00000F92E114F104A1F0E0913C07F0913D072C
:102F1000CE01880F991F880F991FE80FF91F81A113
:102F200092A1A3A1B4A1F70180839183A283B3836B
:102F3000E0913C07F0913D07EC0FFD1F85A1823029
:102F4000B1F5E0913C07F0913D07CE01880F991F44
:102F5000880F991FE80FF91F81A192A1A3A1B4A125
:102F600080949094A094B09488219921AA21BB21A7
:102F700081A392A3A3A3B4A381E020913C07309145
:102F80003D07C20FD31F1DA20F900FBEDF91CF913F
:102F90001F910F91FF90EF90DF90CF90BF90AF9077
:102FA0009F908F907F906F905F904F90089580E0FA
:102FB000E4CF8F929F92AF92BF92CF92DF92EF9227
:102FC000FF920F93CF93DF93DC010FB6F8940F922B
:102FD00070E0E114F10481F0FB01EE0FFF1FEE0F32
:102FE000FF1FE80FF91F81A092A0A3A0B4A0E701E2
:102FF00088829982AA82BB82FD01E60FF71F85A114
:1030000092E095A30230E1F1A0F4013029F1813082
:1030100009F44AC081E00F900FBEDF91CF910F916C
:10302000FF90EF90DF90CF90BF90AF909F908F90E8
:103030000895033029F0043051F7823009F497C025
:10304000660F771F660F771FFD01E60FF71F21A39D
:1030500032A343A354A3DBCF660F771F660F771FFE
:10306000FD01E60FF71FC1A0D2A0E3A0F4A0C22A81
:10307000D32AE42AF52AC1A2D2A2E3A2F4A2C7CF9E
:10308000660F771F660F771FFD01E60FF71F41A13F
:1030900052A163A174A14F5F5F4F6F4F7F4F41A358
:1030A00052A363A374A3B3CF1A96ED91FC911B971F
:1030B00014968D919C91159716962D913C9117978A
:1030C000EC013D832C831696CD91DC9117979B8361
:1030D0008A839D012E5F3F4F8181928182179307E2
:1030E00011F4D283C1831B961C921E921A97808181
:1030F000815080835696CC9156978091EB068C1721
:1031000010F4C093EB0649E04C9FE0011124C85E27
:10311000D84F0980DA81C02D1596DC93CE93149791
:103120008C819D8117969C938E9316978C819D819F
:10313000FC01338322833D832C8356969C915697C2
:10314000949FF0011124E85EF84F1B96FC93EE93D8
:103150001A9780818F5F8083E0913C07F0913D0753
:103160008689891708F056CF0E94C80553CF80E0A2
:1031700052CF8F929F92AF92BF92CF92DF92EF92F7
:10318000FF920F93CF93DF93DC0170E0E114F10421
:1031900081F0FB01EE0FFF1FEE0FFF1FE80FF91F7D
:1031A00081A092A0A3A0B4A0E70188829982AA82FC
:1031B000BB82FD01E60FF71F85A192E095A30230C7
:1031C000D1F190F4013019F1813009F448C081E067
:1031D000DF91CF910F91FF90EF90DF90CF90BF9054
:1031E000AF909F908F900895033029F0043061F7DD
:1031F000823009F4C5C0660F771F660F771FFD0187
:10320000E60FF71F21A332A343A354A3DDCF660F1C
:10321000771F660F771FFD01E60FF71F81A092A0B1
:10322000A3A0B4A0822A932AA42AB52A81A292A29A
:10323000A3A2B4A2C9CF660F771F660F771FFD0147
:10324000E60FF71F41A152A163A174A14F5F5F4F29
:103250006F4F7F4F41A352A363A374A3B5CF809157
:10326000E00681116BC01A96ED91FC911B971496A4
:103270008D919C91159716962D913C911797EC0185
:103280003D832C831696CD91DC9117979B838A837F
:103290009D012E5F3F4F818192818217930711F428
:1032A000D283C1831B961C921E921A9780818150F3
:1032B00080835696CC9156978091EB068C1710F42C
:1032C000C093EB0689E08C9FE0011124C85ED84FC3
:1032D0000980DA81C02D1596DC93CE9314974C812A
:1032E0005D8117965C934E931697EC81FD81338335
:1032F00022833D832C835696EC915697E89FF001EC
:103300001124E85EF84F1B96FC93EE931A97808188
:103310008F5F8083E0913C07F0913D0756969C912A
:103320008689891708F053CFC114D10419F081E0C0
:10333000F601808381E08093E7064ACFE091FA06A8
:10334000F091FB061F96FC93EE931E978481958166
:1033500051969C938E935097C481D581CD010C9644
:103360009B838A839583848389EF96E055969C930B
:103370008E9354978091F9068F5F8093F906CACF98
:1033800080E026CF0F931F93CF93DF93FC01A62FEE
:10339000B0E0EC01CA0FDB1F8DA192E09DA3AA0F44
:1033A000BB1FAA0FBB1FAE0FBF1F91960D911D91A2
:1033B0002D913C9194970F5F1F4F2F4F3F4F919648
:1033C0000D931D932D933C939497813009F05EC02B
:1033D0008091E00681115FC0A285B38584819581CB
:1033E00026813781EC013D832C83C681D7819B8365
:1033F0008A83CF01029611962D913C91129728173E
:10340000390721F41296DC93CE9311971386128616
:103410002C9121502C93C6892091EB062C1710F487
:10342000C093EB0629E02C9FE0011124C85ED84F21
:103430000980DA81C02DD583C4836C817D81778337
:103440006683AC81BD8113969C938E9312979D8366
:103450008C83A689A29FD0011124A85EB84FB387A0
:10346000A2878C918F5F8C93A0913C07B0913D0710
:10347000968956968C91891748F44115510519F093
:1034800081E0FA01808381E08093E706DF91CF91AC
:103490001F910F910895A091FA06B091FB06B7878E
:1034A000A68714968D919C911597918B808B14967D
:1034B000CD91DC911597CF010C969B838A8315964D
:1034C0009C938E93149789EF96E0958B848B8091D3
:1034D000F9068F5F8093F906C7CF009721F480919A
:1034E0003C0790913D070FB6F8940F92FC01E60F50
:1034F000F11D85A1823029F415A281E00F900FBE45
:10350000089580E0FBCFCF92DF92EF92FF92009779
:1035100021F480913C0790913D070FB6F8940F92EB
:1035200074E0679FF0011124E80FF91F61A172A1F7
:1035300083A194A1C1A0D2A0E3A0F4A020953095CE
:1035400040955095C222D322E422F522C1A2D2A2F4
:10355000E3A2F4A20F900FBEFF90EF90DF90CF9008
:10356000089510923D0710923C071092EF061092BA
:10357000EE061092ED061092EC061092EB061092F9
:10358000EA061092E9061092E8061092E7061092F9
:10359000E6061092E5061092E4061092E3061092F9
:1035A000E0060895FFCFFFCFFFCFFFCFFFCF0E94F0
:1035B0009B0086E690E00E94B90080EC0E944900E2
:1035C00086E790E00E94B90082E4E82E87E0F82EBA
:1035D00003E030E020E040E862E870E082ED9AE14C
:1035E0000E94551096E4E92E97E0F92E30E020E095
:1035F00040E860E970E083ED9AE10E9455102EE307
:10360000E22E27E0F22E02E030E020E040E86CE914
:1036100070E084ED9AE10E94551030E4E32E37E02B
:10362000F32E30E020E040E86BEA70E085ED9AE1AF
:103630000E94551044E4E42E47E0F42E04E030E00C
:1036400020E040E867EB70E086ED9AE10E945510BB
:103650000E94CF11FFCFFB01DC0102C001900D924F
:0C36600041505040D8F70895F894FFCF77
:10366C000349444C4500456C656374726F6E696325
:10367C0057494E47530048656C6C6F20576F726CFE
:10368C0064004368617267696E6753746172740099
:10369C0053746F7053657373696F6E004469737004
:1036AC006C61795265667265736800557365724317
:1036BC006F6D6D616E64004661756C744465746504
:0636CC006374696F6E00DB
:00000001FF
