:100000000C94D4000C9488020C94C7020C94F10058
:100010000C94F1000C94F1000C94F1000C94450E3A
:100020000C94F1000C94F1000C94F1000C94F1008C
:100030000C94F1000C94F1000C94F1000C94F1007C
:100040000C94F1000C94F1000C94F1000C94F1006C
:100050000C94F10008000000BE922449123EABAAA5
:10006000AA2ABECDCCCC4C3E00000080BEABAAAAD2
:10007000AA3E00000000BF000000803F000000001A
:1000800000084178D3BB4387D1133D190E3CC3BD53
:100090004282AD2B3E68EC8276BED98FE1A93E4C00
:1000A00080EFFFBE01C4FF7F3F0000000000004062
:1000B0007A10F35A00A0724E18090010A5D4E80077
:1000C00000E87648170000E40B54020000CA9A3B8F
:1000D000000000E1F5050000809698000000404215
:1000E0000F000000A08601000000102700000000A3
:1000F000E803000000006400000000000A000000A7
:1001000000000100000000002C76D888DC674F0852
:1001100023DFC1DFAE59E1B1B796E5E3E453C63A58
:10012000E651997696E8E6C28426EB898C9B62EDCF
:10013000407C6FFCEFBC9C9F40F2BAA56FA5F49089
:10014000055A2AF75C936B6CF9676DC11BFCE0E400
:100150000D47FEF520E6B500D0ED902E0300943556
:1001600077050080841E080000204E0A000000C8A9
:100170000C333333330F986E12831141EF8D2114FA
:10018000893BE65516CFFEE6DB18D1844B381BF7CA
:100190007C1D901DA4BBE424203284725E22810069
:1001A000C9F124ECA1E53D2711241FBECFE5D8E01D
:1001B000DEBFCDBF11E0A0E6B0E0EEE5F6E502C09F
:1001C00005900D92A434B107D9F728E0A4E4B1E07A
:1001D00001C01D92A031B207E1F70E94B0250C9436
:1001E0002D2B0C940000CF93DF93CDB7DEB72A9769
:1001F0000FB6F894DEBF0FBECDBF0E94161A9A87C5
:10020000898700E48E9A82B3802782BB0E942C08E3
:100210008BE890E00E9409086AE070E08091F8079E
:100220009091F9070E94F110813069F41091460114
:1002300020E050E040E070E060E08091F8079091AD
:10024000F9070E94670F123031F168F41123F1F0C1
:1002500087E990E01130E1F064E670E0CE010996A4
:100260000E94F91BCFCF1330B1F11430A9F781EB05
:1002700090E00E94090880EC0E9455078091470198
:10028000882309F444C087EB90E002C082E990E043
:100290000E940908E1CF8DE990E00E94090880ECF6
:1002A0000E9455078BE291E00E94090880915A0153
:1002B00090915B01A0915C01B0915D018D839E8363
:1002C000AF83B8876D817E818F8198850E943808C1
:1002D00084EA90E0DDCF87EA90E00E94090880EC94
:1002E0000E9455078BE291E00E94090880915A0113
:1002F00090915B01A0915C01B0915D0189839A832B
:10030000AB83BC8369817A818B819C81DFCF8091B3
:100310004801882309F4A0CF84EC90E0B9CF4FEFD7
:100320005FEF61E080E00E94DB1EC091460182E049
:100330000E948204909345018093440181E00E94D1
:1003400082048091440190914501843823E0920712
:1003500038F581E08093490180914601811101C007
:10036000C1E06FEF7FEF8091F8079091F9070E944D
:10037000F110813081F4809146018C13C0934601C5
:1003800020E050E040E070E060E08091F80790915C
:10039000F9070E94670F88EC90E00E942B1CC5CFE4
:1003A00084389340F1F210924901809146018230E5
:1003B00029F481E080934801C4E0D3CF80914601C5
:1003C000843079F2C0E0CDCFC4E04FEF5FEF61E061
:1003D00080E00E94DB1E81E0809347016FEF7FEF9A
:1003E0008091F8079091F9070E94F110813069F42B
:1003F000C093460120E050E040E070E060E0809172
:10040000F8079091F9070E94670F88EE93E00E9429
:100410002B1CDBCFCF93DF931F92CDB7DEB712E05B
:100420004FEF5FEFBE016F5F7F4F8091FA079091B2
:10043000FB070E946010882399F38981813081F73E
:10044000809146018430E1F41092470110924801F6
:100450006FEF7FEF8091F8079091F9070E94F110FC
:100460008130F1F61092460120E050E040E070E06B
:1004700060E08091F8079091F9070E94670FD0CF54
:1004800080914601813021F080914601833041F610
:100490000E9416066FEF7FEF8091F8079091F907A1
:1004A0000E94F110813009F0BBCF10934601DCCFE0
:1004B000CF93DF931F92CDB7DEB713E04FEF5FEF1F
:1004C000BE016F5F7F4F8091FA079091FB070E94FA
:1004D0006010882399F38981823081F70E941B067E
:1004E0006FEF7FEF8091F8079091F9070E94F1106C
:1004F000813021F71093460120E050E040E070E0A9
:1005000060E08091F8079091F9070E94670FD6CFBD
:100510001F920F920FB60F9211242F933F934F9378
:100520005F936F937F938F939F93AF93BF93EF935B
:10053000FF93CF93DF9300D0CDB7DEB71A8281E06F
:10054000898320E0AE014E5F5F4FBE016F5F7F4F3A
:100550008091FA079091FB070E94FC0F8A8181111C
:100560000E94900D0F900F90DF91CF91FF91EF912E
:10057000BF91AF919F918F917F916F915F914F91BB
:100580003F912F910F900FBE0F901F9018951F92C3
:100590000F920FB60F9211242F933F934F935F93B7
:1005A0006F937F938F939F93AF93BF93EF93FF933B
:1005B000CF93DF9300D0CDB7DEB71A8282E0898374
:1005C00020E0AE014E5F5F4FBE016F5F7F4F8091B5
:1005D000FA079091FB070E94FC0F8A8181110E940B
:1005E000900D0F900F90DF91CF91FF91EF91BF9100
:1005F000AF919F918F917F916F915F914F913F91BB
:100600002F910F900FBE0F901F9018954FEF5FEF37
:1006100061E080E00E94DB1EAF9A80ED97E00E94CF
:100620002B1CAF98F3CFEF92FF920F930E94E3073A
:1006300043E060E081E00E943B0F9093F9078093D4
:10064000F80720E050E040E070E060E00E94670FB3
:1006500040E061E085E00E943B0F9093FB078093B0
:10066000FA078CE0E82E88E0F82E04E030E020E085
:1006700040E866ED70E083EF90E00E943918F12CBD
:10068000E12C02E030E020E040E865EE70E08AE036
:1006900092E00E94391830E020E040E863EF70E01B
:1006A00088E592E00E94391896EFE92E97E0F92E3E
:1006B00030E020E040E86FEF70E08FE891E00E94CA
:1006C000391820E0E22E28E0F22E04E030E020E0AD
:1006D00040E86CE071E084EE91E00E9439180F91DF
:1006E000FF90EF900C94B319E0914A01F0914B0107
:1006F000309709F0099408950F931F9304E713E0CE
:1007000030E020E041E064E170E08DE191E00E94A2
:10071000CF2490934D0180934C011F910F91089528
:100720000F931F9380914C0190914D01892B71F093
:100730000E94161A10E000E030E020E0AC0161E019
:1007400080914C0190914D010E9406251F910F91BF
:1007500008950F931F9380914C0190914D01009744
:1007600049F010E000E030E020E050E040E063E0DD
:100770000E9406251F910F910895009721F09093F4
:100780004B0180934A0108959B01AC01C901BA0154
:100790000895DC01ED91FC9160830895DC011296CF
:1007A000ED91FC9160830895DC011296ED91FC912E
:1007B00080810895DC011296ED91FC91808121E009
:1007C00030E001C0220F6A95EAF7822B80830895FA
:1007D000DC011296ED91FC91208181E090E001C056
:1007E000880F6A95EAF78095822380830895DC015B
:1007F0001296ED91FC91208181E090E0062E02C0DE
:10080000880F991F0A94E2F730E08223932302C0F5
:10081000959587956A95E2F708950F931F93CF9367
:10082000DF93C0E6D0E001E010E0E881F9810190BB
:10083000F081E02D8B818130D1F48A81980102C052
:10084000220F331F8A95E2F720832C816A818881E9
:100850009981213071F40E94DA03259630E0CE3779
:10086000D30719F7DF91CF911F910F91089510824F
:10087000ECCF0E94E803F1CF96B1987F96B9803112
:10088000C1F040F4843079F0883079F08230C9F4D6
:10089000309A0895803479F0803881F0803289F47C
:1008A00086B1856004C0319A089586B1836086B9A7
:1008B0000895329A089586B18660F9CF86B187602F
:1008C000F6CF86B1887FF3CF97B19F7397B93E9AE1
:1008D000811104C087B18F7387B90895813011F4F5
:1008E0003E9A08958330E1F787B1806CF5CFCF93BE
:1008F000C62F379A0E943C048C2F0E9464043D98B6
:10090000CF91089597B1907E97B9883030F5E82F50
:10091000F0E0E357FB4F0C949228AD0495049C043F
:100920009E04A204A404A704AA04389A369A349B0D
:10093000FECF84B195B10895399AF8CF87B183601D
:1009400087B9F4CF3A9AF2CF87B18560F9CF87B1F2
:100950008660F6CF87B18760F3CF87B1807EF0CF16
:10096000CF93DF93CDB7DEB72C970FB6F894DEBFE9
:100970000FBECDBFBC0190E080E00E94A826698731
:100980007A878B879C8720E030EC4FE754E46985B9
:100990007A858B859C850E9436266D837E838F8326
:1009A000988720E030E040EA50E46D817E818F81BD
:1009B00098850E94AF2769837A838B839C836981A2
:1009C0007A818B819C812C960FB6F894DEBF0FBE86
:1009D000CDBFDF91CF91089520914E0130914F010D
:1009E0002530310584F4009771F0A9014F5F5F4F06
:1009F00050934F0140934E01220F331FF901E05BEA
:100A0000FE4F9183808308950F931F93CF93DF93BD
:100A100000E511E0D0E0C0E080914E0190914F01DF
:100A2000C817D9072CF0DF91CF911F910F9108952E
:100A3000D801ED91FD918D01309709F0099521962E
:100A4000EBCF20914E0130914F01E0E5F1E050E015
:100A500040E0421753070CF00895619171916817B7
:100A60007907E9F4FA01EE0FFF1FE05BFE4FC901C1
:100A700001974817590764F090934F0180934E01F6
:100A8000880F991FFC01E05BFE4F118210820895D0
:100A90004F5F5F4F2281338121933193EACF4F5FC4
:100AA0005F4FD7CF80916001909161010196909343
:100AB0006101809360010895CF92DF92EF92FF92DF
:100AC0000F93CF93DF93CDB7DEB72C970FB6F89483
:100AD000DEBF0FBECDBF80E895E20E9463080E9492
:100AE0005205209160013091610180915E019091E9
:100AF0005F012817390709F076C010926101109242
:100B0000600180E00E9482040E94B00469877A87B5
:100B10008B879C8769857A858B859C850E943106A9
:100B20006D837E838F8398878D819E81AF81B88509
:100B300080935A0190935B01A0935C01B0935D0197
:100B400082E00E9482046C0181E00E9482044A9744
:100B500068F0F12CE12C02E020E030E0A90160E037
:100B600080910008909101080E94122084E8C81624
:100B700083E0D80688F48091490181110DC0F12CE1
:100B8000E12C02E020E030E0A90160E08091F6076E
:100B90009091F7070E94122084E291E00E94790868
:100BA00080915A0190915B01A0915C01B0915D012F
:100BB00089839A83AB83BC8369817A818B819C8191
:100BC0000E94850888E391E02C960FB6F894DEBF6A
:100BD0000FBECDBFDF91CF910F91FF90EF90DF90CF
:100BE000CF900C9479082C960FB6F894DEBF0FBE08
:100BF000CDBFDF91CF910F91FF90EF90DF90CF901D
:100C000008950E947C038CE595E00C94BD030C9440
:100C100090030C94A90324E130E040E050E00E94EE
:100C2000512830935F0120935E010895A198A998FF
:100C3000A09AA89A0895A898A098A19AA99A089508
:100C400081B3837F81BB82B38C6082BB85B78A60AE
:100C500085BF85B78A7F85BF8BB7806C8BBF789443
:100C60000895CF93DF93CDB7DEB760970FB6F894B2
:100C7000DEBF0FBECDBF6D877E878F87988B2EEA34
:100C800037E441E25FE36D857E858F8598890E9418
:100C9000312687FD43C020E030E048E850E46D8510
:100CA0007E858F8598890E945A271816E4F12EEACE
:100CB00037E441E25FE36D857E858F8598890E94E8
:100CC000C42569877A878B879C8724E13EEA47E6BB
:100CD00050E469857A858B859C850E9436266D83D4
:100CE0007E838F83988720E030E048EC52E46D816A
:100CF0007E818F8198850E94AF2769837A838B8359
:100D00009C8369817A818B819C8160960FB6F8946F
:100D1000DEBF0FBECDBFDF91CF91089519821A8239
:100D20001B821C82EECF80E090E0A8ECB2E48983C5
:100D30009A83AB83BC83E5CFAF92BF92CF92DF9211
:100D4000EF92FF920F931F93CF93DF93CDB7DEB750
:100D5000AC970FB6F894DEBF0FBECDBF6D8F7E8F00
:100D60008F8F98A329A33AA34BA35CA3EDA2FEA265
:100D70000FA318A7A9A6BAA6CBA6DCA629A13AA1BB
:100D80004BA15CA16D8D7E8D8F8D98A10E945A27FD
:100D900087FF86C020E030E0A9016DA17EA18FA170
:100DA00098A50E94312618160CF07AC020E030E099
:100DB000A90169A57AA58BA59CA50E9431261816C4
:100DC0000CF06EC02DA13EA14FA158A560E070E0CF
:100DD00088E890E40E94362669837A838B839C831B
:100DE00089819A81AB81BC81B058898F9A8FAB8FF2
:100DF000BC8F29A53AA54BA55CA5698D7A8D8B8DF5
:100E00009C8D0E94AF276D8B7E8B8F8B988F20E0FF
:100E100030E048E850E469A17AA18BA19CA10E942E
:100E20003626698B7A8B8B8B9C8B29893A894B89E7
:100E30005C8960E070E080E89FE30E94C4256D87D4
:100E40007E878F87988B6D857E858F8598890E9498
:100E5000672769877A878B879C8729853A854B85A1
:100E60005C856D897E898F89988D0E94AF276D83FF
:100E70007E838F8398876D817E818F819885AC96E4
:100E80000FB6F894DEBF0FBECDBFDF91CF911F919B
:100E90000F91FF90EF90DF90CF90BF90AF900895AB
:100EA0001D821E821F821886E6CFCF93C82F86E848
:100EB00090E00E94D4038F706C2F607F682B86E8CF
:100EC00090E00E94CE0360E082E890E00E94E80398
:100ED00061E082E890E00E94DA038FEC97E00197EE
:100EE000F1F700C0000061E082E890E00E94E803B2
:100EF00086E890E00E94D4038F7090E1C99FB00112
:100F00001124682B86E890E00E94CE0361E082E81D
:100F100090E00E94DA038FEC97E00197F1F700C0B0
:100F2000000061E082E890E00E94E8038FE99FE022
:100F30000197F1F700C00000CF910895CF93C82F1B
:100F400086E890E00E94D4038F706C2F607F682B3E
:100F500086E890E00E94CE0360E082E890E00E9484
:100F6000DA0361E082E890E00E94DA0382E08A9589
:100F7000F1F700C061E082E890E00E94E80386E8B3
:100F800090E00E94D4038F7090E1C99FB0011124BA
:100F9000682B86E890E00E94CE0361E082E890E052
:100FA0000E94DA0382E08A95F1F700C061E082E8EE
:100FB00090E00E94E8038FE99FE00197F1F700C0FD
:100FC0000000CF91089560EF86E890E00E94C90389
:100FD00063E082E890E00E94C9038FE39CE90197F7
:100FE000F1F700C0000082E00E94550788E20E94ED
:100FF00055078CE00E94550786E00E94550781E066
:101000000E9455078FE99FE00197F1F700C00000AB
:101010000895CF93DF93EC018991811103C0DF9193
:10102000CF9108950E949E07F7CFCF93DF93EA01F7
:10103000811109C0862F8068603158F0CE01DF91A0
:10104000CF910C9409088130C9F76031B8F7862F29
:10105000806C0E945507F2CF81E00E9455078FE90E
:101060009FE00197F1F700C0000080E80C9455075D
:101070000F931F93CF93DF93CDB7DEB72E970FB6A5
:10108000F894DEBF0FBECDBF6B877C878D879E87B0
:101090006B857C858D859E858E010F5F1F4F22E0BD
:1010A00030E044E050E00E949828C8010E940908FE
:1010B0002E960FB6F894DEBF0FBECDBFDF91CF9155
:1010C0001F910F9108959C0150E040E060E271EAA9
:1010D00087E090E00E9473282150310930BD29B982
:1010E00088E08AB986E880BD08955D9BFECF8CB903
:1010F0000895CF93DF93EC018991811103C0DF91B3
:10110000CF9108950E947508F7CF0F931F93CF9347
:10111000DF93CDB7DEB764970FB6F894DEBF0FBE8E
:10112000CDBF698B7A8B8B8B9C8B69897A898B89F4
:101130009C898E010F5F1F4F22E030E046E050E0B7
:101140000E949828C8010E94790864960FB6F89406
:10115000DEBF0FBECDBFDF91CF911F910F910895DC
:10116000CF92DF92EF92FF921F93CF93DF936C01A8
:10117000162FF42E8AE190E00E94170CEC018FEFFD
:10118000209709F456C08091690190916A01892BDA
:1011900021F5D0936A01C09369018AE891E00E9429
:1011A000630C83E991E00E94630C81E891E00E9466
:1011B000630C88E791E00E94630C8BE691E00E944B
:1011C000630C81E891E0909377018093760188E742
:1011D00091E09093750180937401111111E0198EC3
:1011E000188E1E8BFF8AFE01C192D1927F01CF0122
:1011F0000E94710CCE010C960E94710CD987C88791
:10120000DB8BCA8B82E090E0811B91099D878C87E4
:101210008E8990916801981710F480936801F9E025
:101220008F9FC0011124B70186579E4F0E94750CF5
:1012300081E0DF91CF911F91FF90EF90DF90CF90F1
:1012400008950F931F93CF93DF938B01C091660195
:10125000D0916701C80FD91F8091690190916A01EF
:1012600002960E94CB0C6091690170916A01FB01AA
:10127000D383C28380916601909167016E5F7F4F37
:10128000C817D907B0F480917401909175010E943C
:10129000950C0115110591F06091690170916A0139
:1012A000645F7F4FC801DF91CF911F910F910C9424
:1012B000950C8091760190917701E9CFDF91CF91E4
:1012C0001F910F910895FF920F931F93CF93DF9378
:1012D0008091760190917701892B09F444C099E0BF
:1012E000F92E80916B01811144C00E94161A209141
:1012F000640130916501821B930B9093630180938D
:10130000620189E0F82E20916201309163018091A1
:101310006601909167012115310509F04CC0909349
:1013200065018093640180916801282F30E099E085
:10133000929FF001939FF00D1124E657FE4F4081DC
:1013400041118DC0882369F08150282F30E0929F91
:10135000F001939FF00D1124E657FE4F90819111FB
:101360007EC080936801DF91CF911F910F91FF9014
:101370000895F894E0917001F0917101C681D781D0
:10138000CE010C960E94CB0C78948E010E5F1F4FFD
:10139000C8010E94CB0C8E8990916801981710F4B7
:1013A000809368018F9DC0011124B80186579E4F1C
:1013B0000E94750C96CF0196909367018093660109
:1013C000215031093093630120936201892B81F40C
:1013D000809176019091770120917401309175018F
:1013E0003093770120937601909375018093740177
:1013F000E0917601F09177012091660130916701CB
:101400008081882309F47FCF0580F681E02DC68195
:10141000D7818A819B812817390708F474CFF89403
:101420008E010E5F1F4FC8010E94CB0C8C899D89D5
:10143000892B21F0CE010C960E94CB0C78948E89DA
:1014400090916801981710F4809368018F9DC001F6
:101450001124B80186579E4F0E94750CC9CF809306
:10146000680149E0429FC001439F900D1124FC0197
:10147000E657FE4FA181B28112964D915C91528345
:10148000418383579E4F4817590721F485819681E0
:101490009283818389E0829FF001839FF00D112464
:1014A000E657FE4F0180F281E02D8681978190936F
:1014B0006A0180936901DC01ED91FC9111975796C7
:1014C0006C91DF91CF911F910F91FF9009940F9331
:1014D0001F93CF93DF93DC011596ED91FC91C681AC
:1014E000D7818E01045F1F4FC8010E94CB0CB80149
:1014F0008BE691E00E94750CE0916901F0916A0120
:1015000081E02E899689291708F480E0DF91CF9138
:101510001F910F9108951092770110927601109209
:1015200075011092740110926A0110926901109273
:101530006801109267011092660110926501109285
:10154000640110926301109262010895CF93DF93BA
:101550008BE090E00E94170CEC01009731F0FC0149
:1015600011921192CF010E94630CCE01DF91CF91B5
:101570000895AF92BF92CF92DF92EF92FF920F93B6
:101580001F93CF93DF936C017B01B42EA22E0E9498
:10159000101AF601C081D181CE018E219F21A110A8
:1015A00040C0892B09F041C00115110589F070E098
:1015B00060E0BB2011F060E071E0A11074606E2962
:1015C0007F29A801C60102960E94AD1CD0E0C0E0B0
:1015D0000E942C1B012BC9F0811102C00E94900DAA
:1015E0000E94C41E91FD0FC00FB6F8940F92F60131
:1015F00080819181970128233923A11023C0232BB7
:1016000021F50F900FBEEC01DD27CE01DF91CF91C8
:101610001F910F91FF90EF90DF90CF90BF90AF9010
:101620000895E816F90609F0BFCFBB2041F0C701C5
:10163000809590958C239D23F6019183808310E003
:1016400000E0C6CFE216F306E1F6BB20D1F2E0944B
:10165000F094E822F922F601F182E082D2CFFC0177
:101660000FB6F8940F9280819181609570956823F0
:101670007923718360830F900FBE0895FC018081F0
:1016800091810895CF92DF92EF92FF920F931F9373
:10169000CF93DF93EC018B017C0185E0E80EF11C18
:1016A0000E94101AEF81F88568817981602B712B77
:1016B0007983688310E000E068817981EE15FF0589
:1016C00099F40095109506231723198308830E9427
:1016D0002C1B88819981DF91CF911F910F91FF90F1
:1016E000EF90DF90CF900895C280D3802081318128
:1016F000C9019927AC014623572332FD04C0452B6D
:1017000029F4F601D9CF84179507D9F730FF02C025
:10171000082B192B7260CF010E94D51DF2CFAF921A
:10172000BF92CF92DF92EF92FF920F931F93CF93CE
:10173000DF937C01EB018A0169010E94101AF70115
:10174000A080B180BE01C7010E94420BCA29DB29DB
:10175000CE01802391238017910709F03BC0F70148
:1017600080819181980120953095822393239183E4
:101770008083D12CC12C0E942C1BCD28F9F0811123
:1017800002C00E94900D0E94C41E91FD15C00FB6AC
:10179000F8940F92F70180819181980128233923D1
:1017A0002017310739F4A801409550954823592353
:1017B000518340830F900FBEEC01DD27CE01DF91F6
:1017C000CF911F910F91FF90EF90DF90CF90BF903E
:1017D000AF900895C114D10451F0A601B80175600D
:1017E000C70102960E94AD1CD0E0C0E0C4CFF70153
:1017F000C081D181C0CFCF93DF93EC010E94101A3A
:101800008A81811107C00E942C1BCE01DF91CF91EC
:101810000C944F0C60E072E08F8198850E94D51D7A
:10182000EFCFBA010C94420BBA010C942F0B0F931B
:101830001F93CF93DF938C010E94101A80919C011B
:1018400090919D01892B31F480EA91E090939D0164
:1018500080939C0101151105F9F020919E013091B2
:101860009F01020F131F0B3D85E01807A8F42017F6
:10187000310790F4C0919C01D0919D01C20FD31FFC
:1018800010939F0100939E010E942C1BCE01DF91BB
:10189000CF911F910F910895D0E0C0E0F5CF08954A
:1018A00010929F0110929E01089520919E01309107
:1018B0009F018BED95E0821B930B089510929F0181
:1018C00010929E010895FC010396928381832FEF6D
:1018D0003FEF3483238396838583908787831082A9
:1018E0000895FC01118610860895CF93DF939C0123
:1018F000FB01DC011196CD91DC91D383C2838C81F5
:101900009D81958384838C819D81DC0113967C93DA
:101910006E9312977D836C8331872087F9018081D4
:101920008F5F8083DF91CF9108950F931F93CF93A3
:10193000DF938C01FB0180819181D80113968F3F49
:101940009807F1F4E801AF81B88512968D919C91CA
:10195000139793838283EC01FD83EC83B583A48387
:101960001396FC93EE93129711870087F8018081FC
:101970008F5F8083DF91CF911F910F910895D901DF
:1019800012962D913C911397E90148815981841752
:101990009507A8F7DACFCF93DF93FC01A085B18537
:1019A0008281938124813581EC013D832C83C48124
:1019B000D5819B838A8311968D919C9112978E1766
:1019C0009F0721F41296DC93CE931197118610860F
:1019D0008C9181508C93DF91CF91089531E1FC017E
:1019E0003083319722E220833197A3E3A08331979C
:1019F00060833197708331971082319760E86083FC
:101A000031971082319762E06083319763E06083A1
:101A1000319764E06083319765E06083319766E0D9
:101A20006083319767E06083319768E06083319726
:101A300069E06083319760E160833197308331974B
:101A400032E13083319733E13083319734E13083B1
:101A5000319735E13083319736E13083319737E183
:101A60003083319738E13083319739E130833197D2
:101A700030E23083319731E23083319720833197E0
:101A800023E220833197408331975083319726E2B8
:101A90002083319727E22083319728E220833197F2
:101AA00029E22083319720E32083319721E32083AB
:101AB000869708951BBC8CE78ABD8BE08EBD89B7E5
:101AC000806189BFA091D807B091D907CD91CDBFD2
:101AD000DD91DEBFFF91EF91DF91CF91BF91AF918B
:101AE0009F918F917F916F915F914F913F912F9136
:101AF0001F910F91FF90EF90DF90CF90BF90AF902C
:101B00009F908F907F906F905F904F903F902F901D
:101B10001F900F900FBE0F90089581E008950895D3
:101B20000F920FB6F8940F921F9211242F923F92AA
:101B30004F925F926F927F928F929F92AF92BF92DD
:101B4000CF92DF92EF92FF920F931F932F933F93C9
:101B50004F935F936F937F938F939F93AF93BF93B5
:101B6000CF93DF93EF93FF93A091D807B091D9075C
:101B70000DB60D920EB60D920E94571CA091D8077B
:101B8000B091D907CD91CDBFDD91DEBFFF91EF912F
:101B9000DF91CF91BF91AF919F918F917F916F9185
:101BA0005F914F913F912F911F910F91FF90EF9077
:101BB000DF90CF90BF90AF909F908F907F906F906D
:101BC0005F904F903F902F901F900F900FBE0F90FF
:101BD00008950F920FB6F8940F921F9211242F922E
:101BE0003F924F925F926F927F928F929F92AF92AD
:101BF000BF92CF92DF92EF92FF920F931F932F939A
:101C00003F934F935F936F937F938F939F93AF9384
:101C1000BF93CF93DF93EF93FF93A091D807B09139
:101C2000D9070DB60D920EB60D920E94301A811191
:101C30000E94571CA091D807B091D907CD91CDBF74
:101C4000DD91DEBFFF91EF91DF91CF91BF91AF9119
:101C50009F918F917F916F915F914F913F912F91C4
:101C60001F910F91FF90EF90DF90CF90BF90AF90BA
:101C70009F908F907F906F905F904F903F902F90AC
:101C80001F900F900FBE0F9008950E94E90D1895B8
:101C90000FB6F8940F92FC01928D0F900FBE81E069
:101CA000911180E008950F931F93CF93DF93EC0180
:101CB000042F1A8D4C8D4423C1F050E001111DC03A
:101CC0008A819B810E94B6288C8D2A813B81820F5C
:101CD000932F911D9B838A832C813D8182179307CB
:101CE00020F0888199819B838A831F5F1A8F80E00F
:101CF000DF91CF911F910F9108958E819F810E9456
:101D0000B6288C8D90E09195819591092E813F8127
:101D1000280F391F3F832E834881598124173507A7
:101D200030F42C813D81820F931F9F838E8302307C
:101D3000E1F61123D1F21150D8CFFC01CB01448D33
:101D40004423A1F050E026813781240F351F3783CB
:101D50002683648175812617370720F02081318121
:101D600037832683668177810C94B6280895EF9295
:101D7000FF921F93CF93DF93EC010FB6F8940F926D
:101D80001E8D7C0181E1E80EF11C1116C4F08FEF6D
:101D90008E8F0F900FBE0FB6F8940F921D8D7E019F
:101DA00088E0E80EF11C1116ACF08FEF8D8F0F90CC
:101DB0000FBEDF91CF911F91FF90EF900895898919
:101DC000882329F3C7010E94301D81110E94A31EA0
:101DD0001150DBCF8885882341F3C7010E94301D55
:101DE00081110E94A31E1150DECFCF93DF93009785
:101DF00009F43FC0FC01238D222309F43AC0EC0111
:101E0000448D0FB6F8940F9280819181FC01249F3C
:101E1000E00DF11D1124FD83EC831A8E9B838A83D0
:101E20002150330B429FF001439FF00D11248E0F80
:101E30009F1F9F838E838FEF8D8F8E8F611110C0B8
:101E40008885882339F0CE0108960E94301D8111C3
:101E50000E94900D0F900FBE81E0DF91CF91089509
:101E6000CE0108960E94630CCE0141960E94630C3D
:101E7000F1CF80E0F2CF0F931F93CF93DF938111C7
:101E800008C0D0E0C0E0CE01DF91CF911F910F914B
:101E90000895869F90011124213E310594F7162F55
:101EA000082FC9014F960E94170CEC01009749F3C7
:101EB000111109C0998388830B8F1C8F61E0CE01BB
:101EC0000E94F50EE0CF4F9699838883F5CFAF92AD
:101ED000BF92CF92DF92FF920F931F93CF93DF9326
:101EE00000D000D01F92CDB7DEB78C016B015D83AF
:101EF0004C83F22E80E0580198E0A90EB11C0FB679
:101F0000F8940F92F801228D938D291718F0F2E0C2
:101F1000FF1222C04F2DB601C8010E94530EF801D6
:101F20009189992321F0C80141960E94301D8111A9
:101F30000E94900D0F900FBE81E00F900F900F90B8
:101F40000F900F90DF91CF911F910F91FF90DF9035
:101F5000CF90BF90AF9008952C813D81232B21F429
:101F60000F900FBE80E0E9CF811104C0CE01019631
:101F70000E946C1E0F900FBE0E94101A0FB6F894AC
:101F80000F92F801858D8F3F09F4158EF801868D2B
:101F90008F3F09F4168E0F900FBEBE016C5F7F4F0E
:101FA000CE0101960E94771E811120C00FB6F894D1
:101FB0000F92F801928D0F900FBE838D981310C071
:101FC0006C817D81C5010E949D1CC8010E94B70ED5
:101FD0000E942C1B811102C00E94900D81E08FCFC6
:101FE000C8010E94B70E0E942C1BF8CFC8010E94A6
:101FF000B70E0E942C1BB6CFEF92FF921F93CF9388
:10200000DF93EC019A8D8B8D981718F080E02230C9
:10201000D1F47A011E8D8A8D422FCE010E94530E7B
:102020001F3FB9F48989811102C081E00CC0CE0143
:1020300041960E94301D8823C1F3E114F104A9F3F5
:1020400081E0F7018083DF91CF911F91FF90EF90A6
:1020500008950E94251A181740F71F5F1E8FE5CFBD
:10206000EF92FF921F93CF93DF93EC018A8D9B8DAC
:10207000891720F57B011E8D8F5F8A8F1F3FB9F472
:102080008989811102C081E00CC0CE0141960E9475
:10209000301D8823C1F3E114F104A9F381E0F701B5
:1020A0008083DF91CF911F91FF90EF9008950E9460
:1020B000251A181740F71F5F1E8FE5CF80E0F1CF7C
:1020C000AF92BF92CF92DF92FF920F931F93CF9365
:1020D000DF9300D000D01F92CDB7DEB78C016B012B
:1020E0005D834C8380E0580191E1A90EB11C0FB6CD
:1020F000F8940F92F801F28CFF2019F1B601C80193
:102100000E949D0EFA94F801F28E8085882339F0A2
:10211000C80108960E94301D81110E94900D0F90F9
:102120000FBE81E00F900F900F900F900F90DF91F6
:10213000CF911F910F91FF90DF90CF90BF90AF9004
:1021400008952C813D81232B21F40F900FBE80E058
:10215000E9CF811104C0CE0101960E946C1E0F9040
:102160000FBE0E94101A0FB6F8940F92F801858DD9
:102170008F3F09F4158EF801868D8F3F09F4168E76
:102180000F900FBEBE016C5F7F4FCE0101960E9483
:10219000771E81111BC0C8010E94480E882381F060
:1021A0006C817D81C5010E949D1CC8010E94B70EF3
:1021B0000E942C1B811102C00E94900D81E097CFDC
:1021C000C8010E94B70E0E942C1BF8CFC8010E94C4
:1021D000B70E0E942C1BC8010E94480E882371F381
:1021E000B6CFEF92FF920F931F93CF93DF9300D060
:1021F00000D01F92CDB7DEB78C017D836C8390E059
:10220000780181E1E80EF11C0FB6F8940F92F80105
:10221000828D8823D9F08150828F8085882339F080
:10222000C80108960E94301D81110E94900D0F90E8
:102230000FBE81E00F900F900F900F900F90DF91E5
:10224000CF911F910F91FF90EF9008952C813D81C8
:10225000232B21F40F900FBE80E0ECCF911104C02E
:10226000CE0101960E946C1E0F900FBE0E94101AA4
:102270000FB6F8940F92F801858D8F3F09F4158EF3
:10228000F801868D8F3F09F4168E0F900FBEBE01A8
:102290006C5F7F4FCE0101960E94771E81111BC09B
:1022A000C8010E94480E882381F06C817D81C7019E
:1022B0000E949D1CC8010E94B70E0E942C1B811118
:1022C00002C00E94900D91E09FCFC8010E94B70EFE
:1022D0000E942C1BF8CFC8010E94B70E0E942C1B35
:1022E000C8010E94480E882371F3B6CFCF92DF92C7
:1022F000EF92FF920F931F93CF93DF9300D000D004
:102300001F92CDB7DEB78C017B015D834C8380E0EB
:10231000680191E1C90ED11C0FB6F8940F92F80133
:10232000928D992321F1C680D780B701C8010E9400
:102330009D0EF801D782C6828189882339F0C801B1
:1023400041960E94301D81110E94900D0F900FBE8A
:1023500081E00F900F900F900F900F90DF91CF9131
:102360001F910F91FF90EF90DF90CF9008952C81F7
:102370003D81232B21F40F900FBE80E0EACF811125
:1023800004C0CE0101960E946C1E0F900FBE0E94E9
:10239000101A0FB6F8940F92F801858D8F3F09F44B
:1023A000158EF801868D8F3F09F4168E0F900FBEA3
:1023B000BE016C5F7F4FCE0101960E94771E811196
:1023C0001BC0C8010E94480E882381F06C817D816A
:1023D000C6010E949D1CC8010E94B70E0E942C1BC2
:1023E000811102C00E94900D81E096CFC8010E9429
:1023F000B70E0E942C1BF8CFC8010E94B70E0E9496
:102400002C1BC8010E94480E882371F3B6CFEF92AF
:10241000FF920F931F93CF93DF93FC01028D002354
:1024200041F17A01EC01158D0E949D0E01500A8F39
:102430001F3FC1F48885811102C081E00CC0CE012C
:1024400008960E94301D8823C1F3E114F104A9F31A
:1024500081E0F7018083DF91CF911F910F91FF9071
:10246000EF9008950E94251A181738F71F5F1D8FE7
:10247000E4CF80E0F0CF0F931F93CF93DF93FC0165
:10248000228D222369F0EC01068117810E949D0EA6
:102490001F830E8381E0DF91CF911F910F910895EB
:1024A00080E0F9CF0FB6F8940F92FC01828D0F9067
:1024B0000FBE08950FB6F8940F92FC01228D0F9075
:1024C0000FBE838D821B0895FC01828D08950C94AC
:1024D0004F0CFC01848D0895FC01838D0895FC014F
:1024E000928D81E0911180E00895FC01928D81E050
:1024F000238D291380E00895CF93DF93EC01F894A6
:102500000FB6F8940F928A8D9B8D0F900FBE891392
:1025100011C04115510559F0BE01685F7F4FCA01D6
:102520000E94210978948CEFDF91CF9108957894DF
:1025300080E0FACF7894F8948A8D891790F440E07F
:10254000CE010E94530E8989811103C081E07894E5
:10255000EBCFCE0141960E94670A8823B9F38BEF37
:10256000F6CF80E0F4CFCF93DF93EC01FB01F8943A
:102570008A8D811111C04115510559F0BE016F5E60
:102580007F4FCA010E94210978948CEFDF91CF918F
:102590000895789480E0FACF7894F8948A8D88230F
:1025A00039F14C8D50E02E813F81240F351F3F8340
:1025B0002E838C819D812817390720F0888199818D
:1025C0009F838E839A8D91509A8F6E817F81CF01E8
:1025D0000E94B6288885811103C081E07894D6CF07
:1025E000CE0108960E94670A8823B9F38BEFF6CFD5
:1025F00080E0F4CF1F93CF93DF93EC01142F9A8DDB
:102600008B8D981788F440E0CE010E94530E111173
:102610000BC08989882341F0CE0141960E94670A48
:1026200011E0811101C010E0812FDF91CF911F9146
:1026300008950F931F93CF93DF93EC018A8D882326
:1026400091F12C8D30E0AE81BF81A20FB31FBF830B
:10265000AE838C819D81A817B90720F0888199816C
:102660009F838E838A01CB014A8D41504A8F6E81B0
:102670007F81A9010E94B628F8018081882331F06A
:1026800081E0DF91CF911F910F9108958885882374
:10269000B9F3CE0108960E94670A882389F381E086
:1026A000F8018083EECF80E0ECCFCF93DF93EC0195
:1026B0000FB6F8940F928D8D8F3F09F41D8E8E8D7D
:1026C0008F3F09F41E8E0F900FBE8A8D811104C0BA
:1026D000CE0141960E94F11CCE01DF91CF910C9466
:1026E000B70EFC014481558122813381240F351FAF
:1026F00080819181B901681B790BCB016417750743
:1027000010F0841B950B0895AF92BF92CF92DF9289
:10271000EF92FF920F931F93CF93DF936C015B01B6
:102720007A01E901FC0104811581021B130B40179A
:10273000510708F48A01F60184859585A801B50141
:102740008C0F9D1F0E94B6280E151F0558F4A70177
:10275000401B510BB501600F711FF60184859585F3
:102760000E94B628CE018E0D9F1DF6012481358171
:102770008217930710F0821B930BDF91CF911F916B
:102780000F91FF90EF90DF90CF90BF90AF900895A2
:10279000AF92BF92CF92DF92EF92FF920F931F936F
:1027A000CF93DF9300D0CDB7DEB76C015B017A0128
:1027B000FC0182819381468540FF28C0FA82E9822C
:1027C0002017310740F19C0142E050E0BE016F5FED
:1027D0007F4FC6010E948413E114F10449F09C016B
:1027E000A701B501C6010E948413F6019383828379
:1027F000C7010F900F90DF91CF911F910F91FF9024
:10280000EF90DF90CF90BF90AF9008952E153F05C9
:1028100018F77901E1CFF12CE12CEACFAF92BF920A
:10282000CF92DF92EF92FF920F931F93CF93DF939C
:102830006C015B017A01E901FC0104811581021B35
:10284000130B4017510708F48A01F601648575855A
:102850006C0F7D1FA801C5010E94B6280E151F052B
:1028600058F4A701401B510BF60164857585C5011D
:10287000800F911F0E94B628CE018E0D9F1DF6017C
:10288000248135818217930710F0821B930BDF910F
:10289000CF911F910F91FF90EF90DF90CF90BF905D
:1028A000AF900895AF92BF92CF92DF92EF92FF92D6
:1028B0000F931F93CF93DF9300D0CDB7DEB77C018A
:1028C0005B016A018901FC0120813181868580FFDD
:1028D00012C042E050E0BE016F5F7F4FC7010E940F
:1028E0000E149C0189819A8102501109C816D906DB
:1028F000F8F4D12CC12CC016D10608F486010115BC
:10290000110541F0A801B501C7010E940E14F7019D
:1029100091838083C8010F900F90DF91CF911F9119
:102920000F91FF90EF90DF90CF90BF90AF90089500
:102930006C01E1CFEF92FF921F93CF93DF93EC01F5
:102940007B0111E0413021F010E0423009F414E045
:10295000E114F10419F4EE24E394F12CF0E0E0E04A
:10296000CF3E8FEFD807B8F4CE0141960E94170CE6
:10297000FC01892B81F08CE0DF011D928A95E9F73B
:10298000CF014096958784872196D583C483F782AB
:10299000E68216871786CF01DF91CF911F91FF90B6
:1029A000EF900895FC01268521FF0C944F0C20E147
:1029B00011922A95E9F70895FC010FB6F8940F9249
:1029C00080859185892BB1F482859385892B91F43B
:1029D00086819781248135814CE0DF011D924A95E3
:1029E000E9F73583248397838683178681E00F90E8
:1029F0000FBE089580E0FBCFFC0180859185892B77
:102A0000A1F482859385892B81F486819781248125
:102A100035814CE0DF011D924A95E9F73583248327
:102A200097838683178681E0089580E00895611575
:102A3000710511F461E070E0FC01248135816217B9
:102A4000730720F47783668381E0089580E008951A
:102A5000FC01248135818081918160817181428175
:102A60005381A081B181A817B907A9F7C9010197BE
:102A7000860F971F841B950B8217930710F0821BFC
:102A8000930B08950C9471132F923F924F925F9283
:102A90006F927F928F929F92AF92BF92CF92DF926E
:102AA000EF92FF920F931F93CF93DF9300D000D04C
:102AB0001F92CDB7DEB75C011B012A013D832C8339
:102AC000FC0184819581019726854A0120FF54C02D
:102AD000F2E08F0E911C8815990510F41D821C825E
:102AE0008C819D81892B09F04DC0C5010E9428155C
:102AF0003C0184019301A201B101C5010E94C813E8
:102B00004C01892B01F1C5010E947113F501268149
:102B1000378182179307B8F00E94101AF50180855B
:102B20009185892B71F080859185F12CE12C00E055
:102B300020E030E0A90167850E941220F50111868E
:102B400010860E942C1BC4010F900F900F900F90C5
:102B50000F90DF91CF911F910F91FF90EF90DF9039
:102B6000CF90BF90AF909F908F907F906F905F902D
:102B70004F903F902F9008958417950708F0B0CF9D
:102B80004C01AECFCE0101960E945C1E0FB6F894A8
:102B90000F92C5010E9428153C018815990558F52A
:102BA000F501678590E080E00E94A6220E94A71EA2
:102BB000F501938782870F900FBECC80DD80F12CCA
:102BC000E12C00E010E0980140E050E0BA01878578
:102BD0000E945C1FF50113861286BE016C5F7F4F59
:102BE000CE0101960E94771E882381F26114710440
:102BF00009F47BCF7ECF0F900FBEF8CFAF92BF927C
:102C0000CF92DF92EF92FF920F931F93CF93DF93B8
:102C1000EC015B017A0169018E858A0180FF02C0A7
:102C20000E5F1F4FCE010E9428159C01A701B50120
:102C3000CE010E94C8135C01892BC9F0CE010E940D
:102C400071132E813F818217930788F088859985BB
:102C5000892B69F088859985F12CE12C00E020E032
:102C600030E0A9016F850E94F22019861886C501FF
:102C7000DF91CF911F910F91FF90EF90DF90CF9058
:102C8000BF90AF9008956F927F928F929F92AF9274
:102C9000BF92CF92DF92EF92FF920F931F93CF9349
:102CA000DF93EC014B013A0169018E8580FD47C03D
:102CB000B12CA12C82FF02C0AE80BF80C114D10410
:102CC00029F10FB6F8940F92CE010E9471138C0176
:102CD000A816B90648F06F8590E080E00E94A62211
:102CE0000E94A71E998788870F900FBEA016B10675
:102CF00050F1F12CE12C00E010E0980140E050E0B0
:102D0000BA018F850E945C1F19861886CE010E9429
:102D100071138C01A816B906B0F0B12CA12CC50115
:102D2000DF91CF911F910F91FF90EF90DF90CF90A7
:102D3000BF90AF909F908F907F906F90089582E0AA
:102D4000A82EB12CBBCF9801A301B401CE010E94E3
:102D500052145C01892B09F30E94101A8A859B8505
:102D6000892B69F08A859B85F12CE12C00E020E01D
:102D700030E0A9016F850E9412201B861A860E94EE
:102D80002C1BCDCF0F931F93CF93DF9300D0CDB7E4
:102D9000DEB7FC01268520FD09C090E080E00F90A1
:102DA0000F90DF91CF911F910F9108958C010E9498
:102DB0007113039790F3F8012081318142E050E0D4
:102DC000BE016F5F7F4FC8010E940E1489819A81F6
:102DD000E6CFAF92BF92CF92DF92EF92FF920F9326
:102DE0001F93CF93DF93EC015B017A0169018E851C
:102DF00010E000E080FF02C002E010E0CE010E947F
:102E000071130817190770F0B12CA12CC501DF91BF
:102E1000CF911F910F91FF90EF90DF90CF90BF90D7
:102E2000AF9008959C01A701B501CE010E945214F4
:102E30005C01892B49F38A859B85892B39F38A8527
:102E40009B85F12CE12C00E020E030E0A9016F85AA
:102E50000E94F2201B861A86D9CFFC012081318185
:102E60004281538181E04217530709F080E00895C1
:102E7000CF93DF93FC012685D0E0C0E020FF02C0A5
:102E8000C2E0D0E00E94281521E0C817D90708F455
:102E900020E0822FDF91CF910895CF92DF92EF92C1
:102EA000FF920F93CF93DF93FC0120853185232B75
:102EB000C1F06B01EC0180859185F12CE12C00E0E3
:102EC00020E030E0A90167850E94F220198618866B
:102ED00081E0DF91CF910F91FF90EF90DF90CF9045
:102EE000089580E0F6CFCF92DF92EF92FF920F939A
:102EF000CF93DF93FC0122853385232BC1F06B0137
:102F0000EC0182859385F12CE12C00E020E030E09B
:102F1000A90167850E94F2201B861A8681E0DF9155
:102F2000CF910F91FF90EF90DF90CF90089580E0C8
:102F3000F6CFFC0187850895FC0167870895E0912D
:102F4000A007F091A1078081811107C08FEF9FEF4B
:102F50009093800780937F070895E091A007F091F8
:102F6000A1070580F681E02D80819181F1CFCF927C
:102F7000DF92EF92FF920F931F93CF93DF93EC01B9
:102F8000C0908807D09089070091A0071091A107F1
:102F9000E0909E07F0909F078091D8079091D90705
:102FA00002960E94CB0CCC0DDD1DE091D807F0916C
:102FB000D907D383C2836091D8077091D9076E5F18
:102FC0007F4FCC15DD0558F4C701DF91CF911F91DC
:102FD0000F91FF90EF90DF90CF900C94950CC8016B
:102FE0000E94950C80917F0790918007C817D907A0
:102FF00020F4D0938007C0937F07DF91CF911F917A
:103000000F91FF90EF90DF90CF900895CF93DF93D3
:1030100080918B07811103C0DF91CF9108950FB686
:10302000F8940F92E0919107F0919207C681D781B1
:10303000CE0102960E94CB0C80918A07815080932A
:103040008A0780918B07815080938B070F900FBE6A
:103050008F89988D0E944F0CCE010E944F0CD8CFC3
:103060000E9406188091B4078230D0F30E94900D20
:10307000F7CF4F925F926F927F928F929F92AF9213
:10308000BF92CF92DF92EF92FF920F93CF93DF9395
:103090004C015B012901C42ED12CC6010E94170CE2
:1030A0003C01892B09F4C9C086E290E00E94170C0C
:1030B000EC01892B09F4BEC086E2DE011D928A95DF
:1030C000E9F7788E6F8AB1E0CB1AD108C60CD71C0D
:1030D000A114B10409F0C2C0043008F003E00E8B63
:1030E0005E01B2E0AB0EB11CC5010E94710CCE01B5
:1030F0000C960E94710CD987C88784E090E0801BF1
:1031000091099D878C87DB8BCA8BA201B401C60114
:103110000E94EE0C99838883E114F10419F0F70101
:10312000D183C0830FB6F8940F9280918A078F5F86
:1031300080938A078091D8079091D907892B09F04D
:10314000A3C0D093D907C093D80780918A07813054
:1031500061F584EB97E00E94630C8DEB97E00E9491
:10316000630C86EC97E00E94630C8FEC97E00E9462
:10317000630C8BEA97E00E94630C82EA97E00E945E
:10318000630C85E997E00E94630C8CE897E00E944D
:10319000630C8BEA97E09093A1078093A00782EAE3
:1031A00097E090939F0780939E07809181078F5FA0
:1031B00080938107AE89809187078A1710F4A093C6
:1031C000870729E02A9FD0011124AC54B84F1196EB
:1031D0000D90BC91A02DBD83AC8314968D919C91D4
:1031E00015979F838E8314968D919C911597FC0162
:1031F000B382A2821596BC92AE9214979E89929F3A
:10320000F0011124EC54F84FFB87EA8780818F5F2F
:1032100080830F900FBE80918607882349F0E0914C
:10322000D807F091D9078689891710F40E94900D6C
:1032300081E004C0C3010E944F0C8FEFDF91CF915A
:103240000F91FF90EF90DF90CF90BF90AF909F9045
:103250008F907F906F905F904F900895F501AE0131
:10326000475E5F4FC50108962191DA012D93AD01AC
:103270009F0121503109D9012C91222319F0E8171F
:10328000F90791F718A228CF8091860781118DCF79
:10329000E091D807F091D9079E898689981708F49C
:1032A00084CFD093D907C093D8077FCF0F931F93B4
:1032B000CF93DF93EC010FB6F8940F92892B21F492
:1032C000C091D807D091D9078E010E5F1F4FC8015A
:1032D0000E94CB0C8C899D89892B21F0CE010C9604
:1032E0000E94CB0C809181078F5F80938107809132
:1032F000D8079091D90720918607222359F18C177E
:103300009D0741F5B8018CE897E00E94750C80910B
:103310008B078F5F80938B0781E00F900FBE81300A
:1033200039F08F89988D0E944F0CCE010E944F0C6E
:1033300080918607882349F08091D8079091D9071A
:103340008C179D0711F40E94900DDF91CF911F9172
:103350000F91089580918A07815080938A070E9477
:103360009F1780E0DACFEF92FF920F93CF93DF9316
:10337000CDB7DEB728970FB6F894DEBF0FBECDBF2E
:10338000A2E9B0E0FE0131962AE930E0BF018D915B
:103390008193882319F02A173B07C9F78DE7E82E98
:1033A00087E0F82E00E030E020E045E580E398E19A
:1033B0000E9439188823A9F0813099F40E94B02422
:1033C000813079F4F8942FEF3FEF3093800720930A
:1033D0007F078093860710928907109288070E94C2
:1033E0005A0D80918A0028960FB6F894DEBF0FBE62
:1033F000CDBFDF91CF910F91FF90EF9008950E9484
:1034000060250E94561980917D0790917E070E9449
:1034100056190E940618F894109286070C948F0D86
:1034200080917C078F5F80937C0708950FB6F89496
:103430000F9280918807909189070F900FBE089591
:103440008091880790918907089580918A0708954F
:10345000009721F48091D8079091D9074996089553
:10346000CF92DF92EF92FF920F931F93CF93DF9350
:1034700080917C078111E5C0C0918807D0918907B0
:103480006E018FEFC81AD80AD0928907C0928807B8
:10349000C114D104B9F48091A0079091A1072091A3
:1034A0009E0730919F073093A1072093A007909328
:1034B0009F0780939E07809182078F5F809382078A
:1034C0000E949F1780917F0790918007C816D906A8
:1034D000E8F480E0E091D807F091D907E689D9E0D7
:1034E000ED9FF0011124EC54F84F9081923008F0D8
:1034F00081E090918307911181E0DF91CF911F913D
:103500000F91FF90EF90DF90CF90089580E069E0F9
:10351000E091A007F091A1079081911107C02FEFD2
:103520003FEF3093800720937F07D4CFE091A0072F
:10353000F091A1070580F681E02D0680F781E02D4E
:1035400022813381C216D30660F3C285D3852481DC
:10355000358146815781D90115965C934E93149716
:1035600046815781DA0113963C932E9312979F015F
:103570002E5F3F4F09811A810217130711F45A83F6
:10358000498313861286988191509883A489B589BE
:103590001097F9F04685578500891189EA011D8346
:1035A0000C8300891189E8015B834A831196ED90B1
:1035B000FC901297AF01445F5F4FE416F50621F4CB
:1035C00012961C930E931197158A148A9C91915010
:1035D0009C93A689909187079A1710F4A093870768
:1035E0006A9FD0011124AC54B84F11960D90BC9134
:1035F000A02DB583A48314964D915C9115975783A4
:10360000468314964D915C911597EA013B832A837A
:1036100015963C932E9314972689269FD00111244A
:10362000AC54B84FB387A2879C919F5F9C93E09165
:10363000D807F091D9079689921708F069CF81E0F1
:1036400067CF8091840790918507019690938507B5
:103650008093840780E051CFEF92FF920F931F93E6
:10366000CF93DF930FB6F8940F9280917C0781502F
:1036700080937C0780917C07882351F080E00F9035
:103680000FBEDF91CF911F910F91FF90EF900895A2
:1036900080918A07882391F3E0909A07F0909B0726
:1036A000F0E0E0E039E041E080919507811122C02F
:1036B000EF2B11F00E949F17C0918407D0918507CE
:1036C000209761F011E00E94301A81111093830756
:1036D0002197C9F71092850710928407809183077C
:1036E000882361F28091D8079091D9070E94900DAC
:1036F00081E0C5CFD7011696ED91FC91A489B589DB
:103700006685778580899189EB019D838C8380898B
:103710009189EC017B836A83BF01645F7F4F1196BF
:103720000D911C9112970617170721F412969C937E
:103730008E931197158A148A8C9181508C93A2854F
:10374000B3858481958166817781EC017D836C836B
:1037500066817781EB019B838A83CF010296119664
:103760000D911C9112970817190721F412967C935A
:103770006E931197138612862C9121502C93A68953
:10378000209187072A1710F4A09387073A9FD0014A
:103790001124AC54B84F11960D90BC91A02DB58357
:1037A000A48314966D917C91159777836683149604
:1037B0006D917C911597EB019B838A8315969C9361
:1037C0008E9314979689939FD0011124AC54B84FCF
:1037D000B387A2878C918F5F8C93A091D807B0910B
:1037E000D90756968C91891708F05ECF40938307CE
:1037F0005BCF0F931F93CF93DF93EC018B010E945C
:10380000101A209188073091890748815981CA018F
:10381000800F911F998388832417350780F48417BC
:10382000950780F0C0E00E942C1B811102C00E940D
:10383000900D8C2FDF91CF911F910F9108958417D8
:10384000950718F02817390768F7821B930B0E9419
:10385000B717C1E0E8CFCF93DF93EC01892B29F4B0
:103860000E94900DDF91CF9108950E94101ACE0111
:103870000E94B7170E942C1B882391F3F3CFCF939C
:10388000DF93EC010E94101A0FB6F8940F9280910A
:103890008407909185078C0F9D1F909385078093D7
:1038A00084070F900FBEDF91CF910C942C1B809159
:1038B0007C07882321F081E080938307089510928C
:1038C00083072091870789E0422F50E0849FF00111
:1038D000859FF00D1124EC54F84F9081992359F1F4
:1038E000A181B28112966D917C9172836183289F30
:1038F000C00111248954984F6817790721F48581F4
:1039000096819283818389E0849FF001859FF00DE9
:103910001124EC54F84F0180F281E02D86819781CB
:103920009093D9078093D807209387078091D80771
:103930009091D90708952150C7CFCF93DF93EB0122
:103940006091D8077091D907645F7F4F0E94950CF2
:10395000CE01DF91CF910C94B717CF93DF93FC0189
:10396000A091D807B091D90770681D967C936E938B
:103970001C97A181B281C091D807D091D907BF8788
:10398000AE87C091D807D091D90714968D919C919C
:103990001597998B888B2091D8073091D907149669
:1039A000CD91DC911597245F3F4F3B832A83209173
:1039B000D8073091D907245F3F4F15963C932E933B
:1039C0001497A091D807B091D9075596FC93EE9320
:1039D000549790819F5F9083CA01DF91CF910C949F
:1039E000B717CF93DF93FC01A181B281C091D807B3
:1039F000D091D907BF87AE87C091D807D091D9079A
:103A000014968D919C911597998B888B2091D8074E
:103A10003091D9071496CD91DC911597245F3F4FD3
:103A20003B832A832091D8073091D907245F3F4FE9
:103A300015963C932E931497A091D807B091D9076F
:103A40005596FC93EE93549790819F5F9083442307
:103A500011F06FEF7FEFCB01DF91CF910C94B7178F
:103A6000CF93DF93DC011596ED91FC910680F781F1
:103A7000E02DA489B5898685978520893189EC0157
:103A80003D832C83C089D1899B838A83CF010C9687
:103A900011962D913C9112972817390721F412960F
:103AA000DC93CE931197158A148A2C9121502C9374
:103AB00020917C07211157C0A285B385848195810F
:103AC00026813781EC013D832C83C681D7819B837E
:103AD0008A83CF01029611962D913C911297281757
:103AE000390721F41296DC93CE9311971386128630
:103AF0002C9121502C93C689209187072C1710F404
:103B0000C093870729E02C9FE0011124CC54D84FA3
:103B10000980DA81C02DD583C4834C815D815783B0
:103B20004683AC81BD8113969C938E9312979D839F
:103B30008C83A689A29FD0011124AC54B84FB387BF
:103B4000A2878C918F5F8C93A091D807B091D907F1
:103B5000968956968C91891730F581E0809383077A
:103B6000DF91CF910895A0919607B0919707B787FD
:103B7000A68714962D913C911597318B208B149626
:103B8000CD91DC9115979B838A8315969C938E9398
:103B9000149785E997E0958B848B809195078F5FCB
:103BA00080939507D1CF80E0DBCFCF93DF93DC010B
:103BB000706811967C936E931696ED91FC91179711
:103BC00018964D915C91199712962D913C911397EF
:103BD00014968D919C911597E9019D838C83149681
:103BE0008D919C911597EC013B832A83EA012981F1
:103BF0003A812A173B0711F49A83898319961C92FC
:103C00001E921897DA018C9181508C93A285B3850E
:103C10008481958126813781EC013D832C83C68187
:103C2000D7819B838A83CF01029611962D913C9177
:103C300012972817390721F41296DC93CE93119727
:103C4000138612862C9121502C93C68920918707C8
:103C50002C1710F4C093870749E04C9FE001112412
:103C6000CC54D84F0980DA81C02DD583C4832C81F0
:103C70003D81378326832C813D81D90113969C9306
:103C80008E9312979D838C839689949FD0011124E3
:103C9000AC54B84FB387A2878C918F5F8C93E0911F
:103CA000D807F091D9078689891718F481E08093A5
:103CB0008307DF91CF9108950FB6F8940F9220916A
:103CC0008207FC0120832091880730918907328385
:103CD00021830F900FBE089520918207FC0120835D
:103CE00020918807309189073283218308950FB688
:103CF000F8940F922091880730918907DC01119682
:103D00004D915C911297E0918207FC91FE1751F062
:103D10002417350738F0FB011182108281E00F90E3
:103D20000FBE0895241B350BDB014D915C912417C8
:103D3000350788F7421B530BFB01518340830E94D8
:103D40006C1E80E0ECCF81E0809383070895809122
:103D5000D8079091D9070895811105C08091D8079F
:103D60009091D907089590E080E0089580918607AA
:103D7000882331F080917C07882321F080E008952A
:103D800081E0089582E00895E091D807F091D90785
:103D900084859585A091D807B091D907E091D8077F
:103DA000F091D90756964C9124E030E0241B31095C
:103DB000358724870895CF92DF92EF92FF920F9379
:103DC0001F93CF93DF93C82FE62E6A010E94101A2B
:103DD0000FB6F8940F92E091D807F091D907D0E090
:103DE0008E01000F111F000F111FE00FF11F81A1A5
:103DF00092A1A3A1B4A1892B8A2B8B2B69F4E0910A
:103E0000D807F091D907EC0FFD1F81E085A3FF24AF
:103E1000F394C114D10409F4F12C0F900FBE21E0EA
:103E2000F21203C0C6010E94B7170E942C1B91E03A
:103E3000F91204C0811102C00E94900D0FB6F894CF
:103E40000F92E091D807F091D907E00FF11F61A11F
:103E500072A183A194A1611571058105910569F095
:103E60002091D8073091D907020F131FEE20B9F027
:103E7000F80111A212A213A214A22091D807309126
:103E8000D907C20FD31F1DA20F900FBEDF91CF9194
:103E90001F910F91FF90EF90DF90CF9008956B01ED
:103EA0007C01F1E0CF1AD108E108F108F801C1A2C4
:103EB000D2A2E3A2F4A2E1CF4F925F926F927F92DF
:103EC0008F929F92AF92BF92CF92DF92EF92FF922A
:103ED0000F931F93CF93DF93C82F2A013B01480113
:103EE00059010E94101A0FB6F8940F92E091D8076A
:103EF000F091D907D0E0EC0FFD1F85A1823039F198
:103F0000E091D807F091D907CE01880F991F880F4B
:103F1000991FE80FF91F81A192A1A3A1B4A1409418
:103F200050946094709484219521A621B72181A397
:103F300092A3A3A3B4A3E091D807F091D907EC0F03
:103F4000FD1F81E085A311E0C114D10409F410E044
:103F50000F900FBE113019F4C6010E94B7170E94CE
:103F60002C1B113021F4811102C00E94900D0FB65C
:103F7000F8940F92E114F104A1F0E091D807F091C8
:103F8000D907CE01880F991F880F991FE80FF91FD5
:103F900081A192A1A3A1B4A1F70180839183A283FF
:103FA000B383E091D807F091D907EC0FFD1F85A1ED
:103FB0008230B1F5E091D807F091D907CE01880F92
:103FC000991F880F991FE80FF91F81A192A1A3A142
:103FD000B4A180949094A094B09488219921AA21AE
:103FE000BB2181A392A3A3A3B4A381E02091D8070E
:103FF0003091D907C20FD31F1DA20F900FBEDF91C2
:10400000CF911F910F91FF90EF90DF90CF90BF90D5
:10401000AF909F908F907F906F905F904F9008959A
:1040200080E0E4CF8F929F92AF92BF92CF92DF92C7
:10403000EF92FF920F93CF93DF93DC010FB6F894CA
:104040000F9270E0E114F10481F0FB01EE0FFF1F0D
:10405000EE0FFF1FE80FF91F81A092A0A3A0B4A04C
:10406000E70188829982AA82BB82FD01E60FF71FD1
:1040700085A192E095A30230E1F1A0F4013029F18D
:10408000813009F44AC081E00F900FBEDF91CF91DB
:104090000F91FF90EF90DF90CF90BF90AF909F90E7
:1040A0008F900895033029F0043051F7823009F4DD
:1040B00097C0660F771F660F771FFD01E60FF71F8A
:1040C00021A332A343A354A3DBCF660F771F660F50
:1040D000771FFD01E60FF71FC1A0D2A0E3A0F4A057
:1040E000C22AD32AE42AF52AC1A2D2A2E3A2F4A2C8
:1040F000C7CF660F771F660F771FFD01E60FF71F0B
:1041000041A152A163A174A14F5F5F4F6F4F7F4FD9
:1041100041A352A363A374A3B3CF1A96ED91FC916C
:104120001B9714968D919C91159716962D913C9105
:104130001797EC013D832C831696CD91DC91179750
:104140009B838A839D012E5F3F4F818192818217DD
:10415000930711F4D283C1831B961C921E921A9767
:104160008081815080835696CC91569780918707A5
:104170008C1710F4C093870749E04C9FE00111248D
:10418000CC54D84F0980DA81C02D1596DC93CE939C
:1041900014978C819D8117969C938E9316978C8192
:1041A0009D81FC01338322833D832C8356969C9111
:1041B0005697949FF0011124EC54F84F1B96FC93F2
:1041C000EE931A9780818F5F8083E091D807F091FA
:1041D000D9078689891708F056CF0E94900D53CFD2
:1041E00080E052CF8F929F92AF92BF92CF92DF9298
:1041F000EF92FF920F93CF93DF93DC0170E0E11415
:10420000F10481F0FB01EE0FFF1FEE0FFF1FE80F1F
:10421000F91F81A092A0A3A0B4A0E701888299828F
:10422000AA82BB82FD01E60FF71F85A192E095A34C
:104230000230D1F190F4013019F1813009F448C015
:1042400081E0DF91CF910F91FF90EF90DF90CF90C1
:10425000BF90AF909F908F900895033029F0043065
:1042600061F7823009F4C5C0660F771F660F771FAC
:10427000FD01E60FF71F21A332A343A354A3DDCF13
:10428000660F771F660F771FFD01E60FF71F81A0EE
:1042900092A0A3A0B4A0822A932AA42AB52A81A21C
:1042A00092A2A3A2B4A2C9CF660F771F660F771F91
:1042B000FD01E60FF71F41A152A163A174A14F5F59
:1042C0005F4F6F4F7F4F41A352A363A374A3B5CF3A
:1042D00080917C0781116BC01A96ED91FC911B9720
:1042E00014968D919C91159716962D913C91179748
:1042F000EC013D832C831696CD91DC9117979B831F
:104300008A839D012E5F3F4F81819281821793079F
:1043100011F4D283C1831B961C921E921A9780813E
:10432000815080835696CC915697809187078C1741
:1043300010F4C093870789E08C9FE0011124CC54CE
:10434000D84F0980DA81C02D1596DC93CE9314974F
:104350004C815D8117965C934E931697EC81FD819D
:10436000338322833D832C835696EC915697E89FA6
:10437000F0011124EC54F84F1B96FC93EE931A971E
:1043800080818F5F8083E091D807F091D90756969E
:104390009C918689891708F053CFC114D10419F074
:1043A00081E0F601808381E0809383074ACFE0912A
:1043B0009607F09197071F96FC93EE931E978481C2
:1043C000958151969C938E935097C481D581CD0150
:1043D0000C969B838A839583848385E997E0559621
:1043E0009C938E935497809195078F5F8093950748
:1043F000CACF80E026CF0F931F93CF93DF93FC01AA
:10440000A62FB0E0EC01CA0FDB1F8DA192E09DA3A7
:10441000AA0FBB1FAA0FBB1FAE0FBF1F91960D9116
:104420001D912D913C9194970F5F1F4F2F4F3F4F40
:1044300091960D931D932D933C939497813009F0A1
:104440005EC080917C0781115FC0A285B3858481A5
:10445000958126813781EC013D832C83C681D781EC
:104460009B838A83CF01029611962D913C911297DE
:104470002817390721F41296DC93CE9311971386EF
:1044800012862C9121502C93C689209187072C17D6
:1044900010F4C093870729E02C9FE0011124CC542D
:1044A000D84F0980DA81C02DD583C4836C817D818A
:1044B00077836683AC81BD8113969C938E9312970C
:1044C0009D838C83A689A29FD0011124AC54B84F40
:1044D000B387A2878C918F5F8C93A091D807B091FE
:1044E000D907968956968C91891748F4411551053C
:1044F00019F081E0FA01808381E080938307DF91E6
:10450000CF911F910F910895A0919607B0919707B1
:10451000B787A68714968D919C911597918B808B68
:104520001496CD91DC911597CF010C969B838A83CD
:1045300015969C938E93149785E997E0958B848BC1
:10454000809195078F5F80939507C7CF009721F4DF
:104550008091D8079091D9070FB6F8940F92FC017B
:10456000E60FF11D85A1823029F415A281E00F909C
:104570000FBE089580E0FBCFCF92DF92EF92FF92C3
:10458000009721F48091D8079091D9070FB6F8943D
:104590000F9274E0679FF0011124E80FF91F61A1E9
:1045A00072A183A194A1C1A0D2A0E3A0F4A0209500
:1045B000309540955095C222D322E422F522C1A223
:1045C000D2A2E3A2F4A20F900FBEFF90EF90DF9073
:1045D000CF9008951092D9071092D80710928B07A8
:1045E00010928A0710928907109288071092870705
:1045F0001092860710928507109284071092830705
:1046000010928207109281071092800710927F0704
:1046100010927C0708950FB6F8940F928091DE07F0
:104620009091DF07892BE9F48DEE97E00E94630CEF
:1046300084EE97E00E94630C8DEE97E09093E30781
:104640008093E20784EE97E09093E1078093E00780
:1046500040E065E08AE00E943B0F9093DF07809383
:10466000DE070F900FBE0895FC017383628391876C
:1046700080874617570790F0421B530B848595851A
:1046800048175907C8F4BF016E5F7F4F8091E0075C
:104690009091E1070E94950C80E00895421753071E
:1046A00018F46217730740F4BF016E5F7F4F80916B
:1046B000E2079091E307EECF81E00895EF92FF9239
:1046C0000F931F93CF93DF93EC018B017A016C85DD
:1046D0007D85600F711F9801A701CE010E943423D0
:1046E000811107C0DF91CF911F910F91FF90EF9043
:1046F00008958C859D85080F191FE889F989CE01D9
:104700000995E5CFEF92FF920F931F93CF93DF931D
:104710008C017B01E091E207F091E3070580F681CF
:10472000E02DC681D781CE0102960E94CB0C8A89EA
:1047300082FF0FC0A701B801CE010E945E23E88965
:10474000F989CE01DF91CF911F910F91FF90EF90EA
:1047500009948E7F8A8BF3CFE091E207F091E30713
:10476000808181110DC08091E0079091E1079093C5
:10477000E3078093E207F093E107E093E0070895F1
:104780000580F681E02D6FEF7FEF808191810E949F
:104790008223E2CFCF93DF9300D000D01F92CDB71A
:1047A000DEB785E0B82ECE0101967C01E091E207EC
:1047B000F091E307A08010E000E0AA2029F0058036
:1047C000F681E02D008111810E94101A0E94161AB4
:1047D0006C018091DA079091DB07C816D90608F0C2
:1047E0004FC00E94AC23D092DB07C092DA070E9430
:1047F0002C1BD701EB2D1D92EA95E9F750E040E024
:10480000B7018091DE079091DF070E946010882336
:1048100069F2898187FDF2CF0C811D81D8011A963A
:104820008D919C91892B21F0C80102960E94CB0C9E
:104830000E94161A6C018091DA079091DB07C81666
:10484000D90610F40E94AC23D092DB07C092DA079D
:10485000E981E150E93090F60E2E000CFF0BE95C87
:10486000FB4DD80152968C9152970C949228682453
:104870006824AC249424A62468246824AC249424BA
:10488000D092DB07C092DA07AA2051F0C016D106F9
:1048900070F00E942C1BB601C8010E948223A9CF90
:1048A000E091E007F091E10741E08081811140E073
:1048B000B8016C197D098091DE079091DF070E9495
:1048C00055130E942C1B811194CF0E94900D91CF03
:1048D0008160F801828B2A813B8164857585620F36
:1048E000731FA601C8010E943423882309F486CFD0
:1048F000D80152968C91529782FF12C06A817B81B7
:104900001C968D919C91680F791FA601C8010E9489
:104910005E23D8015096ED91FC91C80109956ECFA8
:104920008E7FF801828BF5CF816052968C935297DF
:104930006A817B811D967C936E931C976C0D7D1D07
:104940009601A601C8010E94342358CF81FD04C0FE
:10495000C8010E944F0C52CF8E7FF801828B4ECF40
:10496000EF92FF920F930E940B238091DE079091AC
:10497000DF07892B91F08CEDE82E87E0F82E02E01E
:1049800030E020E040E86CE371E08AEC93E20E94C2
:1049900039180F91FF90EF90089580E0FACF8F9231
:1049A0009F92AF92BF92CF92DF92FF920F931F938D
:1049B000CF93DF934C015B01F42E690183E190E01A
:1049C0000E94170CEC01892BA1F01A8A0E940B237C
:1049D00099828882BD86AC86DF86CE86198B088B4D
:1049E000CE0102960E94710CFF2019F08A89846022
:1049F0008A8BCE01DF91CF911F910F91FF90DF90B5
:104A0000CF90BF90AF909F908F9008950F931F937A
:104A1000CF93DF9300D000D01F92CDB7DEB72091A7
:104A2000DE073091DF07232B59F480E00F900F90C1
:104A30000F900F900F90DF91CF911F910F910895DC
:104A400069835B834A839D838C83663074F70E94FD
:104A5000B61EE091DE07F091DF0720E0A80182306A
:104A600011F050E040E0BE016F5F7F4FCF010E9428
:104A7000670FDCCFCF93DF9300D000D01F92CDB76C
:104A8000DEB7FC018091DE079091DF07009749F4C3
:104A900080E00F900F900F900F900F90DF91CF91CB
:104AA000089569835B834A83FD83EC83663084F3D6
:104AB000A90120E0BE016F5F7F4F0E94FC0FE9CF8C
:104AC0008091DC079091DD070895FC018485958530
:104AD0000895FC010FB6F8940F929289662329F08D
:104AE0009460928B0F900FBE08959B7FFACF0FB604
:104AF000F8940F920F900FBEFC01828982FB8827E9
:104B000080F908950C947725FC01828193810895A2
:104B1000FC018081918108950FB6F8940F920F9057
:104B20000FBEFC018289817008950FB6F8940F9230
:104B30000F900FBEFC018685978508950FB6F894F7
:104B40000F92FC01778766870F900FBE0895109231
:104B5000DF071092DE071092DD071092DC07089540
:104B60000E9420068E9A60E080E80E9477040E94EE
:104B7000010662E370E080E090E00E940B060E9474
:104B800007060E941303FFCF5058BB27AA270E9495
:104B9000DC250C9420270E94122738F00E94192748
:104BA00020F039F49F3F19F426F40C940F270EF4EB
:104BB000E095E7FB0C940927E92F0E94312758F371
:104BC000BA17620773078407950720F079F4A6F5F2
:104BD0000C9453270EF4E0950B2EBA2FA02D0B0149
:104BE000B90190010C01CA01A0011124FF27591B32
:104BF00099F0593F50F4503E68F11A16F040A22F38
:104C0000232F342F4427585FF3CF469537952795A8
:104C1000A795F0405395C9F77EF41F16BA0B620BA7
:104C2000730B840BBAF09150A1F0FF0FBB1F661FEE
:104C3000771F881FC2F70EC0BA0F621F731F841F31
:104C400048F4879577956795B795F7959E3F08F057
:104C5000B0CF9395880F08F09927EE0F9795879519
:104C600008950E94E52608F481E008950E944A26EE
:104C70000C9420270E94192758F00E94122740F018
:104C800029F45F3F29F00C94092751110C94542703
:104C90000C940F270E94312768F39923B1F3552311
:104CA00091F3951B550BBB27AA276217730784073F
:104CB00038F09F5F5F4F220F331F441FAA1FA9F3D5
:104CC00035D00E2E3AF0E0E832D091505040E695C3
:104CD000001CCAF72BD0FE2F29D0660F771F881F24
:104CE000BB1F261737074807AB07B0E809F0BB0B17
:104CF000802DBF01FF2793585F4F3AF09E3F51052B
:104D000078F00C9409270C9454275F3FE4F3983E05
:104D1000D4F3869577956795B795F7959F5FC9F713
:104D2000880F911D9695879597F90895E1E0660F94
:104D3000771F881FBB1F621773078407BA0720F00D
:104D4000621B730B840BBA0BEE1F88F7E095089576
:104D5000E89409C097FB3EF4909580957095619515
:104D60007F4F8F4F9F4F9923A9F0F92F96E9BB27CB
:104D70009395F695879577956795B795F111F8CF47
:104D8000FAF4BB0F11F460FF1BC06F5F7F4F8F4FB2
:104D90009F4F16C0882311F096E911C0772321F0A8
:104DA0009EE8872F762F05C0662371F096E8862F40
:104DB00070E060E02AF09A95660F771F881FDAF797
:104DC000880F9695879597F90895990F0008550FC4
:104DD000AA0BE0E8FEEF16161706E807F907C0F081
:104DE00012161306E407F50798F0621B730B840B89
:104DF000950B39F40A2661F0232B242B252B21F463
:104E000008950A2609F4A140A6958FEF811D811D02
:104E1000089597F99F6780E870E060E008959FEF3C
:104E200080EC089500240A94161617061806090641
:104E3000089500240A941216130614060506089510
:104E4000092E0394000C11F4882352F0BB0F40F498
:104E5000BF2B11F460FF04C06F5F7F4F8F4F9F4FD8
:104E6000089557FD9058440F551F59F05F3F71F05A
:104E70004795880F97FB991F61F09F3F79F08795C1
:104E80000895121613061406551FF2CF4695F1DF4A
:104E900008C0161617061806991FF1CF86957105DA
:104EA000610508940895E894BB2766277727CB010E
:104EB00097F908950E94E52608F48FEF089516F0FB
:104EC0000C941C280C940F2768940C9409270E94BA
:104ED0003927A8F39923C1F3AEF3DF93CF931F9340
:104EE0000F93FF92C92FDD2788232AF02197660FA1
:104EF000771F881FDAF720E030E040E85FEB9FE3A0
:104F0000883920F0803E38F021968F770E94C525A1
:104F1000E4E5F0E004C00E94C525E1E8F0E00E946D
:104F20002A288B01BE01EC01FB2E6F577109759584
:104F3000771F880B990B0E94AA2628E132E741E3EC
:104F40005FE30E94C227AF2D9801AE01FF900F9141
:104F50001F91CF91DF910E94DC250C9420270E94A5
:104F6000C2270C9420270E94122738F00E9419278C
:104F700020F0952311F00C9409270C940F2711248D
:104F80000C9454270E94312770F3959FC1F3950F1D
:104F900050E0551F629FF001729FBB27F00DB11DBD
:104FA000639FAA27F00DB11DAA1F649F6627B00D4D
:104FB000A11D661F829F2227B00DA11D621F739F36
:104FC000B00DA11D621F839FA00D611D221F749F44
:104FD0003327A00D611D231F849F600D211D822F8B
:104FE000762F6A2F11249F5750409AF0F1F08823B2
:104FF0004AF0EE0FFF1FBB1F661F771F881F9150DF
:105000005040A9F79E3F510580F00C9409270C945D
:1050100054275F3FE4F3983ED4F3869577956795E0
:10502000B795F795E7959F5FC1F7FE2B880F911D08
:105030009695879597F908959F3F31F0915020F408
:10504000879577956795B795880F911D9695879564
:1050500097F90895DF93CF931F930F93FF92EF92E9
:10506000DF927B018C01689406C0DA2EEF010E946A
:10507000C227FE01E894A59125913591459155915E
:10508000A6F3EF010E94DC25FE019701A801DA9446
:1050900069F7DF90EF90FF900F911F91CF91DF9113
:1050A0000895A1E21A2EAA1BBB1BFD010DC0AA1F69
:1050B000BB1FEE1FFF1FA217B307E407F50720F081
:1050C000A21BB30BE40BF50B661F771F881F991FFC
:1050D0001A9469F760957095809590959B01AC0145
:1050E000BD01CF010895052E97FB1EF400940E9488
:1050F0008A2857FD07D00E94512807FC03D04EF4A0
:105100000C948A2850954095309521953F4F4F4FEC
:105110005F4F089590958095709561957F4F8F4F63
:105120009F4F0895EE0FFF1F0590F491E02D099415
:10513000EF920F931F93CF93DF93E80134E047FD85
:1051400034E1042E000C550B57FF03C051954195D7
:105150005109E32E022F242FAE010E94BF28CE0159
:10516000DF91CF911F910F91EF900895FB01DC012A
:1051700002C001900D9241505040D8F70895A9E027
:10518000B0E0E5ECF8E20C94FC2A6A01F22EB02EB5
:10519000102FFBE3AF2EA01608F41BE31F5F012FB7
:1051A00027E0AE014F5F5F4F0E941E2ABC0189813C
:1051B000982F9970913009F43FC09BE2E1FC04C044
:1051C0009E2D9170E0FC3AC05E2D5071E82FE87082
:1051D00083FF46C084E0911101C083E0EF2DE81BFE
:1051E0008F1508F0E0E0D6018E2F20E2552351F113
:1051F000992329F0D6019C93C60101966C01960172
:105200002D5F3F4FE2FE24C08EE4D6018C9391E4E3
:1052100011969C93119712968C93D9018E2F90E240
:1052200081111BC0E20FF32FF11D10828EEF9FEF53
:105230002996ECE00C94182B9DE2C6CF90E2C4CFE7
:105240002D9381508111FCCFCE0ED11CE0E0D0CF48
:105250008EE6D6018C9391E6DBCF9D938150E0CF13
:10526000482F447082FF3DC084E0911101C083E06B
:105270008F1510F4EF2DE81BD6018E2F20E2552359
:1052800009F1992329F0D6019C93C60101966C017E
:1052900096012D5F3F4FE2FE1BC089E4D6018C933F
:1052A0008EE411968C93119786E412968C93D90113
:1052B0008E2F90E2882309F4B5CF9D938150FACFC9
:1052C0002D9381508111FCCFCE0ED11CE0E0D9CFBF
:1052D00089E6D6018C938EE611968C93119786E61B
:1052E000E4CF9B0177FF02C030E020E0A1E0B0E016
:1052F000911102C0B0E0A0E0F9013196AE0FBF1FDE
:105300008B2C912CBB2009F461C05401EFEFAE1A35
:10531000BE0AAA0DBB1DFA161B0619F014F04F2D7C
:105320004A1B511188C0E3FC59C07601A42FB0E29A
:10533000A1114FC0C40ED11C992309F45BC040E0F9
:10534000D6011196F60190836D01552309F448C0EA
:10535000012F060F9A81582F507184FF03C091339B
:1053600009F4015010160CF047C0093008F008E0AD
:10537000EEE2FE2E5B01A01AB108850191948194A2
:1053800091082F3F320729F4D601FC92F60131969D
:105390006F016217730794F1021713077CF5DB01A5
:1053A000A21BB30BAA24A394B12CAC0EBD1EAA0D54
:1053B000BB1D11968C9121503109D60111962815EB
:1053C0003905F4F0F60180836D01DBCFB12CA12CFF
:1053D000A0CFF701B1937F01A150AACF9111B0CF17
:1053E000D601942F50E302C05D9391509111FCCFF0
:1053F000C40ED11C40E0ACCF01E0BACF80E3DBCFDC
:105400006217730731F4963388F4953311F45523FA
:1054100069F0F6018083FD01842F90E2811108C0BC
:10542000A40FB11D1C9290E080E002CF81E3F1CF88
:1054300091938150F3CF911183CF8ACF283008F018
:1054400027E03327DA01990F311D87FD916000961F
:105450006105710539F432602E5F3D9330E32A9582
:10546000E1F708959F3F30F080387105610509F03C
:105470003C5F3C5F3D93913008F08068911DDF9365
:10548000CF931F930F93FF92EF92192F987F9695CA
:10549000E92F96959695E90FFF27E85FFE4F99272C
:1054A0003327EE24FF24A701E70105900894079411
:1054B00028F4360FE71EF81E491F511D660F771F8F
:1054C000881F991F0694A1F70590079428F4E70E0A
:1054D000F81E491F561FC11D770F881F991F661F91
:1054E0000694A1F70590079428F4F80E491F561F5B
:1054F000C71FD11D880F991F661F771F0694A1F73C
:105500000590079420F4490F561FC71FD81F990F05
:10551000661F771F881F0694A9F78491109517704E
:1055200041F0D695C79557954795F794E7941A9506
:10553000C1F7EEEAF0E06894159015913591659108
:10554000959105907FE27395E118F10A430B560B94
:10555000C90BD009C0F7E10CF11E431F561FC91F2C
:10556000D01D7EF4703311F48A95E6CFE894015093
:1055700030F0080F0AF40027021708F4202F2395B3
:10558000022F7A3328F079E37D932A95E9F710C04A
:105590007D932A9589F60694979567953795179583
:1055A0001794E118F10A430B560BC90BD00998F078
:1055B00023957E9173957A3308F070E37C932013E2
:1055C000B8F77E9170617D9330F0839571E37D93A0
:1055D00070E32A95E1F71124EF90FF900F911F914E
:1055E000CF91DF91992787FD909508952F923F9253
:1055F0004F925F926F927F928F929F92AF92BF92E3
:10560000CF92DF92EF92FF920F931F93CF93DF938E
:10561000CDB7DEB7CA1BDB0B0FB6F894DEBF0FBEEB
:10562000CDBF09942A88398848885F846E847D8438
:105630008C849B84AA84B984C884DF80EE80FD803A
:105640000C811B81AA81B981CE0FD11D0FB6F894B0
:0E565000DEBF0FBECDBFED010895F894FFCF71
:10565E008200000100820001010086000401008624
:10566E0000050100860006010086000701003100DA
:10567E003200370038003700380003537461746508
:10568E003A0049444C450052454144590043686133
:10569E0072676500202500446973636861726765EF
:1056AE00004641554C54004F5645524355525245B3
:1056BE004E54210053554444454E20444953434FC4
:1056CE004E4E45435400446973706C617952656661
:1056DE0072657368004368617267696E67537461BF
:1056EE0072740053746F7053657373696F6E0056E6
:1056FE00656869636C65436865636B004F766572B8
:10570E0063757272656E74205461736B0054696DAB
:10571E00657231004368617267652050657263651A
:10572E006E746167653A2000250D0A00546D722073
:04573E00537663003B
:00000001FF
