:100000000C94D4000C94B1010C94F0010C94F10008
:100010000C94F1000C94F1000C94F1000C94A10CE0
:100020000C94F1000C94F1000C94F1000C94F1008C
:100030000C94F1000C94F1000C94F1000C94F1007C
:100040000C94F1000C94F1000C94F1000C94F1006C
:100050000C94F10008000000BE922449123EABAAA5
:10006000AA2ABECDCCCC4C3E00000080BEABAAAAD2
:10007000AA3E00000000BF000000803F000000001A
:1000800000084178D3BB4387D1133D190E3CC3BD53
:100090004282AD2B3E68EC8276BED98FE1A93E4C00
:1000A00080EFFFBE01C4FF7F3F0000000000004062
:1000B0007A10F35A00A0724E18090010A5D4E80077
:1000C00000E87648170000E40B54020000CA9A3B8F
:1000D000000000E1F5050000809698000000404215
:1000E0000F000000A08601000000102700000000A3
:1000F000E803000000006400000000000A000000A7
:1001000000000100000000002C76D888DC674F0852
:1001100023DFC1DFAE59E1B1B796E5E3E453C63A58
:10012000E651997696E8E6C28426EB898C9B62EDCF
:10013000407C6FFCEFBC9C9F40F2BAA56FA5F49089
:10014000055A2AF75C936B6CF9676DC11BFCE0E400
:100150000D47FEF520E6B500D0ED902E0300943556
:1001600077050080841E080000204E0A000000C8A9
:100170000C333333330F986E12831141EF8D2114FA
:10018000893BE65516CFFEE6DB18D1844B381BF7CA
:100190007C1D901DA4BBE424203284725E22810069
:1001A000C9F124ECA1E53D2711241FBECFE5D8E01D
:1001B000DEBFCDBF11E0A0E6B0E0E0E0F3E502C0B5
:1001C00005900D92A830B107D9F727E0A8E0B1E07B
:1001D00001C01D92AD3BB207E1F70E940C240C94C4
:1001E0007E290C940000CF93DF93CDB7DEB72A971A
:1001F0000FB6F894DEBF0FBECDBF0E9472189A876B
:1002000089878E9A869A0E9488068BE890E00E94E1
:10021000650680910801813089F058F0823041F103
:100220008330F1F164E670E0CE0109960E94551A20
:10023000E8CF82E990E00E946506F4CF87E990E07C
:100240000E94650680EC0E94B50580910D01909199
:100250000E01A0910F01B09110018D839E83AF8399
:10026000B8876D817E818F8198850E949406DACF50
:1002700080EA90E00E94650680EC0E94B5058091BE
:100280000D0190910E01A0910F01B0911001898391
:100290009A83AB83BC8369817A818B819C81E5CF12
:1002A0008CEA90E0C8CFCF93DF931F92CDB7DEB733
:1002B0004FEF5FEFBE016F5F7F4F8091AB07909173
:1002C000AC070E94BC0E882399F38981813081F7A5
:1002D0000E9476046FEF7FEF8091A9079091AA07A3
:1002E0000E944D0F813021F78093080120E050E0FB
:1002F00040E070E060E08091A9079091AA070E9419
:10030000C30DD6CFCF93DF931F92CDB7DEB74FEF9C
:100310005FEFBE016F5F7F4F8091AB079091AC079D
:100320000E94BC0E882399F31981123081F70E9434
:100330007B046FEF7FEF8091A9079091AA070E943D
:100340004D0F813021F71093080120E050E040E08C
:1003500070E060E08091A9079091AA070E94C30D08
:10036000D6CF1F920F920FB60F9211242F933F9367
:100370004F935F936F937F938F939F93AF93BF93AD
:10038000EF93FF93CF93DF9300D0CDB7DEB71A8200
:1003900081E0898320E0AE014E5F5F4FBE016F5F59
:1003A0007F4F8091AB079091AC070E94580E8A81D5
:1003B00081110E94EC0B0F900F90DF91CF91FF9174
:1003C000EF91BF91AF919F918F917F916F915F91CD
:1003D0004F913F912F910F900FBE0F901F90189546
:1003E0001F920F920FB60F9211242F933F934F93AA
:1003F0005F936F937F938F939F93AF93BF93EF938D
:10040000FF93CF93DF9300D0CDB7DEB71A8282E09F
:10041000898320E0AE014E5F5F4FBE016F5F7F4F6B
:100420008091AB079091AC070E94580E8A81811190
:100430000E94EC0B0F900F90DF91CF91FF91EF9105
:10044000BF91AF919F918F917F916F915F914F91EC
:100450003F912F910F900FBE0F901F901895EF9224
:10046000FF920F930E943F0643E060E081E00E940C
:10047000970D9093AA078093A90720E050E040E0F1
:1004800070E060E00E94C30D40E061E085E00E9402
:10049000970D9093AC078093AB0789EBE82E87E02C
:1004A000F82E04E030E020E040E862EB70E083EFFB
:1004B00090E00E949516F12CE12C03E030E020E062
:1004C00040E861EC70E083E591E00E94951630E031
:1004D00020E040E86FEC70E082E891E00E94951621
:1004E0000F91FF90EF900C940F18E0910901F0919B
:1004F0000A01309709F0099408950F931F9305E7B7
:1005000012E030E020E041E064E170E08BED90E04B
:100510000E942B2390930C0180930B011F910F914C
:1005200008950F931F9380910B0190910C01892BDB
:1005300071F00E94721810E000E030E020E0AC01A1
:1005400061E080910B0190910C010E9462231F9148
:100550000F9108950F931F9380910B0190910C01BF
:10056000009749F010E000E030E020E050E040E08B
:1005700063E00E9462231F910F910895009721F07C
:1005800090930A018093090108959B01AC01C90170
:10059000BA010895DC01ED91FC9160830895DC01BE
:1005A0001296ED91FC9160830895DC011296ED9115
:1005B000FC9180810895DC011296ED91FC9180817F
:1005C00021E030E001C0220F6A95EAF7822B808398
:1005D0000895DC011296ED91FC91208181E090E07C
:1005E00001C0880F6A95EAF7809582238083089579
:1005F000DC011296ED91FC91208181E090E0062EC5
:1006000002C0880F991F0A94E2F730E082239323F7
:1006100002C0959587956A95E2F708950F931F9309
:10062000CF93DF93C0E6D0E001E010E0E881F981EC
:100630000190F081E02D8B818130D1F48A81980185
:1006400002C0220F331F8A95E2F720832C816A8132
:1006500088819981213071F40E94DB02259630E077
:10066000CE37D30719F7DF91CF911F910F910895DE
:100670001082ECCF0E94E902F1CF96B1987F96B933
:100680008031C1F040F4843079F0883079F08230E4
:10069000C9F4309A0895803479F0803881F080323E
:1006A00089F486B1856004C0319A089586B183606B
:1006B00086B90895329A089586B18660F9CF86B1D9
:1006C0008760F6CF86B1887FF3CF97B19F7397B9D4
:1006D0003E9A811104C087B18F7387B90895813024
:1006E00011F43E9A08958330E1F787B1806CF5CF1D
:1006F000CF93C62F379A0E943D038C2F0E9465032B
:100700003D98CF91089597B1907E97B9883030F594
:10071000E82FF0E0E257FC4F0C94E326AE0396037B
:100720009D039F03A303A503A803AB03389A369A3E
:10073000349BFECF84B195B10895399AF8CF87B133
:10074000836087B9F4CF3A9AF2CF87B18560F9CF49
:1007500087B18660F6CF87B18760F3CF87B1807E9F
:10076000F0CFCF93DF93CDB7DEB72C970FB6F894C9
:10077000DEBF0FBECDBFBC0190E080E00E94F92437
:1007800069877A878B879C8720E030EC4FE754E4B9
:1007900069857A858B859C850E9487246D837E83FD
:1007A0008F83988720E030E040EA50E46D817E81BD
:1007B0008F8198850E94002669837A838B839C832E
:1007C00069817A818B819C812C960FB6F894DEBF6B
:1007D0000FBECDBFDF91CF9108958091130190910D
:1007E0001401019690931401809313010895CF93FF
:1007F000DF93CDB7DEB72C970FB6F894DEBF0FBEF0
:10080000CDBF80E895E20E94BF060E94ED032091D3
:100810001301309114018091110190911201281758
:10082000390709F045C0109214011092130180E0BD
:100830000E9483030E94B10369877A878B879C8714
:1008400069857A858B859C850E9491046D837E8362
:100850008F8398878D819E81AF81B88580930D01AC
:1008600090930E01A0930F01B093100182EE90E0DF
:100870000E94D50680910D0190910E01A0910F016B
:10088000B091100189839A83AB83BC8369817A819B
:100890008B819C810E94E10686EF90E02C960FB63A
:1008A000F894DEBF0FBECDBFDF91CF910C94D5067B
:1008B0002C960FB6F894DEBF0FBECDBFDF91CF915F
:1008C00008950E947D0287EF93E00C94BE020C9481
:1008D00091020C94AA0224E130E040E050E00E9432
:1008E000A22630931201209311010895A198A9988E
:1008F000A09AA89A0895A898A098A19AA99A08954C
:1009000081B3837F81BB82B38C6082BB85B78A60F1
:1009100085BF85B78A7F85BF8BB7806C8BBF789486
:100920000895CF93DF93CDB7DEB760970FB6F894F5
:10093000DEBF0FBECDBF6D877E878F87988B2EEA77
:1009400037E441E25FE36D857E858F8598890E945B
:10095000822487FD43C020E030E048E850E46D8504
:100960007E858F8598890E94AB251816E4F12EEAC2
:1009700037E441E25FE36D857E858F8598890E942B
:10098000152469877A878B879C8724E13EEA47E6AE
:1009900050E469857A858B859C850E9487246D83C8
:1009A0007E838F83988720E030E048EC52E46D81AD
:1009B0007E818F8198850E94002669837A838B834C
:1009C0009C8369817A818B819C8160960FB6F894B3
:1009D000DEBF0FBECDBFDF91CF91089519821A827D
:1009E0001B821C82EECF80E090E0A8ECB2E4898309
:1009F0009A83AB83BC83E5CFAF92BF92CF92DF9255
:100A0000EF92FF920F931F93CF93DF93CDB7DEB793
:100A1000AC970FB6F894DEBF0FBECDBF6D8F7E8F43
:100A20008F8F98A329A33AA34BA35CA3EDA2FEA2A8
:100A30000FA318A7A9A6BAA6CBA6DCA629A13AA1FE
:100A40004BA15CA16D8D7E8D8F8D98A10E94AB25F1
:100A500087FF86C020E030E0A9016DA17EA18FA1B3
:100A600098A50E94822418160CF07AC020E030E08D
:100A7000A90169A57AA58BA59CA50E9482241816B8
:100A80000CF06EC02DA13EA14FA158A560E070E012
:100A900088E890E40E94872469837A838B839C830F
:100AA00089819A81AB81BC81B058898F9A8FAB8F35
:100AB000BC8F29A53AA54BA55CA5698D7A8D8B8D38
:100AC0009C8D0E9400266D8B7E8B8F8B988F20E0F3
:100AD00030E048E850E469A17AA18BA19CA10E9472
:100AE0008724698B7A8B8B8B9C8B29893A894B89DC
:100AF0005C8960E070E080E89FE30E9415246D87C8
:100B00007E878F87988B6D857E858F8598890E94DB
:100B1000B82569877A878B879C8729853A854B8595
:100B20005C856D897E898F89988D0E9400266D83F2
:100B30007E838F8398876D817E818F819885AC9627
:100B40000FB6F894DEBF0FBECDBFDF91CF911F91DE
:100B50000F91FF90EF90DF90CF90BF90AF900895EE
:100B60001D821E821F821886E6CFCF93C82F86E88B
:100B700090E00E94D5028F706C2F607F682B86E812
:100B800090E00E94CF0260E082E890E00E94E902DB
:100B900061E082E890E00E94DB0282E08A95F1F752
:100BA00000C061E082E890E00E94E90286E890E0FF
:100BB0000E94D5028F7090E1C99FB0011124682B6B
:100BC00086E890E00E94CF0261E082E890E00E9417
:100BD000DB0282E08A95F1F700C061E082E890E0F4
:100BE0000E94E9028FE99FE00197F1F700C0000041
:100BF000CF910895CF93C82F86E890E00E94D50248
:100C00008F706C2F607F682B86E890E00E94CF0287
:100C100060E082E890E00E94DB0261E082E890E020
:100C20000E94DB0282E08A95F1F700C061E082E871
:100C300090E00E94E90286E890E00E94D5028F7061
:100C400090E1C99FB0011124682B86E890E00E94D2
:100C5000CF0261E082E890E00E94DB0282E08A95A8
:100C6000F1F700C061E082E890E00E94E9028FE9BC
:100C70009FE00197F1F700C00000CF91089560EF69
:100C800086E890E00E94CA0263E082E890E00E9459
:100C9000CA028FE39CE90197F1F700C0000082E0EF
:100CA0000E94B50588E20E94B5058CE00E94B5055A
:100CB00086E00E94B50581E00E94B5058FE99FE0BE
:100CC0000197F1F700C000000895CF93DF93EC0186
:100CD0008991811103C0DF91CF9108950E94FA0597
:100CE000F7CFCF93DF93EA01811109C0862F806887
:100CF000603158F0CE01DF91CF910C9465068130C0
:100D0000C9F76031B8F7862F806C0E94B505F2CF25
:100D100081E00E94B5058FE99FE00197F1F700C0DF
:100D2000000080E80C94B5050F931F93CF93DF93D9
:100D3000CDB7DEB72E970FB6F894DEBF0FBECDBF8E
:100D40006B877C878D879E876B857C858D859E854F
:100D50008E010F5F1F4F22E030E044E050E00E9420
:100D6000E926C8010E9465062E960FB6F894DEBFEC
:100D70000FBECDBFDF91CF911F910F9108959C01C0
:100D800050E040E060E271EA87E090E00E94C42613
:100D90002150310930BD29B988E08AB986E880BD83
:100DA00008955D9BFECF8CB90895CF93DF93EC013E
:100DB0008991811103C0DF91CF9108950E94D106DE
:100DC000F7CF0F931F93CF93DF93CDB7DEB7649721
:100DD0000FB6F894DEBF0FBECDBF698B7A8B8B8BBD
:100DE0009C8B69897A898B899C898E010F5F1F4F43
:100DF00022E030E046E050E00E94E926C8010E946F
:100E0000D50664960FB6F894DEBF0FBECDBFDF9156
:100E1000CF911F910F910895CF92DF92EF92FF92A1
:100E20001F93CF93DF936C01162FF42E8AE190E08D
:100E30000E94730AEC018FEF209709F456C080914D
:100E40001C0190911D01892B21F5D0931D01C093A8
:100E50001C018DE391E00E94BF0A86E491E00E94AC
:100E6000BF0A84E391E00E94BF0A8BE291E00E94F6
:100E7000BF0A8EE191E00E94BF0A84E391E0909363
:100E80002A01809329018BE291E0909328018093BD
:100E90002701111111E0198E188E1E8BFF8AFE0199
:100EA000C192D1927F01CF010E94CD0ACE010C9652
:100EB0000E94CD0AD987C887DB8BCA8B82E090E07D
:100EC000811B91099D878C878E8990911B019817B2
:100ED00010F480931B01F9E08F9FC0011124B7012A
:100EE000835C9E4F0E94D10A81E0DF91CF911F91D8
:100EF000FF90EF90DF90CF9008950F931F93CF93C3
:100F0000DF938B01C0911901D0911A01C80FD91F2D
:100F100080911C0190911D0102960E94270B609107
:100F20001C0170911D01FB01D383C28380911901C3
:100F300090911A016E5F7F4FC817D907B0F4809166
:100F40002701909128010E94F10A0115110591F0E5
:100F500060911C0170911D01645F7F4FC801DF919A
:100F6000CF911F910F910C94F10A809129019091DA
:100F70002A01E9CFDF91CF911F910F910895FF9240
:100F80000F931F93CF93DF938091290190912A01B2
:100F9000892B09F444C099E0F92E80911E0181113A
:100FA00044C00E9472182091170130911801821BD1
:100FB000930B909316018093150189E0F82E2091F0
:100FC0001501309116018091190190911A01211596
:100FD000310509F04CC0909318018093170180915E
:100FE0001B01282F30E099E0929FF001939FF00DB4
:100FF0001124E35CFE4F408141118DC0882369F0CC
:101000008150282F30E0929FF001939FF00D112422
:10101000E35CFE4F908191117EC080931B01DF91B4
:10102000CF911F910F91FF900895F894E0912301C3
:10103000F0912401C681D781CE010C960E94270B26
:1010400078948E010E5F1F4FC8010E94270B8E8976
:1010500090911B01981710F480931B018F9DC00184
:101060001124B801835C9E4F0E94D10A96CF01964D
:1010700090931A0180931901215031093093160180
:1010800020931501892B81F48091290190912A01E7
:10109000209127013091280130932A0120932901C2
:1010A0009093280180932701E0912901F0912A0172
:1010B0002091190130911A018081882309F47FCF92
:1010C0000580F681E02DC681D7818A819B81281712
:1010D000390708F474CFF8948E010E5F1F4FC801D2
:1010E0000E94270B8C899D89892B21F0CE010C96BB
:1010F0000E94270B78948E8990911B01981710F409
:1011000080931B018F9DC0011124B801835C9E4F09
:101110000E94D10AC9CF80931B0149E0429FC001C0
:10112000439F900D1124FC01E35CFE4FA181B2812D
:1011300012964D915C9152834183805C9E4F48177B
:10114000590721F4858196819283818389E0829F6A
:10115000F001839FF00D1124E35CFE4F0180F281CA
:10116000E02D8681978190931D0180931C01DC0105
:10117000ED91FC91119757966C91DF91CF911F9152
:101180000F91FF9009940F931F93CF93DF93DC018E
:101190001596ED91FC91C681D7818E01045F1F4F9A
:1011A000C8010E94270BB8018EE191E00E94D10A8C
:1011B000E0911C01F0911D0181E02E89968929178B
:1011C00008F480E0DF91CF911F910F910895109264
:1011D0002A011092290110922801109227011092E1
:1011E0001D0110921C0110921B0110921A01109205
:1011F0001901109218011092170110921601109205
:1012000015010895CF93DF938BE090E00E94730A5D
:10121000EC01009731F0FC0111921192CF010E9474
:10122000BF0ACE01DF91CF910895AF92BF92CF92C6
:10123000DF92EF92FF920F931F93CF93DF936C0196
:101240007B01B42EA22E0E946C18F601C081D181C0
:10125000CE018E219F21A11040C0892B09F041C0F1
:101260000115110589F070E060E0BB2011F060E02D
:1012700071E0A11074606E297F29A801C601029651
:101280000E94091BD0E0C0E00E948819012BC9F020
:10129000811102C00E94EC0B0E94201D91FD0FC025
:1012A0000FB6F8940F92F60180819181970128235F
:1012B0003923A11023C0232B21F50F900FBEEC0181
:1012C000DD27CE01DF91CF911F910F91FF90EF901D
:1012D000DF90CF90BF90AF900895E816F90609F01F
:1012E000BFCFBB2041F0C701809590958C239D23F3
:1012F000F6019183808310E000E0C6CFE216F3068A
:10130000E1F6BB20D1F2E094F094E822F922F60154
:10131000F182E082D2CFFC010FB6F8940F92808167
:1013200091816095709568237923718360830F9014
:101330000FBE0895FC01808191810895CF92DF92C4
:10134000EF92FF920F931F93CF93DF93EC018B01EA
:101350007C0185E0E80EF11C0E946C18EF81F88595
:1013600068817981602B712B7983688310E000E0BC
:1013700068817981EE15FF0599F400951095062393
:101380001723198308830E94881988819981DF9126
:10139000CF911F910F91FF90EF90DF90CF90089524
:1013A000C280D38020813181C9019927AC014623B5
:1013B000572332FD04C0452B29F4F601D9CF8417F9
:1013C0009507D9F730FF02C0082B192B7260CF01A7
:1013D0000E94311CF2CFAF92BF92CF92DF92EF9278
:1013E000FF920F931F93CF93DF937C01EB018A0150
:1013F00069010E946C18F701A080B180BE01C7018D
:101400000E949E09CA29DB29CE01802391238017DF
:10141000910709F03BC0F7018081918198012095E7
:1014200030958223932391838083D12CC12C0E94F9
:101430008819CD28F9F0811102C00E94EC0B0E949E
:10144000201D91FD15C00FB6F8940F92F701808111
:1014500091819801282339232017310739F4A801F5
:101460004095509548235923518340830F900FBED8
:10147000EC01DD27CE01DF91CF911F910F91FF90FD
:10148000EF90DF90CF90BF90AF900895C114D1043A
:1014900051F0A601B8017560C70102960E94091BB0
:1014A000D0E0C0E0C4CFF701C081D181C0CFCF93DD
:1014B000DF93EC010E946C188A81811107C00E94A1
:1014C0008819CE01DF91CF910C94AB0A60E072E0F5
:1014D0008F8198850E94311CEFCFBA010C949E0930
:1014E000BA010C948B090F931F93CF93DF938C0158
:1014F0000E946C1880914F0190915001892B31F41A
:1015000083E591E09093500180934F0101151105FF
:10151000F9F02091510130915201020F131F0B3D40
:1015200085E01807A8F42017310790F4C0914F0107
:10153000D0915001C20FD31F10935201009351015B
:101540000E948819CE01DF91CF911F910F910895CC
:10155000D0E0C0E0F5CF08951092520110925101F1
:10156000089520915101309152018BED95E0821B3D
:10157000930B089510925201109251010895FC01AD
:101580000396928381832FEF3FEF348323839683E7
:1015900085839087878310820895FC0111861086C9
:1015A0000895CF93DF939C01FB01DC011196CD914F
:1015B000DC91D383C2838C819D81958384838C81CC
:1015C0009D81DC0113967C936E9312977D836C83CF
:1015D00031872087F90180818F5F8083DF91CF91F0
:1015E00008950F931F93CF93DF938C01FB018081AC
:1015F0009181D80113968F3F9807F1F4E801AF81EC
:10160000B88512968D919C91139793838283EC01F8
:10161000FD83EC83B583A4831396FC93EE9312971A
:1016200011870087F80180818F5F8083DF91CF91E0
:101630001F910F910895D90112962D913C91139706
:10164000E9014881598184179507A8F7DACFCF932C
:10165000DF93FC01A085B18582819381248135814E
:10166000EC013D832C83C481D5819B838A831196B1
:101670008D919C9112978E179F0721F41296DC93FF
:10168000CE931197118610868C9181508C93DF91A7
:10169000CF91089531E1FC013083319722E220831C
:1016A0003197A3E3A083319760833197708331979B
:1016B0001082319760E8608331971082319762E041
:1016C0006083319763E06083319764E06083319792
:1016D00065E06083319766E06083319767E06083FF
:1016E000319768E06083319769E06083319760E10A
:1016F000608331973083319732E13083319733E122
:101700003083319734E13083319735E1308331973D
:1017100036E13083319737E13083319738E13083D8
:10172000319739E13083319730E23083319731E2BC
:10173000308331972083319723E220833197408390
:1017400031975083319726E22083319727E2208317
:10175000319728E22083319729E22083319720E3D3
:101760002083319721E32083869708951BBC8CE763
:101770008ABD8BE08EBD89B7806189BFA0918B0740
:10178000B0918C07CD91CDBFDD91DEBFFF91EF9180
:10179000DF91CF91BF91AF919F918F917F916F9189
:1017A0005F914F913F912F911F910F91FF90EF907B
:1017B000DF90CF90BF90AF909F908F907F906F9071
:1017C0005F904F903F902F901F900F900FBE0F9003
:1017D000089581E0089508950F920FB6F8940F923E
:1017E0001F9211242F923F924F925F926F927F929D
:1017F0008F929F92AF92BF92CF92DF92EF92FF9221
:101800000F931F932F933F934F935F936F937F9308
:101810008F939F93AF93BF93CF93DF93EF93FF93F8
:10182000A0918B07B0918C070DB60D920EB60D925C
:101830000E94B31AA0918B07B0918C07CD91CDBFB8
:10184000DD91DEBFFF91EF91DF91CF91BF91AF911D
:101850009F918F917F916F915F914F913F912F91C8
:101860001F910F91FF90EF90DF90CF90BF90AF90BE
:101870009F908F907F906F905F904F903F902F90B0
:101880001F900F900FBE0F9008950F920FB6F8940F
:101890000F921F9211242F923F924F925F926F925C
:1018A0007F928F929F92AF92BF92CF92DF92EF92F0
:1018B000FF920F931F932F933F934F935F936F93D9
:1018C0007F938F939F93AF93BF93CF93DF93EF93C8
:1018D000FF93A0918B07B0918C070DB60D920EB6B9
:1018E0000D920E948C1881110E94B31AA0918B074F
:1018F000B0918C07CD91CDBFDD91DEBFFF91EF910F
:10190000DF91CF91BF91AF919F918F917F916F9117
:101910005F914F913F912F911F910F91FF90EF9009
:10192000DF90CF90BF90AF909F908F907F906F90FF
:101930005F904F903F902F901F900F900FBE0F9091
:1019400008950E94450C18950FB6F8940F92FC016B
:10195000928D0F900FBE81E0911180E008950F935A
:101960001F93CF93DF93EC01042F1A8D4C8D4423EA
:10197000C1F050E001111DC08A819B810E940727A0
:101980008C8D2A813B81820F932F911D9B838A83AB
:101990002C813D818217930720F0888199819B8358
:1019A0008A831F5F1A8F80E0DF91CF911F910F9183
:1019B00008958E819F810E9407278C8D90E09195DC
:1019C000819591092E813F81280F391F3F832E83F6
:1019D000488159812417350730F42C813D81820FCD
:1019E000931F9F838E830230E1F61123D1F21150B1
:1019F000D8CFFC01CB01448D4423A1F050E02681D7
:101A00003781240F351F378326836481758126171C
:101A1000370720F0208131813783268366817781E3
:101A20000C9407270895EF92FF921F93CF93DF93B3
:101A3000EC010FB6F8940F921E8D7C0181E1E80E47
:101A4000F11C1116C4F08FEF8E8F0F900FBE0FB6E2
:101A5000F8940F921D8D7E0188E0E80EF11C11169E
:101A6000ACF08FEF8D8F0F900FBEDF91CF911F9154
:101A7000FF90EF9008958989882329F3C7010E9478
:101A80008C1B81110E94FF1C1150DBCF888588239D
:101A900041F3C7010E948C1B81110E94FF1C115051
:101AA000DECFCF93DF93009709F43FC0FC01238D75
:101AB000222309F43AC0EC01448D0FB6F8940F923A
:101AC00080819181FC01249FE00DF11D1124FD8393
:101AD000EC831A8E9B838A832150330B429FF00143
:101AE000439FF00D11248E0F9F1F9F838E838FEFD6
:101AF0008D8F8E8F611110C08885882339F0CE01BB
:101B000008960E948C1B81110E94EC0B0F900FBE57
:101B100081E0DF91CF910895CE0108960E94BF0A1F
:101B2000CE0141960E94BF0AF1CF80E0F2CF0F9321
:101B30001F93CF93DF93811108C0D0E0C0E0CE01A6
:101B4000DF91CF911F910F910895869F90011124ED
:101B5000213E310594F7162F082FC9014F960E9498
:101B6000730AEC01009749F3111109C09983888326
:101B70000B8F1C8F61E0CE010E94510DE0CF4F967C
:101B800099838883F5CFAF92BF92CF92DF92FF9275
:101B90000F931F93CF93DF9300D000D01F92CDB748
:101BA000DEB78C016B015D834C83F22E80E058011F
:101BB00098E0A90EB11C0FB6F8940F92F801228D8F
:101BC000938D291718F0F2E0FF1222C04F2DB601B5
:101BD000C8010E94AF0CF8019189992321F0C80136
:101BE00041960E948C1B81110E94EC0B0F900FBE3E
:101BF00081E00F900F900F900F900F90DF91CF9199
:101C00001F910F91FF90DF90CF90BF90AF900895FC
:101C10002C813D81232B21F40F900FBE80E0E9CF72
:101C2000811104C0CE0101960E94C81C0F900FBE06
:101C30000E946C180FB6F8940F92F801858D8F3FB3
:101C400009F4158EF801868D8F3F09F4168E0F90DA
:101C50000FBEBE016C5F7F4FCE0101960E94D31C68
:101C6000811120C00FB6F8940F92F801928D0F9059
:101C70000FBE838D981310C06C817D81C5010E94B9
:101C8000F91AC8010E94130D0E948819811102C01F
:101C90000E94EC0B81E08FCFC8010E94130D0E94BF
:101CA0008819F8CFC8010E94130D0E948819B6CF79
:101CB000EF92FF921F93CF93DF93EC019A8D8B8D60
:101CC000981718F080E02230D1F47A011E8D8A8DA9
:101CD000422FCE010E94AF0C1F3FB9F489898111B8
:101CE00002C081E00CC0CE0141960E948C1B88236B
:101CF000C1F3E114F104A9F381E0F7018083DF91DE
:101D0000CF911F91FF90EF9008950E9481181817AE
:101D100040F71F5F1E8FE5CFEF92FF921F93CF9387
:101D2000DF93EC018A8D9B8D891720F57B011E8D39
:101D30008F5F8A8F1F3FB9F48989811102C081E0CA
:101D40000CC0CE0141960E948C1B8823C1F3E11484
:101D5000F104A9F381E0F7018083DF91CF911F9116
:101D6000FF90EF9008950E948118181740F71F5FA9
:101D70001E8FE5CF80E0F1CFAF92BF92CF92DF927E
:101D8000FF920F931F93CF93DF9300D000D01F9249
:101D9000CDB7DEB78C016B015D834C8380E05801C9
:101DA00091E1A90EB11C0FB6F8940F92F801F28CD4
:101DB000FF2019F1B601C8010E94F90CFA94F8014C
:101DC000F28E8085882339F0C80108960E948C1B0A
:101DD00081110E94EC0B0F900FBE81E00F900F90CD
:101DE0000F900F900F90DF91CF911F910F91FF9067
:101DF000DF90CF90BF90AF9008952C813D81232B31
:101E000021F40F900FBE80E0E9CF811104C0CE0114
:101E100001960E94C81C0F900FBE0E946C180FB64E
:101E2000F8940F92F801858D8F3F09F4158EF80113
:101E3000868D8F3F09F4168E0F900FBEBE016C5F2A
:101E40007F4FCE0101960E94D31C81111BC0C80197
:101E50000E94A40C882381F06C817D81C5010E94C1
:101E6000F91AC8010E94130D0E948819811102C03D
:101E70000E94EC0B81E097CFC8010E94130D0E94D5
:101E80008819F8CFC8010E94130D0E948819C80153
:101E90000E94A40C882371F3B6CFEF92FF920F93A8
:101EA0001F93CF93DF9300D000D01F92CDB7DEB742
:101EB0008C017D836C8390E0780181E1E80EF11C58
:101EC0000FB6F8940F92F801828D8823D9F08150D3
:101ED000828F8085882339F0C80108960E948C1B68
:101EE00081110E94EC0B0F900FBE81E00F900F90BC
:101EF0000F900F900F90DF91CF911F910F91FF9056
:101F0000EF9008952C813D81232B21F40F900FBE7B
:101F100080E0ECCF911104C0CE0101960E94C81C54
:101F20000F900FBE0E946C180FB6F8940F92F80134
:101F3000858D8F3F09F4158EF801868D8F3F09F44A
:101F4000168E0F900FBEBE016C5F7F4FCE010196C3
:101F50000E94D31C81111BC0C8010E94A40C8823BD
:101F600081F06C817D81C7010E94F91AC8010E942D
:101F7000130D0E948819811102C00E94EC0B91E0A0
:101F80009FCFC8010E94130D0E948819F8CFC80185
:101F90000E94130D0E948819C8010E94A40C882376
:101FA00071F3B6CFCF92DF92EF92FF920F931F9310
:101FB000CF93DF9300D000D01F92CDB7DEB78C0156
:101FC0007B015D834C8380E0680191E1C90ED11CE7
:101FD0000FB6F8940F92F801928D992321F1C680E3
:101FE000D780B701C8010E94F90CF801D782C682D8
:101FF0008189882339F0C80141960E948C1B811188
:102000000E94EC0B0F900FBE81E00F900F900F908D
:102010000F900F90DF91CF911F910F91FF90EF9054
:10202000DF90CF9008952C813D81232B21F40F90D8
:102030000FBE80E0EACF811104C0CE0101960E945C
:10204000C81C0F900FBE0E946C180FB6F8940F9228
:10205000F801858D8F3F09F4158EF801868D8F3F2D
:1020600009F4168E0F900FBEBE016C5F7F4FCE013C
:1020700001960E94D31C81111BC0C8010E94A40CB0
:10208000882381F06C817D81C6010E94F91AC80104
:102090000E94130D0E948819811102C00E94EC0B4E
:1020A00081E096CFC8010E94130D0E948819F8CFD5
:1020B000C8010E94130D0E948819C8010E94A40C37
:1020C000882371F3B6CFEF92FF920F931F93CF93B4
:1020D000DF93FC01028D002341F17A01EC01158DA3
:1020E0000E94F90C01500A8F1F3FC1F488858111AD
:1020F00002C081E00CC0CE0108960E948C1B882390
:10210000C1F3E114F104A9F381E0F7018083DF91C9
:10211000CF911F910F91FF90EF9008950E94811829
:10212000181738F71F5F1D8FE4CF80E0F0CF0F93B3
:102130001F93CF93DF93FC01228D222369F0EC01E2
:10214000068117810E94F90C1F830E8381E0DF91C5
:10215000CF911F910F91089580E0F9CF0FB6F894B9
:102160000F92FC01828D0F900FBE08950FB6F89468
:102170000F92FC01228D0F900FBE838D821B08955C
:10218000FC01828D08950C94AB0AFC01848D0895A6
:10219000FC01838D0895FC01928D81E0911180E016
:1021A0000895FC01928D81E0238D291380E008952C
:1021B000CF93DF93EC01F8940FB6F8940F928A8DC9
:1021C0009B8D0F900FBE891311C04115510559F019
:1021D000BE01685F7F4FCA010E947D0778948CEF33
:1021E000DF91CF910895789480E0FACF7894F894B5
:1021F0008A8D891790F440E0CE010E94AF0C898946
:10220000811103C081E07894EBCFCE0141960E940A
:10221000C3088823B9F38BEFF6CF80E0F4CFCF93D8
:10222000DF93EC01FB01F8948A8D811111C04115F7
:10223000510559F0BE016F5E7F4FCA010E947D07B4
:1022400078948CEFDF91CF910895789480E0FACF65
:102250007894F8948A8D882339F14C8D50E02E8142
:102260003F81240F351F3F832E838C819D8128174A
:10227000390720F0888199819F838E839A8D9150B0
:102280009A8F6E817F81CF010E94072788858111F7
:1022900003C081E07894D6CFCE0108960E94C3088F
:1022A0008823B9F38BEFF6CF80E0F4CF1F93CF9361
:1022B000DF93EC01142F9A8D8B8D981788F440E0F2
:1022C000CE010E94AF0C11110BC08989882341F007
:1022D000CE0141960E94C30811E0811101C010E0B7
:1022E000812FDF91CF911F9108950F931F93CF936B
:1022F000DF93EC018A8D882391F12C8D30E0AE8143
:10230000BF81A20FB31FBF83AE838C819D81A817AD
:10231000B90720F0888199819F838E838A01CB0140
:102320004A8D41504A8F6E817F81A9010E94072703
:10233000F8018081882331F081E0DF91CF911F91F6
:102340000F91089588858823B9F3CE0108960E94DD
:10235000C308882389F381E0F8018083EECF80E011
:10236000ECCFCF93DF93EC010FB6F8940F928D8DE5
:102370008F3F09F41D8E8E8D8F3F09F41E8E0F90B6
:102380000FBE8A8D811104C0CE0141960E944D1B63
:10239000CE01DF91CF910C94130DFC014481558146
:1023A00022813381240F351F80819181B901681BFF
:1023B000790BCB016417750710F0841B950B0895FA
:1023C000AF92BF92CF92DF92EF92FF920F931F9343
:1023D000CF93DF936C015B017A01E901FC01048179
:1023E0001581021B130B4017510708F48A01F601EF
:1023F00084859585A801B5018C0F9D1F0E94072734
:102400000E151F0558F4A701401B510BB501600FB5
:10241000711FF601848595850E940727CE018E0DD8
:102420009F1DF601248135818217930710F0821BCE
:10243000930BDF91CF911F910F91FF90EF90DF9061
:10244000CF90BF90AF900895AF92BF92CF92DF929E
:10245000EF92FF920F931F93CF93DF9300D0CDB7EE
:10246000DEB76C015B017A01FC01828193814685B4
:1024700040FF28C0FA82E9822017310740F19C0111
:1024800042E050E0BE016F5F7F4FC6010E94E01145
:10249000E114F10449F09C01A701B501C6010E94B5
:1024A000E011F60193838283C7010F900F90DF91B3
:1024B000CF911F910F91FF90EF90DF90CF90BF9041
:1024C000AF9008952E153F0518F77901E1CFF12C53
:1024D000E12CEACFAF92BF92CF92DF92EF92FF92C0
:1024E0000F931F93CF93DF936C015B017A01E90196
:1024F000FC0104811581021B130B4017510708F4DE
:102500008A01F601648575856C0F7D1FA801C501E0
:102510000E9407270E151F0558F4A701401B510BF9
:10252000F60164857585C501800F911F0E940727FC
:10253000CE018E0D9F1DF6012481358182179307F0
:1025400010F0821B930BDF91CF911F910F91FF90A1
:10255000EF90DF90CF90BF90AF900895AF92BF9271
:10256000CF92DF92EF92FF920F931F93CF93DF935F
:1025700000D0CDB7DEB77C015B016A018901FC01A7
:1025800020813181868580FF12C042E050E0BE018B
:102590006F5F7F4FC7010E946A129C0189819A81F7
:1025A00002501109C816D906F8F4D12CC12CC01656
:1025B000D10608F486010115110541F0A801B50105
:1025C000C7010E946A12F70191838083C8010F90AE
:1025D0000F90DF91CF911F910F91FF90EF90DF90BF
:1025E000CF90BF90AF9008956C01E1CFEF92FF9232
:1025F0001F93CF93DF93EC017B0111E0413021F079
:1026000010E0423009F414E0E114F10419F4EE246E
:10261000E394F12CF0E0E0E0CF3E8FEFD807B8F480
:10262000CE0141960E94730AFC01892B81F08CE057
:10263000DF011D928A95E9F7CF014096958784873F
:102640002196D583C483F782E68216871786CF0149
:10265000DF91CF911F91FF90EF900895FC012685A7
:1026600021FF0C94AB0A20E111922A95E9F7089515
:10267000FC010FB6F8940F9280859185892BB1F4F7
:1026800082859385892B91F4868197812481358178
:102690004CE0DF011D924A95E9F735832483978347
:1026A0008683178681E00F900FBE089580E0FBCFF0
:1026B000FC0180859185892BA1F482859385892BE6
:1026C00081F486819781248135814CE0DF011D9260
:1026D0004A95E9F73583248397838683178681E0BB
:1026E000089580E008956115710511F461E070E0CE
:1026F000FC01248135816217730720F47783668398
:1027000081E0089580E00895FC0124813581808175
:1027100091816081718142815381A081B181A8172B
:10272000B907A9F7C9010197860F971F841B950B5D
:102730008217930710F0821B930B08950C94CD1110
:102740002F923F924F925F926F927F928F929F92C1
:10275000AF92BF92CF92DF92EF92FF920F931F93AF
:10276000CF93DF9300D000D01F92CDB7DEB75C01CE
:102770001B012A013D832C83FC01848195810197F3
:1027800026854A0120FF54C0F2E08F0E911C881567
:10279000990510F41D821C828C819D81892B09F082
:1027A0004DC0C5010E9484133C0184019301A20124
:1027B000B101C5010E9424124C01892B01F1C50110
:1027C0000E94CD11F5012681378182179307B8F059
:1027D0000E946C18F50180859185892B71F08085A8
:1027E0009185F12CE12C00E020E030E0A901678523
:1027F0000E946E1EF501118610860E948819C40180
:102800000F900F900F900F900F90DF91CF911F912D
:102810000F91FF90EF90DF90CF90BF90AF909F907F
:102820008F907F906F905F904F903F902F90089582
:102830008417950708F0B0CF4C01AECFCE010196BA
:102840000E94B81C0FB6F8940F92C5010E94841321
:102850003C018815990558F5F501678590E080E001
:102860000E9402210E94031DF501938782870F9029
:102870000FBECC80DD80F12CE12C00E010E098014F
:1028800040E050E0BA0187850E94B81DF50113862B
:102890001286BE016C5F7F4FCE0101960E94D31C51
:1028A000882381F26114710409F47BCF7ECF0F90ED
:1028B0000FBEF8CFAF92BF92CF92DF92EF92FF920E
:1028C0000F931F93CF93DF93EC015B017A016901B2
:1028D0008E858A0180FF02C00E5F1F4FCE010E94CD
:1028E00084139C01A701B501CE010E9424125C0152
:1028F000892BC9F0CE010E94CD112E813F81821714
:10290000930788F088859985892B69F08885998552
:10291000F12CE12C00E020E030E0A9016F850E945D
:102920004E1F19861886C501DF91CF911F910F9117
:10293000FF90EF90DF90CF90BF90AF9008956F928F
:102940007F928F929F92AF92BF92CF92DF92EF923F
:10295000FF920F931F93CF93DF93EC014B013A014A
:1029600069018E8580FD47C0B12CA12C82FF02C079
:10297000AE80BF80C114D10429F10FB6F8940F9234
:10298000CE010E94CD118C01A816B90648F06F85C2
:1029900090E080E00E9402210E94031D99878887B1
:1029A0000F900FBEA016B10650F1F12CE12C00E003
:1029B00010E0980140E050E0BA018F850E94B81DF8
:1029C00019861886CE010E94CD118C01A816B90671
:1029D000B0F0B12CA12CC501DF91CF911F910F91C7
:1029E000FF90EF90DF90CF90BF90AF909F908F902F
:1029F0007F906F90089582E0A82EB12CBBCF9801F4
:102A0000A301B401CE010E94AE125C01892B09F32F
:102A10000E946C188A859B85892B69F08A859B8525
:102A2000F12CE12C00E020E030E0A9016F850E944C
:102A30006E1E1B861A860E948819CDCF0F931F9396
:102A4000CF93DF9300D0CDB7DEB7FC01268520FD04
:102A500009C090E080E00F900F90DF91CF911F911F
:102A60000F9108958C010E94CD11039790F3F80106
:102A70002081318142E050E0BE016F5F7F4FC8018D
:102A80000E946A1289819A81E6CFAF92BF92CF925B
:102A9000DF92EF92FF920F931F93CF93DF93EC019E
:102AA0005B017A0169018E8510E000E080FF02C0C1
:102AB00002E010E0CE010E94CD110817190770F056
:102AC000B12CA12CC501DF91CF911F910F91FF90E7
:102AD000EF90DF90CF90BF90AF9008959C01A70139
:102AE000B501CE010E94AE125C01892B49F38A85A3
:102AF0009B85892B39F38A859B85F12CE12C00E09D
:102B000020E030E0A9016F850E944E1F1B861A86C7
:102B1000D9CFFC01208131814281538181E042176C
:102B2000530709F080E00895CF93DF93FC012685D9
:102B3000D0E0C0E020FF02C0C2E0D0E00E948413D9
:102B400021E0C817D90708F420E0822FDF91CF9148
:102B50000895CF92DF92EF92FF920F93CF93DF937E
:102B6000FC0120853185232BC1F06B01EC018085B0
:102B70009185F12CE12C00E020E030E0A90167858F
:102B80000E944E1F1986188681E0DF91CF910F9128
:102B9000FF90EF90DF90CF90089580E0F6CFCF9236
:102BA000DF92EF92FF920F93CF93DF93FC01228588
:102BB0003385232BC1F06B01EC0182859385F12CC9
:102BC000E12C00E020E030E0A90167850E944E1F63
:102BD0001B861A8681E0DF91CF910F91FF90EF90D5
:102BE000DF90CF90089580E0F6CFFC0187850895AF
:102BF000FC0167870895E0915307F09154078081A5
:102C0000811107C08FEF9FEF9093330780933207B6
:102C10000895E0915307F09154070580F681E02D67
:102C200080819181F1CFCF92DF92EF92FF920F934B
:102C30001F93CF93DF93EC01C0903B07D0903C07EC
:102C40000091530710915407E0905107F0905207FC
:102C500080918B0790918C0702960E94270BCC0DD8
:102C6000DD1DE0918B07F0918C07D383C2836091C7
:102C70008B0770918C076E5F7F4FCC15DD0558F484
:102C8000C701DF91CF911F910F91FF90EF90DF90DF
:102C9000CF900C94F10AC8010E94F10A809132078A
:102CA00090913307C817D90720F4D0933307C09306
:102CB0003207DF91CF911F910F91FF90EF90DF903E
:102CC000CF900895CF93DF9380913E07811103C089
:102CD000DF91CF9108950FB6F8940F92E0914407D9
:102CE000F0914507C681D781CE0102960E94270B3D
:102CF00080913D07815080933D0780913E07815030
:102D000080933E070F900FBE8F89988D0E94AB0A6B
:102D1000CE010E94AB0AD8CF0E946216809167074D
:102D20008230D0F30E94EC0BF7CF4F925F926F92FC
:102D30007F928F929F92AF92BF92CF92DF92EF924B
:102D4000FF920F93CF93DF934C015B012901C42EB7
:102D5000D12CC6010E94730A3C01892B09F4C9C019
:102D600086E290E00E94730AEC01892B09F4BEC050
:102D700086E2DE011D928A95E9F7788E6F8AB1E0CE
:102D8000CB1AD108C60CD71CA114B10409F0C2C0DB
:102D9000043008F003E00E8B5E01B2E0AB0EB11C14
:102DA000C5010E94CD0ACE010C960E94CD0AD9879A
:102DB000C88784E090E0801B91099D878C87DB8B1E
:102DC000CA8BA201B401C6010E944A0B9983888371
:102DD000E114F10419F0F701D183C0830FB6F89420
:102DE0000F9280913D078F5F80933D0780918B0705
:102DF00090918C07892B09F0A3C0D0938C07C093C6
:102E00008B0780913D07813061F587E697E00E944E
:102E1000BF0A80E797E00E94BF0A89E797E00E9417
:102E2000BF0A82E897E00E94BF0A8EE597E00E9401
:102E3000BF0A85E597E00E94BF0A88E497E00E94F8
:102E4000BF0A8FE397E00E94BF0A8EE597E0909358
:102E500054078093530785E597E09093520780933A
:102E60005107809134078F5F80933407AE8980913A
:102E70003A078A1710F4A0933A0729E02A9FD00155
:102E80001124A959B84F11960D90BC91A02DBD8366
:102E9000AC8314968D919C9115979F838E83149685
:102EA0008D919C911597FC01B382A2821596BC92DC
:102EB000AE9214979E89929FF0011124E959F84F20
:102EC000FB87EA8780818F5F80830F900FBE8091A0
:102ED0003907882349F0E0918B07F0918C078689A8
:102EE000891710F40E94EC0B81E004C0C3010E941A
:102EF000AB0A8FEFDF91CF910F91FF90EF90DF90B2
:102F0000CF90BF90AF909F908F907F906F905F9089
:102F10004F900895F501AE01475E5F4FC5010896D9
:102F20002191DA012D93AD019F0121503109D90181
:102F30002C91222319F0E817F90791F718A228CF4E
:102F40008091390781118DCFE0918B07F0918C072B
:102F50009E898689981708F484CFD0938C07C093F4
:102F60008B077FCF0F931F93CF93DF93EC010FB6A7
:102F7000F8940F92892B21F4C0918B07D0918C0784
:102F80008E010E5F1F4FC8010E94270B8C899D89FF
:102F9000892B21F0CE010C960E94270B80913407DB
:102FA0008F5F8093340780918B0790918C072091DD
:102FB0003907222359F18C179D0741F5B8018FE39A
:102FC00097E00E94D10A80913E078F5F80933E0771
:102FD00081E00F900FBE813039F08F89988D0E946B
:102FE000AB0ACE010E94AB0A80913907882349F0D1
:102FF00080918B0790918C078C179D0711F40E948C
:10300000EC0BDF91CF911F910F91089580913D07B7
:10301000815080933D070E94FB1580E0DACFEF924C
:10302000FF920F93CF93DF93CDB7DEB728970FB6FC
:10303000F894DEBF0FBECDBFAAEFB0E0FE0131961F
:1030400022E031E0BF018D918193882319F02A1786
:103050003B07C9F780E3E82E87E0F82E00E030E078
:1030600020E045E58CE896E10E9495168823A9F0BA
:10307000813099F40E940C23813079F4F8942FEF79
:103080003FEF309333072093320780933907109234
:103090003C0710923B070E94B60B80918A0028964D
:1030A0000FB6F894DEBF0FBECDBFDF91CF910F9169
:1030B000FF90EF9008950E94BC230E94B217809168
:1030C0003007909131070E94B2170E946216F8945F
:1030D000109239070C94EB0B80912F078F5F809330
:1030E0002F0708950FB6F8940F9280913B079091A7
:1030F0003C070F900FBE089580913B0790913C07CD
:10310000089580913D070895009721F480918B07E1
:1031100090918C0749960895CF92DF92EF92FF929B
:103120000F931F93CF93DF9380912F078111E5C0F9
:10313000C0913B07D0913C076E018FEFC81AD80AA7
:10314000D0923C07C0923B07C114D104B9F48091DE
:1031500053079091540720915107309152073093B3
:1031600054072093530790935207809351078091FF
:1031700035078F5F809335070E94FB1580913207DA
:1031800090913307C816D906E8F480E0E0918B07E8
:10319000F0918C07E689D9E0ED9FF0011124E959FF
:1031A000F84F9081923008F081E0909136079111AC
:1031B00081E0DF91CF911F910F91FF90EF90DF9011
:1031C000CF90089580E069E0E0915307F0915407B3
:1031D0009081911107C02FEF3FEF30933307209379
:1031E0003207D4CFE0915307F09154070580F68160
:1031F000E02D0680F781E02D22813381C216D306AF
:1032000060F3C285D3852481358146815781D901F8
:1032100015965C934E93149746815781DA01139665
:103220003C932E9312979F012E5F3F4F09811A8185
:103230000217130711F45A83498313861286988163
:1032400091509883A489B5891097F9F046855785E0
:1032500000891189EA011D830C8300891189E80125
:103260005B834A831196ED90FC901297AF01445F07
:103270005F4FE416F50621F412961C930E931197F6
:10328000158A148A9C9191509C93A68990913A0733
:103290009A1710F4A0933A076A9FD0011124A959F4
:1032A000B84F11960D90BC91A02DB583A4831496B0
:1032B0004D915C9115975783468314964D915C917F
:1032C0001597EA013B832A8315963C932E93149716
:1032D0002689269FD0011124A959B84FB387A28708
:1032E0009C919F5F9C93E0918B07F0918C0796894E
:1032F000921708F069CF81E067CF809137079091EE
:1033000038070196909338078093370780E051CFB4
:10331000EF92FF920F931F93CF93DF930FB6F89422
:103320000F9280912F07815080932F0780912F0754
:10333000882351F080E00F900FBEDF91CF911F9155
:103340000F91FF90EF90089580913D07882391F3AE
:10335000E0904D07F0904E07F0E0E0E039E041E00A
:1033600080914807811122C0EF2B11F00E94FB15BC
:10337000C0913707D0913807209761F011E00E9483
:103380008C188111109336072197C9F710923807CE
:103390001092370780913607882361F280918B075E
:1033A00090918C070E94EC0B81E0C5CFD701169657
:1033B000ED91FC91A489B58966857785808991898D
:1033C000EB019D838C8380899189EC017B836A83E7
:1033D000BF01645F7F4F11960D911C9112970617E4
:1033E000170721F412969C938E931197158A148ACD
:1033F0008C9181508C93A285B3858481958166815F
:103400007781EC017D836C8366817781EB019B83FF
:103410008A83CF01029611960D911C91129708177D
:10342000190721F412967C936E93119713861286D6
:103430002C9121502C93A68920913A072A1710F439
:10344000A0933A073A9FD0011124A959B84F119679
:103450000D90BC91A02DB583A48314966D917C91A1
:1034600015977783668314966D917C911597EB0180
:103470009B838A8315969C938E9314979689939F2A
:10348000D0011124A959B84FB387A2878C918F5FBF
:103490008C93A0918B07B0918C0756968C918917CD
:1034A00008F05ECF409336075BCF0F931F93CF9307
:1034B000DF93EC018B010E946C1820913B07309147
:1034C0003C0748815981CA01800F911F99838883E5
:1034D0002417350780F48417950780F0C0E00E9418
:1034E0008819811102C00E94EC0B8C2FDF91CF91C3
:1034F0001F910F9108958417950718F02817390721
:1035000068F7821B930B0E941316C1E0E8CFCF939C
:10351000DF93EC01892B29F40E94EC0BDF91CF9112
:1035200008950E946C18CE010E9413160E948819FB
:10353000882391F3F3CFCF93DF93EC010E946C18B3
:103540000FB6F8940F9280913707909138078C0F3F
:103550009D1F90933807809337070F900FBEDF9120
:10356000CF910C94881980912F07882321F081E056
:103570008093360708951092360720913A0789E024
:10358000422F50E0849FF001859FF00D1124E959EE
:10359000F84F9081992359F1A181B28112966D91D2
:1035A0007C9172836183289FC00111248659984FB2
:1035B0006817790721F4858196819283818389E058
:1035C000849FF001859FF00D1124E959F84F018087
:1035D000F281E02D8681978190938C0780938B07F1
:1035E00020933A0780918B0790918C070895215082
:1035F000C7CFCF93DF93EB0160918B0770918C075E
:10360000645F7F4F0E94F10ACE01DF91CF910C944D
:103610001316CF93DF93FC01A0918B07B0918C0719
:1036200070681D967C936E931C97A181B281C091A6
:103630008B07D0918C07BF87AE87C0918B07D09145
:103640008C0714968D919C911597998B888B20915E
:103650008B0730918C071496CD91DC911597245FE0
:103660003F4F3B832A8320918B0730918C07245F47
:103670003F4F15963C932E931497A0918B07B091D2
:103680008C075596FC93EE93549790819F5F90839F
:10369000CA01DF91CF910C941316CF93DF93FC01F5
:1036A000A181B281C0918B07D0918C07BF87AE8773
:1036B000C0918B07D0918C0714968D919C91159792
:1036C000998B888B20918B0730918C071496CD9124
:1036D000DC911597245F3F4F3B832A8320918B0712
:1036E00030918C07245F3F4F15963C932E9314978F
:1036F000A0918B07B0918C075596FC93EE9354974D
:1037000090819F5F9083442311F06FEF7FEFCB0197
:10371000DF91CF910C941316CF93DF93DC011596B4
:10372000ED91FC910680F781E02DA489B58986850D
:10373000978520893189EC013D832C83C089D1890B
:103740009B838A83CF010C9611962D913C91129701
:103750002817390721F41296DC93CE931197158A16
:10376000148A2C9121502C9320912F07211157C09E
:10377000A285B3858481958126813781EC013D83C3
:103780002C83C681D7819B838A83CF0102961196B1
:103790002D913C9112972817390721F41296DC934A
:1037A000CE931197138612862C9121502C93C689A3
:1037B00020913A072C1710F4C0933A0729E02C9F68
:1037C000E0011124C959D84F0980DA81C02DD58371
:1037D000C4834C815D8157834683AC81BD81139640
:1037E0009C938E9312979D838C83A689A29FD00170
:1037F0001124A959B84FB387A2878C918F5F8C93FE
:10380000A0918B07B0918C07968956968C91891759
:1038100030F581E080933607DF91CF910895A09134
:103820004907B0914A07B787A68714962D913C9116
:103830001597318B208B1496CD91DC9115979B8336
:103840008A8315969C938E93149788E497E0958BC2
:10385000848B809148078F5F80934807D1CF80E0A9
:10386000DBCFCF93DF93DC01706811967C936E936E
:103870001696ED91FC91179718964D915C911997BA
:1038800012962D913C91139714968D919C911597BA
:10389000E9019D838C8314968D919C911597EC0181
:1038A0003B832A83EA0129813A812A173B0711F4D5
:1038B0009A83898319961C921E921897DA018C912B
:1038C00081508C93A285B38584819581268137812F
:1038D000EC013D832C83C681D7819B838A83CF01F2
:1038E000029611962D913C9112972817390721F4D1
:1038F0001296DC93CE931197138612862C91215049
:103900002C93C68920913A072C1710F4C0933A07DC
:1039100049E04C9FE0011124C959D84F0980DA8150
:10392000C02DD583C4832C813D81378326832C8190
:103930003D81D90113969C938E9312979D838C831E
:103940009689949FD0011124A959B84FB387A287B3
:103950008C918F5F8C93E0918B07F0918C07868917
:10396000891718F481E080933607DF91CF9108958D
:103970000FB6F8940F9220913507FC012083209117
:103980003B0730913C07328321830F900FBE08958F
:1039900020913507FC01208320913B0730913C07A3
:1039A0003283218308950FB6F8940F9220913B073C
:1039B00030913C07DC0111964D915C911297E0919A
:1039C0003507FC91FE1751F02417350738F0FB013D
:1039D0001182108281E00F900FBE0895241B350BD9
:1039E000DB014D915C912417350788F7421B530B7F
:1039F000FB01518340830E94C81C80E0ECCF81E032
:103A000080933607089580918B0790918C070895D5
:103A1000811105C080918B0790918C07089590E0EB
:103A200080E0089580913907882331F080912F0735
:103A3000882321F080E0089581E0089582E00895D0
:103A4000E0918B07F0918C0784859585A0918B0779
:103A5000B0918C07E0918B07F0918C0756964C91B2
:103A600024E030E0241B3109358724870895CF9264
:103A7000DF92EF92FF920F931F93CF93DF93C82FA4
:103A8000E62E6A010E946C180FB6F8940F92E0912E
:103A90008B07F0918C07D0E08E01000F111F000FF3
:103AA000111FE00FF11F81A192A1A3A1B4A1892B45
:103AB0008A2B8B2B69F4E0918B07F0918C07EC0F2C
:103AC000FD1F81E085A3FF24F394C114D10409F400
:103AD000F12C0F900FBE21E0F21203C0C6010E942C
:103AE00013160E94881991E0F91204C0811102C0D6
:103AF0000E94EC0B0FB6F8940F92E0918B07F091B7
:103B00008C07E00FF11F61A172A183A194A161153F
:103B100071058105910569F020918B0730918C0723
:103B2000020F131FEE20B9F0F80111A212A213A286
:103B300014A220918B0730918C07C20FD31F1DA2B6
:103B40000F900FBEDF91CF911F910F91FF90EF90DB
:103B5000DF90CF9008956B017C01F1E0CF1AD1087E
:103B6000E108F108F801C1A2D2A2E3A2F4A2E1CFD8
:103B70004F925F926F927F928F929F92AF92BF927D
:103B8000CF92DF92EF92FF920F931F93CF93DF9329
:103B9000C82F2A013B01480159010E946C180FB639
:103BA000F8940F92E0918B07F0918C07D0E0EC0F26
:103BB000FD1F85A1823039F1E0918B07F0918C07D0
:103BC000CE01880F991F880F991FE80FF91F81A157
:103BD00092A1A3A1B4A140945094609470948421C4
:103BE0009521A621B72181A392A3A3A3B4A3E09119
:103BF0008B07F0918C07EC0FFD1F81E085A311E08E
:103C0000C114D10409F410E00F900FBE113019F463
:103C1000C6010E9413160E948819113021F48111E7
:103C200002C00E94EC0B0FB6F8940F92E114F1045D
:103C3000A1F0E0918B07F0918C07CE01880F991FBE
:103C4000880F991FE80FF91F81A192A1A3A1B4A128
:103C5000F70180839183A283B383E0918B07F09176
:103C60008C07EC0FFD1F85A18230B1F5E0918B0729
:103C7000F0918C07CE01880F991F880F991FE80FCC
:103C8000F91F81A192A1A3A1B4A180949094A094C2
:103C9000B09488219921AA21BB2181A392A3A3A337
:103CA000B4A381E020918B0730918C07C20FD31F02
:103CB0001DA20F900FBEDF91CF911F910F91FF902A
:103CC000EF90DF90CF90BF90AF909F908F907F90BC
:103CD0006F905F904F90089580E0E4CF8F929F9215
:103CE000AF92BF92CF92DF92EF92FF920F93CF935A
:103CF000DF93DC010FB6F8940F9270E0E114F10449
:103D000081F0FB01EE0FFF1FEE0FFF1FE80FF91F01
:103D100081A092A0A3A0B4A0E70188829982AA8280
:103D2000BB82FD01E60FF71F85A192E095A302304B
:103D3000E1F1A0F4013029F1813009F44AC081E0B9
:103D40000F900FBEDF91CF910F91FF90EF90DF901A
:103D5000CF90BF90AF909F908F900895033029F03F
:103D6000043051F7823009F497C0660F771F660F51
:103D7000771FFD01E60FF71F21A332A343A354A32E
:103D8000DBCF660F771F660F771FFD01E60FF71F6A
:103D9000C1A0D2A0E3A0F4A0C22AD32AE42AF52A23
:103DA000C1A2D2A2E3A2F4A2C7CF660F771F660F0B
:103DB000771FFD01E60FF71F41A152A163A174A176
:103DC0004F5F5F4F6F4F7F4F41A352A363A374A315
:103DD000B3CF1A96ED91FC911B9714968D919C91FF
:103DE000159716962D913C911797EC013D832C83E6
:103DF0001696CD91DC9117979B838A839D012E5F48
:103E00003F4F818192818217930711F4D283C1833E
:103E10001B961C921E921A97808181508083569621
:103E2000CC91569780913A078C1710F4C0933A07BB
:103E300049E04C9FE0011124C959D84F0980DA812B
:103E4000C02D1596DC93CE9314978C819D81179687
:103E50009C938E9316978C819D81FC0133832283E2
:103E60003D832C8356969C915697949FF001112484
:103E7000E959F84F1B96FC93EE931A9780818F5F58
:103E80008083E0918B07F0918C078689891708F071
:103E900056CF0E94EC0B53CF80E052CF8F929F926F
:103EA000AF92BF92CF92DF92EF92FF920F93CF9398
:103EB000DF93DC0170E0E114F10481F0FB01EE0F0F
:103EC000FF1FEE0FFF1FE80FF91F81A092A0A3A014
:103ED000B4A0E70188829982AA82BB82FD01E60F25
:103EE000F71F85A192E095A30230D1F190F4013043
:103EF00019F1813009F448C081E0DF91CF910F9131
:103F0000FF90EF90DF90CF90BF90AF909F908F90F9
:103F10000895033029F0043061F7823009F4C5C0F8
:103F2000660F771F660F771FFD01E60FF71F21A3AE
:103F300032A343A354A3DDCF660F771F660F771F0D
:103F4000FD01E60FF71F81A092A0A3A0B4A0822AD2
:103F5000932AA42AB52A81A292A2A3A2B4A2C9CF6D
:103F6000660F771F660F771FFD01E60FF71F41A150
:103F700052A163A174A14F5F5F4F6F4F7F4F41A369
:103F800052A363A374A3B5CF80912F0781116BC097
:103F90001A96ED91FC911B9714968D919C91159713
:103FA00016962D913C911797EC013D832C83169624
:103FB000CD91DC9117979B838A839D012E5F3F4FA4
:103FC000818192818217930711F4D283C1831B965A
:103FD0001C921E921A978081815080835696CC91B4
:103FE000569780913A078C1710F4C0933A0789E0EE
:103FF0008C9FE0011124C959D84F0980DA81C02D66
:104000001596DC93CE9314974C815D8117965C9343
:104010004E931697EC81FD81338322833D832C835D
:104020005696EC915697E89FF0011124E959F84F04
:104030001B96FC93EE931A9780818F5F8083E091AB
:104040008B07F0918C0756969C918689891708F00A
:1040500053CFC114D10419F081E0F601808381E0CF
:10406000809336074ACFE0914907F0914A071F969F
:10407000FC93EE931E978481958151969C938E9329
:104080005097C481D581CD010C969B838A839583FB
:10409000848388E497E055969C938E9354978091FF
:1040A00048078F5F80934807CACF80E026CF0F93E1
:1040B0001F93CF93DF93FC01A62FB0E0EC01CA0F52
:1040C000DB1F8DA192E09DA3AA0FBB1FAA0FBB1FF0
:1040D000AE0FBF1F91960D911D912D913C9194971C
:1040E0000F5F1F4F2F4F3F4F91960D931D932D93B1
:1040F0003C939497813009F05EC080912F07811125
:104100005FC0A285B3858481958126813781EC01CA
:104110003D832C83C681D7819B838A83CF010296FE
:1041200011962D913C9112972817390721F4129678
:10413000DC93CE931197138612862C9121502C93E9
:10414000C68920913A072C1710F4C0933A0729E04A
:104150002C9FE0011124C959D84F0980DA81C02D64
:10416000D583C4836C817D8177836683AC81BD8177
:1041700013969C938E9312979D838C83A689A29FFE
:10418000D0011124A959B84FB387A2878C918F5FB2
:104190008C93A0918B07B0918C07968956968C9141
:1041A000891748F44115510519F081E0FA0180831F
:1041B00081E080933607DF91CF911F910F91089591
:1041C000A0914907B0914A07B787A68714968D91A9
:1041D0009C911597918B808B1496CD91DC911597BE
:1041E000CF010C969B838A8315969C938E9314978C
:1041F00088E497E0958B848B809148078F5F80934C
:104200004807C7CF009721F480918B0790918C07C6
:104210000FB6F8940F92FC01E60FF11D85A18230D4
:1042200029F415A281E00F900FBE089580E0FBCF26
:10423000CF92DF92EF92FF92009721F480918B074B
:1042400090918C070FB6F8940F9274E0679FF0017D
:104250001124E80FF91F61A172A183A194A1C1A04B
:10426000D2A0E3A0F4A02095309540955095C222AD
:10427000D322E422F522C1A2D2A2E3A2F4A20F909B
:104280000FBEFF90EF90DF90CF90089510928C07B3
:1042900010928B0710923E0710923D0710923C0738
:1042A00010923B0710923A07109239071092380784
:1042B0001092370710923607109235071092340784
:1042C000109233071092320710922F0708950FB6FD
:1042D000F8940F928091910790919207892BE9F4BD
:1042E00080EA97E00E94BF0A87E997E00E94BF0A30
:1042F00080EA97E0909396078093950787E997E087
:10430000909394078093930740E065E08AE00E94D1
:10431000970D90939207809391070F900FBE089589
:10432000FC0173836283918780874617570790F05B
:10433000421B530B8485958548175907C8F4BF0164
:104340006E5F7F4F80919307909194070E94F10ACE
:1043500080E008954217530718F46217730740F47A
:10436000BF016E5F7F4F8091950790919607EECFCA
:1043700081E00895EF92FF920F931F93CF93DF9305
:10438000EC018B017A016C857D85600F711F9801AE
:10439000A701CE010E949021811107C0DF91CF912A
:1043A0001F910F91FF90EF9008958C859D85080FC8
:1043B000191FE889F989CE010995E5CFEF92FF929F
:1043C0000F931F93CF93DF938C017B01E0919507AF
:1043D000F09196070580F681E02DC681D781CE0148
:1043E00002960E94270B8A8982FF0FC0A701B8019D
:1043F000CE010E94BA21E889F989CE01DF91CF91DF
:104400001F910F91FF90EF9009948E7F8A8BF3CFCD
:10441000E0919507F0919607808181110DC0809100
:104420009307909194079093960780939507F09344
:104430009407E093930708950580F681E02D6FEFD0
:104440007FEF808191810E94DE21E2CFCF93DF93C5
:1044500000D000D01F92CDB7DEB785E0B82ECE01D8
:1044600001967C01E0919507F0919607A08010E0FD
:1044700000E0AA2029F00580F681E02D008111815D
:104480000E946C180E9472186C0180918D079091A7
:104490008E07C816D90608F04FC00E940822D09295
:1044A0008E07C0928D070E948819D701EB2D1D92AF
:1044B000EA95E9F750E040E0B701809191079091CB
:1044C00092070E94BC0E882369F2898187FDF2CF92
:1044D0000C811D81D8011A968D919C91892B21F018
:1044E000C80102960E94270B0E9472186C018091ED
:1044F0008D0790918E07C816D90610F40E940822E5
:10450000D0928E07C0928D07E981E150E93090F694
:104510000E2E000CFF0BED56FD4DD80152968C91DE
:1045200052970C94E326C422C4220823F0220223CB
:10453000C422C4220823F022D0928E07C0928D0795
:10454000AA2051F0C016D10670F00E948819B60159
:10455000C8010E94DE21A9CFE0919307F091940752
:1045600041E08081811140E0B8016C197D098091A2
:104570009107909192070E94B1110E9488198111B0
:1045800094CF0E94EC0B91CF8160F801828B2A813D
:104590003B8164857585620F731FA601C8010E9467
:1045A0009021882309F486CFD80152968C91529796
:1045B00082FF12C06A817B811C968D919C91680F4D
:1045C000791FA601C8010E94BA21D8015096ED9129
:1045D000FC91C80109956ECF8E7FF801828BF5CFD3
:1045E000816052968C9352976A817B811D967C9351
:1045F0006E931C976C0D7D1D9601A601C8010E944B
:10460000902158CF81FD04C0C8010E94AB0A52CF4F
:104610008E7FF801828B4ECFEF92FF920F930E9414
:1046200067218091910790919207892B91F08FE8F3
:10463000E82E87E0F82E02E030E020E040E86FEF5F
:1046400070E086E292E20E9495160F91FF90EF9043
:10465000089580E0FACF8F929F92AF92BF92CF924F
:10466000DF92FF920F931F93CF93DF934C015B0177
:10467000F42E690183E190E00E94730AEC01892B1A
:10468000A1F01A8A0E94672199828882BD86AC8631
:10469000DF86CE86198B088BCE0102960E94CD0A4A
:1046A000FF2019F08A8984608A8BCE01DF91CF9137
:1046B0001F910F91FF90DF90CF90BF90AF909F9090
:1046C0008F9008950F931F93CF93DF9300D000D066
:1046D0001F92CDB7DEB72091910730919207232B1F
:1046E00059F480E00F900F900F900F900F90DF9192
:1046F000CF911F910F91089569835B834A839D83B6
:104700008C83663074F70E94121DE0919107F0913E
:10471000920720E0A801823011F050E040E0BE0195
:104720006F5F7F4FCF010E94C30DDCCFCF93DF932C
:1047300000D000D01F92CDB7DEB7FC018091910769
:1047400090919207009749F480E00F900F900F909E
:104750000F900F90DF91CF91089569835B834A8317
:10476000FD83EC83663084F3A90120E0BE016F5F16
:104770007F4F0E94580EE9CF80918F07909190074C
:104780000895FC01848595850895FC010FB6F89481
:104790000F929289662329F09460928B0F900FBE3E
:1047A00008959B7FFACF0FB6F8940F920F900FBE2B
:1047B000FC01828982FB882780F908950C94D32319
:1047C000FC01828193810895FC018081918108958B
:1047D0000FB6F8940F920F900FBEFC018289817082
:1047E00008950FB6F8940F920F900FBEFC018685C6
:1047F000978508950FB6F8940F92FC017787668726
:104800000F900FBE08951092920710929107109288
:10481000900710928F0708950E94800460E080E85E
:104820000E9478030E942F02FFCF5058BB27AA276F
:104830000E942D240C9471250E94632538F00E945B
:104840006A2520F039F49F3F19F426F40C94602572
:104850000EF4E095E7FB0C945A25E92F0E9482257F
:1048600058F3BA17620773078407950720F079F4A5
:10487000A6F50C94A4250EF4E0950B2EBA2FA02DCE
:104880000B01B90190010C01CA01A0011124FF27FD
:10489000591B99F0593F50F4503E68F11A16F040F8
:1048A000A22F232F342F4427585FF3CF46953795F7
:1048B0002795A795F0405395C9F77EF41F16BA0BBC
:1048C000620B730B840BBAF09150A1F0FF0FBB1F6A
:1048D000661F771F881FC2F70EC0BA0F621F731FB3
:1048E000841F48F4879577956795B795F7959E3F10
:1048F00008F0B0CF9395880F08F09927EE0F9795A1
:10490000879508950E94362508F481E008950E9455
:104910009B240C9471250E946A2558F00E946325FF
:1049200040F029F45F3F29F00C945A2551110C9462
:10493000A5250C9460250E94822568F39923B1F384
:10494000552391F3951B550BBB27AA2762177307B5
:10495000840738F09F5F5F4F220F331F441FAA1F49
:10496000A9F335D00E2E3AF0E0E832D09150504005
:10497000E695001CCAF72BD0FE2F29D0660F771FB3
:10498000881FBB1F261737074807AB07B0E809F099
:10499000BB0B802DBF01FF2793585F4F3AF09E3F1E
:1049A000510578F00C945A250C94A5255F3FE4F34B
:1049B000983ED4F3869577956795B795F7959F5F61
:1049C000C9F7880F911D9695879597F90895E1E0AD
:1049D000660F771F881FBB1F621773078407BA070C
:1049E00020F0621B730B840BBA0BEE1F88F7E09567
:1049F0000895E89409C097FB3EF4909580957095D2
:104A000061957F4F8F4F9F4F9923A9F0F92F96E91A
:104A1000BB279395F695879577956795B795F1118F
:104A2000F8CFFAF4BB0F11F460FF1BC06F5F7F4F2C
:104A30008F4F9F4F16C0882311F096E911C077233E
:104A400021F09EE8872F762F05C0662371F096E847
:104A5000862F70E060E02AF09A95660F771F881F16
:104A6000DAF7880F9695879597F90895990F0008BA
:104A7000550FAA0BE0E8FEEF16161706E807F90730
:104A8000C0F012161306E407F50798F0621B730BCB
:104A9000840B950B39F40A2661F0232B242B252B4C
:104AA00021F408950A2609F4A140A6958FEF811DEF
:104AB000811D089597F99F6780E870E060E0089590
:104AC0009FEF80EC089500240A9416161706180626
:104AD0000906089500240A94121613061406050602
:104AE0000895092E0394000C11F4882352F0BB0F93
:104AF00040F4BF2B11F460FF04C06F5F7F4F8F4FF6
:104B00009F4F089557FD9058440F551F59F05F3F30
:104B100071F04795880F97FB991F61F09F3F79F0DF
:104B200087950895121613061406551FF2CF469561
:104B3000F1DF08C0161617061806991FF1CF8695E3
:104B40007105610508940895E894BB2766277727C7
:104B5000CB0197F908950E94362508F48FEF089548
:104B600016F00C946D260C94602568940C945A25CC
:104B70000E948A25A8F39923C1F3AEF3DF93CF9364
:104B80001F930F93FF92C92FDD2788232AF02197C7
:104B9000660F771F881FDAF720E030E040E85FEB10
:104BA0009FE3883920F0803E38F021968F770E946D
:104BB0001624E4E5F0E004C00E941624E1E8F0E0E9
:104BC0000E947B268B01BE01EC01FB2E6F57710901
:104BD0007595771F880B990B0E94FB2428E132E71B
:104BE00041E35FE30E941326AF2D9801AE01FF90D1
:104BF0000F911F91CF91DF910E942D240C9471256C
:104C00000E9413260C9471250E94632538F00E949F
:104C10006A2520F0952311F00C945A250C946025F8
:104C200011240C94A5250E94822570F3959FC1F351
:104C3000950F50E0551F629FF001729FBB27F00D4A
:104C4000B11D639FAA27F00DB11DAA1F649F66279F
:104C5000B00DA11D661F829F2227B00DA11D621FEE
:104C6000739FB00DA11D621F839FA00D611D221FA8
:104C7000749F3327A00D611D231F849F600D211D8C
:104C8000822F762F6A2F11249F5750409AF0F1F00F
:104C900088234AF0EE0FFF1FBB1F661F771F881F78
:104CA00091505040A9F79E3F510580F00C945A2531
:104CB0000C94A5255F3FE4F3983ED4F38695779551
:104CC0006795B795F795E7959F5FC1F7FE2B880F1E
:104CD000911D9695879597F908959F3F31F09150D2
:104CE00020F4879577956795B795880F911D9695D0
:104CF000879597F90895DF93CF931F930F93FF92B2
:104D0000EF92DF927B018C01689406C0DA2EEF01EE
:104D10000E941326FE01E894A591259135914591B5
:104D20005591A6F3EF010E942D24FE019701A801E1
:104D3000DA9469F7DF90EF90FF900F911F91CF9178
:104D4000DF910895A1E21A2EAA1BBB1BFD010DC025
:104D5000AA1FBB1FEE1FFF1FA217B307E407F5072B
:104D600020F0A21BB30BE40BF50B661F771F881F07
:104D7000991F1A9469F760957095809590959B019D
:104D8000AC01BD01CF010895052E97FB1EF40094E0
:104D90000E94DB2657FD07D00E94A22607FC03D005
:104DA0004EF40C94DB2650954095309521953F4F5D
:104DB0004F4F5F4F089590958095709561957F4F07
:104DC0008F4F9F4F0895EE0FFF1F0590F491E02D38
:104DD0000994EF920F931F93CF93DF93E80134E090
:104DE00047FD34E1042E000C550B57FF03C05195CD
:104DF00041955109E32E022F242FAE010E94102766
:104E0000CE01DF91CF911F910F91EF900895FB019B
:104E1000DC0102C001900D9241505040D8F7089536
:104E2000A9E0B0E0E6E1F7E20C944D296A01F22E28
:104E3000B02E102FFBE3AF2EA01608F41BE31F5F6C
:104E4000012F27E0AE014F5F5F4F0E946F28BC012A
:104E50008981982F9970913009F43FC09BE2E1FC61
:104E600004C09E2D9170E0FC3AC05E2D5071E82F79
:104E7000E87083FF46C084E0911101C083E0EF2D0C
:104E8000E81B8F1508F0E0E0D6018E2F20E25523B5
:104E900051F1992329F0D6019C93C60101966C012A
:104EA00096012D5F3F4FE2FE24C08EE4D6018C9325
:104EB00091E411969C93119712968C93D9018E2FA1
:104EC00090E281111BC0E20FF32FF11D10828EEFD3
:104ED0009FEF2996ECE00C9469299DE2C6CF90E201
:104EE000C4CF2D9381508111FCCFCE0ED11CE0E0B8
:104EF000D0CF8EE6D6018C9391E6DBCF9D93815087
:104F0000E0CF482F447082FF3DC084E0911101C082
:104F100083E08F1510F4EF2DE81BD6018E2F20E2D1
:104F2000552309F1992329F0D6019C93C6010196D6
:104F30006C0196012D5F3F4FE2FE1BC089E4D60154
:104F40008C938EE411968C93119786E412968C9331
:104F5000D9018E2F90E2882309F4B5CF9D9381501B
:104F6000FACF2D9381508111FCCFCE0ED11CE0E001
:104F7000D9CF89E6D6018C938EE611968C93119742
:104F800086E6E4CF9B0177FF02C030E020E0A1E09D
:104F9000B0E0911102C0B0E0A0E0F9013196AE0F8F
:104FA000BF1F8B2C912CBB2009F461C05401EFEF83
:104FB000AE1ABE0AAA0DBB1DFA161B0619F014F094
:104FC0004F2D4A1B511188C0E3FC59C07601A42F14
:104FD000B0E2A1114FC0C40ED11C992309F45BC0EB
:104FE00040E0D6011196F60190836D01552309F436
:104FF00048C0012F060F9A81582F507184FF03C0BB
:10500000913309F4015010160CF047C0093008F034
:1050100008E0EEE2FE2E5B01A01AB1088501919432
:10502000819491082F3F320729F4D601FC92F601B2
:1050300031966F016217730794F1021713077CF51D
:10504000DB01A21BB30BAA24A394B12CAC0EBD1E92
:10505000AA0DBB1D11968C9121503109D6011196D4
:1050600028153905F4F0F60180836D01DBCFB12CF2
:10507000A12CA0CFF701B1937F01A150AACF91112C
:10508000B0CFD601942F50E302C05D93915091119F
:10509000FCCFC40ED11C40E0ACCF01E0BACF80E31E
:1050A000DBCF6217730731F4963388F4953311F42C
:1050B000552369F0F6018083FD01842F90E2811170
:1050C00008C0A40FB11D1C9290E080E002CF81E3E4
:1050D000F1CF91938150F3CF911183CF8ACF2830B4
:1050E00008F027E03327DA01990F311D87FD916021
:1050F00000966105710539F432602E5F3D9330E30F
:105100002A95E1F708959F3F30F0803871056105D9
:1051100009F03C5F3C5F3D93913008F08068911D41
:10512000DF93CF931F930F93FF92EF92192F987FE6
:105130009695E92F96959695E90FFF27E85FFE4F24
:1051400099273327EE24FF24A701E701059008944F
:10515000079428F4360FE71EF81E491F511D660FED
:10516000771F881F991F0694A1F70590079428F4CC
:10517000E70EF81E491F561FC11D770F881F991F84
:10518000661F0694A1F70590079428F4F80E491FAE
:10519000561FC71FD11D880F991F661F771F0694C2
:1051A000A1F70590079420F4490F561FC71FD81F79
:1051B000990F661F771F881F0694A9F78491109591
:1051C000177041F0D695C79557954795F794E79492
:1051D0001A95C1F7EEEAF0E06894159015913591B3
:1051E0006591959105907FE27395E118F10A430B63
:1051F000560BC90BD009C0F7E10CF11E431F561F17
:10520000C91FD01D7EF4703311F48A95E6CFE8945F
:10521000015030F0080F0AF40027021708F4202F7D
:105220002395022F7A3328F079E37D932A95E9F7C5
:1052300010C07D932A9589F60694979567953795C2
:1052400017951794E118F10A430B560BC90BD009B7
:1052500098F023957E9173957A3308F070E37C93F0
:105260002013B8F77E9170617D9330F0839571E3E0
:105270007D9370E32A95E1F71124EF90FF900F9151
:105280001F91CF91DF91992787FD909508952F92D7
:105290003F924F925F926F927F928F929F92AF92C6
:1052A000BF92CF92DF92EF92FF920F931F93CF9313
:1052B000DF93CDB7DEB7CA1BDB0B0FB6F894DEBFAA
:1052C0000FBECDBF09942A88398848885F846E84D0
:1052D0007D848C849B84AA84B984C884DF80EE801A
:1052E000FD800C811B81AA81B981CE0FD11D0FB623
:1052F000F894DEBF0FBECDBFED010895F894FFCF47
:105300008200000100820001010086000401008685
:10531000000501008600060100860007010031003B
:105320003200370038003700380003537461746569
:105330003A004E4F4E45004368617267696E6700E0
:105340004469736368617267696E67004661756C72
:105350007400446973706C61795265667265736834
:10536000004368617267696E6753746172740053B9
:10537000746F7053657373696F6E0054696D6572F5
:1053800031004368617267652050657263656E74B1
:105390006167653A2000250D0A0049444C450054D8
:0853A0006D72205376630000DA
:00000001FF
