:100000000C94D4000C94DE010C941D020C94F100AD
:100010000C94F1000C94F1000C94F1000C946C0D14
:100020000C94F1000C94F1000C94F1000C94F1008C
:100030000C94F1000C94F1000C94F1000C94F1007C
:100040000C94F1000C94F1000C94F1000C94F1006C
:100050000C94F10008000000BE922449123EABAAA5
:10006000AA2ABECDCCCC4C3E00000080BEABAAAAD2
:10007000AA3E00000000BF000000803F000000001A
:1000800000084178D3BB4387D1133D190E3CC3BD53
:100090004282AD2B3E68EC8276BED98FE1A93E4C00
:1000A00080EFFFBE01C4FF7F3F0000000000004062
:1000B0007A10F35A00A0724E18090010A5D4E80077
:1000C00000E87648170000E40B54020000CA9A3B8F
:1000D000000000E1F5050000809698000000404215
:1000E0000F000000A08601000000102700000000A3
:1000F000E803000000006400000000000A000000A7
:1001000000000100000000002C76D888DC674F0852
:1001100023DFC1DFAE59E1B1B796E5E3E453C63A58
:10012000E651997696E8E6C28426EB898C9B62EDCF
:10013000407C6FFCEFBC9C9F40F2BAA56FA5F49089
:10014000055A2AF75C936B6CF9676DC11BFCE0E400
:100150000D47FEF520E6B500D0ED902E0300943556
:1001600077050080841E080000204E0A000000C8A9
:100170000C333333330F986E12831141EF8D2114FA
:10018000893BE65516CFFEE6DB18D1844B381BF7CA
:100190007C1D901DA4BBE424203284725E22810069
:1001A000C9F124ECA1E53D2711241FBECFE5D8E01D
:1001B000DEBFCDBF11E0A0E6B0E0ECEAF4E502C09E
:1001C00005900D92A433B107D9F727E0A4E3B1E07D
:1001D00001C01D92A63FB207E1F70E94D7240C94FC
:1001E000542A0C940000CF93DF93CDB7DEB7289745
:1001F0000FB6F894DEBF0FBECDBF869A8091460140
:1002000090914701A0914801B091490189839A8357
:10021000AB83BC836FEF7FEF8091E2079091E307A0
:100220000E941810813069F41091350120E050E0EF
:1002300040E070E060E08091E2079091E3070E9467
:100240008E0E8091340181131DC0809160009091C9
:100250006100A0916200B09163008D839E83AF83A3
:10026000B88729813A814B815C816D817E818F8144
:1002700098850E945825811140C08AE590E00E942F
:10028000521BBBCF0E9453078FE890E00E943007BB
:100290001130C9F098F0123051F1133059F1109328
:1002A000340189819A81AB81BC81809360009093F5
:1002B0006100A0936200B0936300DFCF86E990E015
:1002C0000E943007ECCF8BE990E00E94300780EC71
:1002D0000E947C0682EA90E00E94300769817A8160
:1002E0008B819C810E945F078CEA90E0E9CF8EEAC7
:1002F00090E0EBCF88EB90E0E3CF112381F2E7CFE2
:10030000CF93DF931F92CDB7DEB74FEF5FEFBE0104
:100310006F5F7F4F8091E4079091E5070E94870F00
:10032000882399F38981813081F70E943D056FEF21
:100330007FEF8091E2079091E3070E9418108130CF
:1003400021F78093350120E050E040E070E060E06C
:100350008091E2079091E3070E948E0ED6CFCF9353
:10036000DF931F92CDB7DEB74FEF5FEFBE016F5F38
:100370007F4F8091E4079091E5070E94870F8823C3
:1003800099F31981123081F70E9442056FEF7FEFD8
:100390008091E2079091E3070E941810813021F7C5
:1003A0001093350120E050E040E070E060E0809183
:1003B000E2079091E3070E948E0ED6CF1F920F9214
:1003C0000FB60F9211242F933F934F935F936F9328
:1003D0007F938F939F93AF93BF93EF93FF93CF93AD
:1003E000DF9300D0CDB7DEB71A8281E0898320E0A9
:1003F000AE014E5F5F4FBE016F5F7F4F8091E4079C
:100400009091E5070E94230F8A8181110E94B70C09
:100410000F900F90DF91CF91FF91EF91BF91AF912E
:100420009F918F917F916F915F914F913F912F910C
:100430000F900FBE0F901F9018951F920F920FB63E
:100440000F9211242F933F934F935F936F937F935A
:100450008F939F93AF93BF93EF93FF93CF93DF93CC
:1004600000D0CDB7DEB71A8282E0898320E0AE01EA
:100470004E5F5F4FBE016F5F7F4F8091E4079091A9
:10048000E5070E94230F8A8181110E94B70C0F900B
:100490000F90DF91CF91FF91EF91BF91AF919F911D
:1004A0008F917F916F915F914F913F912F910F901D
:1004B0000FBE0F901F9018954FEF5FEF61E080E047
:1004C0000E94021EAF9A80ED97E00E94521BAF98E7
:1004D000F3CF4FEF5FEF61E080E00E94021EA89A29
:1004E00088EE93E00E94521BA898F3CFEF92FF9200
:1004F0000F930E940A0743E060E081E00E94620ED1
:100500009093E3078093E20720E050E040E070E042
:1005100060E00E948E0E40E061E085E00E94620E85
:100520009093E5078093E40782EFE82E87E0F82EAA
:1005300004E030E020E040E86EEB70E083EF90E014
:100540000E946017F12CE12C03E030E020E040E84D
:100550006DEC70E080E891E00E94601730E020E0F0
:1005600040E86BED70E08FEA91E00E9460170F9118
:10057000FF90EF900C94DA18E0913601F09137017A
:10058000309709F0099408950F931F930CEB12E034
:1005900030E020E041E064E170E087EE90E00E940E
:1005A000F62390933901809338011F910F9108959C
:1005B0000F931F938091380190913901892B71F02D
:1005C0000E943D1910E000E030E020E0AC0161E065
:1005D00080913801909139010E942D241F910F9133
:1005E00008950F931F9380913801909139010097DE
:1005F00049F010E000E030E020E050E040E063E04F
:100600000E942D241F910F910895009721F090933F
:1006100037018093360108959B01AC01C901BA01ED
:100620000895DC01ED91FC9160830895DC01129640
:10063000ED91FC9160830895DC011296ED91FC919F
:1006400080810895DC011296ED91FC91808121E07A
:1006500030E001C0220F6A95EAF7822B808308956B
:10066000DC011296ED91FC91208181E090E001C0C7
:10067000880F6A95EAF78095822380830895DC01CC
:100680001296ED91FC91208181E090E0062E02C04F
:10069000880F991F0A94E2F730E08223932302C067
:1006A000959587956A95E2F708950F931F93CF93D9
:1006B000DF93C4E6D0E001E010E0E881F981019029
:1006C000F081E02D8B818130D1F48A81980102C0C4
:1006D000220F331F8A95E2F720832C816A8188815B
:1006E0009981213071F40E942203259630E0C238AE
:1006F000D30719F7DF91CF911F910F9108951082C1
:10070000ECCF0E943003F1CF96B1987F96B980313B
:10071000C1F040F4843079F0883079F08230C9F447
:10072000309A0895803479F0803881F0803289F4ED
:1007300086B1856004C0319A089586B1836086B918
:100740000895329A089586B18660F9CF86B18760A0
:10075000F6CF86B1887FF3CF97B19F7397B93E9A52
:10076000811104C087B18F7387B90895813011F466
:100770003E9A08958330E1F787B1806CF5CFCF932F
:10078000C62F379A0E9484038C2F0E94AC033D9899
:10079000CF91089597B1907E97B9883030F5E82FC2
:1007A000F0E0EB52FC4F0C94B927F503DD03E403B2
:1007B000E603EA03EC03EF03F203389A369A349B1C
:1007C000FECF84B195B10895399AF8CF87B183608F
:1007D00087B9F4CF3A9AF2CF87B18560F9CF87B164
:1007E0008660F6CF87B18760F3CF87B1807EF0CF88
:1007F000CF93DF93CDB7DEB72C970FB6F894DEBF5B
:100800000FBECDBFBC0190E080E00E94CF2569877C
:100810007A878B879C8720E030EC4FE754E469852A
:100820007A858B859C850E945D256D837E838F8371
:10083000988720E030E040EA50E46D817E818F812E
:1008400098850E94D62669837A838B839C836981ED
:100850007A818B819C812C960FB6F894DEBF0FBEF7
:10086000CDBFDF91CF91089520913A0130913B01A6
:100870002530310584F4009771F0A9014F5F5F4F77
:1008800050933B0140933A01220F331FF901E45C7E
:10089000FE4F9183808308950F931F93CF93DF932F
:1008A0000CE311E0D0E0C0E080913A0190913B016F
:1008B000C817D9072CF0DF91CF911F910F910895A0
:1008C000D801ED91FD918D01309709F009952196A0
:1008D000EBCF20913A0130913B01ECE3F1E050E0A5
:1008E00040E0421753070CF0089561917191681729
:1008F0007907E9F4FA01EE0FFF1FE45CFE4FC9012E
:1009000001974817590764F090933B0180933A018F
:10091000880F991FFC01E45CFE4F1182108208953C
:100920004F5F5F4F2281338121933193EACF4F5F35
:100930005F4FD7CF80914C0190914D0101969093DC
:100940004D0180934C010895CF93DF93CDB7DEB76F
:100950002C970FB6F894DEBF0FBECDBF80E895E2AE
:100960000E948A070E949A0420914C0130914D0107
:1009700080914A0190914B012817390709F05FC017
:1009800010924D0110924C0180E00E94CA030E9417
:10099000F80369877A878B879C8769857A858B8539
:1009A0009C850E9458056D837E838F8398878D81F7
:1009B0009E81AF81B8858093460190934701A093B3
:1009C0004801B093490181E00E94CA034A9720F090
:1009D0008EEE90E00E94A00782E00E94CA03843855
:1009E00023E0920730F581E091E00E94A0078EE0BD
:1009F00091E00E94A0078091460190914701A0914B
:100A00004801B091490189839A83AB83BC83698192
:100A10007A818B819C810E94AC0782E291E02C96C6
:100A20000FB6F894DEBF0FBECDBFDF91CF910C940F
:100A3000A00784389340D9F28DEF90E0D6CF2C9662
:100A40000FB6F894DEBF0FBECDBFDF91CF910895F2
:100A50000E94C40284EA94E00C9405030C94D8022A
:100A60000C94F10224E130E040E050E00E9478274D
:100A700030934B0120934A010895A198A998A09A18
:100A8000A89A0895A898A098A19AA99A089581B3C0
:100A9000837F81BB82B38C6082BB85B78A6085BF50
:100AA00085B78A7F85BF8BB7806C8BBF789408959C
:100AB000CF93DF93CDB7DEB760970FB6F894DEBF64
:100AC0000FBECDBF6D877E878F87988B2EEA37E468
:100AD00041E25FE36D857E858F8598890E94582568
:100AE00087FD43C020E030E048E850E46D857E8516
:100AF0008F8598890E9481261816E4F12EEA37E442
:100B000041E25FE36D857E858F8598890E94EB24A5
:100B100069877A878B879C8724E13EEA47E650E421
:100B200069857A858B859C850E945D256D837E8392
:100B30008F83988720E030E048EC52E46D817E811D
:100B40008F8198850E94D62669837A838B839C83C4
:100B500069817A818B819C8160960FB6F894DEBFA3
:100B60000FBECDBFDF91CF91089519821A821B82EB
:100B70001C82EECF80E090E0A8ECB2E489839A83F7
:100B8000AB83BC83E5CFAF92BF92CF92DF92EF925F
:100B9000FF920F931F93CF93DF93CDB7DEB7AC9740
:100BA0000FB6F894DEBF0FBECDBF6D8F7E8F8F8FD7
:100BB00098A329A33AA34BA35CA3EDA2FEA20FA383
:100BC00018A7A9A6BAA6CBA6DCA629A13AA14BA133
:100BD0005CA16D8D7E8D8F8D98A10E94812687FFEF
:100BE00086C020E030E0A9016DA17EA18FA198A56B
:100BF0000E94582518160CF07AC020E030E0A901B8
:100C000069A57AA58BA59CA50E94582518160CF0FD
:100C10006EC02DA13EA14FA158A560E070E088E80C
:100C200090E40E945D2569837A838B839C8389810C
:100C30009A81AB81BC81B058898F9A8FAB8FBC8F62
:100C400029A53AA54BA55CA5698D7A8D8B8D9C8DC8
:100C50000E94D6266D8B7E8B8F8B988F20E030E0A4
:100C600048E850E469A17AA18BA19CA10E945D256E
:100C7000698B7A8B8B8B9C8B29893A894B895C8910
:100C800060E070E080E89FE30E94EB246D877E8740
:100C90008F87988B6D857E858F8598890E948E269B
:100CA00069877A878B879C8729853A854B855C8500
:100CB0006D897E898F89988D0E94D6266D837E836B
:100CC0008F8398876D817E818F819885AC960FB6D2
:100CD000F894DEBF0FBECDBFDF91CF911F910F9172
:100CE000FF90EF90DF90CF90BF90AF9008951D825E
:100CF0001E821F821886E6CFCF93C82F8AE890E025
:100D00000E941C038F706C2F607F682B8AE890E034
:100D10000E94160360E086E890E00E94300361E0E4
:100D200086E890E00E9422038FEC97E00197F1F7AC
:100D300000C0000061E086E890E00E9430038AE88D
:100D400090E00E941C038F7090E1C99FB0011124B4
:100D5000682B8AE890E00E94160361E086E890E044
:100D60000E9422038FEC97E00197F1F700C000008A
:100D700061E086E890E00E9430038FE99FE00197F0
:100D8000F1F700C00000CF910895CF93C82F8AE8F3
:100D900090E00E941C038F706C2F607F682B8AE8A4
:100DA00090E00E94160360E086E890E00E94220333
:100DB00061E086E890E00E94220382E08A95F1F7E4
:100DC00000C061E086E890E00E9430038AE890E08D
:100DD0000E941C038F7090E1C99FB0011124682B01
:100DE0008AE890E00E94160361E086E890E00E94A5
:100DF000220382E08A95F1F700C061E086E890E086
:100E00000E9430038FE99FE00197F1F700C00000D6
:100E1000CF91089560EF8AE890E00E94110363E0AB
:100E200086E890E00E9411038FE39CE90197F1F7B7
:100E300000C0000082E00E947C0688E20E947C06DE
:100E40008CE00E947C0686E00E947C0681E00E9485
:100E50007C068FE99FE00197F1F700C0000008953C
:100E6000CF93DF93EC018991811103C0DF91CF9182
:100E700008950E94C506F7CFCF93DF93EA01811151
:100E800009C0862F8068603158F0CE01DF91CF9184
:100E90000C9430078130C9F76031B8F7862F806C29
:100EA0000E947C06F2CF81E00E947C068FE99FE0E1
:100EB0000197F1F700C0000080E80C947C060F93C6
:100EC0001F93CF93DF93CDB7DEB72E970FB6F8946D
:100ED000DEBF0FBECDBF6B877C878D879E876B85FE
:100EE0007C858D859E858E010F5F1F4F22E030E04F
:100EF00044E050E00E94BF27C8010E9430072E96B0
:100F00000FB6F894DEBF0FBECDBFDF91CF911F911A
:100F10000F9108959C0150E040E060E271EA87E0A3
:100F200090E00E949A272150310930BD29B988E00C
:100F30008AB986E880BD08955D9BFECF8CB908957F
:100F4000CF93DF93EC018991811103C0DF91CF91A1
:100F500008950E949C07F7CF0F931F93CF93DF93C1
:100F6000CDB7DEB764970FB6F894DEBF0FBECDBF26
:100F7000698B7A8B8B8B9C8B69897A898B899C890D
:100F80008E010F5F1F4F22E030E046E050E00E94EC
:100F9000BF27C8010E94A00764960FB6F894DEBF71
:100FA0000FBECDBFDF91CF911F910F910895CF92CA
:100FB000DF92EF92FF921F93CF93DF936C01162F76
:100FC000F42E8AE190E00E943E0BEC018FEF209717
:100FD00009F456C08091550190915601892B21F555
:100FE000D0935601C093550186E791E00E948A0B89
:100FF0008FE791E00E948A0B8DE691E00E948A0BB8
:1010000084E691E00E948A0B87E591E00E948A0BBA
:101010008DE691E0909363018093620184E691E014
:101020009093610180936001111111E0198E188E67
:101030001E8BFF8AFE01C192D1927F01CF010E94D7
:10104000980BCE010C960E94980BD987C887DB8B32
:10105000CA8B82E090E0811B91099D878C878E89E5
:1010600090915401981710F480935401F9E08F9FE8
:10107000C0011124B7018A589E4F0E949C0B81E049
:10108000DF91CF911F91FF90EF90DF90CF90089567
:101090000F931F93CF93DF938B01C0915201D09197
:1010A0005301C80FD91F80915501909156010296A6
:1010B0000E94F20B6091550170915601FB01D383A0
:1010C000C28380915201909153016E5F7F4FC81788
:1010D000D907B0F480916001909161010E94BC0B2E
:1010E0000115110591F06091550170915601645FF1
:1010F0007F4FC801DF91CF911F910F910C94BC0BD2
:101100008091620190916301E9CFDF91CF911F91AE
:101110000F910895FF920F931F93CF93DF938091C8
:10112000620190916301892B09F444C099E0F92E82
:1011300080915701811144C00E943D1920915001B6
:1011400030915101821B930B90934F0180934E017C
:1011500089E0F82E20914E0130914F01809152018B
:10116000909153012115310509F04CC09093510124
:101170008093500180915401282F30E099E0929F94
:10118000F001939FF00D1124EA58FE4F4081411168
:101190008DC0882369F08150282F30E0929FF001A4
:1011A000939FF00D1124EA58FE4F908191117EC05B
:1011B00080935401DF91CF911F910F91FF9008957B
:1011C000F894E0915C01F0915D01C681D781CE0178
:1011D0000C960E94F20B78948E010E5F1F4FC8018F
:1011E0000E94F20B8E8990915401981710F480930D
:1011F00054018F9DC0011124B8018A589E4F0E944E
:101200009C0B96CF019690935301809352012150ED
:10121000310930934F0120934E01892B81F4809145
:1012200062019091630120916001309161013093DE
:101230006301209362019093610180936001E091CA
:101240006201F0916301209152013091530180813C
:10125000882309F47FCF0580F681E02DC681D781F0
:101260008A819B812817390708F474CFF8948E017E
:101270000E5F1F4FC8010E94F20B8C899D89892B3C
:1012800021F0CE010C960E94F20B78948E899091F9
:101290005401981710F4809354018F9DC0011124BC
:1012A000B8018A589E4F0E949C0BC9CF809354016D
:1012B00049E0429FC001439F900D1124FC01EA5870
:1012C000FE4FA181B28112964D915C915283418370
:1012D00087589E4F4817590721F48581968192833C
:1012E000818389E0829FF001839FF00D1124EA58E9
:1012F000FE4F0180F281E02D868197819093560107
:1013000080935501DC01ED91FC91119757966C91FA
:10131000DF91CF911F910F91FF9009940F931F932D
:10132000CF93DF93DC011596ED91FC91C681D781B7
:101330008E01045F1F4FC8010E94F20BB80187E5C0
:1013400091E00E949C0BE0915501F091560181E0E3
:101350002E899689291708F480E0DF91CF911F919B
:101360000F91089510926301109262011092610131
:101370001092600110925601109255011092540182
:10138000109253011092520110925101109250018B
:1013900010924F0110924E010895CF93DF938BE08E
:1013A00090E00E943E0BEC01009731F0FC0111929D
:1013B0001192CF010E948A0BCE01DF91CF91089547
:1013C000AF92BF92CF92DF92EF92FF920F931F9353
:1013D000CF93DF936C017B01B42EA22E0E943719AC
:1013E000F601C081D181CE018E219F21A11040C084
:1013F000892B09F041C00115110589F070E060E00A
:10140000BB2011F060E071E0A11074606E297F29AB
:10141000A801C60102960E94D41BD0E0C0E00E9441
:10142000531A012BC9F0811102C00E94B70C0E940F
:10143000EB1D91FD0FC00FB6F8940F92F60180815D
:101440009181970128233923A11023C0232B21F553
:101450000F900FBEEC01DD27CE01DF91CF911F91E0
:101460000F91FF90EF90DF90CF90BF90AF900895D5
:10147000E816F90609F0BFCFBB2041F0C7018095FF
:1014800090958C239D23F6019183808310E000E0EA
:10149000C6CFE216F306E1F6BB20D1F2E094F09459
:1014A000E822F922F601F182E082D2CFFC010FB6E8
:1014B000F8940F92808191816095709568237923CB
:1014C000718360830F900FBE0895FC01808191812C
:1014D0000895CF92DF92EF92FF920F931F93CF93D5
:1014E000DF93EC018B017C0185E0E80EF11C0E948A
:1014F0003719EF81F88568817981602B712B7983A9
:10150000688310E000E068817981EE15FF0599F4A9
:101510000095109506231723198308830E94531AF8
:1015200088819981DF91CF911F910F91FF90EF906A
:10153000DF90CF900895C280D38020813181C9018E
:101540009927AC014623572332FD04C0452B29F4CB
:10155000F601D9CF84179507D9F730FF02C0082BC1
:10156000192B7260CF010E94FC1CF2CFAF92BF9288
:10157000CF92DF92EF92FF920F931F93CF93DF935F
:101580007C01EB018A0169010E943719F701A080F3
:10159000B180BE01C7010E94690ACA29DB29CE01B8
:1015A000802391238017910709F03BC0F7018081C8
:1015B0009181980120953095822393239183808394
:1015C000D12CC12C0E94531ACD28F9F0811102C0F0
:1015D0000E94B70C0E94EB1D91FD15C00FB6F89448
:1015E0000F92F701808191819801282339232017D8
:1015F000310739F4A8014095509548235923518368
:1016000040830F900FBEEC01DD27CE01DF91CF911B
:101610001F910F91FF90EF90DF90CF90BF90AF9010
:101620000895C114D10451F0A601B8017560C70135
:1016300002960E94D41BD0E0C0E0C4CFF701C08165
:10164000D181C0CFCF93DF93EC010E9437198A81FB
:10165000811107C00E94531ACE01DF91CF910C94E3
:10166000760B60E072E08F8198850E94FC1CEFCFC2
:10167000BA010C94690ABA010C94560A0F931F938D
:10168000CF93DF938C010E9437198091880190914C
:101690008901892B31F48CE891E090938901809342
:1016A000880101151105F9F020918A0130918B0113
:1016B000020F131F0B3D85E01807A8F42017310710
:1016C00090F4C0918801D0918901C20FD31F10936B
:1016D0008B0100938A010E94531ACE01DF91CF91B2
:1016E0001F910F910895D0E0C0E0F5CF08951092BA
:1016F0008B0110928A01089520918A0130918B010B
:101700008BED95E0821B930B089510928B01109244
:101710008A010895FC010396928381832FEF3FEFA6
:1017200034832383968385839087878310820895EB
:10173000FC01118610860895CF93DF939C01FB0175
:10174000DC011196CD91DC91D383C2838C819D8184
:10175000958384838C819D81DC0113967C936E93A9
:1017600012977D836C8331872087F90180818F5F99
:101770008083DF91CF9108950F931F93CF93DF93D1
:101780008C01FB0180819181D80113968F3F9807CE
:10179000F1F4E801AF81B88512968D919C91139771
:1017A00093838283EC01FD83EC83B583A48313963A
:1017B000FC93EE93129711870087F80180818F5F69
:1017C0008083DF91CF911F910F910895D9011296D7
:1017D0002D913C911397E901488159818417950710
:1017E000A8F7DACFCF93DF93FC01A085B185828182
:1017F000938124813581EC013D832C83C481D58183
:101800009B838A8311968D919C9112978E179F07C7
:1018100021F41296DC93CE931197118610868C9149
:1018200081508C93DF91CF91089531E1FC01308399
:10183000319722E220833197A3E3A083319760831D
:101840003197708331971082319760E860833197C8
:101850001082319762E06083319763E06083319753
:1018600064E06083319765E06083319766E0608370
:10187000319767E06083319768E06083319769E072
:101880006083319760E1608331973083319732E133
:101890003083319733E13083319734E130833197AE
:1018A00035E13083319736E13083319737E130834A
:1018B000319738E13083319739E13083319730E225
:1018C0003083319731E2308331972083319723E29F
:1018D00020833197408331975083319726E22083CC
:1018E000319727E22083319728E22083319729E23C
:1018F0002083319720E32083319721E3208386974B
:1019000008951BBC8CE78ABD8BE08EBD89B78061D2
:1019100089BFA091C407B091C507CD91CDBFDD911E
:10192000DEBFFF91EF91DF91CF91BF91AF919F917A
:101930008F917F916F915F914F913F912F911F9167
:101940000F91FF90EF90DF90CF90BF90AF909F905E
:101950008F907F906F905F904F903F902F901F904F
:101960000F900FBE0F90089581E0089508950F9293
:101970000FB6F8940F921F9211242F923F924F921C
:101980005F926F927F928F929F92AF92BF92CF920F
:10199000DF92EF92FF920F931F932F933F934F93FA
:1019A0005F936F937F938F939F93AF93BF93CF93E7
:1019B000DF93EF93FF93A091C407B091C5070DB6D5
:1019C0000D920EB60D920E947E1BA091C407B0919D
:1019D000C507CD91CDBFDD91DEBFFF91EF91DF91C6
:1019E000CF91BF91AF919F918F917F916F915F91B7
:1019F0004F913F912F911F910F91FF90EF90DF90AA
:101A0000CF90BF90AF909F908F907F906F905F909E
:101A10004F903F902F901F900F900FBE0F90089502
:101A20000F920FB6F8940F921F9211242F923F92AB
:101A30004F925F926F927F928F929F92AF92BF92DE
:101A4000CF92DF92EF92FF920F931F932F933F93CA
:101A50004F935F936F937F938F939F93AF93BF93B6
:101A6000CF93DF93EF93FF93A091C407B091C50785
:101A70000DB60D920EB60D920E94571981110E945B
:101A80007E1BA091C407B091C507CD91CDBFDD915C
:101A9000DEBFFF91EF91DF91CF91BF91AF919F9109
:101AA0008F917F916F915F914F913F912F911F91F6
:101AB0000F91FF90EF90DF90CF90BF90AF909F90ED
:101AC0008F907F906F905F904F903F902F901F90DE
:101AD0000F900FBE0F9008950E94100D18950FB62D
:101AE000F8940F92FC01928D0F900FBE81E091113E
:101AF00080E008950F931F93CF93DF93EC01042FA1
:101B00001A8D4C8D4423C1F050E001111DC08A8113
:101B10009B810E94DD278C8D2A813B81820F932F30
:101B2000911D9B838A832C813D818217930720F02E
:101B3000888199819B838A831F5F1A8F80E0DF9160
:101B4000CF911F910F9108958E819F810E94DD2773
:101B50008C8D90E09195819591092E813F81280F80
:101B6000391F3F832E83488159812417350730F46C
:101B70002C813D81820F931F9F838E830230E1F67B
:101B80001123D1F21150D8CFFC01CB01448D442355
:101B9000A1F050E026813781240F351F378326833B
:101BA000648175812617370720F0208131813783C2
:101BB0002683668177810C94DD270895EF92FF924A
:101BC0001F93CF93DF93EC010FB6F8940F921E8D05
:101BD0007C0181E1E80EF11C1116C4F08FEF8E8FAD
:101BE0000F900FBE0FB6F8940F921D8D7E0188E006
:101BF000E80EF11C1116ACF08FEF8D8F0F900FBE19
:101C0000DF91CF911F91FF90EF90089589898823EC
:101C100029F3C7010E94571C81110E94CA1D11504F
:101C2000DBCF8885882341F3C7010E94571C8111AF
:101C30000E94CA1D1150DECFCF93DF93009709F4A5
:101C40003FC0FC01238D222309F43AC0EC01448DEE
:101C50000FB6F8940F9280819181FC01249FE00DD2
:101C6000F11D1124FD83EC831A8E9B838A832150FE
:101C7000330B429FF001439FF00D11248E0F9F1FE5
:101C80009F838E838FEF8D8F8E8F611110C088851B
:101C9000882339F0CE0108960E94571C81110E94BA
:101CA000B70C0F900FBE81E0DF91CF910895CE0168
:101CB00008960E948A0BCE0141960E948A0BF1CFB2
:101CC00080E0F2CF0F931F93CF93DF93811108C071
:101CD000D0E0C0E0CE01DF91CF911F910F91089528
:101CE000869F90011124213E310594F7162F082F6D
:101CF000C9014F960E943E0BEC01009749F3111168
:101D000009C0998388830B8F1C8F61E0CE010E94EC
:101D10001C0EE0CF4F9699838883F5CFAF92BF9288
:101D2000CF92DF92FF920F931F93CF93DF9300D058
:101D300000D01F92CDB7DEB78C016B015D834C8361
:101D4000F22E80E0580198E0A90EB11C0FB6F8946D
:101D50000F92F801228D938D291718F0F2E0FF12EF
:101D600022C04F2DB601C8010E947A0DF801918959
:101D7000992321F0C80141960E94571C81110E94AD
:101D8000B70C0F900FBE81E00F900F900F900F9047
:101D90000F90DF91CF911F910F91FF90DF90CF9027
:101DA000BF90AF9008952C813D81232B21F40F909B
:101DB0000FBE80E0E9CF811104C0CE0101960E94E0
:101DC000931D0F900FBE0E9437190FB6F8940F9213
:101DD000F801858D8F3F09F4158EF801868D8F3FB0
:101DE00009F4168E0F900FBEBE016C5F7F4FCE01BF
:101DF00001960E949E1D811120C00FB6F8940F928B
:101E0000F801928D0F900FBE838D981310C06C81D6
:101E10007D81C5010E94C41BC8010E94DE0D0E9485
:101E2000531A811102C00E94B70C81E08FCFC80104
:101E30000E94DE0D0E94531AF8CFC8010E94DE0DE9
:101E40000E94531AB6CFEF92FF921F93CF93DF9366
:101E5000EC019A8D8B8D981718F080E02230D1F428
:101E60007A011E8D8A8D422FCE010E947A0D1F3F6E
:101E7000B9F48989811102C081E00CC0CE0141967C
:101E80000E94571C8823C1F3E114F104A9F381E0F7
:101E9000F7018083DF91CF911F91FF90EF9008951C
:101EA0000E944C19181740F71F5F1E8FE5CFEF9265
:101EB000FF921F93CF93DF93EC018A8D9B8D89173F
:101EC00020F57B011E8D8F5F8A8F1F3FB9F48989B2
:101ED000811102C081E00CC0CE0141960E94571CC6
:101EE0008823C1F3E114F104A9F381E0F7018083B1
:101EF000DF91CF911F91FF90EF9008950E944C19B0
:101F0000181740F71F5F1E8FE5CF80E0F1CFAF922B
:101F1000BF92CF92DF92FF920F931F93CF93DF93E5
:101F200000D000D01F92CDB7DEB78C016B015D836E
:101F30004C8380E0580191E1A90EB11C0FB6F894D2
:101F40000F92F801F28CFF2019F1B601C8010E942E
:101F5000C40DFA94F801F28E8085882339F0C80107
:101F600008960E94571C81110E94B70C0F900FBE5B
:101F700081E00F900F900F900F900F90DF91CF9115
:101F80001F910F91FF90DF90CF90BF90AF90089579
:101F90002C813D81232B21F40F900FBE80E0E9CFEF
:101FA000811104C0CE0101960E94931D0F900FBEB7
:101FB0000E9437190FB6F8940F92F801858D8F3F64
:101FC00009F4158EF801868D8F3F09F4168E0F9057
:101FD0000FBEBE016C5F7F4FCE0101960E949E1D19
:101FE00081111BC0C8010E946F0D882381F06C8194
:101FF0007D81C5010E94C41BC8010E94DE0D0E94A4
:10200000531A811102C00E94B70C81E097CFC8011A
:102010000E94DE0D0E94531AF8CFC8010E94DE0D07
:102020000E94531AC8010E946F0D882371F3B6CF26
:10203000EF92FF920F931F93CF93DF9300D000D0C6
:102040001F92CDB7DEB78C017D836C8390E0780161
:1020500081E1E80EF11C0FB6F8940F92F801828D21
:102060008823D9F08150828F8085882339F0C80178
:1020700008960E94571C81110E94B70C0F900FBE4A
:1020800081E00F900F900F900F900F90DF91CF9104
:102090001F910F91FF90EF9008952C813D81232B8C
:1020A00021F40F900FBE80E0ECCF911104C0CE015F
:1020B00001960E94931D0F900FBE0E9437190FB614
:1020C000F8940F92F801858D8F3F09F4158EF80171
:1020D000868D8F3F09F4168E0F900FBEBE016C5F88
:1020E0007F4FCE0101960E949E1D81111BC0C80129
:1020F0000E946F0D882381F06C817D81C7010E9451
:10210000C41BC8010E94DE0D0E94531A811102C037
:102110000E94B70C91E09FCFC8010E94DE0D0E9483
:10212000531AF8CFC8010E94DE0D0E94531AC8014D
:102130000E946F0D882371F3B6CFCF92DF92EF929A
:10214000FF920F931F93CF93DF9300D000D01F9285
:10215000CDB7DEB78C017B015D834C8380E06801E5
:1021600091E1C90ED11C0FB6F8940F92F801928D2F
:10217000992321F1C680D780B701C8010E94C40D00
:10218000F801D782C6828189882339F0C801419637
:102190000E94571C81110E94B70C0F900FBE81E066
:1021A0000F900F900F900F900F90DF91CF911F9194
:1021B0000F91FF90EF90DF90CF9008952C813D819B
:1021C000232B21F40F900FBE80E0EACF811104C0D1
:1021D000CE0101960E94931D0F900FBE0E943719E9
:1021E0000FB6F8940F92F801858D8F3F09F4158E84
:1021F000F801868D8F3F09F4168E0F900FBEBE0139
:102200006C5F7F4FCE0101960E949E1D81111BC005
:10221000C8010E946F0D882381F06C817D81C60109
:102220000E94C41BC8010E94DE0D0E94531A811136
:1022300002C00E94B70C81E096CFC8010E94DE0D5B
:102240000E94531AF8CFC8010E94DE0D0E94531A53
:10225000C8010E946F0D882371F3B6CFEF92FF92F1
:102260000F931F93CF93DF93FC01028D002341F165
:102270007A01EC01158D0E94C40D01500A8F1F3F99
:10228000C1F48885811102C081E00CC0CE0108969E
:102290000E94571C8823C1F3E114F104A9F381E0E3
:1022A000F7018083DF91CF911F910F91FF90EF9005
:1022B00008950E944C19181738F71F5F1D8FE4CF3F
:1022C00080E0F0CF0F931F93CF93DF93FC01228D1B
:1022D000222369F0EC01068117810E94C40D1F833F
:1022E0000E8381E0DF91CF911F910F91089580E0DF
:1022F000F9CF0FB6F8940F92FC01828D0F900FBEAC
:1023000008950FB6F8940F92FC01228D0F900FBE26
:10231000838D821B0895FC01828D08950C94760BA9
:10232000FC01848D0895FC01838D0895FC01928D3C
:1023300081E0911180E00895FC01928D81E0238D70
:10234000291380E00895CF93DF93EC01F8940FB642
:10235000F8940F928A8D9B8D0F900FBE891311C038
:102360004115510559F0BE01685F7F4FCA010E94B7
:10237000480878948CEFDF91CF910895789480E0AD
:10238000FACF7894F8948A8D891790F440E0CE01C2
:102390000E947A0D8989811103C081E07894EBCF86
:1023A000CE0141960E948E098823B9F38BEFF6CFB8
:1023B00080E0F4CFCF93DF93EC01FB01F8948A8D9A
:1023C000811111C04115510559F0BE016F5E7F4F5B
:1023D000CA010E94480878948CEFDF91CF9108954C
:1023E000789480E0FACF7894F8948A8D882339F134
:1023F0004C8D50E02E813F81240F351F3F832E836B
:102400008C819D812817390720F0888199819F83CD
:102410008E839A8D91509A8F6E817F81CF010E9419
:10242000DD278885811103C081E07894D6CFCE0165
:1024300008960E948E098823B9F38BEFF6CF80E0CF
:10244000F4CF1F93CF93DF93EC01142F9A8D8B8DD4
:10245000981788F440E0CE010E947A0D11110BC04C
:102460008989882341F0CE0141960E948E0911E0AE
:10247000811101C010E0812FDF91CF911F9108954C
:102480000F931F93CF93DF93EC018A8D882391F1F3
:102490002C8D30E0AE81BF81A20FB31FBF83AE830E
:1024A0008C819D81A817B90720F0888199819F832D
:1024B0008E838A01CB014A8D41504A8F6E817F8184
:1024C000A9010E94DD27F8018081882331F081E095
:1024D000DF91CF911F910F91089588858823B9F3DB
:1024E000CE0108960E948E09882389F381E0F801C5
:1024F0008083EECF80E0ECCFCF93DF93EC010FB67B
:10250000F8940F928D8D8F3F09F41D8E8E8D8F3F25
:1025100009F41E8E0F900FBE8A8D811104C0CE016A
:1025200041960E94181CCE01DF91CF910C94DE0DD4
:10253000FC014481558122813381240F351F808124
:102540009181B901681B790BCB016417750710F0F5
:10255000841B950B0895AF92BF92CF92DF92EF92BA
:10256000FF920F931F93CF93DF936C015B017A016E
:10257000E901FC0104811581021B130B401751076F
:1025800008F48A01F60184859585A801B5018C0FB0
:102590009D1F0E94DD270E151F0558F4A701401B43
:1025A000510BB501600F711FF601848595850E945E
:1025B000DD27CE018E0D9F1DF60124813581821706
:1025C000930710F0821B930BDF91CF911F910F9116
:1025D000FF90EF90DF90CF90BF90AF900895AF92B3
:1025E000BF92CF92DF92EF92FF920F931F93CF9300
:1025F000DF9300D0CDB7DEB76C015B017A01FC013F
:1026000082819381468540FF28C0FA82E9822017A3
:10261000310740F19C0142E050E0BE016F5F7F4F07
:10262000C6010E94AB12E114F10449F09C01A7011C
:10263000B501C6010E94AB12F60193838283C701E4
:102640000F900F90DF91CF911F910F91FF90EF901E
:10265000DF90CF90BF90AF9008952E153F0518F7EB
:102660007901E1CFF12CE12CEACFAF92BF92CF926A
:10267000DF92EF92FF920F931F93CF93DF936C0142
:102680005B017A01E901FC0104811581021B130B36
:102690004017510708F48A01F601648575856C0FAF
:1026A0007D1FA801C5010E94DD270E151F0558F4E6
:1026B000A701401B510BF60164857585C501800F8C
:1026C000911F0E94DD27CE018E0D9F1DF6012481F2
:1026D00035818217930710F0821B930BDF91CF9106
:1026E0001F910F91FF90EF90DF90CF90BF90AF9030
:1026F0000895AF92BF92CF92DF92EF92FF920F9325
:102700001F93CF93DF9300D0CDB7DEB77C015B0181
:102710006A018901FC0120813181868580FF12C018
:1027200042E050E0BE016F5F7F4FC7010E9435134A
:102730009C0189819A8102501109C816D906F8F4C2
:10274000D12CC12CC016D10608F486010115110543
:1027500041F0A801B501C7010E943513F70191832B
:102760008083C8010F900F90DF91CF911F910F913F
:10277000FF90EF90DF90CF90BF90AF9008956C01E5
:10278000E1CFEF92FF921F93CF93DF93EC017B0198
:1027900011E0413021F010E0423009F414E0E1147E
:1027A000F10419F4EE24E394F12CF0E0E0E0CF3EE4
:1027B0008FEFD807B8F4CE0141960E943E0BFC0182
:1027C000892B81F08CE0DF011D928A95E9F7CF011A
:1027D0004096958784872196D583C483F782E682C5
:1027E00016871786CF01DF91CF911F91FF90EF9051
:1027F0000895FC01268521FF0C94760B20E11192AF
:102800002A95E9F70895FC010FB6F8940F92808598
:102810009185892BB1F482859385892B91F48681EA
:102820009781248135814CE0DF011D924A95E9F7BB
:102830003583248397838683178681E00F900FBEAC
:10284000089580E0FBCFFC0180859185892BA1F460
:1028500082859385892B81F48681978124813581B6
:102860004CE0DF011D924A95E9F735832483978375
:102870008683178681E0089580E0089561157105CB
:1028800011F461E070E0FC01248135816217730767
:1028900020F47783668381E0089580E00895FC0149
:1028A0002481358180819181608171814281538150
:1028B000A081B181A817B907A9F7C9010197860FAF
:1028C000971F841B950B8217930710F0821B930BA5
:1028D00008950C9498122F923F924F925F926F92AC
:1028E0007F928F929F92AF92BF92CF92DF92EF92A0
:1028F000FF920F931F93CF93DF9300D000D01F92CE
:10290000CDB7DEB75C011B012A013D832C83FC019E
:1029100084819581019726854A0120FF54C0F2E009
:102920008F0E911C8815990510F41D821C828C81D4
:102930009D81892B09F04DC0C5010E944F143C01B7
:1029400084019301A201B101C5010E94EF124C0163
:10295000892B01F1C5010E949812F501268137816A
:1029600082179307B8F00E943719F5018085918589
:10297000892B71F080859185F12CE12C00E020E01D
:1029800030E0A90167850E94391FF5011186108684
:102990000E94531AC4010F900F900F900F900F9048
:1029A000DF91CF911F910F91FF90EF90DF90CF902B
:1029B000BF90AF909F908F907F906F905F904F905F
:1029C0003F902F9008958417950708F0B0CF4C01E1
:1029D000AECFCE0101960E94831D0FB6F8940F92E0
:1029E000C5010E944F143C018815990558F5F50161
:1029F000678590E080E00E94CD210E94CE1DF50108
:102A0000938782870F900FBECC80DD80F12CE12C64
:102A100000E010E0980140E050E0BA0187850E9494
:102A2000831EF50113861286BE016C5F7F4FCE01B7
:102A300001960E949E1D882381F26114710409F49D
:102A40007BCF7ECF0F900FBEF8CFAF92BF92CF92C9
:102A5000DF92EF92FF920F931F93CF93DF93EC01DE
:102A60005B017A0169018E858A0180FF02C00E5FD9
:102A70001F4FCE010E944F149C01A701B501CE014A
:102A80000E94EF125C01892BC9F0CE010E949812BE
:102A90002E813F818217930788F088859985892B3D
:102AA00069F088859985F12CE12C00E020E030E088
:102AB000A9016F850E94192019861886C501DF912A
:102AC000CF911F910F91FF90EF90DF90CF90BF902B
:102AD000AF9008956F927F928F929F92AF92BF9224
:102AE000CF92DF92EF92FF920F931F93CF93DF93DA
:102AF000EC014B013A0169018E8580FD47C0B12C84
:102B0000A12C82FF02C0AE80BF80C114D10429F184
:102B10000FB6F8940F92CE010E9498128C01A8165D
:102B2000B90648F06F8590E080E00E94CD210E94B8
:102B3000CE1D998788870F900FBEA016B10650F161
:102B4000F12CE12C00E010E0980140E050E0BA01E7
:102B50008F850E94831E19861886CE010E949812C6
:102B60008C01A816B906B0F0B12CA12CC501DF91DB
:102B7000CF911F910F91FF90EF90DF90CF90BF907A
:102B8000AF909F908F907F906F90089582E0A82ED5
:102B9000B12CBBCF9801A301B401CE010E947913DF
:102BA0005C01892B09F30E9437198A859B85892B43
:102BB00069F08A859B85F12CE12C00E020E030E073
:102BC000A9016F850E94391F1B861A860E94531A1D
:102BD000CDCF0F931F93CF93DF9300D0CDB7DEB748
:102BE000FC01268520FD09C090E080E00F900F9049
:102BF000DF91CF911F910F9108958C010E9498123F
:102C0000039790F3F8012081318142E050E0BE014A
:102C10006F5F7F4FC8010E94351389819A81E6CF8B
:102C2000AF92BF92CF92DF92EF92FF920F931F93DA
:102C3000CF93DF93EC015B017A0169018E8510E08F
:102C400000E080FF02C002E010E0CE010E94981276
:102C50000817190770F0B12CA12CC501DF91CF9195
:102C60001F910F91FF90EF90DF90CF90BF90AF90AA
:102C700008959C01A701B501CE010E9479135C0162
:102C8000892B49F38A859B85892B39F38A859B8516
:102C9000F12CE12C00E020E030E0A9016F850E94DA
:102CA00019201B861A86D9CFFC01208131814281EF
:102CB000538181E04217530709F080E00895CF93D4
:102CC000DF93FC012685D0E0C0E020FF02C0C2E017
:102CD000D0E00E944F1421E0C817D90708F420E083
:102CE000822FDF91CF910895CF92DF92EF92FF92E2
:102CF0000F93CF93DF93FC0120853185232BC1F007
:102D00006B01EC0180859185F12CE12C00E020E045
:102D100030E0A90167850E9419201986188681E094
:102D2000DF91CF910F91FF90EF90DF90CF900895BA
:102D300080E0F6CFCF92DF92EF92FF920F93CF9386
:102D4000DF93FC0122853385232BC1F06B01EC015D
:102D500082859385F12CE12C00E020E030E0A90190
:102D600067850E9419201B861A8681E0DF91CF912A
:102D70000F91FF90EF90DF90CF90089580E0F6CF15
:102D8000FC0187850895FC0167870895E0918C0711
:102D9000F0918D078081811107C08FEF9FEF909395
:102DA0006C0780936B070895E0918C07F0918D0775
:102DB0000580F681E02D80819181F1CFCF92DF9265
:102DC000EF92FF920F931F93CF93DF93EC01C0908C
:102DD0007407D090750700918C0710918D07E090D3
:102DE0008A07F0908B078091C4079091C5070296DF
:102DF0000E94F20BCC0DDD1DE091C407F091C507D8
:102E0000D383C2836091C4077091C5076E5F7F4F03
:102E1000CC15DD0558F4C701DF91CF911F910F91BB
:102E2000FF90EF90DF90CF900C94BC0BC8010E94F4
:102E3000BC0B80916B0790916C07C817D90720F4E1
:102E4000D0936C07C0936B07DF91CF911F910F91C7
:102E5000FF90EF90DF90CF900895CF93DF93809114
:102E60007707811103C0DF91CF9108950FB6F894D1
:102E70000F92E0917D07F0917E07C681D781CE0148
:102E800002960E94F20B809176078150809376071C
:102E9000809177078150809377070F900FBE8F89BD
:102EA000988D0E94760BCE010E94760BD8CF0E949F
:102EB0002D178091A0078230D0F30E94B70CF7CF76
:102EC0004F925F926F927F928F929F92AF92BF923A
:102ED000CF92DF92EF92FF920F93CF93DF934C014B
:102EE0005B012901C42ED12CC6010E943E0B3C017E
:102EF000892B09F4C9C086E290E00E943E0BEC01E8
:102F0000892B09F4BEC086E2DE011D928A95E9F79D
:102F1000788E6F8AB1E0CB1AD108C60CD71CA114E9
:102F2000B10409F0C2C0043008F003E00E8B5E016A
:102F3000B2E0AB0EB11CC5010E94980BCE010C96FD
:102F40000E94980BD987C88784E090E0801B910984
:102F50009D878C87DB8BCA8BA201B401C6010E94BE
:102F6000150C99838883E114F10419F0F701D183DA
:102F7000C0830FB6F8940F92809176078F5F80938D
:102F800076078091C4079091C507892B09F0A3C0EB
:102F9000D093C507C093C40780917607813061F54F
:102FA00080EA97E00E948A0B89EA97E00E948A0BE8
:102FB00082EB97E00E948A0B8BEB97E00E948A0BD2
:102FC00087E997E00E948A0B8EE897E00E948A0BBF
:102FD00081E897E00E948A0B88E797E00E948A0BBD
:102FE00087E997E090938D0780938C078EE897E0B0
:102FF00090938B0780938A0780916D078F5F8093F2
:103000006D07AE89809173078A1710F4A093730738
:1030100029E02A9FD0011124A056B84F11960D9097
:10302000BC91A02DBD83AC8314968D919C91159776
:103030009F838E8314968D919C911597FC01B3828A
:10304000A2821596BC92AE9214979E89929FF0012F
:103050001124E056F84FFB87EA8780818F5F8083D9
:103060000F900FBE80917207882349F0E091C4074A
:10307000F091C5078689891710F40E94B70C81E08A
:1030800004C0C3010E94760B8FEFDF91CF910F91A7
:10309000FF90EF90DF90CF90BF90AF909F908F9078
:1030A0007F906F905F904F900895F501AE01475E5D
:1030B0005F4FC50108962191DA012D93AD019F0163
:1030C00021503109D9012C91222319F0E817F90771
:1030D00091F718A228CF8091720781118DCFE091CE
:1030E000C407F091C5079E898689981708F484CF94
:1030F000D093C507C093C4077FCF0F931F93CF937F
:10310000DF93EC010FB6F8940F92892B21F4C09154
:10311000C407D091C5078E010E5F1F4FC8010E94E2
:10312000F20B8C899D89892B21F0CE010C960E948F
:10313000F20B80916D078F5F80936D078091C407BC
:103140009091C50720917207222359F18C179D0792
:1031500041F5B80188E797E00E949C0B80917707C2
:103160008F5F8093770781E00F900FBE813039F039
:103170008F89988D0E94760BCE010E94760B8091EC
:103180007207882349F08091C4079091C5078C1776
:103190009D0711F40E94B70CDF91CF911F910F9101
:1031A0000895809176078150809376070E94C61615
:1031B00080E0DACFEF92FF920F93CF93DF93CDB7FA
:1031C000DEB728970FB6F894DEBF0FBECDBFA6E2DC
:1031D000B1E0FE0131962EE231E0BF018D91819385
:1031E000882319F02A173B07C9F789E6E82E87E0FC
:1031F000F82E00E030E020E045E587E597E10E9409
:1032000060178823A9F0813099F40E94D723813078
:1032100079F4F8942FEF3FEF30936C0720936B070E
:103220008093720710927507109274070E94810CA8
:1032300080918E0028960FB6F894DEBF0FBECDBFEA
:10324000DF91CF910F91FF90EF9008950E94872416
:103250000E947D188091690790916A070E947D18ED
:103260000E942D17F894109272070C94B60C80915E
:1032700068078F5F8093680708950FB6F8940F92E0
:1032800080917407909175070F900FBE08958091FB
:1032900074079091750708958091760708950097B7
:1032A00021F48091C4079091C50749960895CF9263
:1032B000DF92EF92FF920F931F93CF93DF93809152
:1032C00068078111E5C0C0917407D09175076E0140
:1032D0008FEFC81AD80AD0927507C0927407C1142C
:1032E000D104B9F480918C0790918D0720918A07C1
:1032F00030918B0730938D0720938C0790938B0729
:1033000080938A0780916E078F5F80936E070E947B
:10331000C61680916B0790916C07C816D906E8F421
:1033200080E0E091C407F091C507E689D9E0ED9F00
:10333000F0011124E056F84F9081923008F081E0BE
:1033400090916F07911181E0DF91CF911F910F91C3
:10335000FF90EF90DF90CF90089580E069E0E091DA
:103360008C07F0918D079081911107C02FEF3FEFEF
:1033700030936C0720936B07D4CFE0918C07F091CA
:103380008D070580F681E02D0680F781E02D2281F2
:103390003381C216D30660F3C285D385248135817B
:1033A00046815781D90115965C934E9314974681B7
:1033B0005781DA0113963C932E9312979F012E5F4B
:1033C0003F4F09811A810217130711F45A83498369
:1033D00013861286988191509883A489B589109795
:1033E000F9F04685578500891189EA011D830C8310
:1033F00000891189E8015B834A831196ED90FC9066
:103400001297AF01445F5F4FE416F50621F4129660
:103410001C930E931197158A148A9C9191509C933A
:10342000A689909173079A1710F4A09373076A9F67
:10343000D0011124A056B84F11960D90BC91A02D2B
:10344000B583A48314964D915C9115975783468359
:1034500014964D915C911597EA013B832A8315964A
:103460003C932E9314972689269FD0011124A056B1
:10347000B84FB387A2879C919F5F9C93E091C4074C
:10348000F091C5079689921708F069CF81E067CF60
:1034900080917007909171070196909371078093C6
:1034A000700780E051CFEF92FF920F931F93CF935D
:1034B000DF930FB6F8940F92809168078150809344
:1034C000680780916807882351F080E00F900FBE55
:1034D000DF91CF911F910F91FF90EF900895809110
:1034E0007607882391F3E0908607F0908707F0E055
:1034F000E0E039E041E080918107811122C0EF2BAB
:1035000011F00E94C616C0917007D09171072097E4
:1035100061F011E00E945719811110936F072197F4
:10352000C9F7109271071092700780916F07882376
:1035300061F28091C4079091C5070E94B70C81E0A9
:10354000C5CFD7011696ED91FC91A489B589668502
:10355000778580899189EB019D838C83808991890E
:10356000EC017B836A83BF01645F7F4F11960D91ED
:103570001C9112970617170721F412969C938E93AD
:103580001197158A148A8C9181508C93A285B385EA
:103590008481958166817781EC017D836C8366816E
:1035A0007781EB019B838A83CF01029611960D915F
:1035B0001C9112970817190721F412967C936E93A9
:1035C0001197138612862C9121502C93A689209155
:1035D00073072A1710F4A09373073A9FD0011124A0
:1035E000A056B84F11960D90BC91A02DB583A48321
:1035F00014966D917C9115977783668314966D91DF
:103600007C911597EB019B838A8315969C938E93EF
:1036100014979689939FD0011124A056B84FB38771
:10362000A2878C918F5F8C93A091C407B091C5073E
:1036300056968C91891708F05ECF40936F075BCF49
:103640000F931F93CF93DF93EC018B010E943719E7
:10365000209174073091750748815981CA01800F04
:10366000911F998388832417350780F48417950761
:1036700080F0C0E00E94531A811102C00E94B70C72
:103680008C2FDF91CF911F910F910895841795078B
:1036900018F02817390768F7821B930B0E94DE1673
:1036A000C1E0E8CFCF93DF93EC01892B29F40E948E
:1036B000B70CDF91CF9108950E943719CE010E9477
:1036C000DE160E94531A882391F3F3CFCF93DF9332
:1036D000EC010E9437190FB6F8940F928091700791
:1036E000909171078C0F9D1F9093710780937007C5
:1036F0000F900FBEDF91CF910C94531A8091680701
:10370000882321F081E080936F07089510926F075E
:103710002091730789E0422F50E0849FF001859F3C
:10372000F00D1124E056F84F9081992359F1A181B1
:10373000B28112966D917C9172836183289FC00142
:1037400011248D55984F6817790721F4858196814A
:103750009283818389E0849FF001859FF00D11247D
:10376000E056F84F0180F281E02D86819781909399
:10377000C5078093C407209373078091C407909175
:10378000C50708952150C7CFCF93DF93EB01609118
:10379000C4077091C507645F7F4F0E94BC0BCE01C8
:1037A000DF91CF910C94DE16CF93DF93FC01A091B3
:1037B000C407B091C50770681D967C936E931C97E3
:1037C000A181B281C091C407D091C507BF87AE87E0
:1037D000C091C407D091C50714968D919C911597FF
:1037E000998B888B2091C4073091C5071496CD9191
:1037F000DC911597245F3F4F3B832A832091C407B8
:103800003091C507245F3F4F15963C932E93149734
:10381000A091C407B091C5075596FC93EE935497B9
:1038200090819F5F9083CA01DF91CF910C94DE1647
:10383000CF93DF93FC01A181B281C091C407D091E5
:10384000C507BF87AE87C091C407D091C50714963E
:103850008D919C911597998B888B2091C4073091FD
:10386000C5071496CD91DC911597245F3F4F3B839C
:103870002A832091C4073091C507245F3F4F1596D6
:103880003C932E931497A091C407B091C507559609
:10389000FC93EE93549790819F5F9083442311F0A3
:1038A0006FEF7FEFCB01DF91CF910C94DE16CF93BA
:1038B000DF93DC011596ED91FC910680F781E02DF8
:1038C000A489B5898685978520893189EC013D8356
:1038D0002C83C089D1899B838A83CF010C96119652
:1038E0002D913C9112972817390721F41296DC93F9
:1038F000CE931197158A148A2C9121502C932091E4
:103900006807211157C0A285B385848195812681DE
:103910003781EC013D832C83C681D7819B838A83C9
:10392000CF01029611962D913C91129728173907D5
:1039300021F41296DC93CE931197138612862C9164
:1039400021502C93C689209173072C1710F4C09333
:10395000730729E02C9FE0011124C056D84F09803D
:10396000DA81C02DD583C4834C815D815783468322
:10397000AC81BD8113969C938E9312979D838C830B
:10398000A689A29FD0011124A056B84FB387A28761
:103990008C918F5F8C93A091C407B091C5079689D5
:1039A00056968C91891730F581E080936F07DF91EF
:1039B000CF910895A0918207B0918307B787A6871A
:1039C00014962D913C911597318B208B1496CD91A7
:1039D000DC9115979B838A8315969C938E931497FD
:1039E00081E897E0958B848B809181078F5F80932E
:1039F0008107D1CF80E0DBCFCF93DF93DC0170680C
:103A000011967C936E931696ED91FC9117971896EC
:103A10004D915C91199712962D913C9113971496A4
:103A20008D919C911597E9019D838C8314968D91BE
:103A30009C911597EC013B832A83EA0129813A8105
:103A40002A173B0711F49A83898319961C921E92B8
:103A50001897DA018C9181508C93A285B38584816B
:103A6000958126813781EC013D832C83C681D781E6
:103A70009B838A83CF01029611962D913C911297D8
:103A80002817390721F41296DC93CE9311971386E9
:103A900012862C9121502C93C689209173072C17E4
:103AA00010F4C093730749E04C9FE0011124C05605
:103AB000D84F0980DA81C02DD583C4832C813D8104
:103AC000378326832C813D81D90113969C938E9355
:103AD00012979D838C839689949FD0011124A056C0
:103AE000B84FB387A2878C918F5F8C93E091C40706
:103AF000F091C5078689891718F481E080936F07D4
:103B0000DF91CF9108950FB6F8940F9220916E0730
:103B1000FC01208320917407309175073283218343
:103B20000F900FBE089520916E07FC012083209115
:103B30007407309175073283218308950FB6F89486
:103B40000F922091740730917507DC0111964D9109
:103B50005C911297E0916E07FC91FE1751F02417CB
:103B6000350738F0FB011182108281E00F900FBE03
:103B70000895241B350BDB014D915C91241735070B
:103B800088F7421B530BFB01518340830E94931D16
:103B900080E0ECCF81E080936F0708958091C407A7
:103BA0009091C5070895811105C08091C407909137
:103BB000C507089590E080E00895809172078823FA
:103BC00031F080916807882321F080E0089581E03A
:103BD000089582E00895E091C407F091C5078485B7
:103BE0009585A091C407B091C507E091C407F091F5
:103BF000C50756964C9124E030E0241B31093587E7
:103C000024870895CF92DF92EF92FF920F931F9334
:103C1000CF93DF93C82FE62E6A010E9437190FB6A3
:103C2000F8940F92E091C407F091C507D0E08E019F
:103C3000000F111F000F111FE00FF11F81A192A1B2
:103C4000A3A1B4A1892B8A2B8B2B69F4E091C40723
:103C5000F091C507EC0FFD1F81E085A3FF24F394CD
:103C6000C114D10409F4F12C0F900FBE21E0F2121F
:103C700003C0C6010E94DE160E94531A91E0F91299
:103C800004C0811102C00E94B70C0FB6F8940F92C5
:103C9000E091C407F091C507E00FF11F61A172A187
:103CA00083A194A1611571058105910569F02091A9
:103CB000C4073091C507020F131FEE20B9F0F801B9
:103CC00011A212A213A214A22091C4073091C50719
:103CD000C20FD31F1DA20F900FBEDF91CF911F9176
:103CE0000F91FF90EF90DF90CF9008956B017C01D2
:103CF000F1E0CF1AD108E108F108F801C1A2D2A27F
:103D0000E3A2F4A2E1CF4F925F926F927F928F92E3
:103D10009F92AF92BF92CF92DF92EF92FF920F935A
:103D20001F93CF93DF93C82F2A013B01480159010C
:103D30000E9437190FB6F8940F92E091C407F091E2
:103D4000C507D0E0EC0FFD1F85A1823039F1E0916D
:103D5000C407F091C507CE01880F991F880F991FDE
:103D6000E80FF91F81A192A1A3A1B4A1409450949E
:103D70006094709484219521A621B72181A392A3F8
:103D8000A3A3B4A3E091C407F091C507EC0FFD1FF6
:103D900081E085A311E0C114D10409F410E00F9073
:103DA0000FBE113019F4C6010E94DE160E94531A8C
:103DB000113021F4811102C00E94B70C0FB6F894A3
:103DC0000F92E114F104A1F0E091C407F091C5074E
:103DD000CE01880F991F880F991FE80FF91F81A145
:103DE00092A1A3A1B4A1F70180839183A283B3839D
:103DF000E091C407F091C507EC0FFD1F85A182304B
:103E0000B1F5E091C407F091C507CE01880F991F65
:103E1000880F991FE80FF91F81A192A1A3A1B4A156
:103E200080949094A094B09488219921AA21BB21D8
:103E300081A392A3A3A3B4A381E02091C4073091EE
:103E4000C507C20FD31F1DA20F900FBEDF91CF91E8
:103E50001F910F91FF90EF90DF90CF90BF90AF90A8
:103E60009F908F907F906F905F904F90089580E02B
:103E7000E4CF8F929F92AF92BF92CF92DF92EF9258
:103E8000FF920F93CF93DF93DC010FB6F8940F925C
:103E900070E0E114F10481F0FB01EE0FFF1FEE0F63
:103EA000FF1FE80FF91F81A092A0A3A0B4A0E70113
:103EB00088829982AA82BB82FD01E60FF71F85A145
:103EC00092E095A30230E1F1A0F4013029F18130B4
:103ED00009F44AC081E00F900FBEDF91CF910F919E
:103EE000FF90EF90DF90CF90BF90AF909F908F901A
:103EF0000895033029F0043051F7823009F497C057
:103F0000660F771F660F771FFD01E60FF71F21A3CE
:103F100032A343A354A3DBCF660F771F660F771F2F
:103F2000FD01E60FF71FC1A0D2A0E3A0F4A0C22AB2
:103F3000D32AE42AF52AC1A2D2A2E3A2F4A2C7CFCF
:103F4000660F771F660F771FFD01E60FF71F41A170
:103F500052A163A174A14F5F5F4F6F4F7F4F41A389
:103F600052A363A374A3B3CF1A96ED91FC911B9750
:103F700014968D919C91159716962D913C911797BB
:103F8000EC013D832C831696CD91DC9117979B8392
:103F90008A839D012E5F3F4F818192818217930713
:103FA00011F4D283C1831B961C921E921A978081B2
:103FB000815080835696CC915697809173078C17C9
:103FC00010F4C093730749E04C9FE0011124C056E0
:103FD000D84F0980DA81C02D1596DC93CE931497C3
:103FE0008C819D8117969C938E9316978C819D81D1
:103FF000FC01338322833D832C8356969C915697F4
:10400000949FF0011124E056F84F1B96FC93EE9319
:104010001A9780818F5F8083E091C407F091C50774
:104020008689891708F056CF0E94B70C53CF80E0DD
:1040300052CF8F929F92AF92BF92CF92DF92EF9228
:10404000FF920F93CF93DF93DC0170E0E114F10452
:1040500081F0FB01EE0FFF1FEE0FFF1FE80FF91FAE
:1040600081A092A0A3A0B4A0E70188829982AA822D
:10407000BB82FD01E60FF71F85A192E095A30230F8
:10408000D1F190F4013019F1813009F448C081E098
:10409000DF91CF910F91FF90EF90DF90CF90BF9085
:1040A000AF909F908F900895033029F0043061F70E
:1040B000823009F4C5C0660F771F660F771FFD01B8
:1040C000E60FF71F21A332A343A354A3DDCF660F4E
:1040D000771F660F771FFD01E60FF71F81A092A0E3
:1040E000A3A0B4A0822A932AA42AB52A81A292A2CC
:1040F000A3A2B4A2C9CF660F771F660F771FFD0179
:10410000E60FF71F41A152A163A174A14F5F5F4F5A
:104110006F4F7F4F41A352A363A374A3B5CF809188
:10412000680781116BC01A96ED91FC911B9714964C
:104130008D919C91159716962D913C911797EC01B6
:104140003D832C831696CD91DC9117979B838A83B0
:104150009D012E5F3F4F818192818217930711F459
:10416000D283C1831B961C921E921A978081815024
:1041700080835696CC915697809173078C1710F4D4
:10418000C093730789E08C9FE0011124C056D84F7B
:104190000980DA81C02D1596DC93CE9314974C815B
:1041A0005D8117965C934E931697EC81FD81338366
:1041B00022833D832C835696EC915697E89FF0011D
:1041C0001124E056F84F1B96FC93EE931A978081CA
:1041D0008F5F8083E091C407F091C50756969C914C
:1041E0008689891708F053CFC114D10419F081E0F2
:1041F000F601808381E080936F074ACFE0918207C8
:10420000F09183071F96FC93EE931E97848195810E
:1042100051969C938E935097C481D581CD010C9675
:104220009B838A839583848381E897E055969C934A
:104230008E935497809181078F5F80938107CACFB7
:1042400080E026CF0F931F93CF93DF93FC01A62F1F
:10425000B0E0EC01CA0FDB1F8DA192E09DA3AA0F75
:10426000BB1FAA0FBB1FAE0FBF1F91960D911D91D3
:104270002D913C9194970F5F1F4F2F4F3F4F919679
:104280000D931D932D933C939497813009F05EC05C
:104290008091680781115FC0A285B3858481958173
:1042A00026813781EC013D832C83C681D7819B8396
:1042B0008A83CF01029611962D913C91129728176F
:1042C000390721F41296DC93CE9311971386128648
:1042D0002C9121502C93C689209173072C1710F430
:1042E000C093730729E02C9FE0011124C056D84FDA
:1042F0000980DA81C02DD583C4836C817D81778369
:104300006683AC81BD8113969C938E9312979D8397
:104310008C83A689A29FD0011124A056B84FB387E1
:10432000A2878C918F5F8C93A091C407B091C50731
:10433000968956968C91891748F44115510519F0C4
:1043400081E0FA01808381E080936F07DF91CF9154
:104350001F910F910895A0918207B0918307B787AD
:10436000A68714968D919C911597918B808B1496AE
:10437000CD91DC911597CF010C969B838A8315967E
:104380009C938E93149781E897E0958B848B809112
:1043900081078F5F80938107C7CF009721F48091B9
:1043A000C4079091C5070FB6F8940F92FC01E60F71
:1043B000F11D85A1823029F415A281E00F900FBE76
:1043C000089580E0FBCFCF92DF92EF92FF920097AB
:1043D00021F48091C4079091C5070FB6F8940F920D
:1043E00074E0679FF0011124E80FF91F61A172A129
:1043F00083A194A1C1A0D2A0E3A0F4A02095309500
:1044000040955095C222D322E422F522C1A2D2A225
:10441000E3A2F4A20F900FBEFF90EF90DF90CF9039
:1044200008951092C5071092C40710927707109252
:104430007607109275071092740710927307109206
:104440007207109271071092700710926F07109206
:104450006E0710926D0710926C0710926B07109206
:10446000680708950FB6F8940F928091CA0790914B
:10447000CB07892BE9F489ED97E00E948A0B80ED48
:1044800097E00E948A0B89ED97E09093CF07809385
:10449000CE0780ED97E09093CD078093CC0740E066
:1044A00065E08AE00E94620E9093CB078093CA0772
:1044B0000F900FBE0895FC017383628391878087FC
:1044C0004617570790F0421B530B84859585481774
:1044D0005907C8F4BF016E5F7F4F8091CC07909160
:1044E000CD070E94BC0B80E008954217530718F4D3
:1044F0006217730740F4BF016E5F7F4F8091CE0754
:104500009091CF07EECF81E00895EF92FF920F9345
:104510001F93CF93DF93EC018B017A016C857D852E
:10452000600F711F9801A701CE010E945B228111CB
:1045300007C0DF91CF911F910F91FF90EF900895E9
:104540008C859D85080F191FE889F989CE01099589
:10455000E5CFEF92FF920F931F93CF93DF938C01E0
:104560007B01E091CE07F091CF070580F681E02D29
:10457000C681D781CE0102960E94F20B8A8982FF02
:104580000FC0A701B801CE010E948522E889F989F0
:10459000CE01DF91CF911F910F91FF90EF90099481
:1045A0008E7F8A8BF3CFE091CE07F091CF07808189
:1045B00081110DC08091CC079091CD079093CF07CA
:1045C0008093CE07F093CD07E093CC070895058044
:1045D000F681E02D6FEF7FEF808191810E94A9220B
:1045E000E2CFCF93DF9300D000D01F92CDB7DEB7DC
:1045F00085E0B82ECE0101967C01E091CE07F091C6
:10460000CF07A08010E000E0AA2029F00580F68105
:10461000E02D008111810E9437190E943D196C0123
:104620008091C6079091C707C816D90608F04FC0F9
:104630000E94D322D092C707C092C6070E94531A85
:10464000D701EB2D1D92EA95E9F750E040E0B70164
:104650008091CA079091CB070E94870F882369F247
:10466000898187FDF2CF0C811D81D8011A968D9129
:104670009C91892B21F0C80102960E94F20B0E94A6
:104680003D196C018091C6079091C707C816D906DD
:1046900010F40E94D322D092C707C092C607E981C6
:1046A000E150E93090F60E2E000CFF0BE25AFC4D63
:1046B000D80152968C9152970C94B9278F238F234F
:1046C000D323BB23CD238F238F23D323BB23D0928C
:1046D000C707C092C607AA2051F0C016D10670F0D5
:1046E0000E94531AB601C8010E94A922A9CFE091E5
:1046F000CC07F091CD0741E08081811140E0B80105
:104700006C197D098091CA079091CB070E947C1299
:104710000E94531A811194CF0E94B70C91CF8160EF
:10472000F801828B2A813B8164857585620F731F36
:10473000A601C8010E945B22882309F486CFD80114
:1047400052968C91529782FF12C06A817B811C968F
:104750008D919C91680F791FA601C8010E94852246
:10476000D8015096ED91FC91C80109956ECF8E7FCE
:10477000F801828BF5CF816052968C9352976A81B3
:104780007B811D967C936E931C976C0D7D1D96010D
:10479000A601C8010E945B2258CF81FD04C0C80158
:1047A0000E94760B52CF8E7FF801828B4ECFEF9214
:1047B000FF920F930E9432228091CA079091CB07FB
:1047C000892B91F088ECE82E87E0F82E02E030E0AB
:1047D00020E040E86BE271E081EF92E20E94601716
:1047E0000F91FF90EF90089580E0FACF8F929F9203
:1047F000AF92BF92CF92DF92FF920F931F93CF930E
:10480000DF934C015B01F42E690183E190E00E948B
:104810003E0BEC01892BA1F01A8A0E943222998268
:104820008882BD86AC86DF86CE86198B088BCE014A
:1048300002960E94980BFF2019F08A8984608A8B67
:10484000CE01DF91CF911F910F91FF90DF90CF901C
:10485000BF90AF909F908F9008950F931F93CF9329
:10486000DF9300D000D01F92CDB7DEB72091CA07EA
:104870003091CB07232B59F480E00F900F900F90CD
:104880000F900F90DF91CF911F910F910895698341
:104890005B834A839D838C83663074F70E94DD1DA1
:1048A000E091CA07F091CB0720E0A801823011F017
:1048B00050E040E0BE016F5F7F4FCF010E948E0E3F
:1048C000DCCFCF93DF9300D000D01F92CDB7DEB7FF
:1048D000FC018091CA079091CB07009749F480E0D2
:1048E0000F900F900F900F900F90DF91CF91089540
:1048F00069835B834A83FD83EC83663084F3A9017B
:1049000020E0BE016F5F7F4F0E94230FE9CF8091AF
:10491000C8079091C9070895FC018485958508957D
:10492000FC010FB6F8940F929289662329F09460E7
:10493000928B0F900FBE08959B7FFACF0FB6F8941D
:104940000F920F900FBEFC01828982FB882780F9AD
:1049500008950C949E24FC01828193810895FC01AA
:104960008081918108950FB6F8940F920F900FBE39
:10497000FC018289817008950FB6F8940F920F9010
:104980000FBEFC018685978508950FB6F8940F92A7
:10499000FC01778766870F900FBE08951092CB07B2
:1049A0001092CA071092C9071092C80708950E9472
:1049B00047058E9A60E080E80E94BF030E942805A8
:1049C00062E370E080E090E00E9432050E942E05D4
:1049D0000E947602FFCF5058BB27AA270E940325CA
:1049E0000C9447260E94392638F00E94402620F079
:1049F00039F49F3F19F426F40C9436260EF4E09512
:104A0000E7FB0C943026E92F0E94582658F3BA177A
:104A1000620773078407950720F079F4A6F50C94D4
:104A20007A260EF4E0950B2EBA2FA02D0B01B901BA
:104A300090010C01CA01A0011124FF27591B99F014
:104A4000593F50F4503E68F11A16F040A22F232F20
:104A5000342F4427585FF3CF469537952795A79570
:104A6000F0405395C9F77EF41F16BA0B620B730B17
:104A7000840BBAF09150A1F0FF0FBB1F661F771F88
:104A8000881FC2F70EC0BA0F621F731F841F48F43D
:104A9000879577956795B795F7959E3F08F0B0CFC6
:104AA0009395880F08F09927EE0F979587950895AD
:104AB0000E940C2608F481E008950E9471250C9450
:104AC00047260E94402658F00E94392640F029F4DB
:104AD0005F3F29F00C94302651110C947B260C94E6
:104AE00036260E94582668F39923B1F3552391F393
:104AF000951B550BBB27AA2762177307840738F04D
:104B00009F5F5F4F220F331F441FAA1FA9F335D0A9
:104B10000E2E3AF0E0E832D091505040E695001C5D
:104B2000CAF72BD0FE2F29D0660F771F881FBB1F17
:104B3000261737074807AB07B0E809F0BB0B802DF5
:104B4000BF01FF2793585F4F3AF09E3F510578F021
:104B50000C9430260C947B265F3FE4F3983ED4F30C
:104B6000869577956795B795F7959F5FC9F7880FF5
:104B7000911D9695879597F90895E1E0660F771F47
:104B8000881FBB1F621773078407BA0720F0621BD8
:104B9000730B840BBA0BEE1F88F7E0950895E89429
:104BA00009C097FB3EF490958095709561957F4F75
:104BB0008F4F9F4F9923A9F0F92F96E9BB27939523
:104BC000F695879577956795B795F111F8CFFAF433
:104BD000BB0F11F460FF1BC06F5F7F4F8F4F9F4F64
:104BE00016C0882311F096E911C0772321F09EE8C2
:104BF000872F762F05C0662371F096E8862F70E028
:104C000060E02AF09A95660F771F881FDAF7880F01
:104C10009695879597F90895990F0008550FAA0B57
:104C2000E0E8FEEF16161706E807F907C0F01216BF
:104C30001306E407F50798F0621B730B840B950BC2
:104C400039F40A2661F0232B242B252B21F4089517
:104C50000A2609F4A140A6958FEF811D811D0895B4
:104C600097F99F6780E870E060E008959FEF80EC1F
:104C7000089500240A9416161706180609060895C2
:104C800000240A9412161306140605060895092E28
:104C90000394000C11F4882352F0BB0F40F4BF2B97
:104CA00011F460FF04C06F5F7F4F8F4F9F4F0895D7
:104CB00057FD9058440F551F59F05F3F71F04795CD
:104CC000880F97FB991F61F09F3F79F087950895B2
:104CD000121613061406551FF2CF4695F1DF08C0D1
:104CE000161617061806991FF1CF869571056105EE
:104CF00008940895E894BB2766277727CB0197F996
:104D000008950E940C2608F48FEF089516F00C9475
:104D100043270C94362668940C9430260E94602613
:104D2000A8F39923C1F3AEF3DF93CF931F930F93AF
:104D3000FF92C92FDD2788232AF02197660F771F5E
:104D4000881FDAF720E030E040E85FEB9FE3883926
:104D500020F0803E38F021968F770E94EC24E4E525
:104D6000F0E004C00E94EC24E1E8F0E00E9451274A
:104D70008B01BE01EC01FB2E6F5771097595771FF2
:104D8000880B990B0E94D12528E132E741E35FE3CC
:104D90000E94E926AF2D9801AE01FF900F911F915F
:104DA000CF91DF910E9403250C9447260E94E926AB
:104DB0000C9447260E94392638F00E94402620F0A5
:104DC000952311F00C9430260C94362611240C9463
:104DD0007B260E94582670F3959FC1F3950F50E0F3
:104DE000551F629FF001729FBB27F00DB11D639F9D
:104DF000AA27F00DB11DAA1F649F6627B00DA11D43
:104E0000661F829F2227B00DA11D621F739FB00DE8
:104E1000A11D621F839FA00D611D221F749F332758
:104E2000A00D611D231F849F600D211D822F762FF1
:104E30006A2F11249F5750409AF0F1F088234AF0CE
:104E4000EE0FFF1FBB1F661F771F881F915050403A
:104E5000A9F79E3F510580F00C9430260C947B26D8
:104E60005F3FE4F3983ED4F3869577956795B795C1
:104E7000F795E7959F5FC1F7FE2B880F911D9695DB
:104E8000879597F908959F3F31F0915020F48795C9
:104E900077956795B795880F911D9695879597F9A2
:104EA0000895DF93CF931F930F93FF92EF92DF92BA
:104EB0007B018C01689406C0DA2EEF010E94E9267E
:104EC000FE01E894A5912591359145915591A6F360
:104ED000EF010E940325FE019701A801DA9469F70A
:104EE000DF90EF90FF900F911F91CF91DF91089588
:104EF000A1E21A2EAA1BBB1BFD010DC0AA1FBB1FDE
:104F0000EE1FFF1FA217B307E407F50720F0A21B4F
:104F1000B30BE40BF50B661F771F881F991F1A94BC
:104F200069F760957095809590959B01AC01BD01E6
:104F3000CF010895052E97FB1EF400940E94B1271F
:104F400057FD07D00E94782707FC03D04EF40C943D
:104F5000B12750954095309521953F4F4F4F5F4F6A
:104F6000089590958095709561957F4F8F4F9F4FD5
:104F70000895EE0FFF1F0590F491E02D0994EF9234
:104F80000F931F93CF93DF93E80134E047FD34E1A3
:104F9000042E000C550B57FF03C051954195510944
:104FA000E32E022F242FAE010E94E627CE01DF91CF
:104FB000CF911F910F91EF900895FB01DC0102C08A
:104FC00001900D9241505040D8F70895A9E0B0E00B
:104FD000ECEEF7E20C94232A6A01F22EB02E102F89
:104FE000FBE3AF2EA01608F41BE31F5F012F27E0A1
:104FF000AE014F5F5F4F0E944529BC018981982F08
:105000009970913009F43FC09BE2E1FC04C09E2DF1
:105010009170E0FC3AC05E2D5071E82FE87083FF7C
:1050200046C084E0911101C083E0EF2DE81B8F158D
:1050300008F0E0E0D6018E2F20E2552351F19923AC
:1050400029F0D6019C93C60101966C0196012D5F53
:105050003F4FE2FE24C08EE4D6018C9391E411967A
:105060009C93119712968C93D9018E2F90E2811107
:105070001BC0E20FF32FF11D10828EEF9FEF2996D8
:10508000ECE00C943F2A9DE2C6CF90E2C4CF2D9372
:1050900081508111FCCFCE0ED11CE0E0D0CF8EE646
:1050A000D6018C9391E6DBCF9D938150E0CF482FC2
:1050B000447082FF3DC084E0911101C083E08F15F0
:1050C00010F4EF2DE81BD6018E2F20E2552309F1B5
:1050D000992329F0D6019C93C60101966C01960193
:1050E0002D5F3F4FE2FE1BC089E4D6018C938EE416
:1050F00011968C93119786E412968C93D9018E2F7A
:1051000090E2882309F4B5CF9D938150FACF2D9377
:1051100081508111FCCFCE0ED11CE0E0D9CF89E6C1
:10512000D6018C938EE611968C93119786E6E4CF88
:105130009B0177FF02C030E020E0A1E0B0E09111D8
:1051400002C0B0E0A0E0F9013196AE0FBF1F8B2C7A
:10515000912CBB2009F461C05401EFEFAE1ABE0AD6
:10516000AA0DBB1DFA161B0619F014F04F2D4A1B91
:10517000511188C0E3FC59C07601A42FB0E2A111FF
:105180004FC0C40ED11C992309F45BC040E0D60186
:105190001196F60190836D01552309F448C0012F43
:1051A000060F9A81582F507184FF03C0913309F480
:1051B000015010160CF047C0093008F008E0EEE28C
:1051C000FE2E5B01A01AB10885019194819491088B
:1051D0002F3F320729F4D601FC92F60131966F0178
:1051E0006217730794F1021713077CF5DB01A21B0A
:1051F000B30BAA24A394B12CAC0EBD1EAA0DBB1DEB
:1052000011968C9121503109D60111962815390536
:10521000F4F0F60180836D01DBCFB12CA12CA0CF7F
:10522000F701B1937F01A150AACF9111B0CFD60160
:10523000942F50E302C05D9391509111FCCFC40EA6
:10524000D11C40E0ACCF01E0BACF80E3DBCF6217E6
:10525000730731F4963388F4953311F4552369F0CC
:10526000F6018083FD01842F90E2811108C0A40F14
:10527000B11D1C9290E080E002CF81E3F1CF9193C9
:105280008150F3CF911183CF8ACF283008F027E0E7
:105290003327DA01990F311D87FD91600096610572
:1052A000710539F432602E5F3D9330E32A95E1F7C2
:1052B00008959F3F30F080387105610509F03C5F2B
:1052C0003C5F3D93913008F08068911DDF93CF9350
:1052D0001F930F93FF92EF92192F987F9695E92FC6
:1052E00096959695E90FFF27E85FFE4F992733279C
:1052F000EE24FF24A701E70105900894079428F401
:10530000360FE71EF81E491F511D660F771F881FB5
:10531000991F0694A1F70590079428F4E70EF81E4C
:10532000491F561FC11D770F881F991F661F0694BE
:10533000A1F70590079428F4F80E491F561FC71FC0
:10534000D11D880F991F661F771F0694A1F705903E
:10535000079420F4490F561FC71FD81F990F661FC7
:10536000771F881F0694A9F784911095177041F054
:10537000D695C79557954795F794E7941A95C1F731
:10538000EEEAF0E06894159015913591659195914C
:1053900005907FE27395E118F10A430B560BC90B98
:1053A000D009C0F7E10CF11E431F561FC91FD01DC5
:1053B0007EF4703311F48A95E6CFE894015030F012
:1053C000080F0AF40027021708F4202F2395022F54
:1053D0007A3328F079E37D932A95E9F710C07D931D
:1053E0002A9589F60694979567953795179517949A
:1053F000E118F10A430B560BC90BD00998F023951D
:105400007E9173957A3308F070E37C932013B8F79C
:105410007E9170617D9330F0839571E37D9370E3AD
:105420002A95E1F71124EF90FF900F911F91CF91F2
:10543000DF91992787FD909508952F923F924F9283
:105440005F926F927F928F929F92AF92BF92CF9214
:10545000DF92EF92FF920F931F93CF93DF93CDB71D
:10546000DEB7CA1BDB0B0FB6F894DEBF0FBECDBF95
:1054700009942A88398848885F846E847D848C8466
:105480009B84AA84B984C884DF80EE80FD800C816F
:105490001B81AA81B981CE0FD11D0FB6F894DEBF52
:0C54A0000FBECDBFED010895F894FFCFC2
:1054AC00000080BF860000010086000101008A0018
:1054BC000401008A000501008A000601008A000729
:1054CC000100310032003700380037003800035338
:1054DC00746174653A004E4F4E45004368617267C3
:1054EC00650050657263656E743A2000250044694E
:1054FC0073636861726765004661756C740044691A
:10550C0073706C617952656672657368004368618B
:10551C007267696E6753746172740053746F705361
:10552C00657373696F6E0054696D657231004F76E7
:10553C00657263757272656E74210D0A004E4F545C
:10554C0020434F4E4E4543544544210D0A004368B9
:10555C00617267652050657263656E746167653A48
:10556C002000250D0A0049444C4500546D7220530F
:04557C007663000052
:00000001FF
