:100000000C94D4000C946B020C94AA020C94F10092
:100010000C94F1000C94F1000C94F1000C94280E57
:100020000C94F1000C94F1000C94F1000C94F1008C
:100030000C94F1000C94F1000C94F1000C94F1007C
:100040000C94F1000C94F1000C94F1000C94F1006C
:100050000C94F10008000000BE922449123EABAAA5
:10006000AA2ABECDCCCC4C3E00000080BEABAAAAD2
:10007000AA3E00000000BF000000803F000000001A
:1000800000084178D3BB4387D1133D190E3CC3BD53
:100090004282AD2B3E68EC8276BED98FE1A93E4C00
:1000A00080EFFFBE01C4FF7F3F0000000000004062
:1000B0007A10F35A00A0724E18090010A5D4E80077
:1000C00000E87648170000E40B54020000CA9A3B8F
:1000D000000000E1F5050000809698000000404215
:1000E0000F000000A08601000000102700000000A3
:1000F000E803000000006400000000000A000000A7
:1001000000000100000000002C76D888DC674F0852
:1001100023DFC1DFAE59E1B1B796E5E3E453C63A58
:10012000E651997696E8E6C28426EB898C9B62EDCF
:10013000407C6FFCEFBC9C9F40F2BAA56FA5F49089
:10014000055A2AF75C936B6CF9676DC11BFCE0E400
:100150000D47FEF520E6B500D0ED902E0300943556
:1001600077050080841E080000204E0A000000C8A9
:100170000C333333330F986E12831141EF8D2114FA
:10018000893BE65516CFFEE6DB18D1844B381BF7CA
:100190007C1D901DA4BBE424203284725E22810069
:1001A000C9F124ECA1E53D2711241FBECFE5D8E01D
:1001B000DEBFCDBF11E0A0E6B0E0E4E2F6E502C0AC
:1001C00005900D92A434B107D9F728E0A4E4B1E07A
:1001D00001C01D92A031B207E1F70E9493250C9453
:1001E000102B0C940000CF93DF93CDB7DEB72A9786
:1001F0000FB6F894DEBF0FBECDBF0E94F9199A87E3
:10020000898700E48E9A82B3802782BB0E940F0800
:100210008BE890E00E94EC076AE070E08091F807BC
:100220009091F9070E94D410813069F41091460131
:1002300020E050E040E070E060E08091F8079091AD
:10024000F9070E944A0F123031F168F41123F1F0DE
:1002500087E990E01130E1F064E670E0CE010996A4
:100260000E94DC1BCFCF1330B1F11430A9F781EB22
:1002700090E00E94EC0780EC0E94380780914701D3
:10028000882309F444C087EB90E002C082E990E043
:100290000E94EC07E1CF8DE990E00E94EC0780EC32
:1002A0000E9438078BE291E00E94EC0780915A018E
:1002B00090915B01A0915C01B0915D018D839E8363
:1002C000AF83B8876D817E818F8198850E941B08DE
:1002D00084EA90E0DDCF87EA90E00E94EC0780ECB2
:1002E0000E9438078BE291E00E94EC0780915A014E
:1002F00090915B01A0915C01B0915D0189839A832B
:10030000AB83BC8369817A818B819C81DFCF8091B3
:100310004801882309F4A0CF84EC90E0B9CF4FEFD7
:100320005FEF61E080E00E94BE1EC091460182E066
:100330000E946504909345018093440181E00E94EE
:1003400065042091440130914501243843E034078D
:1003500038F581E08093490180914601811101C007
:10036000C1E06FEF7FEF8091F8079091F9070E944D
:10037000D410813081F4809146018C13C0934601E2
:1003800020E050E040E070E060E08091F80790915C
:10039000F9070E944A0F88EC90E00E940E1CC7CF1C
:1003A0002438334061F01092490180914601C0E049
:1003B0008230B9F681E080934801C4E0D2CF4A97F9
:1003C00080F281E080934701F8CFC4E04FEF5FEF08
:1003D00061E080E00E94BE1E81E0809347016FEFE4
:1003E0007FEF8091F8079091F9070E94D410813037
:1003F00069F4C093460120E050E040E070E060E026
:100400008091F8079091F9070E944A0F88EE93E0D7
:100410000E940E1CDBCFCF93DF931F92CDB7DEB7C8
:1004200012E04FEF5FEFBE016F5F7F4F8091FA07E1
:100430009091FB070E944310882399F389818130B2
:1004400081F70E94F9056FEF7FEF8091F807909197
:10045000F9070E94D410813021F71093460120E063
:1004600050E040E070E060E08091F8079091F9077B
:100470000E944A0FD6CFCF93DF931F92CDB7DEB73E
:1004800013E04FEF5FEFBE016F5F7F4F8091FA0780
:100490009091FB070E944310882399F38981823051
:1004A00081F70E94FE056FEF7FEF8091F807909132
:1004B000F9070E94D410813021F71093460120E003
:1004C00050E040E070E060E08091F8079091F9071B
:1004D0000E944A0FD6CF1F920F920FB60F9211248F
:1004E0002F933F934F935F936F937F938F939F933C
:1004F000AF93BF93EF93FF93CF93DF9300D0CDB72C
:10050000DEB71A8281E0898320E0AE014E5F5F4F43
:10051000BE016F5F7F4F8091FA079091FB070E94A9
:10052000DF0F8A8181110E94730D0F900F90DF9170
:10053000CF91FF91EF91BF91AF919F918F917F915B
:100540006F915F914F913F912F910F900FBE0F9040
:100550001F9018951F920F920FB60F9211242F9390
:100560003F934F935F936F937F938F939F93AF933B
:10057000BF93EF93FF93CF93DF9300D0CDB7DEB758
:100580001A8282E0898320E0AE014E5F5F4FBE0198
:100590006F5F7F4F8091FA079091FB070E94DF0FFA
:1005A0008A8181110E94730D0F900F90DF91CF917E
:1005B000FF91EF91BF91AF919F918F917F916F913B
:1005C0005F914F913F912F910F900FBE0F901F9011
:1005D00018954FEF5FEF61E080E00E94BE1EAF9A7A
:1005E00080ED97E00E940E1CAF98F3CFEF92FF9240
:1005F0000F930E94C60743E060E081E00E941E0F57
:100600009093F9078093F80720E050E040E070E015
:1006100060E00E944A0F40E061E085E00E941E0F0A
:100620009093FB078093FA078CE0E82E88E0F82E81
:1006300004E030E020E040E866ED70E083EF90E019
:100640000E941C18F12CE12C02E030E020E040E890
:1006500065EE70E08BE092E00E941C1830E020E034
:1006600040E863EF70E08BE392E00E941C1896EF85
:10067000E92E97E0F92E30E020E040E86FEF70E0DF
:100680008FE891E00E941C1820E0E22E28E0F22E74
:1006900004E030E020E040E86CE071E085EE91E0BD
:1006A0000E941C180F91FF90EF900C949619E09106
:1006B0004A01F0914B01309709F0099408950F9386
:1006C0001F9307E513E030E020E041E064E170E0D3
:1006D0008DE191E00E94B22490934D0180934C01F2
:1006E0001F910F9108950F931F9380914C0190914A
:1006F0004D01892B71F00E94F91910E000E030E003
:1007000020E0AC0161E080914C0190914D010E948C
:10071000E9241F910F9108950F931F9380914C012D
:1007200090914D01009749F010E000E030E020E0AA
:1007300050E040E063E00E94E9241F910F9108958A
:10074000009721F090934B0180934A0108959B01FB
:10075000AC01C901BA010895DC01ED91FC916083FF
:100760000895DC011296ED91FC9160830895DC01FF
:100770001296ED91FC9180810895DC011296ED9125
:10078000FC91808121E030E001C0220F6A95EAF7F8
:10079000822B80830895DC011296ED91FC912081DB
:1007A00081E090E001C0880F6A95EAF78095822386
:1007B00080830895DC011296ED91FC91208181E007
:1007C00090E0062E02C0880F991F0A94E2F730E0ED
:1007D0008223932302C0959587956A95E2F7089541
:1007E0000F931F93CF93DF93C0E6D0E001E010E0BA
:1007F000E881F9810190F081E02D8B818130D1F485
:100800008A81980102C0220F331F8A95E2F7208364
:100810002C816A8188819981213071F40E94BD0305
:10082000259630E0CE37D30719F7DF91CF911F918E
:100830000F9108951082ECCF0E94CB03F1CF96B1B7
:10084000987F96B98031C1F040F4843079F08830D7
:1008500079F08230C9F4309A0895803479F0803884
:1008600081F0803289F486B1856004C0319A0895A0
:1008700086B1836086B90895329A089586B18660FC
:10088000F9CF86B18760F6CF86B1887FF3CF97B175
:100890009F7397B93E9A811104C087B18F7387B94E
:1008A0000895813011F43E9A08958330E1F787B1BD
:1008B000806CF5CFCF93C62F379A0E941F048C2FE0
:1008C0000E9447043D98CF91089597B1907E97B9C3
:1008D000883030F5E82FF0E0E059FB4F0C94752894
:1008E000900478047F048104850487048A048D04BD
:1008F000389A369A349BFECF84B195B10895399ACF
:10090000F8CF87B1836087B9F4CF3A9AF2CF87B135
:100910008560F9CF87B18660F6CF87B18760F3CF66
:1009200087B1807EF0CFCF93DF93CDB7DEB72C9722
:100930000FB6F894DEBF0FBECDBFBC0190E080E0E3
:100940000E948B2669877A878B879C8720E030EC12
:100950004FE754E469857A858B859C850E9419262A
:100960006D837E838F83988720E030E040EA50E4F7
:100970006D817E818F8198850E94922769837A8319
:100980008B839C8369817A818B819C812C960FB6A5
:10099000F894DEBF0FBECDBFDF91CF9108952091B7
:1009A0004E0130914F012530310584F4009771F0EC
:1009B000A9014F5F5F4F50934F0140934E01220FAB
:1009C000331FF901E05BFE4F9183808308950F93FD
:1009D0001F93CF93DF9300E511E0D0E0C0E080915A
:1009E0004E0190914F01C817D9072CF0DF91CF919C
:1009F0001F910F910895D801ED91FD918D013097D0
:100A000009F009952196EBCF20914E0130914F01CD
:100A1000E0E5F1E050E040E0421753070CF00895A4
:100A20006191719168177907E9F4FA01EE0FFF1FE0
:100A3000E05BFE4FC90101974817590764F0909396
:100A40004F0180934E01880F991FFC01E05BFE4F20
:100A50001182108208954F5F5F4F2281338121936D
:100A60003193EACF4F5F5F4FD7CF80916001909174
:100A70006101019690936101809360010895CF9286
:100A8000DF92EF92FF920F93CF93DF93CDB7DEB754
:100A90002C970FB6F894DEBF0FBECDBF80E895E26D
:100AA0000E9446080E943505209160013091610145
:100AB00080915E0190915F012817390709F076C097
:100AC000109261011092600180E00E9465040E9412
:100AD000930469877A878B879C8769857A858B855C
:100AE0009C850E9414066D837E838F8398878D81F9
:100AF0009E81AF81B88580935A0190935B01A0934A
:100B00005C01B0935D0182E00E9465046C0181E0AC
:100B10000E9465044A9768F0F12CE12C02E020E085
:100B200030E0A90160E080910008909101080E94E6
:100B3000F51F84E8C81683E0D80688F4809149013F
:100B400081110DC0F12CE12C02E020E030E0A90180
:100B500060E08091F6079091F7070E94F51F84E20C
:100B600091E00E945C0880915A0190915B01A091F4
:100B70005C01B0915D0189839A83AB83BC836981F9
:100B80007A818B819C810E94680888E391E02C9691
:100B90000FB6F894DEBF0FBECDBFDF91CF910F919E
:100BA000FF90EF90DF90CF900C945C082C960FB6DE
:100BB000F894DEBF0FBECDBFDF91CF910F91FF90B4
:100BC000EF90DF90CF9008950E945F038FE395E050
:100BD0000C94A0030C9473030C948C0324E130E078
:100BE00040E050E00E94342830935F0120935E0182
:100BF0000895A198A998A09AA89A0895A898A0984D
:100C0000A19AA99A089581B3837F81BB82B38C6036
:100C100082BB85B78A6085BF85B78A7F85BF8BB762
:100C2000806C8BBF78940895CF93DF93CDB7DEB7F8
:100C300060970FB6F894DEBF0FBECDBF6D877E877D
:100C40008F87988B2EEA37E441E25FE36D857E85DE
:100C50008F8598890E94142687FD43C020E030E0EC
:100C600048E850E46D857E858F8598890E943D27F0
:100C70001816E4F12EEA37E441E25FE36D857E85E4
:100C80008F8598890E94A72569877A878B879C879B
:100C900024E13EEA47E650E469857A858B859C85A8
:100CA0000E9419266D837E838F83988720E030E031
:100CB00048EC52E46D817E818F8198850E94922755
:100CC00069837A838B839C8369817A818B819C8100
:100CD00060960FB6F894DEBF0FBECDBFDF91CF9107
:100CE000089519821A821B821C82EECF80E090E068
:100CF000A8ECB2E489839A83AB83BC83E5CFAF923F
:100D0000BF92CF92DF92EF92FF920F931F93CF93F8
:100D1000DF93CDB7DEB7AC970FB6F894DEBF0FBE4A
:100D2000CDBF6D8F7E8F8F8F98A329A33AA34BA33E
:100D30005CA3EDA2FEA20FA318A7A9A6BAA6CBA6F4
:100D4000DCA629A13AA14BA15CA16D8D7E8D8F8D72
:100D500098A10E943D2787FF86C020E030E0A901CE
:100D60006DA17EA18FA198A50E94142618160CF0E3
:100D70007AC020E030E0A90169A57AA58BA59CA5E1
:100D80000E94142618160CF06EC02DA13EA14FA192
:100D900058A560E070E088E890E40E941926698315
:100DA0007A838B839C8389819A81AB81BC81B05883
:100DB000898F9A8FAB8FBC8F29A53AA54BA55CA5CF
:100DC000698D7A8D8B8D9C8D0E9492276D8B7E8B89
:100DD0008F8B988F20E030E048E850E469A17AA139
:100DE0008BA19CA10E941926698B7A8B8B8B9C8B83
:100DF00029893A894B895C8960E070E080E89FE34B
:100E00000E94A7256D877E878F87988B6D857E854D
:100E10008F8598890E944A2769877A878B879C8764
:100E200029853A854B855C856D897E898F89988D6A
:100E30000E9492276D837E838F8398876D817E8148
:100E40008F819885AC960FB6F894DEBF0FBECDBFEC
:100E5000DF91CF911F910F91FF90EF90DF90CF9096
:100E6000BF90AF9008951D821E821F821886E6CF24
:100E7000CF93C82F86E890E00E94B7038F706C2F45
:100E8000607F682B86E890E00E94B10360E082E812
:100E900090E00E94CB0361E082E890E00E94BD03F5
:100EA0008FEC97E00197F1F700C0000061E082E865
:100EB00090E00E94CB0386E890E00E94B7038F7019
:100EC00090E1C99FB0011124682B86E890E00E9450
:100ED000B10361E082E890E00E94BD038FEC97E0EF
:100EE0000197F1F700C0000061E082E890E00E9405
:100EF000CB038FE99FE00197F1F700C00000CF918D
:100F00000895CF93C82F86E890E00E94B7038F70B2
:100F10006C2F607F682B86E890E00E94B10360E050
:100F200082E890E00E94BD0361E082E890E00E94C8
:100F3000BD0382E08A95F1F700C061E082E890E0AD
:100F40000E94CB0386E890E00E94B7038F7090E187
:100F5000C99FB0011124682B86E890E00E94B1037C
:100F600061E082E890E00E94BD0382E08A95F1F79B
:100F700000C061E082E890E00E94CB038FE99FE02F
:100F80000197F1F700C00000CF91089560EF86E867
:100F900090E00E94AC0363E082E890E00E94AC0322
:100FA0008FE39CE90197F1F700C0000082E00E9406
:100FB000380788E20E9438078CE00E94380786E0F4
:100FC0000E94380781E00E9438078FE99FE001976F
:100FD000F1F700C000000895CF93DF93EC018991F1
:100FE000811103C0DF91CF9108950E948107F7CF4F
:100FF000CF93DF93EA01811109C0862F80686031A9
:1010000058F0CE01DF91CF910C94EC078130C9F7F5
:101010006031B8F7862F806C0E943807F2CF81E0EC
:101020000E9438078FE99FE00197F1F700C00000A8
:1010300080E80C9438070F931F93CF93DF93CDB7BD
:10104000DEB72E970FB6F894DEBF0FBECDBF6B870D
:101050007C878D879E876B857C858D859E858E019F
:101060000F5F1F4F22E030E044E050E00E947B28F9
:10107000C8010E94EC072E960FB6F894DEBF0FBE93
:10108000CDBFDF91CF911F910F9108959C0150E04A
:1010900040E060E271EA87E090E00E94562821502B
:1010A000310930BD29B988E08AB986E880BD089544
:1010B0005D9BFECF8CB90895CF93DF93EC018991AE
:1010C000811103C0DF91CF9108950E945808F7CF96
:1010D0000F931F93CF93DF93CDB7DEB764970FB60F
:1010E000F894DEBF0FBECDBF698B7A8B8B8B9C8B48
:1010F00069897A898B899C898E010F5F1F4F22E055
:1011000030E046E050E00E947B28C8010E945C0865
:1011100064960FB6F894DEBF0FBECDBFDF91CF91BE
:101120001F910F910895CF92DF92EF92FF921F933C
:10113000CF93DF936C01162FF42E8AE190E00E948A
:10114000FA0BEC018FEF209709F456C080916901EA
:1011500090916A01892B21F5D0936A01C0936901AE
:101160008AE891E00E94460C83E991E00E94460CD7
:1011700081E891E00E94460C88E791E00E94460CCD
:101180008BE691E00E94460C81E891E09093770114
:101190008093760188E791E09093750180937401C4
:1011A000111111E0198E188E1E8BFF8AFE01C1925B
:1011B000D1927F01CF010E94540CCE010C960E9467
:1011C000540CD987C887DB8BCA8B82E090E0811BE7
:1011D00091099D878C878E8990916801981710F4EA
:1011E00080936801F9E08F9FC0011124B7018657F1
:1011F0009E4F0E94580C81E0DF91CF911F91FF908C
:10120000EF90DF90CF9008950F931F93CF93DF93CC
:101210008B01C0916601D0916701C80FD91F8091E1
:10122000690190916A0102960E94AE0C6091690179
:1012300070916A01FB01D383C28380916601909112
:1012400067016E5F7F4FC817D907B0F480917401B2
:10125000909175010E94780C0115110591F0609133
:10126000690170916A01645F7F4FC801DF91CF917E
:101270001F910F910C94780C8091760190917701D9
:10128000E9CFDF91CF911F910F910895FF920F93B6
:101290001F93CF93DF938091760190917701892BF3
:1012A00009F444C099E0F92E80916B01811144C08A
:1012B0000E94F9192091640130916501821B930B02
:1012C000909363018093620189E0F82E209162017E
:1012D000309163018091660190916701211531057C
:1012E00009F04CC09093650180936401809168017E
:1012F000282F30E099E0929FF001939FF00D112488
:10130000E657FE4F408141118DC0882369F081501E
:10131000282F30E0929FF001939FF00D1124E657A3
:10132000FE4F908191117EC080936801DF91CF9133
:101330001F910F91FF900895F894E0917001F09142
:101340007101C681D781CE010C960E94AE0C7894B3
:101350008E010E5F1F4FC8010E94AE0C8E899091C6
:101360006801981710F4809368018F9DC0011124C3
:10137000B80186579E4F0E94580C96CF01969093C5
:1013800067018093660121503109309363012093F6
:101390006201892B81F480917601909177012091EF
:1013A0007401309175013093770120937601909309
:1013B000750180937401E0917601F091770120919D
:1013C0006601309167018081882309F47FCF058011
:1013D000F681E02DC681D7818A819B812817390744
:1013E00008F474CFF8948E010E5F1F4FC8010E945D
:1013F000AE0C8C899D89892B21F0CE010C960E9420
:10140000AE0C78948E8990916801981710F48093AF
:1014100068018F9DC0011124B80186579E4F0E941C
:10142000580CC9CF8093680149E0429FC001439F97
:10143000900D1124FC01E657FE4FA181B281129656
:101440004D915C915283418383579E4F48175907B2
:1014500021F4858196819283818389E0829FF001C6
:10146000839FF00D1124E657FE4F0180F281E02D9D
:101470008681978190936A0180936901DC01ED91E7
:10148000FC91119757966C91DF91CF911F910F911D
:10149000FF9009940F931F93CF93DF93DC01159670
:1014A000ED91FC91C681D7818E01045F1F4FC80169
:1014B0000E94AE0CB8018BE691E00E94580CE091BE
:1014C0006901F0916A0181E02E899689291708F453
:1014D00080E0DF91CF911F910F91089510927701D5
:1014E00010927601109275011092740110926A01A7
:1014F00010926901109268011092670110926601C2
:1015000010926501109264011092630110926201C1
:101510000895CF93DF938BE090E00E94FA0BEC01EB
:10152000009731F0FC0111921192CF010E94460CFC
:10153000CE01DF91CF910895AF92BF92CF92DF920B
:10154000EF92FF920F931F93CF93DF936C017B0178
:10155000B42EA22E0E94F319F601C081D181CE01D2
:101560008E219F21A11040C0892B09F041C0011597
:10157000110589F070E060E0BB2011F060E071E0DF
:10158000A11074606E297F29A801C60102960E94ED
:10159000901CD0E0C0E00E940F1B012BC9F081110C
:1015A00002C00E94730D0E94A71E91FD0FC00FB6CE
:1015B000F8940F92F60180819181970128233923B5
:1015C000A11023C0232B21F50F900FBEEC01DD27C6
:1015D000CE01DF91CF911F910F91FF90EF90DF909F
:1015E000CF90BF90AF900895E816F90609F0BFCFED
:1015F000BB2041F0C701809590958C239D23F60177
:101600009183808310E000E0C6CFE216F306E1F696
:10161000BB20D1F2E094F094E822F922F601F182A5
:10162000E082D2CFFC010FB6F8940F9280819181B5
:101630006095709568237923718360830F900FBE46
:101640000895FC01808191810895CF92DF92EF92FD
:10165000FF920F931F93CF93DF93EC018B017C01DB
:1016600085E0E80EF11C0E94F319EF81F88568818E
:101670007981602B712B7983688310E000E06881A9
:101680007981EE15FF0599F400951095062317232F
:10169000198308830E940F1B88819981DF91CF9164
:1016A0001F910F91FF90EF90DF90CF900895C2802F
:1016B000D38020813181C9019927AC01462357236A
:1016C00032FD04C0452B29F4F601D9CF84179507C4
:1016D000D9F730FF02C0082B192B7260CF010E948E
:1016E000B81DF2CFAF92BF92CF92DF92EF92FF92EE
:1016F0000F931F93CF93DF937C01EB018A01690164
:101700000E94F319F701A080B180BE01C7010E94B9
:10171000250BCA29DB29CE0180239123801791074D
:1017200009F03BC0F70180819181980120953095A7
:101730008223932391838083D12CC12C0E940F1B81
:10174000CD28F9F0811102C00E94730D0E94A71EDE
:1017500091FD15C00FB6F8940F92F7018081918129
:101760009801282339232017310739F4A80140951F
:10177000509548235923518340830F900FBEEC01AD
:10178000DD27CE01DF91CF911F910F91FF90EF9058
:10179000DF90CF90BF90AF900895C114D10451F065
:1017A000A601B8017560C70102960E94901CD0E0A6
:1017B000C0E0C4CFF701C081D181C0CFCF93DF9308
:1017C000EC010E94F3198A81811107C00E940F1B4E
:1017D000CE01DF91CF910C94320C60E072E08F81EA
:1017E00098850E94B81DEFCFBA010C94250BBA0161
:1017F0000C94120B0F931F93CF93DF938C010E94D5
:10180000F31980919C0190919D01892B31F480EA1C
:1018100091E090939D0180939C0101151105F9F0D1
:1018200020919E0130919F01020F131F0B3D85E017
:101830001807A8F42017310790F4C0919C01D091AB
:101840009D01C20FD31F10939F0100939E010E9420
:101850000F1BCE01DF91CF911F910F910895D0E022
:10186000C0E0F5CF089510929F0110929E01089557
:1018700020919E0130919F018BED95E0821B930B8F
:10188000089510929F0110929E010895FC01039605
:10189000928381832FEF3FEF348323839683858365
:1018A0009087878310820895FC0111861086089521
:1018B000CF93DF939C01FB01DC011196CD91DC916C
:1018C000D383C2838C819D81958384838C819D8108
:1018D000DC0113967C936E9312977D836C83318722
:1018E0002087F90180818F5F8083DF91CF910895F8
:1018F0000F931F93CF93DF938C01FB018081918124
:10190000D80113968F3F9807F1F4E801AF81B885AD
:1019100012968D919C91139793838283EC01FD83A2
:10192000EC83B583A4831396FC93EE9312971187EF
:101930000087F80180818F5F8083DF91CF911F91B5
:101940000F910895D90112962D913C911397E901B9
:101950004881598184179507A8F7DACFCF93DF9391
:10196000FC01A085B1858281938124813581EC01C0
:101970003D832C83C481D5819B838A8311968D916D
:101980009C9112978E179F0721F41296DC93CE93A9
:101990001197118610868C9181508C93DF91CF9195
:1019A000089531E1FC013083319722E220833197A1
:1019B000A3E3A083319760833197708331971082BE
:1019C000319760E8608331971082319762E06083DD
:1019D000319763E06083319764E06083319765E01D
:1019E0006083319766E06083319767E06083319769
:1019F00068E06083319769E06083319760E16083DC
:101A000031973083319732E13083319733E130833E
:101A1000319734E13083319735E13083319736E1C6
:101A20003083319737E13083319738E13083319714
:101A300039E13083319730E23083319731E23083BE
:101A400031972083319723E2208331974083319768
:101A50005083319726E22083319727E22083319704
:101A600028E22083319729E22083319720E32083E5
:101A7000319721E32083869708951BBC8CE78ABDAC
:101A80008BE08EBD89B7806189BFA091D807B091E6
:101A9000D907CD91CDBFDD91DEBFFF91EF91DF91F1
:101AA000CF91BF91AF919F918F917F916F915F91F6
:101AB0004F913F912F911F910F91FF90EF90DF90E9
:101AC000CF90BF90AF909F908F907F906F905F90DE
:101AD0004F903F902F901F900F900FBE0F90089542
:101AE00081E0089508950F920FB6F8940F921F9217
:101AF00011242F923F924F925F926F927F928F921A
:101B00009F92AF92BF92CF92DF92EF92FF920F938C
:101B10001F932F933F934F935F936F937F938F9375
:101B20009F93AF93BF93CF93DF93EF93FF93A091D6
:101B3000D807B091D9070DB60D920EB60D920E943E
:101B40003A1CA091D807B091D907CD91CDBFDD91B6
:101B5000DEBFFF91EF91DF91CF91BF91AF919F9148
:101B60008F917F916F915F914F913F912F911F9135
:101B70000F91FF90EF90DF90CF90BF90AF909F902C
:101B80008F907F906F905F904F903F902F901F901D
:101B90000F900FBE0F9008950F920FB6F8940F920A
:101BA0001F9211242F923F924F925F926F927F92D9
:101BB0008F929F92AF92BF92CF92DF92EF92FF925D
:101BC0000F931F932F933F934F935F936F937F9345
:101BD0008F939F93AF93BF93CF93DF93EF93FF9335
:101BE000A091D807B091D9070DB60D920EB60D92FF
:101BF0000E94131A81110E943A1CA091D807B0913B
:101C0000D907CD91CDBFDD91DEBFFF91EF91DF917F
:101C1000CF91BF91AF919F918F917F916F915F9184
:101C20004F913F912F911F910F91FF90EF90DF9077
:101C3000CF90BF90AF909F908F907F906F905F906C
:101C40004F903F902F901F900F900FBE0F900895D0
:101C50000E94CC0D18950FB6F8940F92FC01928D4E
:101C60000F900FBE81E0911180E008950F931F93B4
:101C7000CF93DF93EC01042F1A8D4C8D4423C1F0D8
:101C800050E001111DC08A819B810E9499288C8D92
:101C90002A813B81820F932F911D9B838A832C8104
:101CA0003D818217930720F0888199819B838A83E5
:101CB0001F5F1A8F80E0DF91CF911F910F910895E0
:101CC0008E819F810E9499288C8D90E091958195BD
:101CD00091092E813F81280F391F3F832E83488130
:101CE00059812417350730F42C813D81820F931FD1
:101CF0009F838E830230E1F61123D1F21150D8CFA9
:101D0000FC01CB01448D4423A1F050E026813781B2
:101D1000240F351F37832683648175812617370783
:101D200020F02081318137832683668177810C946E
:101D300099280895EF92FF921F93CF93DF93EC01C0
:101D40000FB6F8940F921E8D7C0181E1E80EF11C14
:101D50001116C4F08FEF8E8F0F900FBE0FB6F89450
:101D60000F921D8D7E0188E0E80EF11C1116ACF07B
:101D70008FEF8D8F0F900FBEDF91CF911F91FF904E
:101D8000EF9008958989882329F3C7010E94131DC4
:101D900081110E94861E1150DBCF8885882341F374
:101DA000C7010E94131D81110E94861E1150DECFB3
:101DB000CF93DF93009709F43FC0FC01238D2223CA
:101DC00009F43AC0EC01448D0FB6F8940F9280816B
:101DD0009181FC01249FE00DF11D1124FD83EC8312
:101DE0001A8E9B838A832150330B429FF001439FBD
:101DF000F00D11248E0F9F1F9F838E838FEF8D8F89
:101E00008E8F611110C08885882339F0CE01089625
:101E10000E94131D81110E94730D0F900FBE81E06F
:101E2000DF91CF910895CE0108960E94460CCE0115
:101E300041960E94460CF1CF80E0F2CF0F931F93A2
:101E4000CF93DF93811108C0D0E0C0E0CE01DF91D5
:101E5000CF911F910F910895869F90011124213EEB
:101E6000310594F7162F082FC9014F960E94FA0BDF
:101E7000EC01009749F3111109C0998388830B8FF6
:101E80001C8F61E0CE010E94D80EE0CF4F9699835F
:101E90008883F5CFAF92BF92CF92DF92FF920F93DC
:101EA0001F93CF93DF9300D000D01F92CDB7DEB742
:101EB0008C016B015D834C83F22E80E0580198E029
:101EC000A90EB11C0FB6F8940F92F801228D938DD4
:101ED000291718F0F2E0FF1222C04F2DB601C801F9
:101EE0000E94360EF8019189992321F0C80141968C
:101EF0000E94131D81110E94730D0F900FBE81E08F
:101F00000F900F900F900F900F90DF91CF911F9136
:101F10000F91FF90DF90CF90BF90AF9008952C81EC
:101F20003D81232B21F40F900FBE80E0E9CF81117A
:101F300004C0CE0101960E944F1E0F900FBE0E945A
:101F4000F3190FB6F8940F92F801858D8F3F09F4BD
:101F5000158EF801868D8F3F09F4168E0F900FBEF7
:101F6000BE016C5F7F4FCE0101960E945A1E811107
:101F700020C00FB6F8940F92F801928D0F900FBE0B
:101F8000838D981310C06C817D81C5010E94801CD7
:101F9000C8010E949A0E0E940F1B811102C00E946C
:101FA000730D81E08FCFC8010E949A0E0E940F1B13
:101FB000F8CFC8010E949A0E0E940F1BB6CFEF9275
:101FC000FF921F93CF93DF93EC019A8D8B8D98171F
:101FD00018F080E02230D1F47A011E8D8A8D422FD4
:101FE000CE010E94360E1F3FB9F48989811102C0CB
:101FF00081E00CC0CE0141960E94131D8823C1F3DD
:10200000E114F104A9F381E0F7018083DF91CF911E
:102010001F91FF90EF9008950E94081A181740F73B
:102020001F5F1E8FE5CFEF92FF921F93CF93DF9339
:10203000EC018A8D9B8D891720F57B011E8D8F5FAA
:102040008A8F1F3FB9F48989811102C081E00CC0D9
:10205000CE0141960E94131D8823C1F3E114F104BF
:10206000A9F381E0F7018083DF91CF911F91FF9069
:10207000EF9008950E94081A181740F71F5F1E8FEF
:10208000E5CF80E0F1CFAF92BF92CF92DF92FF9287
:102090000F931F93CF93DF9300D000D01F92CDB743
:1020A000DEB78C016B015D834C8380E0580191E1C8
:1020B000A90EB11C0FB6F8940F92F801F28CFF2014
:1020C00019F1B601C8010E94800EFA94F801F28E4F
:1020D0008085882339F0C80108960E94131D81115C
:1020E0000E94730D0F900FBE81E00F900F900F9024
:1020F0000F900F90DF91CF911F910F91FF90DF9084
:10210000CF90BF90AF9008952C813D81232B21F477
:102110000F900FBE80E0E9CF811104C0CE0101967F
:102120000E944F1E0F900FBE0E94F3190FB6F89435
:102130000F92F801858D8F3F09F4158EF801868D79
:102140008F3F09F4168E0F900FBEBE016C5F7F4F5C
:10215000CE0101960E945A1E81111BC0C8010E9427
:102160002B0E882381F06C817D81C5010E94801C2B
:10217000C8010E949A0E0E940F1B811102C00E948A
:10218000730D81E097CFC8010E949A0E0E940F1B29
:10219000F8CFC8010E949A0E0E940F1BC8010E942E
:1021A0002B0E882371F3B6CFEF92FF920F931F93FC
:1021B000CF93DF9300D000D01F92CDB7DEB78C0154
:1021C0007D836C8390E0780181E1E80EF11C0FB60D
:1021D000F8940F92F801828D8823D9F08150828F74
:1021E0008085882339F0C80108960E94131D81114B
:1021F0000E94730D0F900FBE81E00F900F900F9013
:102200000F900F90DF91CF911F910F91FF90EF9062
:1022100008952C813D81232B21F40F900FBE80E087
:10222000ECCF911104C0CE0101960E944F1E0F9079
:102230000FBE0E94F3190FB6F8940F92F801858D26
:102240008F3F09F4158EF801868D8F3F09F4168EA5
:102250000F900FBEBE016C5F7F4FCE0101960E94B2
:102260005A1E81111BC0C8010E942B0E882381F0C9
:102270006C817D81C7010E94801CC8010E949A0E5A
:102280000E940F1B811102C00E94730D91E09FCF2D
:10229000C8010E949A0E0E940F1BF8CFC8010E942D
:1022A0009A0E0E940F1BC8010E942B0E882371F307
:1022B000B6CFCF92DF92EF92FF920F931F93CF93FF
:1022C000DF9300D000D01F92CDB7DEB78C017B0129
:1022D0005D834C8380E0680191E1C90ED11C0FB68B
:1022E000F8940F92F801928D992321F1C680D7803E
:1022F000B701C8010E94800EF801D782C682818989
:10230000882339F0C80141960E94131D81110E9453
:10231000730D0F900FBE81E00F900F900F900F90F4
:102320000F90DF91CF911F910F91FF90EF90DF9071
:10233000CF9008952C813D81232B21F40F900FBE67
:1023400080E0EACF811104C0CE0101960E944F1EA9
:102350000F900FBE0E94F3190FB6F8940F92F80178
:10236000858D8F3F09F4158EF801868D8F3F09F416
:10237000168E0F900FBEBE016C5F7F4FCE0101968F
:102380000E945A1E81111BC0C8010E942B0E882377
:1023900081F06C817D81C6010E94801CC8010E9471
:1023A0009A0E0E940F1B811102C00E94730D81E0E2
:1023B00096CFC8010E949A0E0E940F1BF8CFC80149
:1023C0000E949A0E0E940F1BC8010E942B0E8823A8
:1023D00071F3B6CFEF92FF920F931F93CF93DF93DA
:1023E000FC01028D002341F17A01EC01158D0E9460
:1023F000800E01500A8F1F3FC1F48885811102C0F1
:1024000081E00CC0CE0108960E94131D8823C1F301
:10241000E114F104A9F381E0F7018083DF91CF910A
:102420001F910F91FF90EF9008950E94081A1817BE
:1024300038F71F5F1D8FE4CF80E0F0CF0F931F931D
:10244000CF93DF93FC01228D222369F0EC010681FA
:1024500017810E94800E1F830E8381E0DF91CF9150
:102460001F910F91089580E0F9CF0FB6F8940F9265
:10247000FC01828D0F900FBE08950FB6F8940F9255
:10248000FC01228D0F900FBE838D821B0895FC01ED
:10249000828D08950C94320CFC01848D0895FC010A
:1024A000838D0895FC01928D81E0911180E0089563
:1024B000FC01928D81E0238D291380E00895CF9354
:1024C000DF93EC01F8940FB6F8940F928A8D9B8DF0
:1024D0000F900FBE891311C04115510559F0BE016F
:1024E000685F7F4FCA010E94040978948CEFDF91E6
:1024F000CF910895789480E0FACF7894F8948A8DFB
:10250000891790F440E0CE010E94360E898981112E
:1025100003C081E07894EBCFCE0141960E944A0A35
:102520008823B9F38BEFF6CF80E0F4CFCF93DF931E
:10253000EC01FB01F8948A8D811111C04115510500
:1025400059F0BE016F5E7F4FCA010E940409789462
:102550008CEFDF91CF910895789480E0FACF789452
:10256000F8948A8D882339F14C8D50E02E813F817B
:10257000240F351F3F832E838C819D8128173907B7
:1025800020F0888199819F838E839A8D91509A8FB4
:102590006E817F81CF010E9499288885811103C0B7
:1025A00081E07894D6CFCE0108960E944A0A88230B
:1025B000B9F38BEFF6CF80E0F4CF1F93CF93DF9387
:1025C000EC01142F9A8D8B8D981788F440E0CE0182
:1025D0000E94360E11110BC08989882341F0CE016B
:1025E00041960E944A0A11E0811101C010E0812F3A
:1025F000DF91CF911F9108950F931F93CF93DF9396
:10260000EC018A8D882391F12C8D30E0AE81BF8161
:10261000A20FB31FBF83AE838C819D81A817B9071A
:1026200020F0888199819F838E838A01CB014A8D16
:1026300041504A8F6E817F81A9010E949928F8013B
:102640008081882331F081E0DF91CF911F910F913C
:10265000089588858823B9F3CE0108960E944A0A16
:10266000882389F381E0F8018083EECF80E0ECCF0E
:10267000CF93DF93EC010FB6F8940F928D8D8F3FBF
:1026800009F41D8E8E8D8F3F09F41E8E0F900FBEA4
:102690008A8D811104C0CE0141960E94D41CCE01C6
:1026A000DF91CF910C949A0EFC01448155812281D7
:1026B0003381240F351F80819181B901681B790B0B
:1026C000CB016417750710F0841B950B0895AF922A
:1026D000BF92CF92DF92EF92FF920F931F93CF930F
:1026E000DF936C015B017A01E901FC010481158132
:1026F000021B130B4017510708F48A01F601848569
:102700009585A801B5018C0F9D1F0E9499280E1573
:102710001F0558F4A701401B510BB501600F711F35
:10272000F601848595850E949928CE018E0D9F1D06
:10273000F601248135818217930710F0821B930BD9
:10274000DF91CF911F910F91FF90EF90DF90CF908D
:10275000BF90AF900895AF92BF92CF92DF92EF9269
:10276000FF920F931F93CF93DF9300D0CDB7DEB7C7
:102770006C015B017A01FC0182819381468540FFF7
:1027800028C0FA82E9822017310740F19C0142E01B
:1027900050E0BE016F5F7F4FC6010E946713E114D6
:1027A000F10449F09C01A701B501C6010E9467131D
:1027B000F60193838283C7010F900F90DF91CF9131
:1027C0001F910F91FF90EF90DF90CF90BF90AF904F
:1027D00008952E153F0518F77901E1CFF12CE12C72
:1027E000EACFAF92BF92CF92DF92EF92FF920F9318
:1027F0001F93CF93DF936C015B017A01E901FC0128
:1028000004811581021B130B4017510708F48A013C
:10281000F601648575856C0F7D1FA801C5010E94B6
:1028200099280E151F0558F4A701401B510BF601FE
:1028300064857585C501800F911F0E949928CE017E
:102840008E0D9F1DF601248135818217930710F0AC
:10285000821B930BDF91CF911F910F91FF90EF900F
:10286000DF90CF90BF90AF900895AF92BF92CF927C
:10287000DF92EF92FF920F931F93CF93DF9300D0DD
:10288000CDB7DEB77C015B016A018901FC012081C3
:102890003181868580FF12C042E050E0BE016F5F4B
:1028A0007F4FC7010E94F1139C0189819A810250D8
:1028B0001109C816D906F8F4D12CC12CC016D106BE
:1028C00008F486010115110541F0A801B501C70101
:1028D0000E94F113F70191838083C8010F900F903C
:1028E000DF91CF911F910F91FF90EF90DF90CF90EC
:1028F000BF90AF9008956C01E1CFEF92FF921F93CC
:10290000CF93DF93EC017B0111E0413021F010E027
:10291000423009F414E0E114F10419F4EE24E394D4
:10292000F12CF0E0E0E0CF3E8FEFD807B8F4CE0115
:1029300041960E94FA0BFC01892B81F08CE0DF01AB
:102940001D928A95E9F7CF01409695878487219655
:10295000D583C483F782E68216871786CF01DF917D
:10296000CF911F91FF90EF900895FC01268521FFE4
:102970000C94320C20E111922A95E9F70895FC019C
:102980000FB6F8940F9280859185892BB1F48285DA
:102990009385892B91F486819781248135814CE040
:1029A000DF011D924A95E9F7358324839783868357
:1029B000178681E00F900FBE089580E0FBCFFC01E9
:1029C00080859185892BA1F482859385892B81F45B
:1029D00086819781248135814CE0DF011D924A95E3
:1029E000E9F73583248397838683178681E00895EA
:1029F00080E008956115710511F461E070E0FC015B
:102A0000248135816217730720F47783668381E020
:102A1000089580E00895FC012481358180819181B1
:102A20006081718142815381A081B181A817B9076A
:102A3000A9F7C9010197860F971F841B950B821771
:102A4000930710F0821B930B08950C9454132F924C
:102A50003F924F925F926F927F928F929F92AF922E
:102A6000BF92CF92DF92EF92FF920F931F93CF937B
:102A7000DF9300D000D01F92CDB7DEB75C011B0101
:102A80002A013D832C83FC01848195810197268551
:102A90004A0120FF54C0F2E08F0E911C8815990561
:102AA00010F41D821C828C819D81892B09F04DC000
:102AB000C5010E940B153C0184019301A201B101E3
:102AC000C5010E94AB134C01892B01F1C5010E9485
:102AD0005413F5012681378182179307B8F00E94BD
:102AE000F319F50180859185892B71F08085918599
:102AF000F12CE12C00E020E030E0A90167850E9484
:102B0000F51FF501118610860E940F1BC4010F905E
:102B10000F900F900F900F90DF91CF911F910F9119
:102B2000FF90EF90DF90CF90BF90AF909F908F90ED
:102B30007F906F905F904F903F902F9008958417F3
:102B4000950708F0B0CF4C01AECFCE0101960E94A0
:102B50003F1E0FB6F8940F92C5010E940B153C0161
:102B60008815990558F5F501678590E080E00E9489
:102B700089220E948A1EF501938782870F900FBEDB
:102B8000CC80DD80F12CE12C00E010E0980140E0E9
:102B900050E0BA0187850E943F1FF5011386128617
:102BA000BE016C5F7F4FCE0101960E945A1E8823A2
:102BB00081F26114710409F47BCF7ECF0F900FBEB8
:102BC000F8CFAF92BF92CF92DF92EF92FF920F9326
:102BD0001F93CF93DF93EC015B017A0169018E852E
:102BE0008A0180FF02C00E5F1F4FCE010E940B15AD
:102BF0009C01A701B501CE010E94AB135C01892B9A
:102C0000C9F0CE010E9454132E813F818217930791
:102C100088F088859985892B69F088859985F12CBC
:102C2000E12C00E020E030E0A9016F850E94D52072
:102C300019861886C501DF91CF911F910F91FF90E2
:102C4000EF90DF90CF90BF90AF9008956F927F92FA
:102C50008F929F92AF92BF92CF92DF92EF92FF92AC
:102C60000F931F93CF93DF93EC014B013A0169015E
:102C70008E8580FD47C0B12CA12C82FF02C0AE80A2
:102C8000BF80C114D10429F10FB6F8940F92CE0180
:102C90000E9454138C01A816B90648F06F8590E085
:102CA00080E00E9489220E948A1E998788870F905F
:102CB0000FBEA016B10650F1F12CE12C00E010E09F
:102CC000980140E050E0BA018F850E943F1F1986AD
:102CD0001886CE010E9454138C01A816B906B0F0D4
:102CE000B12CA12CC501DF91CF911F910F91FF90C5
:102CF000EF90DF90CF90BF90AF909F908F907F909C
:102D00006F90089582E0A82EB12CBBCF9801A3014B
:102D1000B401CE010E9435145C01892B09F30E9495
:102D2000F3198A859B85892B69F08A859B85F12C0F
:102D3000E12C00E020E030E0A9016F850E94F51F42
:102D40001B861A860E940F1BCDCF0F931F93CF9324
:102D5000DF9300D0CDB7DEB7FC01268520FD09C08A
:102D600090E080E00F900F90DF91CF911F910F9135
:102D700008958C010E945413039790F3F801208169
:102D8000318142E050E0BE016F5F7F4FC8010E9479
:102D9000F11389819A81E6CFAF92BF92CF92DF92F1
:102DA000EF92FF920F931F93CF93DF93EC015B01A0
:102DB0007A0169018E8510E000E080FF02C002E028
:102DC00010E0CE010E9454130817190770F0B12CBF
:102DD000A12CC501DF91CF911F910F91FF90EF9032
:102DE000DF90CF90BF90AF9008959C01A701B501EF
:102DF000CE010E9435145C01892B49F38A859B859D
:102E0000892B39F38A859B85F12CE12C00E020E0A9
:102E100030E0A9016F850E94D5201B861A86D9CF84
:102E2000FC01208131814281538181E042175307A7
:102E300009F080E00895CF93DF93FC012685D0E070
:102E4000C0E020FF02C0C2E0D0E00E940B1521E0EC
:102E5000C817D90708F420E0822FDF91CF91089599
:102E6000CF92DF92EF92FF920F93CF93DF93FC010B
:102E700020853185232BC1F06B01EC018085918584
:102E8000F12CE12C00E020E030E0A90167850E94F0
:102E9000D5201986188681E0DF91CF910F91FF90A0
:102EA000EF90DF90CF90089580E0F6CFCF92DF9241
:102EB000EF92FF920F93CF93DF93FC01228533852E
:102EC000232BC1F06B01EC0182859385F12CE12C61
:102ED00000E020E030E0A90167850E94D5201B8634
:102EE0001A8681E0DF91CF910F91FF90EF90DF90F4
:102EF000CF90089580E0F6CFFC0187850895FC010E
:102F000067870895E091A007F091A1078081811162
:102F100007C08FEF9FEF9093800780937F070895FE
:102F2000E091A007F091A1070580F681E02D808156
:102F30009181F1CFCF92DF92EF92FF920F931F9387
:102F4000CF93DF93EC01C0908807D0908907009160
:102F5000A0071091A107E0909E07F0909F07809135
:102F6000D8079091D90702960E94AE0CCC0DDD1DBA
:102F7000E091D807F091D907D383C2836091D80735
:102F80007091D9076E5F7F4FCC15DD0558F4C701EE
:102F9000DF91CF911F910F91FF90EF90DF90CF9035
:102FA0000C94780CC8010E94780C80917F07909156
:102FB0008007C817D90720F4D0938007C0937F07F4
:102FC000DF91CF911F910F91FF90EF90DF90CF9005
:102FD0000895CF93DF9380918B07811103C0DF9118
:102FE000CF9108950FB6F8940F92E0919107F09168
:102FF0009207C681D781CE0102960E94AE0C8091C5
:103000008A07815080938A0780918B078150809333
:103010008B070F900FBE8F89988D0E94320CCE01C6
:103020000E94320CD8CF0E94E9178091B4078230F9
:10303000D0F30E94730DF7CF4F925F926F927F9201
:103040008F929F92AF92BF92CF92DF92EF92FF92B8
:103050000F93CF93DF934C015B012901C42ED12C38
:10306000C6010E94FA0B3C01892B09F4C9C086E213
:1030700090E00E94FA0BEC01892B09F4BEC086E2B5
:10308000DE011D928A95E9F7788E6F8AB1E0CB1A3E
:10309000D108C60CD71CA114B10409F0C2C0043079
:1030A00008F003E00E8B5E01B2E0AB0EB11CC5016F
:1030B0000E94540CCE010C960E94540CD987C887EC
:1030C00084E090E0801B91099D878C87DB8BCA8B05
:1030D000A201B401C6010E94D10C99838883E11436
:1030E000F10419F0F701D183C0830FB6F8940F9261
:1030F00080918A078F5F80938A078091D80790918B
:10310000D907892B09F0A3C0D093D907C093D8075A
:1031100080918A07813061F584EB97E00E94460C2C
:103120008DEB97E00E94460C86EC97E00E94460CDF
:103130008FEC97E00E94460C8BEA97E00E94460CC9
:1031400082EA97E00E94460C85E997E00E94460CCF
:103150008CE897E00E94460C8BEA97E09093A107D9
:103160008093A00782EA97E090939F0780939E0741
:10317000809181078F5F80938107AE898091870757
:103180008A1710F4A093870729E02A9FD001112401
:10319000AC54B84F11960D90BC91A02DBD83AC835B
:1031A00014968D919C9115979F838E8314968D9183
:1031B0009C911597FC01B382A2821596BC92AE92A7
:1031C00014979E89929FF0011124EC54F84FFB87CD
:1031D000EA8780818F5F80830F900FBE8091860782
:1031E000882349F0E091D807F091D907868989179B
:1031F00010F40E94730D81E004C0C3010E94320CE0
:103200008FEFDF91CF910F91FF90EF90DF90CF90F4
:10321000BF90AF909F908F907F906F905F904F90F6
:103220000895F501AE01475E5F4FC50108962191F3
:10323000DA012D93AD019F0121503109D9012C9163
:10324000222319F0E817F90791F718A228CF8091E7
:10325000860781118DCFE091D807F091D9079E891B
:103260008689981708F484CFD093D907C093D807DC
:103270007FCF0F931F93CF93DF93EC010FB6F8949A
:103280000F92892B21F4C091D807D091D9078E01D4
:103290000E5F1F4FC8010E94AE0C8C899D89892B3F
:1032A00021F0CE010C960E94AE0C809181078F5FB9
:1032B000809381078091D8079091D9072091860744
:1032C000222359F18C179D0741F5B8018CE897E04E
:1032D0000E94580C80918B078F5F80938B0781E051
:1032E0000F900FBE813039F08F89988D0E94320C7B
:1032F000CE010E94320C80918607882349F080918C
:10330000D8079091D9078C179D0711F40E94730D6F
:10331000DF91CF911F910F91089580918A0781507D
:1033200080938A070E94821780E0DACFEF92FF92A3
:103330000F93CF93DF93CDB7DEB728970FB6F894EE
:10334000DEBF0FBECDBFA2E9B0E0FE0131962AE993
:1033500030E0BF018D918193882319F02A173B0734
:10336000C9F78DE7E82E87E0F82E00E030E020E096
:1033700045E583E198E10E941C188823A9F081307B
:1033800099F40E949324813079F4F8942FEF3FEF61
:103390003093800720937F078093860710928907D8
:1033A000109288070E943D0D80918A0028960FB6E2
:1033B000F894DEBF0FBECDBFDF91CF910F91FF908C
:1033C000EF9008950E9443250E94391980917D074E
:1033D00090917E070E9439190E94E917F894109283
:1033E00086070C94720D80917C078F5F80937C0719
:1033F00008950FB6F8940F928091880790918907ED
:103400000F900FBE089580918807909189070895C5
:1034100080918A070895009721F48091D8079091B0
:10342000D90749960895CF92DF92EF92FF920F93BA
:103430001F93CF93DF9380917C078111E5C0C091EA
:103440008807D09189076E018FEFC81AD80AD092E9
:103450008907C0928807C114D104B9F48091A007EC
:103460009091A10720919E0730919F073093A1076B
:103470002093A00790939F0780939E0780918207D7
:103480008F5F809382070E94821780917F079091BF
:103490008007C816D906E8F480E0E091D807F091DB
:1034A000D907E689D9E0ED9FF0011124EC54F84FDB
:1034B0009081923008F081E090918307911181E032
:1034C000DF91CF911F910F91FF90EF90DF90CF9000
:1034D000089580E069E0E091A007F091A107908154
:1034E000911107C02FEF3FEF3093800720937F07A4
:1034F000D4CFE091A007F091A1070580F681E02DDF
:103500000680F781E02D22813381C216D30660F355
:10351000C285D3852481358146815781D90115968D
:103520005C934E93149746815781DA0113963C932E
:103530002E9312979F012E5F3F4F09811A81021728
:10354000130711F45A834983138612869881915088
:103550009883A489B5891097F9F046855785008925
:103560001189EA011D830C8300891189E8015B83BD
:103570004A831196ED90FC901297AF01445F5F4F24
:10358000E416F50621F412961C930E931197158AF2
:10359000148A9C9191509C93A689909187079A17C1
:1035A00010F4A09387076A9FD0011124AC54B84F40
:1035B00011960D90BC91A02DB583A48314964D91C6
:1035C0005C9115975783468314964D915C9115979E
:1035D000EA013B832A8315963C932E931497268900
:1035E000269FD0011124AC54B84FB387A2879C9179
:1035F0009F5F9C93E091D807F091D9079689921725
:1036000008F069CF81E067CF8091840790918507AA
:103610000196909385078093840780E051CFEF92C5
:10362000FF920F931F93CF93DF930FB6F8940F92EF
:1036300080917C07815080937C0780917C07882350
:1036400051F080E00F900FBEDF91CF911F910F914D
:10365000FF90EF90089580918A07882391F3E0907E
:103660009A07F0909B07F0E0E0E039E041E08091BC
:103670009507811122C0EF2B11F00E948217C09193
:103680008407D0918507209761F011E00E94131AFA
:103690008111109383072197C9F710928507109223
:1036A000840780918307882361F28091D8079091E5
:1036B000D9070E94730D81E0C5CFD7011696ED9111
:1036C000FC91A489B5896685778580899189EB010C
:1036D0009D838C8380899189EC017B836A83BF0100
:1036E000645F7F4F11960D911C9112970617170773
:1036F00021F412969C938E931197158A148A8C91BB
:1037000081508C93A285B385848195816681778170
:10371000EC017D836C8366817781EB019B838A83D7
:10372000CF01029611960D911C9112970817190757
:1037300021F412967C936E931197138612862C9126
:1037400021502C93A689209187072A1710F4A09363
:1037500087073A9FD0011124AC54B84F11960D90B1
:10376000BC91A02DB583A48314966D917C9115977F
:103770007783668314966D917C911597EB019B83FB
:103780008A8315969C938E9314979689939FD00164
:103790001124AC54B84FB387A2878C918F5F8C9360
:1037A000A091D807B091D90756968C91891708F047
:1037B0005ECF409383075BCF0F931F93CF93DF932D
:1037C000EC018B010E94F319209188073091890741
:1037D00048815981CA01800F911F998388832417DA
:1037E000350780F48417950780F0C0E00E940F1B16
:1037F000811102C00E94730D8C2FDF91CF911F9118
:103800000F9108958417950718F02817390768F75E
:10381000821B930B0E949A17C1E0E8CFCF93DF93EE
:10382000EC01892B29F40E94730DDF91CF9108954B
:103830000E94F319CE010E949A170E940F1B882341
:1038400091F3F3CFCF93DF93EC010E94F3190FB6FE
:10385000F8940F9280918407909185078C0F9D1F9B
:1038600090938507809384070F900FBEDF91CF91CF
:103870000C940F1B80917C07882321F081E08093BA
:1038800083070895109283072091870789E0422FCC
:1038900050E0849FF001859FF00D1124EC54F84F07
:1038A0009081992359F1A181B28112966D917C91F9
:1038B00072836183289FC00111248954984F68172F
:1038C000790721F4858196819283818389E0849FA1
:1038D000F001859FF00D1124EC54F84F0180F28126
:1038E000E02D868197819093D9078093D807209304
:1038F00087078091D8079091D90708952150C7CFA5
:10390000CF93DF93EB016091D8077091D907645F83
:103910007F4F0E94780CCE01DF91CF910C949A17C3
:10392000CF93DF93FC01A091D807B091D9077068BD
:103930001D967C936E931C97A181B281C091D8078C
:10394000D091D907BF87AE87C091D807D091D9074A
:1039500014968D919C911597998B888B2091D807FF
:103960003091D9071496CD91DC911597245F3F4F84
:103970003B832A832091D8073091D907245F3F4F9A
:1039800015963C932E931497A091D807B091D90720
:103990005596FC93EE93549790819F5F9083CA0154
:1039A000DF91CF910C949A17CF93DF93FC01A18103
:1039B000B281C091D807D091D907BF87AE87C09197
:1039C000D807D091D90714968D919C911597998B12
:1039D000888B2091D8073091D9071496CD91DC912E
:1039E0001597245F3F4F3B832A832091D80730915E
:1039F000D907245F3F4F15963C932E931497A091BF
:103A0000D807B091D9075596FC93EE9354979081BF
:103A10009F5F9083442311F06FEF7FEFCB01DF9125
:103A2000CF910C949A17CF93DF93DC011596ED910B
:103A3000FC910680F781E02DA489B589868597855C
:103A400020893189EC013D832C83C089D1899B83F6
:103A50008A83CF010C9611962D913C9112972817CD
:103A6000390721F41296DC93CE931197158A148AA4
:103A70002C9121502C9320917C07211157C0A285B5
:103A8000B3858481958126813781EC013D832C8328
:103A9000C681D7819B838A83CF01029611962D918F
:103AA0003C9112972817390721F41296DC93CE9394
:103AB0001197138612862C9121502C93C689209140
:103AC00087072C1710F4C093870729E02C9FE0018B
:103AD0001124CC54D84F0980DA81C02DD583C483FA
:103AE0004C815D8157834683AC81BD8113969C9345
:103AF0008E9312979D838C83A689A29FD001112457
:103B0000AC54B84FB387A2878C918F5F8C93A091F0
:103B1000D807B091D907968956968C91891730F5B8
:103B200081E080938307DF91CF910895A09196075C
:103B3000B0919707B787A68714962D913C9115975A
:103B4000318B208B1496CD91DC9115979B838A83C2
:103B500015969C938E93149785E997E0958B848BAB
:103B6000809195078F5F80939507D1CF80E0DBCF61
:103B7000CF93DF93DC01706811967C936E93169659
:103B8000ED91FC91179718964D915C9119971296AB
:103B90002D913C91139714968D919C911597E90165
:103BA0009D838C8314968D919C911597EC013B839A
:103BB0002A83EA0129813A812A173B0711F49A8363
:103BC000898319961C921E921897DA018C91815064
:103BD0008C93A285B3858481958126813781EC0100
:103BE0003D832C83C681D7819B838A83CF01029634
:103BF00011962D913C9112972817390721F41296AE
:103C0000DC93CE931197138612862C9121502C931E
:103C1000C689209187072C1710F4C093870749E0C5
:103C20004C9FE0011124CC54D84F0980DA81C02D7B
:103C3000D583C4832C813D81378326832C813D81AC
:103C4000D90113969C938E9312979D838C839689AA
:103C5000949FD0011124AC54B84FB387A2878C91A4
:103C60008F5F8C93E091D807F091D90786898917E7
:103C700018F481E080938307DF91CF9108950FB608
:103C8000F8940F9220918207FC01208320918807ED
:103C900030918907328321830F900FBE08952091C0
:103CA0008207FC01208320918807309189073283A5
:103CB000218308950FB6F8940F92209188073091D0
:103CC0008907DC0111964D915C911297E091820772
:103CD000FC91FE1751F02417350738F0FB011182D3
:103CE000108281E00F900FBE0895241B350BDB017D
:103CF0004D915C912417350788F7421B530BFB014C
:103D0000518340830E944F1E80E0ECCF81E080937E
:103D1000830708958091D8079091D907089581115C
:103D200005C08091D8079091D907089590E080E070
:103D3000089580918607882331F080917C0788233D
:103D400021F080E0089581E0089582E00895E091F7
:103D5000D807F091D90784859585A091D807B091AF
:103D6000D907E091D807F091D90756964C9124E0F5
:103D700030E0241B3109358724870895CF92DF92E4
:103D8000EF92FF920F931F93CF93DF93C82FE62EEE
:103D90006A010E94F3190FB6F8940F92E091D807C8
:103DA000F091D907D0E08E01000F111F000F111FF5
:103DB000E00FF11F81A192A1A3A1B4A1892B8A2BAD
:103DC0008B2B69F4E091D807F091D907EC0FFD1F18
:103DD00081E085A3FF24F394C114D10409F4F12CEC
:103DE0000F900FBE21E0F21203C0C6010E949A1785
:103DF0000E940F1B91E0F91204C0811102C00E94C1
:103E0000730D0FB6F8940F92E091D807F091D9078F
:103E1000E00FF11F61A172A183A194A16115710549
:103E20008105910569F02091D8073091D907020FDB
:103E3000131FEE20B9F0F80111A212A213A214A2CE
:103E40002091D8073091D907C20FD31F1DA20F9020
:103E50000FBEDF91CF911F910F91FF90EF90DF90F8
:103E6000CF9008956B017C01F1E0CF1AD108E108F1
:103E7000F108F801C1A2D2A2E3A2F4A2E1CF4F92CD
:103E80005F926F927F928F929F92AF92BF92CF92EA
:103E9000DF92EF92FF920F931F93CF93DF93C82F80
:103EA0002A013B01480159010E94F3190FB6F89409
:103EB0000F92E091D807F091D907D0E0EC0FFD1FE9
:103EC00085A1823039F1E091D807F091D907CE0170
:103ED000880F991F880F991FE80FF91F81A192A1E0
:103EE000A3A1B4A14094509460947094842195212E
:103EF000A621B72181A392A3A3A3B4A3E091D807DD
:103F0000F091D907EC0FFD1F81E085A311E0C114EA
:103F1000D10409F410E00F900FBE113019F4C6015E
:103F20000E949A170E940F1B113021F4811102C0C8
:103F30000E94730D0FB6F8940F92E114F104A1F0F2
:103F4000E091D807F091D907CE01880F991F880F0B
:103F5000991FE80FF91F81A192A1A3A1B4A1F701B4
:103F600080839183A283B383E091D807F091D9072E
:103F7000EC0FFD1F85A18230B1F5E091D807F091DB
:103F8000D907CE01880F991F880F991FE80FF91FD5
:103F900081A192A1A3A1B4A180949094A094B09483
:103FA00088219921AA21BB2181A392A3A3A3B4A311
:103FB00081E02091D8073091D907C20FD31F1DA2ED
:103FC0000F900FBEDF91CF911F910F91FF90EF9057
:103FD000DF90CF90BF90AF909F908F907F906F9029
:103FE0005F904F90089580E0E4CF8F929F92AF92C0
:103FF000BF92CF92DF92EF92FF920F93CF93DF9316
:10400000DC010FB6F8940F9270E0E114F10481F036
:10401000FB01EE0FFF1FEE0FFF1FE80FF91F81A03E
:1040200092A0A3A0B4A0E70188829982AA82BB8251
:10403000FD01E60FF71F85A192E095A30230E1F1A3
:10404000A0F4013029F1813009F44AC081E00F90D9
:104050000FBEDF91CF910F91FF90EF90DF90CF9047
:10406000BF90AF909F908F900895033029F0043057
:1040700051F7823009F497C0660F771F660F771FDC
:10408000FD01E60FF71F21A332A343A354A3DBCF07
:10409000660F771F660F771FFD01E60FF71FC1A0A0
:1040A000D2A0E3A0F4A0C22AD32AE42AF52AC1A20E
:1040B000D2A2E3A2F4A2C7CF660F771F660F771FC5
:1040C000FD01E60FF71F41A152A163A174A14F5F4B
:1040D0005F4F6F4F7F4F41A352A363A374A3B3CF2E
:1040E0001A96ED91FC911B9714968D919C911597C2
:1040F00016962D913C911797EC013D832C831696D3
:10410000CD91DC9117979B838A839D012E5F3F4F52
:10411000818192818217930711F4D283C1831B9608
:104120001C921E921A978081815080835696CC9162
:104130005697809187078C1710F4C093870749E042
:104140004C9FE0011124CC54D84F0980DA81C02D56
:104150001596DC93CE9314978C819D8117969C9332
:104160008E9316978C819D81FC01338322833D833E
:104170002C8356969C915697949FF0011124EC54F1
:10418000F84F1B96FC93EE931A9780818F5F808384
:10419000E091D807F091D9078689891708F056CFA2
:1041A0000E94730D53CF80E052CF8F929F92AF92B7
:1041B000BF92CF92DF92EF92FF920F93CF93DF9354
:1041C000DC0170E0E114F10481F0FB01EE0FFF1F50
:1041D000EE0FFF1FE80FF91F81A092A0A3A0B4A0CB
:1041E000E70188829982AA82BB82FD01E60FF71F50
:1041F00085A192E095A30230D1F190F4013019F13C
:10420000813009F448C081E0DF91CF910F91FF9098
:10421000EF90DF90CF90BF90AF909F908F900895D8
:10422000033029F0043061F7823009F4C5C0660F0D
:10423000771F660F771FFD01E60FF71F21A332A33B
:1042400043A354A3DDCF660F771F660F771FFD01D1
:10425000E60FF71F81A092A0A3A0B4A0822A932A00
:10426000A42AB52A81A292A2A3A2B4A2C9CF660FA2
:10427000771F660F771FFD01E60FF71F41A152A1BF
:1042800063A174A14F5F5F4F6F4F7F4F41A352A354
:1042900063A374A3B5CF80917C0781116BC01A967C
:1042A000ED91FC911B9714968D919C911597169604
:1042B0002D913C911797EC013D832C831696CD915F
:1042C000DC9117979B838A839D012E5F3F4F8181ED
:1042D00092818217930711F4D283C1831B961C929B
:1042E0001E921A978081815080835696CC91569762
:1042F000809187078C1710F4C093870789E08C9F03
:10430000E0011124CC54D84F0980DA81C02D1596D4
:10431000DC93CE9314974C815D8117965C934E93FA
:104320001697EC81FD81338322833D832C8356963F
:10433000EC915697E89FF0011124EC54F84F1B962E
:10434000FC93EE931A9780818F5F8083E091D8076A
:10435000F091D90756969C918689891708F053CF1A
:10436000C114D10419F081E0F601808381E08093CB
:1043700083074ACFE0919607F09197071F96FC9329
:10438000EE931E978481958151969C938E935097BE
:10439000C481D581CD010C969B838A8395838483C8
:1043A00085E997E055969C938E9354978091950755
:1043B0008F5F80939507CACF80E026CF0F931F931E
:1043C000CF93DF93FC01A62FB0E0EC01CA0FDB1FF7
:1043D0008DA192E09DA3AA0FBB1FAA0FBB1FAE0F1A
:1043E000BF1F91960D911D912D913C9194970F5F58
:1043F0001F4F2F4F3F4F91960D931D932D933C933D
:104400009497813009F05EC080917C0781115FC074
:10441000A285B3858481958126813781EC013D8316
:104420002C83C681D7819B838A83CF010296119604
:104430002D913C9112972817390721F41296DC939D
:10444000CE931197138612862C9121502C93C689F6
:10445000209187072C1710F4C093870729E02C9F21
:10446000E0011124CC54D84F0980DA81C02DD583C6
:10447000C4836C817D8177836683AC81BD81139613
:104480009C938E9312979D838C83A689A29FD001C3
:104490001124AC54B84FB387A2878C918F5F8C9353
:1044A000A091D807B091D907968956968C91891713
:1044B00048F44115510519F081E0FA01808381E04B
:1044C00080938307DF91CF911F910F910895A09161
:1044D0009607B0919707B787A68714968D919C9100
:1044E0001597918B808B1496CD91DC911597CF0108
:1044F0000C969B838A8315969C938E93149785E9DB
:1045000097E0958B848B809195078F5F80939507BB
:10451000C7CF009721F48091D8079091D9070FB6A3
:10452000F8940F92FC01E60FF11D85A1823029F469
:1045300015A281E00F900FBE089580E0FBCFCF92CF
:10454000DF92EF92FF92009721F48091D80790912B
:10455000D9070FB6F8940F9274E0679FF001112409
:10456000E80FF91F61A172A183A194A1C1A0D2A0FB
:10457000E3A0F4A02095309540955095C222D32217
:10458000E422F522C1A2D2A2E3A2F4A20F900FBEB0
:10459000FF90EF90DF90CF9008951092D90710927E
:1045A000D80710928B0710928A07109289071092F1
:1045B000880710928707109286071092850710923D
:1045C000840710928307109282071092810710923D
:1045D000800710927F0710927C0708950FB6F89419
:1045E0000F928091DE079091DF07892BE9F48DEE21
:1045F00097E00E94460C84EE97E00E94460C8DEEF8
:1046000097E09093E3078093E20784EE97E090931E
:10461000E1078093E00740E065E08AE00E941E0F1A
:104620009093DF078093DE070F900FBE0895FC0183
:1046300073836283918780874617570790F0421BE8
:10464000530B8485958548175907C8F4BF016E5FE1
:104650007F4F8091E0079091E1070E94780C80E005
:1046600008954217530718F46217730740F4BF0107
:104670006E5F7F4F8091E2079091E307EECF81E07C
:104680000895EF92FF920F931F93CF93DF93EC0166
:104690008B017A016C857D85600F711F9801A701E0
:1046A000CE010E941723811107C0DF91CF911F9186
:1046B0000F91FF90EF9008958C859D85080F191F2D
:1046C000E889F989CE010995E5CFEF92FF920F9322
:1046D0001F93CF93DF938C017B01E091E207F09170
:1046E000E3070580F681E02DC681D781CE010296D1
:1046F0000E94AE0C8A8982FF0FC0A701B801CE01CB
:104700000E944123E889F989CE01DF91CF911F9161
:104710000F91FF90EF9009948E7F8A8BF3CFE091F9
:10472000E207F091E307808181110DC08091E007DD
:104730009091E1079093E3078093E207F093E107FC
:10474000E093E00708950580F681E02D6FEF7FEF9D
:10475000808191810E946523E2CFCF93DF9300D0C7
:1047600000D01F92CDB7DEB785E0B82ECE010196FE
:104770007C01E091E207F091E307A08010E000E007
:10478000AA2029F00580F681E02D008111810E9488
:10479000F3190E94F9196C018091DA079091DB07F7
:1047A000C816D90608F04FC00E948F23D092DB07AD
:1047B000C092DA070E940F1BD701EB2D1D92EA95DC
:1047C000E9F750E040E0B7018091DE079091DF0704
:1047D0000E944310882369F2898187FDF2CF0C8102
:1047E0001D81D8011A968D919C91892B21F0C801C9
:1047F00002960E94AE0C0E94F9196C018091DA07B2
:104800009091DB07C816D90610F40E948F23D0922E
:10481000DB07C092DA07E981E150E93090F60E2E0D
:10482000000CFF0BE65EFB4DD80152968C9152971F
:104830000C9475284B244B248F24772489244B24F3
:104840004B248F247724D092DB07C092DA07AA206A
:1048500051F0C016D10670F00E940F1BB601C801BE
:104860000E946523A9CFE091E007F091E10741E0C4
:104870008081811140E0B8016C197D098091DE07CB
:104880009091DF070E9438130E940F1B811194CF73
:104890000E94730D91CF8160F801828B2A813B8148
:1048A00064857585620F731FA601C8010E941723D6
:1048B000882309F486CFD80152968C91529782FFB3
:1048C00012C06A817B811C968D919C91680F791F23
:1048D000A601C8010E944123D8015096ED91FC9198
:1048E000C80109956ECF8E7FF801828BF5CF81606C
:1048F00052968C9352976A817B811D967C936E931E
:104900001C976C0D7D1D9601A601C8010E941723FE
:1049100058CF81FD04C0C8010E94320C52CF8E7F57
:10492000F801828B4ECFEF92FF920F930E94EE22FE
:104930008091DE079091DF07892B91F08CEDE82EB6
:1049400087E0F82E02E030E020E040E86CE371E020
:104950008DEA93E20E941C180F91FF90EF9008954A
:1049600080E0FACF8F929F92AF92BF92CF92DF9268
:10497000FF920F931F93CF93DF934C015B01F42EB3
:10498000690183E190E00E94FA0BEC01892BA1F010
:104990001A8A0E94EE2299828882BD86AC86DF86C2
:1049A000CE86198B088BCE0102960E94540CFF20F4
:1049B00019F08A8984608A8BCE01DF91CF911F9193
:1049C0000F91FF90DF90CF90BF90AF909F908F900E
:1049D00008950F931F93CF93DF9300D000D01F92C1
:1049E000CDB7DEB72091DE073091DF07232B59F4D6
:1049F00080E00F900F900F900F900F90DF91CF916C
:104A00001F910F91089569835B834A839D838C83F3
:104A1000663074F70E94991EE091DE07F091DF077F
:104A200020E0A801823011F050E040E0BE016F5F4D
:104A30007F4FCF010E944A0FDCCFCF93DF9300D08E
:104A400000D01F92CDB7DEB7FC018091DE079091B8
:104A5000DF07009749F480E00F900F900F900F90C0
:104A60000F90DF91CF91089569835B834A83FD8323
:104A7000EC83663084F3A90120E0BE016F5F7F4FB5
:104A80000E94DF0FE9CF8091DC079091DD07089548
:104A9000FC01848595850895FC010FB6F8940F926A
:104AA0009289662329F09460928B0F900FBE08952F
:104AB0009B7FFACF0FB6F8940F920F900FBEFC01B8
:104AC000828982FB882780F908950C945A25FC017D
:104AD000828193810895FC018081918108950FB6B0
:104AE000F8940F920F900FBEFC0182898170089597
:104AF0000FB6F8940F920F900FBEFC018685978534
:104B000008950FB6F8940F92FC01778766870F908F
:104B10000FBE08951092DF071092DE071092DD0796
:104B20001092DC0708950E9403068E9A60E080E8E8
:104B30000E945A040E94E40562E370E080E090E085
:104B40000E94EE050E94EA050E94F602FFCF50582F
:104B5000BB27AA270E94BF250C9403270E94F52695
:104B600038F00E94FC2620F039F49F3F19F426F417
:104B70000C94F2260EF4E095E7FB0C94EC26E92F5A
:104B80000E94142758F3BA17620773078407950722
:104B900020F079F4A6F50C9436270EF4E0950B2E50
:104BA000BA2FA02D0B01B90190010C01CA01A0017F
:104BB0001124FF27591B99F0593F50F4503E68F1DA
:104BC0001A16F040A22F232F342F4427585FF3CF1B
:104BD000469537952795A795F0405395C9F77EF4EC
:104BE0001F16BA0B620B730B840BBAF09150A1F035
:104BF000FF0FBB1F661F771F881FC2F70EC0BA0FBB
:104C0000621F731F841F48F4879577956795B79542
:104C1000F7959E3F08F0B0CF9395880F08F099273D
:104C2000EE0F9795879508950E94C82608F481E0B5
:104C300008950E942D260C9403270E94FC2658F00C
:104C40000E94F52640F029F45F3F29F00C94EC26F1
:104C500051110C9437270C94F2260E94142768F304
:104C60009923B1F3552391F3951B550BBB27AA2725
:104C700062177307840738F09F5F5F4F220F331F5F
:104C8000441FAA1FA9F335D00E2E3AF0E0E832D027
:104C900091505040E695001CCAF72BD0FE2F29D02A
:104CA000660F771F881FBB1F261737074807AB07FC
:104CB000B0E809F0BB0B802DBF01FF2793585F4F71
:104CC0003AF09E3F510578F00C94EC260C9437276F
:104CD0005F3FE4F3983ED4F3869577956795B79553
:104CE000F7959F5FC9F7880F911D9695879597F95E
:104CF0000895E1E0660F771F881FBB1F62177307D7
:104D00008407BA0720F0621B730B840BBA0BEE1FEB
:104D100088F7E0950895E89409C097FB3EF49095D4
:104D20008095709561957F4F8F4F9F4F9923A9F084
:104D3000F92F96E9BB279395F69587957795679513
:104D4000B795F111F8CFFAF4BB0F11F460FF1BC057
:104D50006F5F7F4F8F4F9F4F16C0882311F096E9EA
:104D600011C0772321F09EE8872F762F05C0662398
:104D700071F096E8862F70E060E02AF09A95660F51
:104D8000771F881FDAF7880F9695879597F908950A
:104D9000990F0008550FAA0BE0E8FEEF161617064C
:104DA000E807F907C0F012161306E407F50798F0B4
:104DB000621B730B840B950B39F40A2661F0232BCD
:104DC000242B252B21F408950A2609F4A140A69549
:104DD0008FEF811D811D089597F99F6780E870E02E
:104DE00060E008959FEF80EC089500240A94161661
:104DF000170618060906089500240A9412161306C9
:104E0000140605060895092E0394000C11F4882356
:104E100052F0BB0F40F4BF2B11F460FF04C06F5F72
:104E20007F4F8F4F9F4F089557FD9058440F551F48
:104E300059F05F3F71F04795880F97FB991F61F01C
:104E40009F3F79F087950895121613061406551F93
:104E5000F2CF4695F1DF08C0161617061806991FFF
:104E6000F1CF86957105610508940895E894BB27F4
:104E700066277727CB0197F908950E94C82608F482
:104E80008FEF089516F00C94FF270C94F226689487
:104E90000C94EC260E941C27A8F39923C1F3AEF3CF
:104EA000DF93CF931F930F93FF92C92FDD278823A2
:104EB0002AF02197660F771F881FDAF720E030E08D
:104EC00040E85FEB9FE3883920F0803E38F0219680
:104ED0008F770E94A825E4E5F0E004C00E94A82591
:104EE000E1E8F0E00E940D288B01BE01EC01FB2EF1
:104EF0006F5771097595771F880B990B0E948D2646
:104F000028E132E741E35FE30E94A527AF2D980136
:104F1000AE01FF900F911F91CF91DF910E94BF25AD
:104F20000C9403270E94A5270C9403270E94F526C2
:104F300038F00E94FC2620F0952311F00C94EC260A
:104F40000C94F22611240C9437270E94142770F336
:104F5000959FC1F3950F50E0551F629FF001729F1E
:104F6000BB27F00DB11D639FAA27F00DB11DAA1F2D
:104F7000649F6627B00DA11D661F829F2227B00D7A
:104F8000A11D621F739FB00DA11D621F839FA00D05
:104F9000611D221F749F3327A00D611D231F849F55
:104FA000600D211D822F762F6A2F11249F575040AC
:104FB0009AF0F1F088234AF0EE0FFF1FBB1F661F27
:104FC000771F881F91505040A9F79E3F510580F0F0
:104FD0000C94EC260C9437275F3FE4F3983ED4F30F
:104FE000869577956795B795F795E7959F5FC1F794
:104FF000FE2B880F911D9695879597F908959F3FF1
:1050000031F0915020F4879577956795B795880F83
:10501000911D9695879597F90895DF93CF931F93E8
:105020000F93FF92EF92DF927B018C01689406C090
:10503000DA2EEF010E94A527FE01E894A5912591A3
:10504000359145915591A6F3EF010E94BF25FE01D0
:105050009701A801DA9469F7DF90EF90FF900F9124
:105060001F91CF91DF910895A1E21A2EAA1BBB1BBD
:10507000FD010DC0AA1FBB1FEE1FFF1FA217B30724
:10508000E407F50720F0A21BB30BE40BF50B661F3A
:10509000771F881F991F1A9469F7609570958095FE
:1050A00090959B01AC01BD01CF010895052E97FBA2
:1050B0001EF400940E946D2857FD07D00E943428EA
:1050C00007FC03D04EF40C946D2850954095309514
:1050D00021953F4F4F4F5F4F089590958095709564
:1050E00061957F4F8F4F9F4F0895EE0FFF1F0590E3
:1050F000F491E02D0994EF920F931F93CF93DF93D8
:10510000E80134E047FD34E1042E000C550B57FF55
:1051100003C0519541955109E32E022F242FAE0172
:105120000E94A228CE01DF91CF911F910F91EF90A5
:105130000895FB01DC0102C001900D9241505040E6
:10514000D8F70895A9E0B0E0E8EAF8E20C94DF2A85
:105150006A01F22EB02E102FFBE3AF2EA01608F43A
:105160001BE31F5F012F27E0AE014F5F5F4F0E94DF
:10517000012ABC018981982F9970913009F43FC0B0
:105180009BE2E1FC04C09E2D9170E0FC3AC05E2DD4
:105190005071E82FE87083FF46C084E0911101C090
:1051A00083E0EF2DE81B8F1508F0E0E0D6018E2F8D
:1051B00020E2552351F1992329F0D6019C93C60191
:1051C00001966C0196012D5F3F4FE2FE24C08EE4F4
:1051D000D6018C9391E411969C93119712968C931F
:1051E000D9018E2F90E281111BC0E20FF32FF11D28
:1051F00010828EEF9FEF2996ECE00C94FB2A9DE243
:10520000C6CF90E2C4CF2D9381508111FCCFCE0E3A
:10521000D11CE0E0D0CF8EE6D6018C9391E6DBCFB7
:105220009D938150E0CF482F447082FF3DC084E0C1
:10523000911101C083E08F1510F4EF2DE81BD6010A
:105240008E2F20E2552309F1992329F0D6019C9352
:10525000C60101966C0196012D5F3F4FE2FE1BC017
:1052600089E4D6018C938EE411968C93119786E491
:1052700012968C93D9018E2F90E2882309F4B5CF32
:105280009D938150FACF2D9381508111FCCFCE0E8A
:10529000D11CE0E0D9CF89E6D6018C938EE6119639
:1052A0008C93119786E6E4CF9B0177FF02C030E034
:1052B00020E0A1E0B0E0911102C0B0E0A0E0F9016F
:1052C0003196AE0FBF1F8B2C912CBB2009F461C00F
:1052D0005401EFEFAE1ABE0AAA0DBB1DFA161B064B
:1052E00019F014F04F2D4A1B511188C0E3FC59C02E
:1052F0007601A42FB0E2A1114FC0C40ED11C992396
:1053000009F45BC040E0D6011196F60190836D016F
:10531000552309F448C0012F060F9A81582F507168
:1053200084FF03C0913309F4015010160CF047C0FC
:10533000093008F008E0EEE2FE2E5B01A01AB10889
:1053400085019194819491082F3F320729F4D60169
:10535000FC92F60131966F016217730794F1021700
:1053600013077CF5DB01A21BB30BAA24A394B12C79
:10537000AC0EBD1EAA0DBB1D11968C91215031099A
:10538000D601119628153905F4F0F60180836D01D8
:10539000DBCFB12CA12CA0CFF701B1937F01A1509D
:1053A000AACF9111B0CFD601942F50E302C05D93E4
:1053B00091509111FCCFC40ED11C40E0ACCF01E064
:1053C000BACF80E3DBCF6217730731F4963388F4EA
:1053D000953311F4552369F0F6018083FD01842F84
:1053E00090E2811108C0A40FB11D1C9290E080E0F2
:1053F00002CF81E3F1CF91938150F3CF911183CF0D
:105400008ACF283008F027E03327DA01990F311DC1
:1054100087FD916000966105710539F432602E5F59
:105420003D9330E32A95E1F708959F3F30F08038AF
:105430007105610509F03C5F3C5F3D93913008F0D8
:105440008068911DDF93CF931F930F93FF92EF928C
:10545000192F987F9695E92F96959695E90FFF2736
:10546000E85FFE4F99273327EE24FF24A701E701C9
:1054700005900894079428F4360FE71EF81E491F7C
:10548000511D660F771F881F991F0694A1F705907D
:10549000079428F4E70EF81E491F561FC11D770F09
:1054A000881F991F661F0694A1F70590079428F49A
:1054B000F80E491F561FC71FD11D880F991F661F61
:1054C000771F0694A1F70590079420F4490F561F03
:1054D000C71FD81F990F661F771F881F0694A9F74B
:1054E00084911095177041F0D695C79557954795BB
:1054F000F794E7941A95C1F7EEEAF0E068941590F6
:10550000159135916591959105907FE27395E1181C
:10551000F10A430B560BC90BD009C0F7E10CF11E81
:10552000431F561FC91FD01D7EF4703311F48A9596
:10553000E6CFE894015030F0080F0AF40027021774
:1055400008F4202F2395022F7A3328F079E37D93F6
:105550002A95E9F710C07D932A9589F606949795C8
:105560006795379517951794E118F10A430B560B79
:10557000C90BD00998F023957E9173957A3308F082
:1055800070E37C932013B8F77E9170617D9330F0C7
:10559000839571E37D9370E32A95E1F71124EF90F1
:1055A000FF900F911F91CF91DF91992787FD9095E3
:1055B00008952F923F924F925F926F927F928F92B7
:1055C0009F92AF92BF92CF92DF92EF92FF920F9392
:1055D0001F93CF93DF93CDB7DEB7CA1BDB0B0FB69C
:1055E000F894DEBF0FBECDBF09942A883988488859
:1055F0005F846E847D848C849B84AA84B984C884EF
:10560000DF80EE80FD800C811B81AA81B981CE0FE5
:10561000D11D0FB6F894DEBF0FBECDBFED010895CA
:04562000F894FFCF2C
:10562400820000010082000101008600040100865E
:105634000005010086000601008600070100310014
:105644003200370038003700380003537461746542
:105654003A0049444C45005245414459004368616D
:105664007267650020250044697363686172676529
:10567400004641554C54004F5645524355525245ED
:105684004E54210053554444454E20444953434FFE
:105694004E4E45435400446973706C61795265669B
:1056A40072657368004368617267696E67537461F9
:1056B40072740053746F7053657373696F6E005620
:1056C400656869636C65436865636B004F766572F2
:1056D40063757272656E74205461736B0054696DE6
:1056E4006572310043686172676520506572636555
:1056F4006E746167653A2000250D0A00546D7220AE
:045704005376630075
:00000001FF
