:100000000C942A000C943C000C943C000C943C0092
:100010000C943C000C943C000C943C000C943C0070
:100020000C943C000C943C000C943C000C943C0060
:100030000C943C000C943C000C943C000C943C0050
:100040000C943C000C943C000C943C000C943C0040
:100050000C943C0011241FBECFE5D8E0DEBFCDBF1D
:1000600020E0A0E6B0E001C01D92A136B207E1F7A2
:100070000E943E000C94A2020C940000CF93DF93E8
:10008000CDB7DEB766970FB6F894DEBF0FBECDBF13
:1000900024E330E084E390E0F9012081FC01208337
:1000A00027E330E087E390E0F9012081FC01208321
:1000B0008AE390E0FC0120818AE390E02E7FFC013E
:1000C00020831B8A1C8A1D8A1E8A1A82198219C1E2
:1000D00089819A8199230CF4039695958795959536
:1000E00087958093600088E390E0FC018081982FE1
:1000F000907F89818F70292F282B88E390E0FC0165
:10010000208380E090E0A0E8BFE38D839E83AF83EF
:10011000B88720E030E04AE753E46D817E818F812B
:1001200098850E940D02DC01CB0189879A87AB87F5
:10013000BC8720E030E040E85FE369857A858B8505
:100140009C850E94870188232CF481E090E09E87A3
:100150008D873FC020E03FEF4FE757E469857A8500
:100160008B859C850E94080218164CF520E030E033
:1001700040E251E46D817E818F8198850E940D025D
:10018000DC01CB01BC01CD010E948C01DC01CB0163
:100190009E878D870FC089E190E0988B8F878F8530
:1001A00098890197F1F7988B8F878D859E850197A8
:1001B0009E878D878D859E85892B69F714C06985FB
:1001C0007A858B859C850E948C01DC01CB019E8702
:1001D0008D878D859E859A8B898B89899A890197D0
:1001E000F1F79A8B898B89E390E0FC018081882F5D
:1001F00090E081709927892BC1F089819A81837061
:100200009078992324F401978C6F9F6F0196282F83
:1002100080916000882F90E041E0420F9E012D5EAA
:100220003F4F820F931FFC0140831C821B825FC0E3
:100230009E012D5E3F4F8B819C81820F931FFC019D
:100240008081882F90E081309105B1F08230910556
:100250001CF4892B39F046C082309105F9F00397E0
:1002600079F140C085E390E0FC01208185E390E0D6
:10027000207FFC01208336C085E390E0FC01808173
:10028000982F907F8B81880F880F8F5F8F70292F19
:10029000282B85E390E0FC01208324C085E390E0D7
:1002A000FC018081982F907F8B81880F880F8E5F53
:1002B0008F70292F282B85E390E0FC01208312C04A
:1002C00085E390E0FC018081982F907F8B81880FDF
:1002D000880F8D5F8F70292F282B85E390E0FC011C
:1002E000208300008B819C8101969C838B838B8172
:1002F0009C8104970CF49CCF89819A8101969A8302
:10030000898389819A8140970CF4E2CEDECE0E94E7
:10031000BB0108F481E008950E94E70188F09F572F
:1003200098F0B92F9927B751B0F0E1F0660F771F19
:10033000881F991F1AF0BA95C9F714C0B13091F00F
:100340000E940102B1E008950C940102672F782FFA
:100350008827B85F39F0B93FCCF3869577956795D4
:10036000B395D9F73EF490958095709561957F4F40
:100370008F4F9F4F0895990F0008550FAA0BE0E883
:10038000FEEF16161706E807F907C0F01216130657
:10039000E407F50798F0621B730B840B950B39F497
:1003A0000A2661F0232B242B252B21F408950A26FD
:1003B00009F4A140A6958FEF811D811D089557FD79
:1003C0009058440F551F59F05F3F71F04795880FC3
:1003D00097FB991F61F09F3F79F08795089512165A
:1003E00013061406551FF2CF4695F1DF08C0161606
:1003F00017061806991FF1CF8695710561050894B7
:100400000895E894BB2766277727CB0197F90895CD
:100410000E94BB0108F48FEF08950E9420020C9403
:1004200091020E94830238F00E948A0220F09523F4
:1004300011F00C947A020C94800211240C940202A4
:100440000E94DF0170F3959FC1F3950F50E0551F97
:10045000629FF001729FBB27F00DB11D639FAA2719
:10046000F00DB11DAA1F649F6627B00DA11D661F68
:10047000829F2227B00DA11D621F739FB00DA11D89
:10048000621F839FA00D611D221F749F3327A00D43
:10049000611D231F849F600D211D822F762F6A2FDF
:1004A00011249F5750409AF0F1F088234AF0EE0F44
:1004B000FF1FBB1F661F771F881F91505040A9F771
:1004C0009E3F510580F00C947A020C9402025F3F2B
:1004D000E4F3983ED4F3869577956795B795F795AD
:1004E000E7959F5FC1F7FE2B880F911D9695879525
:1004F00097F9089597F99F6780E870E060E00895A4
:100500009FEF80EC089500240A941616170618062B
:100510000906089500240A94121613061406050607
:100520000895092E0394000C11F4882352F0BB0F98
:1005300040F4BF2B11F460FF04C06F5F7F4F8F4FFB
:080540009F4F0895F894FFCFCE
:00000001FF
