S010000052544F535F4156522E7372656384
S11300000C942A000C9447000C9447000C9447006D
S11300100C9447000C9447000C9447000C94120273
S11300200C9447000C9447000C9447000C94470030
S11300300C9447000C9447000C9447000C94470020
S11300400C9447000C9447000C9447000C94470010
S11300500C94470011241FBECFE5D8E0DEBFCDBF0E
S113006010E0A0E6B0E0E2E7FEE002C005900D92E9
S1130070A63CB107D9F727E0A6ECB0E001C01D9279
S1130080AE30B207E1F70E94D9060C9437070C94FE
S11300900000CF93DF93EC010E94EF038091C60030
S11300A09091C700892B31F48AEC90E09093C700BB
S11300B08093C6002097C9F08091C8009091C90030
S11300C09E01280F391F2B3D45E0340788F4821721
S11300D0930788F4C091C600D091C700C80FD91FF8
S11300E03093C9002093C80008C0C0E0D0E005C028
S11300F0C0E0D0E002C0C0E0D0E00E941405CE0110
S1130100DF91CF9108950895FC0103969283818332
S11301102FEF3FEF348323839683858390878783F0
S113012010820895FC01118610860895CF93DF9301
S1130130FC01A085B185C281D381848195819D8391
S11301408C83C481D581828193819B838A83119618
S11301508D919C911297E817F90731F48481958168
S113016012969C938E931197118610868C918150D0
S11301708C93DF91CF91089531E1FC013083319765
S113018022E220833197A3E3A083319760833197E0
S1130190708331971082319760E8608331971082C1
S11301A0319762E06083319763E06083319764E064
S11301B06083319765E06083319766E060833197AF
S11301C067E06083319768E06083319769E060831A
S11301D0319760E1608331973083319732E1308326
S11301E0319733E13083319734E13083319735E10E
S11301F03083319736E13083319737E1308331975B
S113020038E13083319739E13083319730E23083FC
S1130210319731E2308331972083319723E2208371
S11302203197408331975083319726E22083319769
S113023027E22083319728E22083319729E2208323
S1130240319720E32083319721E320838697089513
S11302501BBC8CE78ABD8BE08EBD89B7806189BFEA
S1130260A0910207B0910307CD91CDBFDD91DEBF10
S1130270FF91EF91DF91CF91BF91AF919F918F91BA
S11302807F916F915F914F913F912F911F910F91AA
S1130290FF90EF90DF90CF90BF90AF909F908F90A2
S11302A07F906F905F904F903F902F901F900F9092
S11302B00FBE0F90089581E008950F920FB6F89441
S11302C00F921F9211242F923F924F925F926F923E
S11302D07F928F929F92AF92BF92CF92DF92EF92D2
S11302E0FF920F931F932F933F934F935F936F93BB
S11302F07F938F939F93AF93BF93CF93DF93EF93AA
S1130300FF93A0910207B09103070DB60D920EB6AC
S11303100D920E94F605A0910207B0910307CD91BA
S1130320CDBFDD91DEBFFF91EF91DF91CF91BF9102
S1130330AF919F918F917F916F915F914F913F9179
S11303402F911F910F91FF90EF90DF90CF90BF906E
S1130350AF909F908F907F906F905F904F903F9061
S11303602F901F900F900FBE0F9008950F920FB60D
S1130370F8940F921F9211242F923F924F925F9202
S11303806F927F928F929F92AF92BF92CF92DF92A1
S1130390EF92FF920F931F932F933F934F935F938B
S11303A06F937F938F939F93AF93BF93CF93DF9379
S11303B0EF93FF93A0910207B09103070DB60D923E
S11303C00EB60D920E94F50381110E94F605A091CC
S11303D00207B0910307CD91CDBFDD91DEBFFF9140
S11303E0EF91DF91CF91BF91AF919F918F917F91C9
S11303F06F915F914F913F912F911F910F91FF90BA
S1130400EF90DF90CF90BF90AF909F908F907F90B0
S11304106F905F904F903F902F901F900F900FBE62
S11304200F9008950E94B6011895E091CA06F091C4
S1130430CB068081811107C08FEF9FEF9093AA06AE
S11304408093A9060895E091CA06F091CB06058031
S1130450F681E02D808191819093AA068093A9066C
S113046008950F931F93CF93DF938091B50688234C
S113047039F106EB16E00FB6F8940F92D8011596F1
S1130480ED91FC911697C681D781CE0102960E9408
S113049096008091B40681508093B4068091B5068D
S11304A081508093B5060F900FBE8F89988D0E945E
S11304B08300CE010E9483008091B5068111DBCFB9
S11304C0DF91CF911F910F910895CEEDD6E00E9458
S11304D0310288818230D8F30E945D01F8CF4F92B7
S11304E05F926F927F928F929F92AF92BF92CF92C0
S11304F0DF92EF92FF920F93CF93DF934C016B0146
S11305002901A42EB12CC5010E9449003C01892B6C
S113051009F4F4C086E290E00E944900EC01892BC2
S113052081F086E2DE011D928A95E9F7788E6F8A62
S1130530B1E0AB1AB108A60CB71CC114D10429F45C
S11305401EC0C3010E948300D9C0F6018081898F37
S11305508081882399F0AE01465E5F4F319688E032
S1130560C80ED11CCF012191DA012D93AD01DC011C
S11305708C91882319F0EC15FD05A1F718A204301D
S113058008F003E00E8B6E01B2E0CB0ED11CC60165
S11305900E949200CE010C960E949200D987C887CF
S11305A084E090E0801B91099D878C87DB8BCA8B4C
S11305B0A201B401C5010E94BC0099838883E1149F
S11305C0F10409F49DC0F701D183C08399C0D0938D
S11305D00307C09302078091B4068130E9F58EEDDC
S11305E096E00E94840087EE96E00E94840080EFEB
S11305F096E00E94840089EF96E00E94840085EDD5
S113060096E00E9484008CEC96E00E9484008FEBBC
S113061096E00E94840086EB96E00E94840085EDBB
S113062096E09093CB068093CA068CEC96E0909368
S1130630C9068093C80610C08091B00681110CC011
S1130640E0910207F091030796898E89891720F0BB
S1130650D0930307C09302078091AB068F5F80930A
S1130660AB068E899091B106981710F48093B10669
S113067090E0FC01EE0FFF1FEE0FFF1FEE0FFF1FB8
S11306808E0F9F1FFC01E252F94F0180F281E02D91
S1130690FD83EC83848195819F838E83A481B581BE
S11306A01396DC92CE921297D582C482EE89F0E042
S11306B0CF01880F991F880F991F880F991FE80F82
S11306C0F91FE252F94FFB87EA8780818F5F8083AD
S11306D00F900FBE8091B006882361F0E09102076D
S11306E0F091030796898E89981730F40E945D0172
S11306F081E016C081E014C081E012C08FEF10C009
S11307000FB6F8940F928091B4068F5F8093B4066D
S11307108091020790910307892B09F08DCF57CF61
S1130720DF91CF910F91FF90EF90DF90CF90BF902A
S1130730AF909F908F907F906F905F904F900895AF
S1130740EF92FF920F93CF93DF93CDB7DEB7289745
S11307500FB6F894DEBF0FBECDBF89E48983E2E60D
S1130760F0E0DE01129629E630E081918D93882332
S113077019F0E217F307C9F70F2EF7EAEF2EF6E0A8
S1130780FF2EF02D00E020E030E045E5BE016F5F74
S11307907F4F85E692E00E946F02882391F08130BA
S11307A081F4F8948FEF9FEF9093AA068093A906A3
S11307B081E08093B0061092B3061092B2060E94B4
S11307C028018091600028960FB6F894DEBF0FBE12
S11307D0CDBFDF91CF910F91FF90EF90089580915D
S11307E0A6068F5F8093A6060895EF92FF920F935B
S11307F01F93CF93DF938091A606811104C1C0910A
S1130800B206D091B3067E018FEFE81AF80AF0928F
S1130810B306E092B206E114F104B9F48091CA0679
S11308209091CB062091C8063091C9063093CB062F
S11308302093CA069093C9068093C8068091AC069B
S11308408F5F8093AC060E9415028091A906909157
S1130850AA06E816F90610F480E0B9C080E061E069
S1130860E091CA06F091CB069081911107C02FEF59
S11308703FEF3093AA062093A906A9C0E091CA06C7
S1130880F091CB060580F681E02D0680F781E02DFE
S113089022813381E216F30628F43093AA062093CA
S11308A0A90695C0A285B3852481358146815781E7
S11308B0E9015D834C832681378144815581E901B7
S11308C05B834A83AF014E5F5F4F11962D913C913C
S11308D012972417350731F42681378112963C93F9
S11308E02E931197138612869C9191509C93A48900
S11308F0B589109719F12685378500891189E90191
S11309001D830C832089318906851785E9011B83A2
S11309100A8311960D911C9112979F01245F3F4FFA
S11309200217130731F42089318912963C932E93D0
S11309301197158A148A9C9191509C9326899091C1
S1130940B106921710F42093B10630E0D901AA0F32
S1130950BB1FAA0FBB1FAA0FBB1F2A0F3B1FD90126
S1130960A252B94F11960D90BC91A02DB583A483CA
S113097014962D913C9115973783268314962D91C7
S11309803C911597E9015B834A8315965C934E93DA
S11309901497A689B0E09D01220F331F220F331F45
S11309A0220F331FA20FB31FA252B94FB387A287DE
S11309B09C919F5F9C93A0910207B09103072689A5
S11309C056969C91921708F04BCF862F49CFE09111
S11309D00207F0910307268930E0F901EE0FFF1FAB
S11309E0EE0FFF1FEE0FFF1F2E0F3F1FF901E25204
S11309F0F94F9081923008F081E09091AD069923EF
S1130A0061F081E00AC08091AE069091AF06019634
S1130A109093AF068093AE0680E0DF91CF911F9153
S1130A200F91FF90EF9008951F93CF93DF930FB62C
S1130A30F8940F928091A60681508093A606809127
S1130A40A6068111CAC08091B40681119BC0C8C09A
S1130A50DB011596ED91FC9116970680F781E02D48
S1130A60A489B5898685978520893189EC013D83E0
S1130A702C838089918926853785EC013B832A83E1
S1130A80CF010C9611962D913C9112972817390796
S1130A9031F48089918912969C938E931197158ACB
S1130AA0148A8C9181508C93A285B385848195811D
S1130AB026813781EC013D832C83868197812481B3
S1130AC03581EC013B832A839F012E5F3F4F1196B2
S1130AD08D919C9112978217930731F486819781A7
S1130AE012969C938E931197138612868C91815043
S1130AF08C9386899091B106981710F48093B1066F
S1130B0090E0DC01AA0FBB1FAA0FBB1FAA0FBB1FDB
S1130B108A0F9B1FDC01A252B94F11960D90BC9114
S1130B20A02DB583A48314968D919C9115979783DA
S1130B30868314968D919C911597EC013B832A83AF
S1130B4015963C932E931497A689B0E0CD01880F97
S1130B50991F880F991F880F991FA80FB91FA252B8
S1130B60B94FB387A2878C918F5F8C93A0910207B2
S1130B70B0910307968956968C91891740F4409357
S1130B80AD0605C0E0E0F0E06FEB76E041E0DB01AC
S1130B908C9181115DCFEF2B11F00E941502C09151
S1130BA0AE06D091AF06209761F011E00E94F503E4
S1130BB081111093AD062197C9F71092AF061092D8
S1130BC0AE068091AD06882351F080910207909182
S1130BD003070E945D0181E003C080E001C080E062
S1130BE00F900FBEDF91CF911F9108958091A606BB
S1130BF0882321F081E08093AD0608951092AD061C
S1130C002091B106822F90E0FC01EE0FFF1FEE0F42
S1130C10FF1FEE0FFF1FE80FF91FE252F94F30815B
S1130C20311111C02150822F90E0FC01EE0FFF1F03
S1130C30EE0FFF1FEE0FFF1FE80FF91FE252F94FEF
S1130C403081332379F3AC01440F551F440F551FF2
S1130C50440F551F480F591FFA01E252F94FA18161
S1130C60B28112966D917C911397728361834F5177
S1130C70594F6417750779F4FC01EE0FFF1FEE0F4F
S1130C80FF1FEE0FFF1FE80FF91FE252F94F4581D6
S1130C90568152834183FC01EE0FFF1FEE0FFF1FAD
S1130CA0EE0FFF1F8E0F9F1FFC01E252F94F0180D0
S1130CB0F281E02D86819781909303078093020748
S1130CC02093B1068091020790910307089598B389
S1130CD09F70282F207F922B98BBC098C19A000048
S1130CE0C19832E43A95F1F700C028B32F7030E18F
S1130CF0839FC0011124822B88BBC19A0000C19834
S1130D0083EF91E00197F1F700C00000089598B3D4
S1130D109F70282F207F922B98BBC09AC19A000005
S1130D20C19832E43A95F1F700C028B32F7030E14E
S1130D30839FC0011124822B88BBC19A0000C198F3
S1130D4083EF91E00197F1F700C0000008958FEF61
S1130D5087BB87E893E10197F1F700C0000082E0C8
S1130D600E94670688E20E9467068CE00E9467067C
S1130D7086E00E94670681E00E94670683EF91E0A7
S1130D800197F1F700C000000895CF93DF93EC01C1
S1130D908881882331F021960E94870689918111E8
S1130DA0FBCFDF91CF910895FFCFFFCFFFCFFFCFD0
S1130DB0FFCF0E94A70686E690E00E94C50680EC5D
S1130DC00E94670686E790E00E94C5060F2EF8E0B1
S1130DD0EF2EF7E0FF2EF02D03E020E030E040E8B6
S1130DE062E870E084ED96E00E946F020F2EFCE052
S1130DF0EF2EF7E0FF2EF02D20E030E040E860E930
S1130E0070E085ED96E00E946F020F2EF4E0EF2E65
S1130E10F7E0FF2EF02D02E020E030E040E86CE93E
S1130E2070E086ED96E00E946F020F2EF6E0EF2E42
S1130E30F7E0FF2EF02D20E030E040E86BEA70E0B0
S1130E4087ED96E00E946F020F2EFAE0EF2EF7E096
S1130E50FF2EF02D04E020E030E040E867EB70E086
S1130E6088ED96E00E946F020E94A003FFCFF894E1
S1050E70FFCFAE
S1130E720349444C4500456C656374726F6E696343
S1130E8257494E47530048656C6C6F20576F726C1C
S1130E9264004368617267696E67537461727400B7
S1130EA253746F7053657373696F6E004469737022
S1130EB26C61795265667265736800557365724335
S1130EC26F6D6D616E64004661756C744465746522
S1090ED26374696F6E00F9
S9030000FC
