S010000052544F535F4156522E7372656384
S11300000C9432000C944F000C944F000C944F004D
S11300100C944F000C944F000C944F000C94DC078C
S11300200C944F000C944F000C944F000C944F0010
S11300300C944F000C944F000C944F000C944F0000
S11300400C944F000C944F000C944F000C944F00F0
S11300500C944F005D0761076307650769076B0729
S11300606F07730711241FBECFE5D8E0DEBFCDBFF5
S113007010E0A0E6B0E0E4EAF9E102C005900D92D8
S1130080AC37B107D9F726E0ACE7B0E001C01D9268
S1130090A03CB207E1F70E9405080C94D00C0C9424
S11300A00000CF93DF93EC010E94980380917C00C1
S11300B090917D00892B31F480E890E090937D004D
S11300C080937C002097C9F080917E0090917F00FE
S11300D09E01280F391F2B3D45E0340788F4821711
S11300E0930788F4C0917C00D0917D00C80FD91F7C
S11300F030937F0020937E0008C0C0E0D0E005C0AC
S1130100C0E0D0E002C0C0E0D0E00E94BD04CE0157
S1130110DF91CF9108950895FC0103969283818322
S11301202FEF3FEF348323839683858390878783E0
S113013010820895FC01118610860895CF93DF93F1
S1130140FC01A085B185C281D381848195819D8381
S11301508C83C481D581828193819B838A83119608
S11301608D919C911297E817F90731F48481958158
S113017012969C938E931197118610868C918150C0
S11301808C93DF91CF91089531E1FC013083319755
S113019022E220833197A3E3A083319760833197D0
S11301A0708331971082319760E8608331971082B1
S11301B0319762E06083319763E06083319764E054
S11301C06083319765E06083319766E0608331979F
S11301D067E06083319768E06083319769E060830A
S11301E0319760E1608331973083319732E1308316
S11301F0319733E13083319734E13083319735E1FE
S11302003083319736E13083319737E1308331974A
S113021038E13083319739E13083319730E23083EC
S1130220319731E2308331972083319723E2208361
S11302303197408331975083319726E22083319759
S113024027E22083319728E22083319729E2208313
S1130250319720E32083319721E320838697089503
S11302601BBC8CE78ABD8BE08EBD89B7806189BFDA
S1130270A091B806B091B906CD91CDBFDD91DEBF96
S1130280FF91EF91DF91CF91BF91AF919F918F91AA
S11302907F916F915F914F913F912F911F910F919A
S11302A0FF90EF90DF90CF90BF90AF909F908F9092
S11302B07F906F905F904F903F902F901F900F9082
S11302C00FBE0F90089581E008950F920FB6F89431
S11302D00F921F9211242F923F924F925F926F922E
S11302E07F928F929F92AF92BF92CF92DF92EF92C2
S11302F0FF920F931F932F933F934F935F936F93AB
S11303007F938F939F93AF93BF93CF93DF93EF9399
S1130310FF93A091B806B091B9060DB60D920EB632
S11303200D920E949F05A091B806B091B906CD9197
S1130330CDBFDD91DEBFFF91EF91DF91CF91BF91F2
S1130340AF919F918F917F916F915F914F913F9169
S11303502F911F910F91FF90EF90DF90CF90BF905E
S1130360AF909F908F907F906F905F904F903F9051
S11303702F901F900F900FBE0F900895E09180066C
S1130380F09181068081811107C08FEF9FEF9093D8
S1130390600680935F060895E0918006F0918106DF
S11303A00580F681E02D8081918190936006809391
S11303B05F0608950F931F93CF93DF9380916B068D
S11303C0882339F10CE616E00FB6F8940F92D801A1
S11303D01596ED91FC911697C681D781CE010296B0
S11303E00E949E0080916A06815080936A068091E3
S11303F06B06815080936B060F900FBE8F89988D8A
S11304000E948B00CE010E948B0080916B068111AB
S1130410DBCFDF91CF911F910F910895C4E9D6E00E
S11304200E94DA0188818230D8F30E946501F8CFF6
S11304304F925F926F927F928F929F92AF92BF92F0
S1130440CF92DF92EF92FF920F93CF93DF934C0101
S11304506B012901A42EB12CC5010E9451003C015D
S1130460892B09F4F4C086E290E00E945100EC016B
S1130470892B81F086E2DE011D928A95E9F7788E58
S11304806F8AB1E0AB1AB108A60CB71CC114D10431
S113049029F41EC0C3010E948B00D9C0F6018081DB
S11304A0898F8081882399F0AE01465E5F4F319633
S11304B088E0C80ED11CCF012191DA012D93AD0142
S11304C0DC018C91882319F0EC15FD05A1F718A225
S11304D0043008F003E00E8B6E01B2E0CB0ED11CA9
S11304E0C6010E949A00CE010C960E949A00D987F8
S11304F0C88784E090E0801B91099D878C87DB8B03
S1130500CA8BA201B401C5010E94C40099838883E7
S1130510E114F10409F49DC0F701D183C08399C0AB
S1130520D093B906C093B80680916A068130E9F584
S113053084E996E00E948C008DE996E00E948C008C
S113054086EA96E00E948C008FEA96E00E948C0076
S11305508BE896E00E948C0082E896E00E948C0072
S113056085E796E00E948C008CE696E00E948C0061
S11305708BE896E0909381068093800682E896E06B
S113058090937F0680937E0610C080916606811149
S11305900CC0E091B806F091B90696898E89891746
S11305A020F0D093B906C093B806809161068F5F9E
S11305B0809361068E8990916706981710F4809352
S11305C0670690E0FC01EE0FFF1FEE0FFF1FEE0F1A
S11305D0FF1F8E0F9F1FFC01EC56F94F0180F28123
S11305E0E02DFD83EC83848195819F838E83A48198
S11305F0B5811396DC92CE921297D582C482EE898D
S1130600F0E0CF01880F991F880F991F880F991F59
S1130610E80FF91FEC56F94FFB87EA8780818F5F5B
S113062080830F900FBE80916606882361F0E0916D
S1130630B806F091B90696898E89981730F40E940D
S1130640650181E016C081E014C081E012C08FEF23
S113065010C00FB6F8940F9280916A068F5F809352
S11306606A068091B8069091B906892B09F08DCF5E
S113067057CFDF91CF910F91FF90EF90DF90CF9004
S1130680BF90AF909F908F907F906F905F904F90AE
S11306900895EF92FF920F93CF93DF93CDB7DEB718
S11306A028970FB6F894DEBF0FBECDBF89E48983C7
S11306B0EEE6F0E0DE01129625E730E081918D93BD
S11306C0882319F0E217F307C9F70F2EFDE5EF2E83
S11306D0F6E0FF2EF02D00E020E030E045E5BE011D
S11306E06F5F7F4F8EE092E00E941802882391F0A2
S11306F0813081F4F8948FEF9FEF9093600680939C
S11307005F0681E08093660610926906109268067F
S11307100E9430018091600028960FB6F894DEBFE5
S11307200FBECDBFDF91CF910F91FF90EF90089551
S113073080915C068F5F80935C060895EF92FF9230
S11307400F931F93CF93DF9380915C06811104C1B3
S1130750C0916806D09169067E018FEFE81AF80A05
S1130760F0926906E0926806E114F104B9F480910C
S113077080069091810620917E0630917F06309309
S113078081062093800690937F0680937E06809155
S113079062068F5F809362060E94BE0180915F06AD
S11307A090916006E816F90610F480E0B9C080E084
S11307B061E0E0918006F09181069081911107C07B
S11307C02FEF3FEF3093600620935F06A9C0E091BE
S11307D08006F09181060580F681E02D0680F78180
S11307E0E02D22813381E216F30628F4309360066B
S11307F020935F0695C0A285B38524813581468107
S11308005781E9015D834C83268137814481558179
S1130810E9015B834A83AF014E5F5F4F11962D91CF
S11308203C9112972417350731F4268137811296AB
S11308303C932E931197138612869C9191509C930E
S1130840A489B589109719F12685378500891189FE
S1130850E9011D830C832089318906851785E90107
S11308601B830A8311960D911C9112979F01245F9B
S11308703F4F0217130731F42089318912963C93B4
S11308802E931197158A148A9C9191509C932689D2
S113089090916706921710F42093670630E0D9010F
S11308A0AA0FBB1FAA0FBB1FAA0FBB1F2A0F3B1FF8
S11308B0D901AC56B94F11960D90BC91A02DB583BA
S11308C0A48314962D913C9115973783268314960F
S11308D02D913C911597E9015B834A8315965C93AE
S11308E04E931497A689B0E09D01220F331F220F67
S11308F0331F220F331FA20FB31FAC56B94FB38758
S1130900A2879C919F5F9C93A091B806B091B90671
S1130910268956969C91921708F04BCF862F49CF83
S1130920E091B806F091B906268930E0F901EE0F9E
S1130930FF1FEE0FFF1FEE0FFF1F2E0F3F1FF901CA
S1130940EC56F94F9081923008F081E09091630663
S1130950992361F081E00AC0809164069091650654
S11309600196909365068093640680E0DF91CF91B1
S11309701F910F91FF90EF9008951F93CF93DF93F2
S11309800FB6F8940F9280915C06815080935C06B8
S113099080915C068111CAC080916A0681119BC056
S11309A0C8C0DB011596ED91FC9116970680F7817E
S11309B0E02DA489B5898685978520893189EC0144
S11309C03D832C838089918926853785EC013B837F
S11309D02A83CF010C9611962D913C9112972817DA
S11309E0390731F48089918912969C938E931197DB
S11309F0158A148A8C9181508C93A285B385848145
S1130A00958126813781EC013D832C8386819781F2
S1130A1024813581EC013B832A839F012E5F3F4F64
S1130A2011968D919C9112978217930731F48681C8
S1130A30978112969C938E931197138612868C91AC
S1130A4081508C93868990916706981710F480934F
S1130A50670690E0DC01AA0FBB1FAA0FBB1FAA0FF9
S1130A60BB1F8A0F9B1FDC01AC56B94F11960D902A
S1130A70BC91A02DB583A48314968D919C91159758
S1130A809783868314968D919C911597EC013B83F3
S1130A902A8315963C932E931497A689B0E0CD0132
S1130AA0880F991F880F991F880F991FA80FB91FC6
S1130AB0AC56B94FB387A2878C918F5F8C93A0916A
S1130AC0B806B091B906968956968C91891740F468
S1130AD04093630605C0E0E0F0E065E776E041E0BE
S1130AE0DB018C9181115DCFEF2B11F00E94BE01CF
S1130AF0C0916406D0916506209761F011E00E94D0
S1130B009E038111109363062197C9F7109265061D
S1130B101092640680916306882351F08091B80690
S1130B209091B9060E94650181E003C080E001C094
S1130B3080E00F900FBEDF91CF911F9108958091B7
S1130B405C06882321F081E0809363060895109267
S1130B50630620916706822F90E0FC01EE0FFF1FD1
S1130B60EE0FFF1FEE0FFF1FE80FF91FEC56F94FB2
S1130B703081311111C02150822F90E0FC01EE0F21
S1130B80FF1FEE0FFF1FEE0FFF1FE80FF91FEC56BC
S1130B90F94F3081332379F3AC01440F551F440FCF
S1130BA0551F440F551F480F591FFA01EC56F94FB2
S1130BB0A181B28112966D917C91139772836183A6
S1130BC04956594F6417750779F4FC01EE0FFF1F5E
S1130BD0EE0FFF1FEE0FFF1FE80FF91FEC56F94F42
S1130BE04581568152834183FC01EE0FFF1FEE0FB6
S1130BF0FF1FEE0FFF1F8E0F9F1FFC01EC56F94FD6
S1130C000180F281E02D868197819093B9068093CB
S1130C10B806209367068091B8069091B9060895A6
S1130C209C0140E050E060E271EA87E090E00E94BD
S1130C30B3092150310930BD29B988E08AB986E861
S1130C4080BD08955D9BFECF8CB90895CF93DF934B
S1130C50EC018881882331F021960E942206899133
S1130C608111FBCFDF91CF910895CF93C82F89E6EF
S1130C7090E00E949E078F709C2F907F682F692BB5
S1130C8089E690E00E94970760E085E690E00E9484
S1130C90B50761E085E690E00E94A507000061E0E9
S1130CA085E690E00E94B50782E48A95F1F700C0DA
S1130CB089E690E00E949E078F7090E1C99F9001A1
S1130CC01124682F622B89E690E00E94970761E067
S1130CD085E690E00E94A507000061E085E690E0CB
S1130CE00E94B50783EF91E00197F1F700C000007F
S1130CF0CF91089560EF89E690E00E94920763E047
S1130D0085E690E00E94920787E893E10197F1F766
S1130D1000C0000082E00E94350688E20E94350689
S1130D208CE00E94350686E00E94350681E00E9430
S1130D30350683EF91E00197F1F700C000000895B4
S1130D400F931F93CF93DF93CDB7DEB7A0970FB662
S1130D50F894DEBF0FBECDBF8091BC069091BD0656
S1130D6001969093BD068093BC062091BA063091FB
S1130D70BB062817390721F51092BD061092BC0650
S1130D8080E090E00E944F07182F092F0E948007EF
S1130D900F931F9382E790E09F938F931F9280E2BB
S1130DA08F938E010F5F1F4F1F930F930E94D809DB
S1130DB0C8010E9426060FB6F894DEBF0FBECDBF51
S1130DC0A0960FB6F894DEBF0FBECDBFDF91CF91D2
S1130DD01F910F9108950E94C60780EA96E00E9431
S1130DE0D50708950E94D107089522E330E040E03A
S1130DF050E00E9491093093BB062093BA060895EF
S1130E0096B1987F96B98031B9F038F4843071F096
S1130E10883071F08230F1F407C0803499F0803862
S1130E20A9F08032B9F40AC0309A0895319A08952D
S1130E3086B1836086B90895329A089586B1856033
S1130E4086B9089586B1866086B9089586B18760AB
S1130E5086B9089586B1887F86B9089597B19F733E
S1130E6097B93E9A811104C087B18F7387B90895E9
S1130E70813011F43E9A0895833021F487B1806C57
S1130E8087B908953E9A0895CF93C62F379A0E9442
S1130E9000078C2F0E942E073D98CF910895E82FCC
S1130EA087B1807E87B98E2F90E088309105F8F461
S1130EB0FC01E65DFF4F0C94D20987B1807E87B9AF
S1130EC019C0389A17C0399A15C087B1836087B999
S1130ED011C03A9A0FC087B1856087B90BC087B13A
S1130EE0866087B907C087B1876087B903C087B1B7
S1130EF0807E87B9369A349BFECF84B195B108952C
S1130F00BC0180E090E00E94960820E030EC4FE7BE
S1130F1054E40E94240820E030E040EA50E40E94B7
S1130F2024090895DC01ED91FC9160830895DC01AE
S1130F301296ED91FC91139760830895DC0112964B
S1130F40ED91FC91139780810895DC011296ED9147
S1130F50FC911397208181E090E002C0880F991FD3
S1130F606A95E2F7822B80830895DC011296ED9155
S1130F70FC911397208181E090E002C0880F991FB3
S1130F806A95E2F780958223808308951FBC88E0E8
S1130F908EBD89E698E19BBD8ABD80E189BF7894C6
S1130FA008958EB583608EBD0895009721F09093C7
S1130FB0BF068093BE0608951F920F920FB60F923C
S1130FC011242F933F934F935F936F937F938F934A
S1130FD09F93AF93BF93EF93FF93E091BE06F0917D
S1130FE0BF06309709F00995FF91EF91BF91AF913A
S1130FF09F918F917F916F915F914F913F912F912D
S11310000F900FBE0F901F9018950E947A0660E013
S113101080E80E94440780E895E20E9410060E943E
S1131020EB060E94F20682E390E00E94F5060E941D
S1131030490361E081E690E00E94920761E081E665
S113104090E00E949707F5CF0E9438080C94EA08B4
S11310500E94E30858F00E94DC0840F029F45F3F46
S113106029F00C94D30851110C941E090C94D9083E
S11310700E94FB0868F39923B1F3552391F3951B60
S1131080550BBB27AA2762177307840738F09F5FA5
S11310905F4F220F331F441FAA1FA9F335D00E2E12
S11310A03AF0E0E832D091505040E695001CCAF77F
S11310B02BD0FE2F29D0660F771F881FBB1F261742
S11310C037074807AB07B0E809F0BB0B802DBF0119
S11310D0FF2793585F4F3AF09E3F510578F00C94E8
S11310E0D3080C941E095F3FE4F3983ED4F386952D
S11310F077956795B795F7959F5FC9F7880F911D09
S11311009695879597F90895E1E0660F771F881FF4
S1131110BB1F621773078407BA0720F0621B730BA7
S1131120840BBA0BEE1F88F7E0950895E89409C084
S113113097FB3EF490958095709561957F4F8F4F06
S11311409F4F9923A9F0F92F96E9BB279395F6951C
S1131150879577956795B795F111F8CFFAF4BB0F9A
S113116011F460FF1BC06F5F7F4F8F4F9F4F16C0FE
S1131170882311F096E911C0772321F09EE8872F88
S1131180762F05C0662371F096E8862F70E060E044
S11311902AF09A95660F771F881FDAF7880F9695BD
S11311A0879597F9089597F99F6780E870E060E064
S11311B008959FEF80EC089500240A9416161706EC
S11311C018060906089500240A9412161306140634
S11311D005060895092E0394000C11F4882352F097
S11311E0BB0F40F4BF2B11F460FF04C06F5F7F4F4F
S11311F08F4F9F4F089557FD9058440F551F59F036
S11312005F3F71F04795880F97FB991F61F09F3FEF
S113121079F087950895121613061406551FF2CF18
S11312204695F1DF08C0161617061806991FF1CF68
S113123086957105610508940895E894BB2766278F
S11312407727CB0197F908950E9437090C94EA088F
S11312500E94DC0838F00E94E30820F0952311F086
S11312600C94D3080C94D90811240C941E090E94E0
S1131270FB0870F3959FC1F3950F50E0551F629FD3
S1131280F001729FBB27F00DB11D639FAA27F00DDB
S1131290B11DAA1F649F6627B00DA11D661F829F02
S11312A02227B00DA11D621F739FB00DA11D621FE7
S11312B0839FA00D611D221F749F3327A00D611D04
S11312C0231F849F600D211D822F762F6A2F1124E6
S11312D09F5750409AF0F1F088234AF0EE0FFF1F19
S11312E0BB1F661F771F881F91505040A9F79E3F70
S11312F0510580F00C94D3080C941E095F3FE4F36D
S1131300983ED4F3869577956795B795F795E795C5
S11313109F5FC1F7FE2B880F911D9695879597F9CE
S11313200895A1E21A2EAA1BBB1BFD010DC0AA1F22
S1131330BB1FEE1FFF1FA217B307E407F50720F03A
S1131340A21BB30BE40BF50B661F771F881F991FB5
S11313501A9469F760957095809590959B01AC01FE
S1131360BD01CF010895052E97FB1EF400940E9441
S1131370CA0957FD07D00E94910907FC03D04EF417
S11313800C94CA0950954095309521953F4F4F4F85
S11313905F4F089590958095709561957F4F8F4F1D
S11313A09F4F0895EE0FFF1F0590F491E02D0994CF
S11313B0AEE0B0E0EEEDF9E00C94A70C0D891E89C7
S11313C08F89988D26E02C831A83098397FF02C0A6
S11313D080E090E801979E838D83AE01455E5F4F68
S11313E0698D7A8DCE0101960E94080A4D815E8135
S11313F057FD0AC02F813885421753070CF49A0110
S1131400F801E20FF31F10822E96E4E00C94C30C53
S1131410ABE0B0E0EEE0FAE00C94990C6C017B01D7
S11314208A01FC0117821682838181FFCCC1CE011F
S113143001963C01F6019381F70193FD859193FF99
S113144081917F01882309F4BAC1853239F493FD6F
S1131450859193FF81917F01853229F4B60190E053
S11314600E94FF0BE7CF912C212C312CFFE1F315C7
S1131470D8F08B3279F038F4803279F08332A1F4E9
S1131480232D20611DC08D3261F0803369F4232D3A
S1131490216016C0832D8260382EE32DE4603E2E39
S11314A02AC0F32DF8601DC037FC2DC020ED280F95
S11314B02A3040F08E32B9F436FC81C1232D2064E9
S11314C0322E19C036FE06C08AE0989E200D1124E3
S11314D0922E11C0EAE02E9E200D1124222EF32D0F
S11314E0F0623F2E08C08C3621F4832D8068382E9C
S11314F002C0883641F4F70193FD859193FF8191F1
S11315007F018111B3CF982F9F7D9554933028F498
S11315100C5F1F4F9FE399830DC0833631F08337EF
S113152071F0833509F059C021C0F80180818983A5
S11315300E5F1F4F88248394912C530113C02801FC
S1131540F2E04F0E511CF801A080B18036FE03C0BA
S1131550692D70E002C06FEF7FEFC5010E94F40BAC
S11315604C018201F32DFF773F2E16C0280122E0A3
S1131570420E511CF801A080B18036FE03C0692DD3
S113158070E002C06FEF7FEFC5010E94E90B4C01D0
S1131590F32DF0683F2E820133FC1BC0822D90E0B6
S11315A088169906B0F4B60180E290E00E94FF0B21
S11315B02A94F4CFF50137FC859137FE81915F01C0
S11315C0B60190E00E94FF0B21102A9421E0821AB8
S11315D091088114910471F7E8C0843611F08936BA
S11315E041F5F80137FE07C06081718182819381E2
S11315F00C5F1F4F08C060817181072E000C880B9F
S1131600990B0E5F1F4FF32DFF763F2E97FF09C0F6
S113161090958095709561957F4F8F4F9F4FF0689F
S11316203F2E2AE030E0A3010E943B0C882E86184E
S113163045C0853731F4232D2F7EB22E2AE030E0C9
S113164025C0932D997FB92E8F36C1F018F48835B3
S113165079F0B5C0803719F0883721F0B0C0E92F90
S1131660E061BE2EB4FE0DC0FB2DF460BF2E09C098
S113167034FE0AC0292F2660B22E06C028E030E0CE
S113168005C020E130E002C020E132E0F801B7FEFD
S113169007C060817181828193810C5F1F4F06C0F6
S11316A06081718180E090E00E5F1F4FA3010E9472
S11316B03B0C882E8618FB2DFF773F2E36FE0DC07F
S11316C0232D2E7FA22E891458F434FE0BC032FC35
S11316D009C0832D8E7EA82E05C0B82CA32C03C070
S11316E0B82C01C0B92CA4FE0FC0FE01E80DF11DF9
S11316F08081803321F49A2D997EA92E09C0A2FEFF
S113170006C0B394B39404C08A2D867809F0B394C8
S1131710A3FC11C0A0FE06C0B21488F4280C922CBD
S11317209B180EC0B21460F4B60180E290E00E94EF
S1131730FF0BB394F7CFB21418F42B1802C0982CF3
S1131740212CA4FE10C0B60180E390E00E94FF0BA0
S1131750A2FE17C0A1FC03C088E790E002C088E5A0
S113176090E0B6010CC08A2D867859F0A1FE02C023
S11317708BE201C080E2A7FC8DE2B60190E00E94FA
S1131780FF0B891438F4B60180E390E00E94FF0B4C
S11317909A94F7CF8A94F301E80DF11D8081B60184
S11317A090E00E94FF0B8110F5CF222009F442CE75
S11317B0B60180E290E00E94FF0B2A94F6CFF60176
S11317C08681978102C08FEF9FEF2B96E2E10C9404
S11317D0B50CFC010590615070400110D8F780955C
S11317E090958E0F9F1F0895FC01615070400190E9
S11317F00110D8F7809590958E0F9F1F08950F9331
S11318001F93CF93DF93FB01238121FD03C08FEF4F
S11318109FEF2CC022FF16C0468157812481358159
S11318204217530744F4A081B1819D012F5F3F4FBC
S1131830318320838C93268137812F5F3F4F3783F9
S1131840268314C08B01EC01FB010084F185E02D9B
S11318500995892BE1F6D80116968D919C911797DD
S1131860019617969C938E931697CE01DF91CF9194
S11318701F910F910895FA01AA27283051F12031C0
S113188081F1E8946F936E7F6E5F7F4F8F4F9F4F10
S1131890AF4FB1E03ED0B4E03CD0670F781F891F52
S11318A09A1FA11D680F791F8A1F911DA11D6A0F20
S11318B0711D811D911DA11D20D009F468943F91D3
S11318C02AE0269F11243019305D3193DEF6CF01D2
S11318D00895462F4770405D4193B3E00FD0C9F798
S11318E0F6CF462F4F70405D4A3318F0495D31FD05
S11318F04052419302D0A9F7EACFB4E0A695979558
S1131900879577956795BA95C9F70097610571052D
S113191008959B01AC010A2E069457954795379577
S11319202795BA95C9F7620F731F841F951FA01DD1
S113193008952F923F924F925F926F927F928F926F
S11319409F92AF92BF92CF92DF92EF92FF920F934A
S11319501F93CF93DF93CDB7DEB7CA1BDB0B0FB654
S1131960F894DEBF0FBECDBF09942A883988488811
S11319705F846E847D848C849B84AA84B984C884A7
S1131980DF80EE80FD800C811B81AA81B981CE0F9E
S1131990D11D0FB6F894DEBF0FBECDBFED01089583
S10719A0F894FFCFE5
S11319A40334003500370038003700380049444C0C
S10F19B445004144433A2025640A000029
S9030000FC
